:020000040800F2
:10000000100700200D020008B32A0008652300082D
:10001000B12A00084D030008D93200080000000092
:10002000000000000000000000000000412B00085C
:100030000D04000800000000B52A0008432B00084A
:1000400027020008270200082702000827020008EC
:1000500027020008270200082702000827020008DC
:1000600027020008270200082702000827020008CC
:1000700027020008270200082702000827020008BC
:1000800027020008270200082702000827020008AC
:10009000270200082702000827020008270200089C
:1000A000270200082702000827020008270200088C
:1000B00027020008492C0008270200082702000830
:1000C000270200082702000827020008270200086C
:1000D00027020008B932000827020008270200089A
:1000E000270200082702000827020008270200084C
:1000F000270200082702000827020008270200083C
:10010000270200082702000827020008270200082B
:10011000270200082702000827020008270200081B
:1001200027020008270200085103000827020008E0
:1001300027020008270200082702000827020008FB
:1001400027020008270200082702000827020008EB
:1001500027020008270200085D03000827020008A4
:1001600027020008270200082702000827020008CB
:1001700027020008270200082702000800000000EC
:1001800027020008270200082702000827020008AB
:10019000270200082702000827020008270200089B
:1001A000270200082702000827020008270200088B
:1001B000270200082702000827020008270200087B
:1001C000270200082702000800000000270200089C
:1001D000270200082702000827020008270200085B
:1001E000270200082702000827020008270200084B
:1001F0002702000827020008DFF80CD000F094F86E
:10020000004800476933000810070020064880476F
:1002100006480047FEE7FEE7FEE7FEE7FEE7FEE7EB
:10022000FEE7FEE7FEE7FEE7F52B0008F901000810
:100230002DE9F05F0546002092469B46884606461B
:10024000814640241BE0284641464746224600F0AE
:100250005AF853465A46C01A914110D311461846CF
:10026000224600F041F82D1A67EB01084F4622465E
:100270000120002100F038F817EB00094E41201E44
:10028000A4F10104DFDC484631462A464346BDE876
:10029000F09F40EA01039B0703D009E008C9121F41
:1002A00008C0042AFAD203E011F8013B00F8013B30
:1002B000521EF9D27047D2B201E000F8012B491E5C
:1002C000FBD270470022F6E710B513460A460446F3
:1002D0001946FFF7F0FF204610BD421C10F8011B25
:1002E0000029FBD1801A7047202A04DB203A00FA4B
:1002F00002F1002070479140C2F1200320FA03F37D
:10030000194390407047202A04DB203A21FA02F07A
:100310000021704721FA02F3D040C2F1200291403F
:100320000843194670470000064C074D06E0E06898
:1003300040F0010394E8070098471034AC42F6D32C
:10034000FFF75EFF98340008B8340008FEE70000AD
:10035000014800F033B900004C020020014800F0D1
:100360002DB90000AC02002001681823CAB2103A6F
:10037000B2FBF3F2054B6FF30901032A9B5CC365E3
:1003800000D9091D816508467047000078340008CF
:1003900010B583694FF0C074826A0146002053B1E2
:1003A000B3F5005F15D072B1012A0CD0022A0AD031
:1003B000032A09D104E01AB1012A06D0022A03D186
:1003C000C96AC90100D5012010BDC96AA142FAD08D
:1003D00010BD002AF7D0012AF2D0022AF3D0032A56
:1003E000F3D010BD30B50468256825F4802525605C
:1003F000046863608368402B036803D099600068D9
:10040000C26030BD9A600068C16030BD70477047FF
:10041000F0B5D1E90125D1E90343D1E905762A43B5
:10042000D1F800C044EA0304D1E9073542EA0402E6
:10043000496A42EA0702BCF1010F42EA060208D00B
:1004400004681A432A430A43E30BDB031A4302609E
:100450000BE0066844682B4326F4F84529430B4318
:1004600003606FF30E04224342600020F0BD426936
:1004700042EA410141610020704738B591E81C0013
:10048000C9686FF01F051A4305EB441444EA412183
:100490000A4300920261002038BD00002DE9F043BC
:1004A000914691E81C006FF00F05521E2E0105EBDE
:1004B00003131A430B7E06EB04268C8A2F034FEAA4
:1004C000054C0D8A32434FF07F4808EB0366CB683A
:1004D000B9F1010F07EB05450CEB04540CD0816812
:1004E0003F1107EB03331A432A432243324301F0FF
:1004F00070410A43826011E08168DFF828C0C76854
:100500001B03A3F5805323432A4301EA0C01324322
:100510000B43836007F070442243C2600020BDE8B3
:10052000F0830000FF0F0FFF002010B501F01CFF4B
:1005300001280AD002280AD003280AD004280AD1A8
:1005400005A0BDE8104002F0C9BE07A0F9E70AA067
:10055000F7E70DA0F5E710BD776B5F757020697345
:1005600020706173730D0A006B6579302069732008
:10057000706173730D0A00006B6579312069732017
:10058000706173730D0A00006B6579322069732006
:10059000706173730D0A000090F83510022903D0C2
:1005A0008021416501207047052180F835100068E1
:1005B000016821F001010160002070472DE9F84336
:1005C00004464FF00009644B0820CDF800904FF42A
:1005D0001652A56D94F85C101B682E68B3FBF2F7F9
:1005E00000FA01F131420FD021680A6852070BD599
:1005F0000A6822F004020A6094F85C108840A8603F
:10060000606D40F00100606594F85C104FF00108E7
:1006100008FA01F0304208D021684969090604D57A
:10062000A860606D40F00200606594F85C100420E2
:100630008840304208D021680968890704D5A8603D
:10064000606D40F00400606594F85C1010208840F4
:10065000304218D021680968090714D5A8602068BD
:100660000168490304D50068000308D5A16C07E0C0
:100670000168C90503D4016821F008010160216CFB
:1006800009B12046884794F85C1020208840304209
:1006900031D021680968C9062DD5A86094F83500C5
:1006A00005282068016806D0490347D50068000383
:1006B0001DD4616C1CE021F01601016020684169C5
:1006C00021F080014161206C08B9A06C20B1206844
:1006D000016821F00801016094F85C303F229A40E3
:1006E000AA6084F8349084F83580216D1FE0E16BB6
:1006F00009B120468847606D00282BD0606DC00787
:1007000014D0052084F835002068016821F001012B
:1007100001600098401C0090B84203D8206800682F
:10072000C007F6D184F8349084F83580E16C002954
:1007300010D001B02046BDE8F04308470168C90564
:10074000D5D4036823F01003036084F8349084F850
:100750003580CCE7BDE8F883240000202DE9F04780
:10076000044600F007FA054664B14FF0000984F82A
:100770003490022184F835102068016821F00101CD
:1007800001600EE00120BDE8F08700BF00F0F2F943
:10079000401B052805D920216165032084F8350018
:1007A000F1E720680068C007F0D1D4E90020D4E95F
:1007B0000251D4E9043C284304F1180519430843C5
:1007C000116895E8E00140EA0C001C4B28431940F1
:1007D00040EA060040EA0700B8F1040F40EA0100D1
:1007E00003D1D4E90B131943084310602068012694
:1007F000656A4069042D20F0070045EA00050CD128
:10080000D4E90A01054341B12046FFF7C1FD20B1FB
:100810004020606584F83560B4E720684561204673
:10082000FFF7A2FD94F85C303F229A408260C4F842
:10083000549084F835600020A5E700003F8010E068
:100840002DE9F041044690F8340000250128A66DFA
:100850000ED094F835C00127002084F83470BCF124
:10086000010F07D0022584F834002846BDE8F08146
:100870000220FBE7022784F8357060652046FFF709
:10088000B1FD94F85C103F208840B060206801689A
:1008900041F0160101602068416941F08001416129
:1008A000206C20B12068016841F0080101602068D7
:1008B000016841F001010160D7E7000070B504460E
:1008C00000F058F90546601C02D004480078044442
:1008D00000F050F9401BA042FAD370BD1800002070
:1008E0001E48F0B5016887B0002935D101210160AB
:1008F0001B48016841F001010160006802240025E5
:10090000694600F00100059003264FF63F000C27D2
:100910008DE8F100134800F02FF80D2069468DE8AE
:10092000F100114800F028F848F2371069468DE8C8
:10093000F1000E4800F020F84FF6807069468DE80F
:10094000F1000B4800F018F84CF2037069468DE88E
:10095000F100084800F010F807B0F0BD04000020D6
:1009600038380240001402400008024000180240DB
:1009700000100240000C02402DE9F84FDFF89CE126
:1009800000224FF001084FF0030B4FF00F0A00BF99
:100990000B6808FA02F42340A34271D14D68022D7E
:1009A00001D0122D0FD1D5080E69570700EB850530
:1009B000A9462D6AFF0E0AFA07FCBE4025EA0C057F
:1009C0002E43C9F820600F79550006680BFA05FC24
:1009D00007F0030726EA0C06AF40374307604E686E
:1009E000012E05D0022E03D0112E01D0122E0ED1D1
:1009F0008668CF6826EA0C06AF40374387604668B2
:100A00000F79A643C7F30017974037434760C46880
:100A10008E6824EA0C04AE402643C6604C68E400AD
:100A200075D53F4C256845F480452560246822F043
:100A30000306950704F4804400943A4C2D0F264495
:100A4000D6F80848DFF8E0C00AFA05F7604524EA5E
:100A5000070401D100272EE0344FB84201D101270D
:100A600029E0334FB84201D1022724E0314FB84288
:100A700001D103271FE0304FB84202D104271AE00A
:100A800045E02E4FB84201D1052714E02C4FB84263
:100A900001D106270FE02B4FB84201D107270AE00A
:100AA000294FB84201D1082705E0284FB84201D1AB
:100AB000092700E00A27AF4027437546C6F80878A3
:100AC0004E68DEF80040F60324EA030400D51C4318
:100AD000124E2C60361D4D683468AD0324EA0304C1
:100AE00000D51C430D4F346008374D683C68ED025B
:100AF00024EA030400D51C43084D3C600C354E68C5
:100B00002C68B60224EA030400D51C432C60521C56
:100B1000102AFFF43DAFBDE8F88F0000003C014013
:100B2000443802400030014000000240000402400E
:100B300000080240000C0240001002400014024075
:100B400000180240001C0240002002400024024025
:100B50000069084000D001207047426931EA020272
:100B600000D10904816170470AB1816170470904AD
:100B7000FBE7000001488068704700001800002073
:100B80000248816802781144816070471800002093
:100B9000094810B5016841F400710160016841F431
:100BA00080710160032000F0E1F9002000F006F8F8
:100BB00000F096F9002010BD003C024070B50D4DCC
:100BC00004464FF47A700C4A29781268B0FBF1F0B1
:100BD000B2FBF0F000F082FF48B9102C07D20022DF
:100BE0002146501E00F0A2F900206C6070BD01206B
:100BF00070BD000018000020240000202DE9F04105
:100C0000044690F8A00016460F4601281DD0012585
:100C100084F8A050022084F8A10006EB860000EBC7
:100C2000C600342204EB80003830FFF732FB324636
:100C30003946204601F0C2FC216800204D6284F84C
:100C4000A15084F8A000BDE8F0810220FBE700007D
:100C50002DE9F041040004D094F8A100002518B15A
:100C600007E00120BDE8F081204684F8A05000F0A4
:100C70006BF83448022184F8A110012202CC8B6960
:100C800023F070438B6194E84A001943E3681E43E4
:100C900054F8043D31439E693143996121688B6862
:100CA00003408B602168A68AA7698B683B4343EAAF
:100CB00006438B602168CB680340CB602168A38B1F
:100CC000276ACE683E4346EA0346CE6021680B6938
:100CD00003400B612368A68CA76A1969394341EA6E
:100CE0000641196121684B6903404B612068A38D5F
:100CF000266B4169314341EA03414161236894F81D
:100D0000351094F83600DE6A000406F07F46DE6295
:100D1000236840EA012094F83460D96A31430143E2
:100D2000D9622068416B41F0060141632068816906
:100D300041F001018161C4F8A45084F8A120002091
:100D400090E7000000F800F0F0B587B004461421E9
:100D50006846FFF7B7FA3149206888425CD13048CD
:100D6000016841F080610160006800F080600590DA
:100D70002B481438016841F480710160016801F466
:100D800080710591016841F020010160016801F066
:100D900020010591016841F001010160016801F045
:100DA00001010591016841F080010160016801F0D5
:100DB00080010591016841F0400101600068022452
:100DC0000025694600F040000590032640F2F760D8
:100DD0000E278DE8F1001348FFF7CEFD600269464B
:100DE0008DE8F1001048FFF7C7FD202069468DE827
:100DF000F1000E48FFF7C0FD4FF47A4069468DE8D8
:100E0000F1000B48FFF7B8FD4FF40C6069468DE820
:100E1000F1000848FFF7B0FD07B0F0BD00680140E1
:100E2000443802400020024000140240000002400A
:100E3000001C02400018024070B5044690F8A00063
:100E40000E46012820D003EB830000EBC3010125EF
:100E500084F8A050022084F8A10004EB81018E6385
:100E6000086E3044C1E90F02486E104448643831BE
:100E70001A46204601F0A2FB216800204D6284F84A
:100E8000A15084F8A00070BD022070BD70B504466A
:100E900090F8A0000E46012820D003EB830000EB61
:100EA000C301012584F8A050022084F8A10004EBBE
:100EB0008101886B3044C863086C10444864C1E900
:100EC000186238311A46204601F078FB216800206C
:100ED0004D6284F8A15084F8A00070BD022070BD5E
:100EE0000A4808B5016841F080510160006800F0CF
:100EF000805000900548001D016841F48041016068
:100F0000006800F48040009008BD000040380240B6
:100F1000002809DB410900F01F028900012001F1CE
:100F2000E0219040C1F80001704700000E4BF0B482
:100F30001B680D46C3F30223C3F10706042E00D934
:100F40000426191D072901D2002300E0DB1E01241D
:100F500004FA06F19C40491E2940641E9940144041
:100F60002143F0BC02F0C2B90CED00E0064900F0EC
:100F7000070210B54FF6FF040868044B204040EA12
:100F800002201843086010BD0CED00E00000FA05D7
:100F90001848F8B5016841F0805101600068164CAE
:100FA00000F080500090206840F480302060FFF70F
:100FB000E1FD4FF47A76054605E000BFFFF7DAFD64
:100FC000401BB0420FD86068C003F7D5206840F4DA
:100FD00000302060FFF7CEFD054606E0FFF7CAFDB2
:100FE000401BB04201D90320F8BD60688003F5D5ED
:100FF0000020F8BD40380240007000402DE9F84F55
:1010000004460078DFF824944FF000063746C00706
:101010000ED0D9F8001021F40001C9F80010D9F859
:101020000010626B1143C9F80010606B00B9012613
:10103000FE4D2068843500030ED5E16B286820F44E
:10104000401008432860E06BB0F5801F01D010B15C
:1010500002E0012600E0012720684FF4800BC00267
:101060000CD5216C286820F4400008432860206CCF
:10107000584501D1012601E000B901272068C101CE
:1010800000D50126800666D5E8483830016841F071
:10109000805101600068DFF898A300F08050009054
:1010A000DAF8001041F48071CAF80010FFF762FD11
:1010B000804605E0FFF75EFDA0EB080064287DD8C0
:1010C000DAF80000C005F5D5DFF8608308F168089C
:1010D000D8F8000010F440702AD0218E01F440713D
:1010E000814225D0D8F80010D8F8002021F44071B2
:1010F00042F48032C8F80020D8F8002022F4803270
:10110000C8F80020C8F80010D8F80000C0070FD0B9
:10111000FFF730FD824607E0FFF72CFDA0EB0A0148
:1011200041F288308142CAD8D8F800008007F3D550
:10113000206BC0F3012103297ED0D9F8001021F4DF
:10114000F811C9F80010228ED8F80010C2F30B0273
:101150001143C8F800102078C00607D5286820F091
:10116000807028602868A16B084328602188AF48F8
:101170008830490405D5626E016821F4403111437D
:1011800001602188090405D5A26E016821F440217F
:10119000114301602168C90305D5E26E016821F49D
:1011A0004011114301602168890305D5226F016850
:1011B00021F4400111430160217800E034E1490647
:1011C00005D5626C016821F00301114301602178AB
:1011D000090605D5A26C016821F00C0111430160DC
:1011E0002188C90505D5E26C016821F03001114361
:1011F00001602188890505D5226D016821F0C001B3
:10120000114301602188490505D5626D016821F40B
:101210004071114301602188090505D5A26D01685F
:1012200021F44061114301602188C90407D5E26DB2
:10123000016821F4405100E05FE011430160218822
:10124000890405D5226E016821F4404111430160F3
:101250002168490205D5A26F016821F08061114320
:10126000016021684FF0006A890209D5E26F0168C8
:1012700021F0006111430160E16F514500D1012768
:1012800021680A0700D50127490305D5626F016867
:1012900021F04071114301602168090206D5D4F89C
:1012A0008020016821F080511143016021684901CB
:1012B00006D5D4F88420016821F000511143016063
:1012C0002068000106D5D4F88810286820F0007046
:1012D000084328602068C00006D5D4F88C10286820
:1012E00020F0806008432860DFF84891012E0ED07E
:1012F0002068B0F1007F0AD08FE04F4AD9F8003063
:10130000104023F4F8120243C9F800201BE7D9F873
:1013100000004E4620F08060C9F80000FFF72AFC6C
:10132000804605E0FFF726FCA0EB080064287BD888
:1013300030680001F6D421783C487C30C90712D0CF
:10134000616B81B9237A62680168D0F800C09201AC
:10135000C1F3014142EA0142CCF3036142EA016177
:1013600041EA0371016021680A0303D5E26BB2F51B
:10137000801F04D0C9021AD5216C594517D1636862
:10138000016894F80CC002689B01C1F3014143EA73
:101390000141C2F3027241EA0C6141EA027101604B
:1013A0002968626A21F01F01521E114329602168D9
:1013B000C90110D5238A62680168D0F800C0920183
:1013C000C1F3036142EA034242EA0162CCF30271D3
:1013D00042EA01710160216889010CD56168228AA5
:1013E000237B94F808C0890141EA024141EA036184
:1013F00041EA0C7101603168B04641F080613160B2
:10140000FFF7B8FB064604E0FFF7B4FB801B642837
:101410000AD8D8F800000001F6D5E7B3D9F80000E3
:101420004E4620F0805009E07BE000000838024082
:101430000070004000380240FFFCFF0FC9F80000B8
:10144000FFF798FB074604E0FFF794FBC01B6428F6
:1014500067D83068C0438000F6D5216835480A0354
:1014600001D5E26B1AB1C9021DD5216CD9B96369E6
:101470000168277E02689B01C1F3014143EA0143F1
:10148000C2F3027143EA076242EA0171016029680E
:101490006FF0FF0300E04BE0A26A21F4F85103EB88
:1014A0000222114329602168890212D5E16F51455A
:1014B0000FD1238C6269016807689201C1F303614F
:1014C00042EA034242EA0162C7F3027142EA017151
:1014D00001602178090716D561690268D0F800C05B
:1014E0008B01277FC2F30362CCF3014143EA014140
:1014F00041EA026141EA077101602868E16A20F46B
:10150000403008432860306840F080503060FFF77A
:1015100031FB044608E000BFFFF72CFB001B6428EA
:1015200002D90320BDE8F88F3068C0438000F3D4AF
:101530000020F7E7883802402DE9F04705000F4604
:1015400063D0444E306800F00F00B84209D23068D2
:1015500020F00F0038433060306800F00F00B842D0
:1015600053D128683C4C810712D5400703D5206829
:1015700040F4E05020602878000703D5206840F44C
:1015800060402060A968206820F0F00008432060D7
:101590002878C0072AD0304968680839012810D057
:1015A0000968022810D0890700292EDA216821F065
:1015B000030101432160FFF7DDFA804641F28839DB
:1015C0000DE009688903EFE78901EDE7FFF7D2FA3B
:1015D000A0EB0801494502D90320BDE8F0876868FF
:1015E000216801F00C01B1EB800FEFD1306800F001
:1015F0000F00B8420BD9306820F00F00384330603C
:10160000306800F00F00B84201D00120E5E72878EB
:10161000400705D5E968206820F4E05008432060C1
:101620002878000706D52869216821F4604141EA3D
:10163000C000206000F036F82168084AC1F30311A9
:10164000515CC840064908600020FFF7B7FA002047
:10165000C3E70000003C0240083802408034000824
:10166000240000200449054809680068044AC1F3C1
:101670008221515CC8407047083802402400002095
:10168000903400080449054809680068044AC1F319
:101690004231515CC84070470838024024000020A5
:1016A00090340008154910B51548096811F00C026E
:1016B00013D01449042A0FD0082A0ED10F4C241F2E
:1016C0002268236802F03F025B0207D52068C0F35E
:1016D0008810A0FB010106E0084610BD2168C1F397
:1016E0008811A1FB00010023FEF7A2FD2168C1F3D0
:1016F0000141491C4900B0FBF1F010BD083802401F
:101700000024F40040787D012DE9F84F05004FF0EA
:1017100000076ED02878DFF82093A9F1040AC007EB
:10172000AAF104044CD0D9F800104846C1F3810155
:10173000012908D00068C0F3810002280AD1DAF834
:101740000000400206D52068800339D5686800286B
:10175000DFD035E06868B0F5803F0BD010B1B0F550
:10176000A02F11D0206820F480302060206820F461
:10177000802002E0206840F480302060686890B1EA
:10178000FFF7F8F906460AE0206840F48020206060
:10179000F0E700BFFFF7EEF9801B642872D82068DD
:1017A0008003F7D50CE0FFF7E5F9064605E000BF3A
:1017B000FFF7E0F9801B6428F0D820688003F7D495
:1017C0002878800742D5D9F80010484611F00C0F50
:1017D00008D00068C0F3810002280BD1DAF80000BD
:1017E000400207D42068800718D5E868012800D196
:1017F00014E01EE1E8680028206817D040F00100DE
:101800002060FFF7B7F9064605E000BFFFF7B2F921
:10181000801B0228C2D820688007F7D52869216874
:1018200021F0F80141EAC00020600FE020F0010043
:101830002060FFF79FF9064605E000BFFFF79AF921
:10184000801B02281ED820688007F7D4287800075C
:1018500029D5794869696C3000298046016812D021
:1018600041F001010160FFF785F9064605E000BF80
:10187000FFF780F9801B022804D8D8F80000800701
:10188000F6D510E089E021F001010160FFF772F95F
:10189000064604E0FFF76EF9801B02287DD8D8F8D1
:1018A00000008007F6D4287840076BD5DFF88881E0
:1018B00008F13808D8F80000C0000BD4D8F80010A0
:1018C00041F08051C8F80010D8F80000012700F05E
:1018D0008050009059480168C90512D401688346B8
:1018E00041F480710160FFF745F9064605E000BF4D
:1018F000FFF740F9801B64284FD8DBF80000C005D3
:10190000F6D54D4EA868683601280AD008B10528DA
:1019100011D0306820F001003060306820F0040001
:1019200002E0306840F001003060A868A0B1FFF725
:1019300021F983460CE0306840F004003060F0E7A5
:10194000FFF718F9A0EB0B0141F28830814268D80B
:1019500030688007F4D50EE0FFF70CF9834607E006
:10196000FFF708F9A0EB0B0141F28830814258D80B
:1019700030688007F4D42FB1D8F8001021F08051DE
:10198000C8F80010A869E0B3D9F80010C1F38101CC
:1019900002294ED00228206800E042E020F080704A
:1019A000206003D0FFF7E6F805463DE0FFF7E2F8D8
:1019B000064604E0FFF7DEF8801B022831D82068D5
:1019C0008001F7D4D5E90921DFF874C0D5E907060D
:1019D00095F830304F0895F82C1030430CEB074544
:1019E00045EA8212104340EA016040EA0370CAF8F7
:1019F0000000206840F080702060FFF7BBF80546CB
:101A000005E014E0FFF7B6F8401B022809D820686B
:101A10008001F7D50BE000BFFFF7ACF8401B0228B0
:101A200002D90320BDE8F88F20688001F4D400209B
:101A3000F8E70120F6E70000083802400070004097
:101A40000000FFFF70B504000D4603D094F82C0091
:101A500010B107E0012070BD002084F82D00204661
:101A600000F011F8022084F82C002068211DFEF7F8
:101A7000CFFCD4E900022946FEF710FD012084F8CE
:101A80002C00002070BDFEF72BBF10B5044690F867
:101A90002C00022809D0022084F82C002068FEF7D0
:101AA000E6FC012084F82C00002010BD70B504462F
:101AB00090F82C000D4602280DD0022084F82C004E
:101AC0002068FEF7DAFC2868022805D05FF00100E4
:101AD00084F82C00002070BD0520F9E7401EB0F10D
:101AE000807F10B501D3012010BD4FF0E02460616C
:101AF0000F21601701F0FAFB0020A061072121618E
:101B000010BD70477047704770B590F83C20012AAF
:101B100024D0134C012580F83C50022280F83D204F
:101B200002685368A242966802D00E4CA24203D1CA
:101B30004C6823F4700323430C6823F07003896816
:101B40001C435460002326F08006026831439160F4
:101B500080F83D5080F83C30184670BD022070BDC2
:101B6000000001400004014010B5040003D094F8C7
:101B70003D0010B107E0012010BD002084F83C00BA
:101B8000204600F00DF8022084F83D002068211D59
:101B900001F060F8012084F83D00002010BD000035
:101BA00008B500680B49884212D10B48016841F022
:101BB0000201016000680022114600F0020000905E
:101BC0001D20FFF7B3F9BDE808401D20FFF7A0B9BD
:101BD00008BD000000040040403802400168094A86
:101BE000CB6843F00103CB60016888681040062889
:101BF00006D0B0F5803F03D0086840F001000860CF
:101C0000002070470700010070B5044690F83C00C2
:101C1000012817D0324B012584F83C50022084F86B
:101C20003D0022689068184020F47F40906008686A
:101C3000502830D00DDC20284DD005DC98B310287A
:101C40003BD148E0022070BD302844D0402834D138
:101C500039E0602828D0702806D0B0F5805F2CD0FD
:101C6000B0F5005F29D10AE04A682068D1E9021383
:101C700001F056F82068816841F0770109E04A6870
:101C80002068D1E9021301F04BF82068816841F423
:101C90008041816011E0CA684968206801F051F80C
:101CA0002068502107E016E0CA684968206801F002
:101CB00059F82068602101F03CF8002084F83D507C
:101CC00084F83C0070BDCA684968206801F039F8A2
:101CD00020684021EFE7226801461046EBE700004C
:101CE00088FFFEFF704770B5044600680025016953
:101CF000C943890715D4C168C943890711D4EA1EAD
:101D0000026101212177206880698007204602D086
:101D1000FFF7E8FF04E000F0A7F8204600F0A5F880
:101D2000257720680169C943490717D4C168C943A9
:101D3000490713D402216FF0040202612177206861
:101D4000806910F4407F204602D0FFF7CBFF04E00B
:101D500000F08AF8204600F088F8257720680169AD
:101D6000C943090716D4C168C943090712D404211D
:101D70006FF00802026121772068C0698007204661
:101D800002D0FFF7AFFF04E000F06EF8204600F04D
:101D90006CF8257720680169C943C90617D4C16862
:101DA000C943C90613D408216FF0100202612177DC
:101DB0002068C06910F4407F204602D0FFF792FFF0
:101DC00004E000F051F8204600F04FF82577206835
:101DD0000169C943C90708D1C168C943C90704D10A
:101DE000891E0161204600F041F820680169C9435D
:101DF000090609D4C168C943090605D46FF08001FA
:101E000001612046FFF77EFE20680169C943C905CC
:101E100009D4C168C943090605D46FF48071016112
:101E20002046FFF76EFE20680169C943490609D4C0
:101E3000C168C943490605D46FF0400101612046DD
:101E400000F02AF820680169C94389060BD4C168EB
:101E5000C943890607D46FF0200101612046BDE81F
:101E60007040FFF750BE70BD7047704710B50068F6
:101E7000074988420AD1074C01212046FEF76DFE32
:101E80002046BDE810400221FEF767BE10BD0000ED
:101E90000004004000040240704770472DE9F04103
:101EA000026804460025D0691168936810F00F0F8E
:101EB0005BD003F0010601F49077374369D0C70780
:101EC00007D0CF0505D501271762E26F42F0010266
:101ED000E267820708D5DA0706D0276802223A624D
:101EE000E26F42F00402E267420708D5DA0706D043
:101EF000236804221A62E26F42F00202E2670207DC
:101F00000AD501F02002324306D0236808221A6263
:101F1000E26F42F00802E267E26F002A32D08006E8
:101F200005D5880603D5216E09B12046884721686A
:101F3000E06F8968490601D4000725D5204600F0E6
:101F4000EEFF20688168490619D5816821F04001BB
:101F50008160E06E98B11A490165E06EFEF71CFBE6
:101F600000280FD0E06E016D06E0830611D58B06C8
:101F70000FD5216E12E02046BDE8F041084720460B
:101F8000FFF78BFFBDE8F0812046FFF786FFE5678E
:101F9000F8E7030605D50B0603D5616E0029EAD1E3
:101FA000F0E74006EED54806ECD513682021204620
:101FB00023F0400313606167656600F0D1F9E1E743
:101FC0008D2E000810B5040002D0606F10B107E03C
:101FD000012010BD002084F87000204600F026F893
:101FE000242060672068016821F00101016020461B
:101FF00001F008F80128ECD0606A10B1204600F02A
:10200000C3FE2068416821F49041416020688168E6
:1020100021F02A0181602068016841F0010101601E
:102020002046BDE8104000F013BF00002DE9F0434A
:1020300087B0074614216846FEF744F92F493868EF
:10204000884258D12E48016841F0100101600068B3
:1020500000F0100005902A481438016841F0010191
:10206000016000680024022100F0010005904FF497
:10207000C06007238DE8130003222248CDE9032323
:102080006946FEF779FC204E4FF480691F4A4FF0F5
:10209000006830463260C6E90184C6E903497461CC
:1020A000B461F46134627462FEF758FB08B1FEF764
:1020B000AEF9154D4023FE666035B76305F10800A3
:1020C000124A783280E818026C612846AC61EC61F3
:1020D0002C626C62C5E90028FEF740FB08B1FEF7F0
:1020E00096F90022BD6625201146AF63FEF71EFF5C
:1020F0002520FEF70DFF07B0BDE8F083001001407A
:1021000044380240000002404C020020406402407B
:1021100070B5836F202B4BD1B9B1B2B190F870304C
:10212000012B45D08368012680F87060002441654A
:1021300035030466AB42A0F85820A0F85A204FF0AF
:10214000FF0107D1026912B126E0012070BD40F203
:10215000FF1121E04FF07F02E3B1B3F1805F1ED0A9
:10216000A0F85C402221C467816701688A6842F058
:1021700001028A608168A94201D10169B1B10D49AA
:10218000016680F870400068016841F49071016058
:10219000002070BD036933B9A0F85C10E2E7016963
:1021A00009B13F21F8E7A0F85C20DBE70249E7E747
:1021B000022070BDA92F00084F2F000830B500681D
:1021C000114988420CD1114841880A0408D40246BA
:1021D0004FF000034C04127806D50A2A01D0438040
:1021E00030BD41F400410DE00D2A09D0084DC1F386
:1021F0000D04491C89B263292A554180EFD830BDAE
:1022000041F48041418030BD0010014014000020A5
:10221000680100202DE9F8430446406F1F4616462A
:102220000D4620284FD1CDB1C6B194F870000128D9
:1022300049D0012284F8702021214FF00008C4F811
:102240007C806167FEF796FC8146A068A4F8506028
:10225000A4F85260B0F5805F03D004E00120BDE82F
:10226000F883206910B12E46002510E000260EE00C
:102270008021204600F0F0FFB8B9C6B116F8010B76
:1022800021688862B4F85200401EA4F85200B4F8E5
:1022900052004B464FF0000200970028E8D14FF063
:1022A0004001204600F0D8FF38B10320D7E735F8C9
:1022B000020B2168C0F30800E3E7202161670020DA
:1022C00084F87080CBE70220C9E7000070B50446AF
:1022D000406F20283BD161B35AB394F870000128B5
:1022E00035D0A4F85020A4F852200025A06E012378
:1022F000E164212184F87030E5676167D8B1154940
:102300001346C163A16E14480864A16E1348C864E3
:10231000A06E05652068A66E00F12802E16C3046CB
:10232000FEF78EFA38B11021E167202084F8705052
:102330006067012070BD21684020086284F87050F9
:102340002068816841F080018160002070BD02201A
:1023500070BD0000E72E0008152F0008A12E000810
:1023600070477047FEE700002DE9F047314C012827
:10237000DFF8C4804FF40057DFF8C0904FF001063B
:102380002F4D1DD02078A0B108212846FEF7E0FB94
:10239000C0B104212846FEF7DBFB98B13946404620
:1023A000FEF7D6FB70B101214846FEF7D1FB0128AC
:1023B00008D008212846FEF7CBFB012826D037E0BD
:1023C0002670E1E70A20FEF779FA00202070082144
:1023D0002846FEF7BDFB80B104212846FEF7B8FB76
:1023E00070B139464046FEF7B3FB58B1012148466B
:1023F000FEF7AEFB012807D01AE00120BDE8F08708
:102400000220FBE70320F9E70420F7E70421284630
:10241000FEF79EFB01280BD139464046FEF798FB9C
:10242000012805D101214846FEF792FB00B926702C
:102430000020E3E700000020000802400000024006
:10244000001C024007490A464875938812889BB2CF
:1024500092B220B1012801D1CA820B837047CB828E
:102460000A8370476000002008B500900548018B82
:10247000C08A491E8BB2401E82B20021084600F07D
:1024800003F808BD60000020F8B5274D0026DDF8F0
:1024900018C06C7D14B10446174606E01F466B68F1
:1024A0000C46991A1B1A491E5B1E2A68381B2F7D81
:1024B000DFF878E002FB0144ED69121A5EF827703C
:1024C000521E05FB047495B2194A176847F40007B9
:1024D00017601268591A4FF4803302F40002009218
:1024E000144A03EB00471068491C394302274FF494
:1024F000403320F001001060136057631564D4630B
:102500005164C2F838C01168380541F0010111600A
:1025100002E0761C864202D251688907F9D590689C
:1025200040F002009060F8BD600000200C00002028
:102530003038024000B0024013484FF48871F8B5BB
:102540004FF4F073C0E90031012202814281282555
:1025500085810824C48105260682022744820C4C0A
:102560000A4AC76122600022027510460091114696
:1025700000F012F80120FFF765FFBDE8F8400122E6
:1025800004482021FEF7F0BA60000020000000C0DF
:102590000C0000200004024070B51E4604460346AD
:1025A0000548049DFEF748FC23462A46314602486A
:1025B000BDE87040FEF76ABC800000202DE9FE4FA8
:1025C00081460068882493468D888C2204EBCB17C3
:1025D0008A46C3689421BE46C459C3F30B432B44B7
:1025E00004F470441F04019702EBCB1240F80E4034
:1025F00001EBCB13DAF800709C214FF0AC0C01EB2F
:10260000CB1440F2077102910CEBCB11D9F800C04A
:1026100098250020CDF800C0A02605EBCB15DCF8EE
:102620000CC006EBCB16CCF30B4C0CF1010C07EBFA
:102630000C08DDF800C0019F48EA07084CF80E803E
:10264000D9F80070BAF80CC0B846FF68C7F30A079B
:1026500067444FEA074E58F8027007F4704C48F888
:1026600002C0D9F800C0DAF80870DCF80C80C8F3B2
:102670000A0808F10108B84448EA0E084CF802803C
:10268000D9F80020D75827F00707D750D9F800709D
:10269000DAF81020FA509AF831209AF818304FEAF8
:1026A000022C9AF83220120442EA0362D9F8003070
:1026B0001F5918519AF8303043EA0C031343D9F8E4
:1026C00000201351D9F80020535923F0FF03535130
:1026D000D9F80020DAF814305351D9F80020935972
:1026E000029CA3439351D9F80030DAE9072422432E
:1026F0009A51D9F8002053585050D9F80020DAF8F0
:1027000024005050DAF81000C8B301283AD0042849
:102710003AD0022838D0032836D0072834D00120F8
:10272000D9F80030B02505EBCB11B42284245D58D4
:1027300002EBCB1205F0E0255D50DAE9003504EB41
:10274000CB14EB1ABAF8285043434543D9F800009C
:10275000DB1C43EA05434350D9F8000081586FF36E
:102760000A018150D9F80000DAF82C108150D9F80C
:102770000000015941F001010151BDE8FE8FFFE762
:102780000420CDE70320CBE70220C9E70D4808B5B8
:10279000016841F48001016000680022114600F4E4
:1027A000800000903A20FEF7C1FB3A20FEF7B0FB14
:1027B000002246201146FEF7B9FBBDE8084046203E
:1027C000FEF7A6BB30380240F0B5174800250822B6
:1027D000144F87B04FF0400E0126C0E9007502216A
:1027E000C0E90262102404610C03C0F814E04FF445
:1027F000C07CC0E906C58F020762CE020623C0E98D
:1028000009648DE80E0004250393CDE90451069177
:102810006946FFF717F9002801D0FDF7F8FD07B06A
:10282000F0BD0000400100A02C0000202DE9F04187
:1028300086B014216846FDF745FD4548016841F022
:1028400004010160016801F004010591016841F48F
:1028500080710160016801F480710591016841F0A7
:1028600020010160016801F020010591016841F03B
:1028700080010160016801F080010591016841F06B
:1028800001010160016801F001010591016841F059
:1028900002010160016801F002010591016841F047
:1028A00040010160016801F040010591016841F0BB
:1028B00010010160016801F010010591016841F00B
:1028C0000801016000680022DFF88880032100F021
:1028D000080005904046FEF747F9012240462021B6
:1028E000FEF742F900256946012402946003CDE910
:1028F00000051948FEF740F8022618488DE87000D8
:102900006946FEF739F80C206946CDE90005144800
:102910000294FEF731F801AA009403276946404665
:1029200082E8B000FEF728F800966946CDE9014537
:1029300040460395FEF720F820206946CDE90004C3
:10294000CDE902474046FEF717F806B0BDE8F08132
:1029500030380240000402400008024000000240FB
:10296000001C0240F0B58DB034216846FDF7AAFC8A
:1029700025480024234B282100F11C0C0822C0E923
:10298000003484604FF40273C4605E1D04614FF430
:102990008C7544614FF4907784618CE8EE0080F888
:1029A000344080F8354080F83640FEF751F908B1E0
:1029B000FDF72DFD4FF4F0704FF488714506CDE919
:1029C0000040CDE90A0107A8022704970723CDE9B3
:1029D00002414FF4C062694680E82C00FF260A4895
:1029E000CDE905648DF8304000228DF831408DF836
:1029F0003240FEF703F9002801D0FDF708FD0DB0C5
:102A0000F0BD0000006801408000002010B588B0D3
:102A100017480024154942F62F2241F287330094CB
:102A200001940294039404940594069480E816009B
:102A3000C0E903348461FFF797F808B1FDF7E7FCBC
:102A40004FF4805000900A486946FFF7DDF808B15E
:102A5000FDF7DDFC064804A904940694FFF754F83A
:102A6000002801D0FDF7D3FC08B010BD00040040E1
:102A7000280100200D48002110B50B4C0C224FF40A
:102A8000E1330460C0E90131C160C0E90412816131
:102A9000C16101624162FFF795FA002803D0BDE8E9
:102AA0001040FDF7B4BC10BD00100140CC01002067
:102AB000FEE77047704700F001B8000000230122D4
:102AC0001846114610B500F01FF80120FDF7F6FE7C
:102AD000002301221846022100F016F800230822E4
:102AE0001846032100F010F80122042100204FF4C1
:102AF0000C7300F009F8BDE81040024840F237318D
:102B0000FEF7C3BF2C0000201FB54FF0000410B12A
:102B1000012802D002E0102400E008240748CDE993
:102B200002234FF48052CDE900146946FEF7BEFF40
:102B3000002800D0012004B010BD00002C000020AF
:102B40007047FEF71DB8000070B5B8B0342124A856
:102B5000FDF7B8FB142131A8FDF7B4FB90216846BE
:102B6000FDF7B0FB2148016841F080510160006829
:102B700000F0805036901E48016841F440410160E9
:102B8000006800252CAB00F44040369002242494C9
:102B90000821D822CDE92A45102083E81600012615
:102BA0002F94CDE9276024A8FEF7AEFDFEF7F0F9DB
:102BB000E2024FF4A0510F20CDE9341231AA0721CF
:102BC00082E8310031A8FEF7B7FC482000900322CC
:102BD00068462304CDE907256C211195CDE905143C
:102BE000CDE90A63FEF70AFA38B070BD40380240FA
:102BF00000700040104A30B51048146800210F4B97
:102C000044F470041460083305680D4A0D4C45F017
:102C10000105056019600368051D1340074A03603C
:102C20000C322C600568E305034C25F48025056013
:102C3000803C1160236030BD88ED00E00038024028
:102C4000FFFFF6FE103000240148FFF74CB80000EB
:102C500028010020F0B5274B4FF0804E264D02682A
:102C60009842264E264F274C09D0704507D0A842DF
:102C700005D0B04203D0B84201D0A04205D1D1F86E
:102C800004C022F070024CEA020298421BD0704548
:102C900019D0A84217D0B04215D0B84213D0A042E4
:102CA00011D0194DA8420ED0184DA8420BD0184D86
:102CB000A84208D0174DA84205D0174DA84202D00F
:102CC000164DA84203D1CD6822F440722A434D69C3
:102CD00022F080022A43026098428A68C2620A682F
:102CE000826201D0A04201D10969016301214161E1
:102CF000F0BD00000000014000040040000800405A
:102D0000000C00400004014000400140004401402C
:102D10000048014000180040001C00400020004016
:102D200042EA032283680A4323F47F410A43826014
:102D30007047826822F070020A4342F00701816006
:102D4000704710B5036A046A23F00A0324F00104F3
:102D5000046284690B4324F0F00141EA02118161AD
:102D6000036210BD10B5036A23F010030362836988
:102D7000046A23F4704324F0A00443EA023282611F
:102D800044EA0111016210BD90F82410C90706D071
:102D90000168836A4A6822F400321A434A6090F854
:102DA0002410890706D50168C36A4A6822F4803274
:102DB0001A434A6090F82410490706D50168036B4E
:102DC0004A6822F480221A434A6090F824100907C6
:102DD00006D50168436B4A6822F400421A434A60F0
:102DE00090F82410C90606D50168836B8A6822F41E
:102DF00080521A438A6090F82410890606D501682B
:102E0000C36B8A6822F400521A438A6090F8241037
:102E1000490611D50168036C4A6822F480121A43EE
:102E20004A60016CB1F5801F06D10168436C4A68A5
:102E300022F4C0021A434A6090F82410090606D50D
:102E40000168826C486820F4002010434860704795
:102E500038B500250446C567FDF78CFE034620689B
:102E6000006800070BD56FF07E40009000222046DE
:102E70004FF4001100F0F0F908B1032038BD202014
:102E8000606784F87050A067002038BD10B5806B73
:102E90000021A0F85A10A0F85210FEF7FEFF10BD56
:102EA00070B5846B00252168606FA66F896809067C
:102EB00006D5212804D1A4F85250204600F03FF84E
:102EC00020688068400606D5222E04D1A4F85A5006
:102ED000204600F024F8E06F40F01000E067204644
:102EE000FEF7DBFF70BD10B5C169806BB1F5807F67
:102EF0000DD00021A0F8521001688A6822F08002EB
:102F00008A600068016841F04001016010BDFFF770
:102F100027FA10BD10B5806BFFF723FA10BD10B56E
:102F20000168202200230C6824F490740C6001686E
:102F30008C6824F001048C608267036610BD016810
:102F400020220B6823F0C0030B604267704710B566
:102F5000816FB0F85C202229016804D0886940F0B4
:102F60000800886110BD496A436D11401980416DA8
:102F7000891C4165B0F85A10491EA0F85A10B0F8E3
:102F80005A100029EED10168202200230C6824F495
:102F900090740C6001688C6824F001048C60826776
:102FA0000366FFF70BF910BD10B5816FB0F85C2018
:102FB0002229016804D0886940F00800886110BDAA
:102FC000496A436D11401970416D491C4165B0F863
:102FD0005A10491EA0F85A10B0F85A100029EED124
:102FE0000168202200230C6824F490740C600168AE
:102FF0008C6824F001048C6082670366FFF7DEF8BA
:1030000010BD00002DE9F04104468068DFF818C2C9
:10301000864F2368D4E90452E16928431E680025DD
:103020000A438349104306EA0C0606431E604FF428
:1030300000422068E668436823F44053334343600A
:103040002368A669206AD3F808C030432CF43066A0
:1030500006439E602068B8420AD1086810F0030059
:1030600052D001287BD002287AD003286ED186E086
:10307000704B98420AD1086810F00C0079D00428EF
:103080007BD0082877D00C2860D178E06A4B984232
:103090000AD1086810F030006BD010286DD02028BD
:1030A00069D0302852D16AE0644B98420AD108684E
:1030B00010F0C0005DD040285FD080285BD0C028D1
:1030C00044D15CE05E4B98420DD1086810F440702A
:1030D0004FD0B0F5807F50D0B0F5007F4BD0B0F529
:1030E000407F33D14BE0574B98420FD1086810F422
:1030F000406009D0B0F5806F3FD0B0F5006F3AD096
:10310000B0F5406F22D13AE0012120E04E4B9842C9
:103110000DD1086810F440502BD0B0F5805F2CD052
:10312000B0F5005F27D0B0F5405F0FD127E0474BE7
:1031300098420BD1086810F440401AD0B0F5804F87
:103140001BD0904217D0B0F5404F18D01021E06945
:103150004FF6EF76904238D109295DD202E00CE0BB
:1031600009E006E0DFE801F00D1027582A5858580A
:103170002D000021EBE70221E9E70421E7E7082120
:10318000E5E7FEF76FFA01E0FEF77CFA0146D4F8B6
:103190000400490001EB5001B1FBF0F080B2A0F156
:1031A0001001B14238D84FF6F0732168C0F34202E3
:1031B0001840104324E026496068EBE7FEF772FAF6
:1031C000E4E760684FF48031E4E7092924D2DFE8BE
:1031D00001F0050819231C2323231F00FEF742FAE0
:1031E00001E0FEF74FFA0146D4F8040001EB50016C
:1031F000B1FBF0F080B2A0F11001B1420CD821680F
:10320000C8600AE013496068F0E7FEF74BFAEAE7A6
:10321000606802EB5001EBE7012500202066606644
:103220002846BDE8F0810000F369FFEF001001407F
:10323000903802400044004000480040004C0040EC
:10324000005000400014014000780040007C004025
:103250000048E8010024F4002DE9F04198461746A3
:103260000E460446069D08E0681C06D0FDF782FC69
:10327000A0EB0800A8420BD855B12068C06936EA17
:10328000000017D00020B842EED00020BDE8F08149
:103290002168202000220B6823F4D0730B60216882
:1032A0008B6823F001038B606067A067032084F8BC
:1032B0007020EBE70120E6E7054810B5FEF7EEFDCC
:1032C000BDE81040034901220148FEF721BF00007C
:1032D000CC01002014000020FEE70000014A024952
:1032E00000F024B851330008280000200907002806
:1032F0004FEA116104DB00F1E02080F80014704710
:1033000000F00F0000F1E02080F8141D704702E08B
:1033100008C8121F08C1002AFAD170477047002060
:1033200001E001C1121F002AFBD170472DE9F041D5
:1033300016460F460446002503E03946B047641C94
:103340006D1C20780028F8D12846BDE8F0810000E7
:1033500013B5044801224FF6FF736946FEF75AFF82
:1033600000981CBDCC01002034A5BFF34F8FBFF3E4
:103370006F8F364900200860BFF34F8FBFF36F8F08
:10338000334B196841F400311960BFF34F8FBFF31D
:103390006F8F2F4970310860BFF34F8F081F43F6BE
:1033A000FF7C00682949C0F34E341031C0F3C900D6
:1033B0000CEA4416024600BF46EA82770F60521EAE
:1033C000FAD2641EF4D2BFF34F8F186840F48030F5
:1033D0001860BFF34F8FBFF36F8FFDF7D9FBFFF777
:1033E000B3FBFFF723FAFFF7D1F9FFF743FBFFF732
:1033F0000DFBFFF7E9F9FFF7B5FAFFF75CFBFFF705
:103400009BF8144901221448FEF782FE13A0FFF72F
:1034100065FF2846FCF761FF82B20F482946FEF798
:1034200055FF1448FEF7DAFB4FF4FC60FFF71CF879
:10343000FDF77AF83220FDF741FAF9E77561727409
:1034400020646D6120746573740D0A0050EF00E014
:1034500014ED00E014000020CC01002075617274AE
:1034600020746573742069732072756E2121210D9B
:103470000A000000280100200006101600061016A1
:103480000000000000000000010203040607080914
:103490000000000001020304B8340008000000200E
:1034A0002C0000000E330008E43400082C0000203B
:1034B000E40600001E3300080100000000000000C8
:1034C00000000000000000000000000000000000FC
:1034D0000100000010000000000000000024F400C3
:0434E00000000000E8
:04000005080001F9F5
:00000001FF
