:020000040800F2
:1000000040D304200D020008A15700084B48000807
:100010009D570008BF03000819A100080000000058
:10002000000000000000000000000000A3770008AE
:100030000F05000800000000775A0008A5770008A7
:1000400027020008270200082702000827020008EC
:1000500027020008270200082702000827020008DC
:1000600027020008270200082702000827020008CC
:1000700027020008270200082702000827020008BC
:1000800027020008270200082702000827020008AC
:10009000270200082702000827020008270200089C
:1000A000270200082702000827020008270200088C
:1000B000270200080D79000827020008270200081F
:1000C000270200082702000827020008270200086C
:1000D00027020008E5800008270200082702000820
:1000E000270200082702000827020008270200084C
:1000F000270200082702000827020008270200083C
:1001000027020008A9660008270200082702000845
:10011000270200082702000827020008270200081B
:100120002702000827020008C5030008D5030008BD
:1001300027020008270200082702000827020008FB
:10014000270200082702000827020008A557000818
:1001500027020008E5030008F5030008270200084D
:1001600027020008270200082702000827020008CB
:1001700027020008270200082702000800000000EC
:1001800027020008270200082702000827020008AB
:10019000270200082702000827020008270200089B
:1001A000270200082702000827020008270200088B
:1001B000270200082702000827020008270200087B
:1001C000270200082702000800000000270200089C
:1001D000270200082702000827020008270200085B
:1001E000270200082702000827020008270200084B
:1001F0002702000827020008DFF80CD000F0A2F860
:1002000000480047F5CE000840D304200648804748
:1002100006480047FEE7FEE7FEE7FEE7FEE7FEE7EB
:10022000FEE7FEE7FEE7FEE7A9780008F90100080F
:100230002DE9F05F0546002092469B46884606461B
:10024000814640241BE0284641464746224600F0AE
:1002500069F853465A46C01A914110D311461846C0
:10026000224600F050F82D1A67EB01084F4622464F
:100270000120002100F047F817EB00094E41201E35
:10028000A4F10104DFDC484631462A464346BDE876
:10029000F09F40EA01039B0703D009E008C9121F41
:1002A00008C0042AFAD203E011F8013B00F8013B30
:1002B000521EF9D27047D2B201E000F8012B491E5C
:1002C000FBD270470022F6E710B513460A460446F3
:1002D0001946FFF7F0FF204610BD30B50B4601462A
:1002E00000202022012409E021FA02F59D4205D3D5
:1002F00003FA02F5491B04FA02F52844151EA2F17F
:100300000102F1DC30BD202A04DB203A00FA02F1C0
:10031000002070479140C2F1200320FA03F31943F3
:1003200090407047202A04DB203A21FA02F0002195
:10033000704721FA02F3D040C2F1200291400843F5
:1003400019467047064C074D06E0E06840F001038F
:1003500094E8070098471034AC42F6D3FFF750FFFB
:1003600010CF030830CF030870B58C1810F8015B6C
:1003700015F0070301D110F8013B2A1106D110F83E
:10038000012B03E010F8016B01F8016B5B1EF9D142
:100390002B0705D40023521E0DD401F8013BFAE7C8
:1003A00010F8013BCB1A921C03E013F8015B01F833
:1003B000015B521EF9D5A142D8D3002070BD00BF09
:1003C000FEE7000010B5024800F0C4F910BD0000BF
:1003D000D0BF042010B5024800F0BCF910BD0000E9
:1003E000ECBD042010B5024800F0B4F910BD0000C7
:1003F0004CBE042010B5024800F0ACF910BD00005E
:1004000030C004200146087810381823B0FBF3F2FE
:100410000848805CC865032A05D908686FF309009D
:10042000001D886503E008686FF309008865886D22
:1004300070470000DC220108014600208A6A8B69AF
:10044000CBB932B1012A0DD0022A03D0032A10D130
:100450000EE000BFCB6A03F08073B3F1807F00D160
:10046000012007E0CB6AB3F1C07F00D1012001E099
:1004700000E000BF34E08B69B3F5005F1AD132B100
:10048000012A07D0022A03D0032A11D10AE000BFB3
:1004900001200EE0CB6A03F08073B3F1807F00D1BE
:1004A000012006E0CB6AB3F1C07F00D1012000E05B
:1004B00000BF15E032B1012A05D0022A04D0032A78
:1004C0000CD103E000BF00BF012008E0CB6A03F0BD
:1004D0008073B3F1807F00D1012000E000BF00BF36
:1004E000704730B50468246824F4802405682C60C3
:1004F000046863608468402C04D10468A2600468C6
:10050000E16003E00468A1600468E26030BD704708
:10051000704730B5034614460022DA680022D1E95C
:10052000000540EA05200D8940EA05400D7B40EAC0
:1005300005600243DA60002030BD30B50346144642
:1005400000229A680022D1E9000540EA05200D89C1
:1005500040EA05400D7B40EA056002439A600020B6
:1005600030BD000010B50246002313680A4803405E
:10057000486840F008008C682043CC6820430C6930
:1005800020434C6940EA44208C6940EA44300343EC
:100590001360002010BD00008101F0FF30B502465D
:1005A000002300240868012816D013686FF30E0397
:1005B000D1E901052843CD6828430D6928434D69D9
:1005C00028438D692843CD6928430D6A28434D6A25
:1005D00028430343136019E0136823F4F843D1E977
:1005E000070528434D6A2843034354686FF30E04FC
:1005F000D1E901052843CD6828430D6928434D6999
:1006000028438D692843044313605460002030BDA3
:100610000246506940EA410050610020704718B519
:10062000034600200090D1E9000420438C68641E3A
:1006300040EA4410CC6840EA4420009000981861D9
:10064000002018BD70B50346154600220024012D78
:100650001FD09A6802F070420868401E4E68761EED
:1006600040EA06168868401E46EA0026C868401E12
:1006700046EA0036088A401E46EA0046888A401E3E
:1006800046EA0056087E401E46EA006002439A6031
:1006900022E09A6811480240C868401E0603888A12
:1006A000401E46EA00500243DC6804F070440868CB
:1006B000401E4E68761E40EA06168868401E46EACE
:1006C0000026088A401E46EA0046087E401E46EA8A
:1006D000006004439A60DC60002070BDFF0F0FFFD4
:1006E00002490968C1F300407047000014ED00E0C2
:1006F00070B50A480468001D0568001D066834448A
:1007000054B108220649204604F0A1F80422044905
:100710001031284604F09BF870BD000020F4F01F53
:100720008E000220014691F83500022803D0802077
:10073000486501207047052081F835000868006889
:1007400020F001000A6810600020F3E70146486DC0
:1007500070470000F8B50446002000908C480068FF
:100760004FF41651B0FBF1F7A56D2E6894F85C10AC
:1007700008208840304098B12068006800F00400EC
:1007800070B12068006820F004002168086094F8C7
:100790005C1008208840A860606D40F00100606532
:1007A00094F85C1001208840304068B120684069AE
:1007B00000F0800040B194F85C1001208840A860EF
:1007C000606D40F00200606594F85C100420884081
:1007D000304068B12068006800F0020040B194F831
:1007E0005C1004208840A860606D40F004006065E3
:1007F00094F85C1010208840304078B3206800687E
:1008000000F0080050B394F85C1010208840A860F5
:100810002068006800F4802080B12068006800F43F
:10082000002028B9206CC8B12046216C884715E00B
:10083000A06C98B12046A16C88470FE02068006842
:1008400000F4807028B92068006820F00800216852
:100850000860206C10B12046216C884794F85C1029
:10086000202088403040002865D02068006800F0D3
:10087000100000285FD094F85C1020208840A86009
:1008800094F83500052828D12068006820F016006B
:10089000216808602068406920F080002168486174
:1008A000206C08B9A06C28B12068006820F008000E
:1008B0002168086094F85C103F208840A86000BF61
:1008C000002084F8340000BF012084F83500206D3A
:1008D00010B12046216D8847F8BD2068006800F4FB
:1008E000802080B12068006800F4002028B9606C86
:1008F00010B12046616C88471DE0E06BD8B12046FE
:10090000E16B884717E02068006800F4807068B9E0
:100910002068006820F010002168086000BF0020F7
:1009200084F8340000BF012084F83500E06B10B17A
:100930002046E16B8847606D38B3606D00F00100C0
:10094000F0B1052084F835002068006820F001002F
:100950002168086000BF0098401C0090B84200D990
:1009600005E02068006800F001000028F3D100BF16
:1009700000BF002084F8340000BF012084F8350057
:10098000E06C10B12046E16C884700BFA4E700008E
:10099000D40002202DE9F0410446002500F06AFA57
:1009A000074614B90120BDE8F081606A00B100BFBC
:1009B00000BF002084F8340000BF022084F8350016
:1009C0002068006820F00100216808600AE000F05B
:1009D00051FAC01B052805D920206065032084F842
:1009E0003500E0E72068006800F001000028EED143
:1009F0002068056821480540D4E901010843E16801
:100A000008432169084361690843A1690843E16912
:100A10000843216A08430543606A042803D1D4E9E6
:100A20000B0108430543206805602068456925F0EF
:100A30000705606A0543606A04280DD1A06A054372
:100A4000E06A48B12046FFF7F7FC28B14020606516
:100A5000012084F83500A6E7206845612046FFF7AD
:100A6000D1FC064694F85C103F208840B06000201E
:100A70006065012084F83500002094E73F8010E095
:100A80002DE9F04704460D4616461F464FF0000874
:100A9000D4F8589000BF94F83400012802D1022005
:100AA000BDE8F087012084F8340000BF94F83500D9
:100AB00001282BD1022084F83500002060653B46D8
:100AC000324629462046FFF70CFD94F85C103F2083
:100AD0008840C9F808002068006840F016002168C6
:100AE00008602068406940F0800021684861206CFF
:100AF00028B12068006840F008002168086020687C
:100B0000006840F001002168086006E000BF002096
:100B100084F8340000BF4FF002084046C0E70000F0
:100B200070B5044600F0A6F906462546681C10B1CB
:100B300004480078054400BF00F09CF9801BA842DF
:100B4000FAD370BDD000022000B587B030480068ED
:100B500008B107B000BD01202D49086000BF2D4835
:100B6000006840F001002B4908600846006800F06A
:100B70000100019000BF00BF4FF63F00029002202D
:100B8000039000200490032005900C20069002A9F9
:100B9000214800F04BF80D20029002200390002025
:100BA0000490032005900C20069002A91B4800F039
:100BB0003DF848F237300290022003900020049064
:100BC000032005900C20069002A9154800F02EF88D
:100BD0004FF68070029002200390002004900320C2
:100BE00005900C20069002A90E4800F01FF84DF663
:100BF000737002900220039000200490032005905F
:100C00000C20069002A9084800F010F800BFA0E7E9
:100C1000340002203838024000140240000802402C
:100C20000018024000100240000C0240F8B50246D5
:100C30000B46002100250024002000BFE4E001262F
:100C400006FA01F51E6806EA0504AC4271D15E6839
:100C5000022E02D05E68122E13D1CF0802F12006B8
:100C600056F827004E07F70E0F26BE40B0434F0739
:100C7000FF0E1E69BE403043CF0802F1200646F841
:100C8000270010684F000326BE40B0431E7906F0CF
:100C900003064F00BE40304310605E68012E08D04E
:100CA0005E68022E05D05E68112E02D05E68122E9C
:100CB00013D190684F000326BE40B0434F00DE685A
:100CC000BE4030439060506801268E40B0431E798C
:100CD000C6F300168E4030435060D0684F000326A4
:100CE000BE40B0434F009E68BE403043D0605E6857
:100CF00006F08056B6F1805FA8D100BF444E36683A
:100D000046F48046424F3E603E46366806F48046D2
:100D1000009600BF00BF3F4E8F0856F827008E0791
:100D2000370F0F26BE40B0433B4EB24202D10026E1
:100D30002EE068E0394EB24201D1012628E0384E5B
:100D4000B24201D1022623E0364EB24201D103263F
:100D50001EE0354EB24201D1042619E0334EB242B4
:100D600001D1052614E0324EB24201D106260FE031
:100D7000304EB24201D107260AE02F4EB24201D1D5
:100D8000082605E02D4EB24201D1092600E00A26D0
:100D90008F073F0FBE4030431E4E8F0846F8270096
:100DA000274E3068A0435E6806F48036B6F5803F73
:100DB00000D12043224E3060361D3068A0435E686B
:100DC00006F40036B6F5003F00D120431C4E361D18
:100DD0003060361D3068A0435E6806F48016B6F5B4
:100DE000801F00D12043164E08363060361D306813
:100DF000A0435E6806F40016B6F5001F00D120433C
:100E00000F4E0C363060491C1029FFF418AFF8BDA6
:100E1000443802400838014000000240000402400B
:100E200000080240000C0240001002400014024082
:100E300000180240001C0240002002400024024032
:100E4000003C0140024613690B400BB1012000E059
:100E50000020704742690A408A4202D10A04826136
:100E600000E0816170470AB1816101E00B04836198
:100E7000704700000148006870470000C800022069
:100E8000034800680349097808440149086070472D
:100E9000C8000220D000022010B50A48006840F4C3
:100EA0000070084908600846006840F480700860D7
:100EB000032000F0ADFA002000F006F800F00CFA74
:100EC000002010BD003C024070B504460E4800787A
:100ED0004FF47A71B1FBF0F00C490968B1FBF0F501
:100EE000284602F0E7FF08B1012070BD102C07D2A0
:100EF00000222146501E00F04DFA0548046001E032
:100F00000120F2E70020F0E7D0000220D400022008
:100F1000CC00022070B504460E46154600BF94F87A
:100F2000A000012801D1022070BD012084F8A0009A
:100F300000BF022084F8A10005EB850101EBC5028A
:100F400004F1380101EB820034223146FFF7A1F9A8
:100F50002A463146204603F05DFE012021684862A2
:100F600084F8A10000BF002084F8A00000BF00BFEB
:100F7000DAE7000070B504460CB9012070BD94F8A2
:100F8000A10028B9002084F8A000204600F07EF8D7
:100F9000022084F8A1002068806920F07040216858
:100FA0008861D4E901010843E168084321690843E5
:100FB000216889690843216888612068806832490E
:100FC000084021688860A08A050420688068A169BB
:100FD00029430843216888602068C0682A4908407E
:100FE0002168C860A08B05042068C068216A294375
:100FF00008432168C86020680069234908402168C7
:101000000861A08C050420680069A16A294308438F
:1010100021680861206840691B49084021684861CF
:10102000A08D050420684069216B2943084321688D
:10103000486194F83500050294F8360006042068EB
:10104000C06A00F07F402168C86246EA050094F853
:10105000341008432168C96A08432168C8622068BF
:10106000406B40F00600216848632068806940F0CA
:101070000100216888610020C4F8A400012084F8E0
:10108000A10000207AE7000000F800F010B586B05B
:101090000446142101A8FFF715F952492068884237
:1010A0007ED100BF5048006840F080604E49086023
:1010B0000846006800F08060009000BF00BF00BFDD
:1010C00049481438006840F4807047491439086072
:1010D0000846006800F48070009000BF00BF00BFA9
:1010E0000846006840F0200008600846006800F0EC
:1010F0002000009000BF00BF00BF0846006840F01D
:10110000010008600846006800F00100009000BF80
:1011100000BF00BF0846006840F080000860084635
:10112000006800F08000009000BF00BF00BF0846CC
:10113000006840F0400008600846006800F0400089
:10114000009000BF00BF40F2F760019002200290C3
:1011500000200390032004900E20059001A923484D
:10116000FFF764FD4FF480600190022002900020A0
:101170000390032004900E20059001A91C48FFF75E
:1011800055FD2020019002200290002003900320B2
:1011900004900E20059001A91648FFF747FD00E0D6
:1011A0001DE04FF47A40019002200290002003904D
:1011B000032004900E20059001A90F48FFF736FD8B
:1011C0004FF40C6001900220029000200390032055
:1011D00004900E20059001A90848FFF727FD06B0EE
:1011E00010BD000000680140443802400020024069
:1011F0000014024000000240001C0240001802409F
:101200002DE9F04104460E461746984600BF94F873
:10121000A000012802D10220BDE8F081012084F85D
:10122000A00000BF022084F8A10008EB880000EBBA
:10123000C80104F1380000EB81052E60A86A304433
:101240006860AF60E86A3844E86042462946204654
:1012500003F0E0FC01202168486284F8A10000BF8F
:10126000002084F8A00000BF00BFD5E72DE9F041C1
:1012700004460E461746984600BF94F8A000012881
:1012800002D10220BDE8F081012084F8A00000BF57
:10129000022084F8A10008EB880000EBC80104F1EB
:1012A000380000EB8105286830446860A86838443D
:1012B000E860AE62EF6242462946204603F0AAFC8F
:1012C00001202168486284F8A10000BF002084F852
:1012D000A00000BF00BFD5E708B500BF0D480068FB
:1012E00040F080500B4908600846006800F08050CC
:1012F000009000BF00BF00BF081D006840F48040A0
:10130000091D08600846006800F48040009000BF96
:1013100000BF08BD4038024070B504460E46154671
:101320000CB9012070BD94F8210028B9002084F880
:101330002000204600F019F8211D2068FFF712F95F
:101340003146D4E90002FFF7F8F82946D4E9000253
:10135000FFF7DFF82068006840F0040021680860AB
:10136000012084F821000020DCE710B50446FFF7D7
:10137000EBFB10BD01460846002809DB00F01F0307
:1013800001229A4043099B0003F1E023C3F80021A6
:1013900000BF70472DE9F05F80460D4616460027D6
:1013A00009F0B8F8074639462A46334601F00700E7
:1013B000C0F1070ABAF1040F02D94FF0040A01E0A4
:1013C000C0F1070AD14600F1040ABAF1070F02D2B0
:1013D0004FF0000A01E0A0F1030AD4464FF0010AE1
:1013E0000AFA09FAAAF1010A0AEA020A0AFA0CFA46
:1013F0004FF0010B0BFA0CFBABF1010B0BEA030BEB
:101400004AEA0B042146404609F08CF8BDE8F09FFB
:1014100000BF00F00702064B19684FF6FF031940A2
:10142000044B0B4343EA0221014B196000BF704794
:101430000CED00E00000FA0501460A680120C1F841
:10144000FC03002081F8F403906940F00060906193
:10145000506D024B18435065002070470300001088
:1014600070B504460D4615B1012D2CD116E0206A49
:1014700038B106F09BF91548006820F006001349C2
:1014800008602068D0F8000E20F001002168C1F843
:10149000000ED4F8000407F087FA14E02068D0F8B2
:1014A000000E40F001002168C1F8000ED4F80004DD
:1014B00007F002FB206A28B10448006840F00600EB
:1014C0000249086000BF00BF70BD000010ED00E0E1
:1014D00002461068416200207047F0B50346154689
:1014E0001868446A21B944EA05401E68B06219E0F0
:1014F0001868806A04EB1044002208E0186800F5C0
:10150000827050F8220004EB1044501CC2B2481EF6
:101510009042F3D844EA0547186800F582704E1EE1
:1015200040F826700020F0BD10B50446D4F8000441
:1015300007F059F910BD70B504460D46C5EBC5035B
:1015400004F13C0101EB8301CA682946D4F8000488
:1015500007F076F870BD70B504460D46C5EBC503BF
:1015600004F5FE7101EB8301CA682946D4F8000432
:1015700007F0E6F870BD10B50446D4F8000407F093
:1015800035F910BD70B504460E4606F0800080287F
:101590000AD106F00F00C0EBC00104F13C0000EBE3
:1015A00081050120687009E006F00F00C0EBC00162
:1015B00004F5FE7000EB81050020687006F00F0056
:1015C000287000BF94F8BC03012801D1022070BD2F
:1015D000012084F8BC0300BF2946206807F080FF83
:1015E00000BF002084F8BC0300BF00BFEFE770B568
:1015F00004460E4606F00F006168884201D90120BA
:1016000070BD06F0800080280AD106F00F00C0EB04
:10161000C00104F13C0000EB81050120687009E085
:1016200006F00F00C0EBC00104F5FE7000EB810571
:10163000002068700020A87006F00F00287000BF1E
:1016400094F8BC03012801D10220D9E7012084F8D5
:10165000BC0300BF2946206808F0E8F900BF00205D
:1016600084F8BC0300BF00BFCAE770B504460D464E
:1016700000BF94F8BC03012801D1022070BD0120F5
:1016800084F8BC0300BF05F08000802805D105F078
:101690000F01206808F0F4FB02E0206808F0DAFB94
:1016A00000BF002084F8BC0300BF00BFE6E702468D
:1016B00001F00F00C0EBC00302F5FE7000EB8300E9
:1016C000806970472DE9F04705460E4690461F4653
:1016D0004FF0000906F0800080280AD106F00F00C4
:1016E000C0EBC00105F13C0000EB810401206070FB
:1016F00009E006F00F00C0EBC00105F5FE7000EB3D
:1017000081040020607006F00F002070C4F808808B
:10171000E770607808B12078E080022F01D10020C6
:10172000207100BF95F8BC03012802D10220BDE85A
:10173000F087012085F8BC0300BF2146286807F028
:10174000E1FD00BF002085F8BC0300BF4846EEE77E
:101750002DE9F04104460E461746984606F00F0064
:10176000C0EBC00104F5FE7000EB8105EF60C5F829
:1017700014800020A861687006F00F0028702069AE
:10178000012800D12F6106F00F0028B9227C2946DC
:10179000206808F033F804E0227C2946206808F02D
:1017A000D9F90020BDE8F08170B504460D4605F07A
:1017B0000F006168884201D9012070BD05F08000EA
:1017C00080280AD105F00F00C0EBC00104F13C00F5
:1017D00000EB81060120707007E0C5EBC50104F540
:1017E000FE7000EB8106002070700120B07005F0E3
:1017F0000F00307000BF94F8BC03012801D1022013
:10180000DBE7012084F8BC0300BF3146206808F004
:1018100054F905F00F0028B9217C04F57172206895
:1018200008F0CCF800BF002084F8BC0300BF00BF64
:10183000C3E72DE9F04104460E461746984606F0E8
:101840000F00C0EBC00104F13C0000EB8105EF602C
:10185000C5F814800020A8610120687006F00F0010
:1018600028702069012800D12F6106F00F0028B9E7
:10187000227C2946206807F0C1FF04E0227C29462B
:10188000206808F067F90020BDE8F0812DE9FE4FDF
:10189000044620680290029D0026206808F01BFB89
:1018A00000287DD1206808F055FB08B9BDE8FE8FFF
:1018B000206808F04FFB00F00200022805D12068E4
:1018C000406900F0020021684861206808F042FB8E
:1018D00000F40020B0F5002F58D10026206808F051
:1018E00009FB82464FE00AF00100002848D0F1B21F
:1018F000206808F022FB804608F0010048B1012171
:1019000005F5306000EB461081603146204603F05B
:1019100097FF08F00800082809D13146204603F057
:1019200049FF082105F5306000EB4610816008F0A2
:101930001000102805D1102105F5306000EB46108D
:10194000816008F0200020280ED12069012805D1EF
:1019500004F571720121206808F030F8202105F5A6
:10196000306000EB4610816008F40050B0F5005F75
:1019700006D14FF4005105F5306000EB4610816050
:10198000761C4FEA5A0ABAF1000FACD1206808F071
:10199000E1FA00F48020B0F5802F7CD1206800E0CF
:1019A00037E208F09DFA8246002686E00AF0010040
:1019B00000287FD0F1B2206808F0A6FA804608F02F
:1019C0000100E8B306F00F0101208840019040F6C5
:1019D00034004159019821EA000040F63401485191
:1019E000012105F5106000EB461081602069012897
:1019F00015D1C6EBC60104F13C0000EB8100C6EB3B
:101A0000C602C16804F13C0000EB8200806801441A
:101A1000C6EBC60204F13C0000EB8200C160F1B2EB
:101A20002046FFF788FD2069012810D146B9C6EB92
:101A3000C60104F13C0000EB8100406900B900E000
:101A400005E004F571720121206807F0B7FF08F086
:101A50000800082805D1082105F5106000EB4610A4
:101A6000816008F01000102805D1102105F51060E4
:101A700000EB4610816008F04000402805D140216D
:101A800005F5106000EB4610816008F002000228A6
:101A900008D1022101E014E00CE005F5106000EB34
:101AA0004610816008F08000802803D1314620462E
:101AB00003F086FF761C4FEA5A0ABAF1000F7FF452
:101AC00075AF206808F046FA00F00040B0F1004F12
:101AD0001CD140F60400405920F0010140F60400FA
:101AE000415194F8F403012807D1002084F8F4034D
:101AF00000212046FFF7B4FC02E0204600F0BAFACD
:101B00002068406900F0004021684861206808F0C2
:101B100021FA00F40060B0F5006F0ED140F6080025
:101B2000405900F0010010B1204600F0EFFA2068A3
:101B3000406900F4006021684861206808F00AFAF2
:101B400000F00060B0F1006F19D12068406900F02A
:101B500000602168486194F8F40368B9012084F8B2
:101B6000F4032068406DC0F38300C4F8F80301213A
:101B70002046FFF775FC02E0204600F0C7FA206817
:101B800008F0E8F900F48050B0F5805F72D140F6BB
:101B90000400405920F0010140F604004151102199
:101BA000206808F06DF9002726E04FF67F3105F533
:101BB000106000EB4710816005F5106000EB4710E6
:101BC000006820F4001105F5106000EB471001607B
:101BD0004FF67F3105F5306000EB4710816005F569
:101BE000306000EB4710006820F4001105F530600C
:101BF00000EB471001607F1C6068B842D5D840F602
:101C00001C00405940F0011140F61C004151206B6E
:101C100070B1D5F8840840F00B01C5F8841840F67F
:101C20004400405940F00B0140F6440041510FE0A0
:101C300040F61400405942F22B01084340F61401CB
:101C40004851081F405940F00B014FF401604151C9
:101C5000D5F8000820F4FE60C5F80008217C04F5E2
:101C60007172206807F0AAFE2068406900F4805075
:101C700021684861206808F06DF900F40050B0F563
:101C8000005F1CD1206807F0A5FB206808F010F960
:101C900010B90021E16001E00321E16001F022F9C7
:101CA0000090227B2068009908F0A4F9204600F0FB
:101CB000C9F92068406900F4005021684861206833
:101CC00008F048F900F01000102846D1206880691B
:101CD00020F01000216888610298D0F8209009F067
:101CE0000F00C0EBC00104F5FE7000EB810BC9F3DF
:101CF000434002281AD147F6F07009EA000030B3D9
:101D0000C9F30A12DBF80C10029808F028F9C9F39D
:101D10000A11DBF80C000844CBF80C00C9F30A11D7
:101D2000DBF818000844CBF8180010E0C9F3434072
:101D300006280CD1082204F57171029808F00FF9F9
:101D4000C9F30A11DBF818000844CBF81800206822
:101D5000806940F0100021688861206808F0FAF876
:101D600000F00800082808D1204600F08AF9206811
:101D7000406900F0080021684861206808F0EAF82E
:101D800000F48010B0F5801F09D1F1B2204600F0B8
:101D900042F82068406900F480102168486120689A
:101DA00008F0D8F800F40010B0F5001F09D1F1B226
:101DB000204600F039F82068406900F400102168DE
:101DC0004861206808F0C6F800F08040B0F1804F0C
:101DD00008D12046FFF7A8FB2068406900F080404A
:101DE00021684861206808F0B5F800F00400042874
:101DF0000FD12068D0F8049009F00400042802D123
:101E00002046FFF7B8FB2068406840EA09002168D7
:101E1000486000BF4AE570B504460D462946D4F82F
:101E2000000406F05DFD70BD70B504460D46294600
:101E3000D4F8000406F057FD70BD30B58BB00446F1
:101E400014B901200BB030BD94F8BD0328B90020AF
:101E500084F8BC03204600F0A3F8032084F8BD03F7
:101E6000206807F0C3FC282204F110016846FEF741
:101E700010FA94E80F0007F0D1FA20B1022084F89C
:101E8000BD030120DEE70021206808F079F8002575
:101E900031E00121C5EBC50204F13C0000EB8200FA
:101EA0004170C5EBC50104F13C0000F82150C5EBC1
:101EB000C50100EB8100C5800021C5EBC50204F11E
:101EC0003C0000EB8200C170C5EBC50204F13C0090
:101ED00000EB82008160C5EBC50204F13C0000EB21
:101EE0008200C160C5EBC50204F13C0000EB82003A
:101EF0004161681CC5B26068A842CAD800252AE0C2
:101F00000021C5EBC50204F5FE7000EB82004170B4
:101F1000C5EBC50104F5FE7000F821500021C5EBAA
:101F2000C50200EB8200C170C5EBC50204F5FE706E
:101F300000EB82008160C5EBC50204F5FE7000EB8A
:101F40008200C160C5EBC50204F5FE7000EB8200A3
:101F50004161681CC5B26068A842D1D8282204F14A
:101F600010016846FEF795F994E80F0007F03AFB78
:101F700020B1022084F8BD03012063E7002084F82B
:101F80003800012084F8BD03606A012802D1204690
:101F9000FFF752FA206807F015FB002052E7000017
:101FA00010B588B004462068B0F1A04F44D100BFFE
:101FB0002248006840F00100204908600846006897
:101FC00000F00100029000BF00BF4FF4C05003902A
:101FD0000220049000200590032006900A2007901C
:101FE00003A91748FEF722FE00BF1448001D006831
:101FF00040F080001149091D08600846006800F0A3
:102000008000029000BF00BF0C481430006840F40C
:1020100080400A49143108600846006800F4804096
:10202000019000BF00BF00BF002203214320FFF743
:10203000B1F94320FFF79EF908B010BD30380240D7
:102040000000024070B504460125E06808B900258B
:1020500006E0E068022801D1012501E0FEF758FA08
:102060002946D4F8000406F0B7FCD4F8000406F0C2
:102070006DFC70BD10B50446D4F8000406F094FC65
:1020800010BD10B50446D4F8000406F094FC10BD51
:1020900070B504460D4600BF94F8BC03012801D179
:1020A000022070BD012084F8BC0300BF84F83850C2
:1020B0002946206807F07FFF00BF002084F8BC039A
:1020C00000BF00BFEDE710B5044604F57171D4F808
:1020D000000406F098FC10BD10B5044600BF94F84B
:1020E000BC03012801D1022010BD012084F8BC03EB
:1020F00000BF206807F056FA206807F0A3FE00BF73
:10210000002084F8BC0300BF00BFEDE710B5044613
:10211000D4F8000406F0D0FC2068D0F8000E40F09F
:1021200001002168C1F8000E206A28B10348006848
:1021300040F006000149086010BD000010ED00E00D
:1021400038B5002400BF2048006840F080501E4988
:1021500008600846006800F08050009000BF00BF93
:102160001A48006840F4803018490860FEF782FE83
:10217000044607E0FEF77EFE001BB0F57A7F01D92A
:10218000032038BD1148406800F48030B0F5803F2E
:10219000F0D10E48006840F400300C490860FEF7AA
:1021A00069FE044607E0FEF765FE001BB0F57A7F86
:1021B00001D90320E5E70548406800F40030B0F598
:1021C000003FF0D10020DCE74038024000700040C2
:1021D0002DE9F84304460D4616460127FEF74AFE50
:1021E0008046A86900B100BFE86900B100BF286A55
:1021F00000B100BF00BF94F84000012802D10220C6
:10220000BDE8F883012084F8400000BF94F8410045
:10221000012828D100206064022084F84100434650
:10222000002220212046009603F068FD0746DFB912
:1022300000222946204603F01FFC686A78B943460D
:10224000012202212046009603F058FD07465FB99F
:1022500002202168C860012084F8410004E00120C8
:1022600084F8410000E0022700BF002084F840000D
:1022700000BF3846C4E70000F8B504460125FEF764
:10228000F9FD06460CB90120F8BD206A402800D0AF
:1022900000BF00BF94F84000012801D10220F3E7FD
:1022A000012084F8400000BF94F8410050B900209C
:1022B00084F84000204600F04BF841F28831204677
:1022C00000F031F92068006820F4F851A068401E41
:1022D00041EA002021680860A06C334600222021DA
:1022E0000090204603F00AFD054635BB2179E068E1
:1022F00040EA0160E1690843216A084321680968EE
:10230000114A1140084321680860208A616941EA46
:102310000040A1690843216849680C4A11400843FC
:10232000216848602068006840F00100216808606A
:1023300000206064012084F8410000BF002084F880
:10234000400000BF28469FE72FFFFF00FEF8E0FF98
:1023500010B586B00446142101A8FDF7B3FF354936
:102360002068884263D100BF3348006840F0020013
:10237000314908600846006800F00200009000BF84
:1023800000BF00BF2C480838006840F020002A49F0
:10239000083908600846006800F02000009000BF7F
:1023A00000BF00BF0846006840F002000860084611
:1023B000006800F00200009000BF00BFC020019044
:1023C0000220029000200390032004900920059031
:1023D00001A91A48FEF72AFC4FF440700190022030
:1023E000029000200390032004900A20059001A988
:1023F0001248FEF71BFC04200190022002900020EE
:102400000390032004900920059001A90C48FEF7D1
:102410000DFC402001900220029000200390032038
:1024200004900A20059001A90548FEF7FFFB06B0BD
:1024300010BD0000001000A0383802400014024017
:10244000000402402DE9F84F04460E4617460025C9
:10245000FEF710FD80462068D0F81890206800F143
:10246000200A00BF94F84000012802D10220BDE8F4
:10247000F88F012084F8400000BF94F84100012843
:1024800049D100206064002E3FD0222084F8410012
:1024900020680069401CA06320680069401C6063DC
:1024A00026632068406920F0406040F08060216829
:1024B00048612068C0F8189012E0434601220621C6
:1024C0002046009703F01AFC054605B10BE09AF888
:1024D0000010226B501C20631170A06B401EA06383
:1024E000A06B0028E9D100BF5DB94346012202215B
:1024F0002046009703F002FC054615B9022021682A
:10250000C860012084F8410006E0606C40F00800DB
:102510006064012500E0022500BF002084F840002F
:1025200000BF2846A3E7816470472DE9F8430446BD
:102530000E4617460025FEF79DFC8046206800F1F8
:10254000200900BF94F84000012802D10220BDE814
:10255000F883012084F8400000BF94F8410001286E
:1025600044D100206064002E3AD0122084F841004B
:1025700020680069401CE06220680069401CA0627D
:1025800066622068406920F040602168486112E07E
:102590004346012204212046009703F0AFFB054685
:1025A00005B10BE0616A481C6062087889F8000098
:1025B000E06A401EE062E06A0028E9D100BF5DB930
:1025C0004346012202212046009703F097FB05466F
:1025D00015B902202168C860012084F8410006E096
:1025E000606C40F008006064012500E0022500BF37
:1025F000002084F8400000BF2846A8E72DE9F843F2
:102600000446002600250027A846A946207800F0A9
:10261000010088B100BFFE48006820F40000FC49BA
:10262000086008460068616B0843F949086000BF0C
:10263000606B08B94FF00108206800F40020B0F585
:10264000002F13D1F2488430006820F44010E16B71
:102650000843EF4984310860E06BB0F5801F01D179
:102660004FF00108E06B08B94FF00109206800F451
:102670008010B0F5801F13D1E5488430006820F445
:102680004000216C0843E24984310860206CB0F5B9
:10269000800F01D14FF00108206C08B94FF00109FB
:1026A000206800F08070B0F1807F01D14FF0010808
:1026B000207800F02000202870D100BFD4483830A6
:1026C000006840F08050D249383108600846006800
:1026D00000F08050009000BF00BFCE48006840F47A
:1026E0008070CC490860FEF7C5FB064607E0FEF7A0
:1026F000C1FB801B642802D90320BDE8F883C548CC
:10270000006800F480700028F1D0C148683000688B
:1027100000F4407585B3208E00F44070A8422BD0A1
:10272000BB486830006820F44075B94868300068DC
:1027300040F48030B649683108600846006820F4EB
:102740008030086008460560006800F0010098B11C
:10275000FEF790FB064608E0FEF78CFB801B41F27B
:102760008831884201D90320C7E7A948683000684A
:10277000C0F340000028EFD000BF208E00F440706E
:10278000B0F5407F0BD1A248006820F4F810A24AAF
:10279000216B114008439E49086006E010E09C4808
:1027A000006820F4F8109A49086099486830006879
:1027B000218EC1F30B01084395496831086000BFC1
:1027C000207800F01000102810D100BF904884300D
:1027D000006820F080708E498431086008460068E7
:1027E000A16B08438A498431086000BF208800F447
:1027F0008040B0F5804F09D185488830006820F4CA
:102800004030616E0843824988310860208800F4B6
:102810000040B0F5004F09D17D488830006820F4B1
:102820004020A16E08437A4988310860206800F48E
:102830008030B0F5803F09D175488830006820F4B9
:102840004010E16E0843724988310860206800F446
:102850000030B0F5003F09D16D488830006820F4A1
:102860004000216F08436A4988310860207800F0F1
:102870004000402809D166488830006820F00300F5
:10288000616C0843624988310860207800F080005C
:10289000802809D15E488830006820F00C00A16CC7
:1028A00008435B4988310860208800F48070B0F5E7
:1028B000807F09D156488830006820F03000E16CF4
:1028C0000843534988310860208800F40070B0F54F
:1028D000007F09D14E488830006820F0C000216D8B
:1028E00008434B4988310860208800F48060B0F5C7
:1028F000806F09D146488830006820F44070616DCF
:102900000843434988310860208800F40060B0F52E
:10291000006F09D13E488830006820F44060A16D06
:1029200008433B4988310860208800F48050B0F5A6
:10293000805F09D136488830006820F44050E16D4E
:102940000843334988310860208800F40050B0F50E
:10295000005F09D12E488830006820F44040216E85
:1029600008432B4988310860206800F48000B0F5E6
:10297000800F09D126488830006820F08060A16F60
:102980000843234988310860206800F40010B0F53E
:10299000001F0FD11E488830006820F00060E16FF2
:1029A00008431B4988310860E06FB0F1006F01D126
:1029B0004FF00109207800F00800082801D14FF0FD
:1029C0000109206800F48020B0F5802F09D110485B
:1029D0008830006820F04070616F08430C498831EE
:1029E0000860206800F40000B0F5000F0AD1084824
:1029F0008830006820F08050D4F8801008430449E3
:102A000088310860206800F08060B0F1806F05E0D8
:102A10000838024000700040FFFCFF0F08D1CC488E
:102A2000006820F00050D4F884100843C8490860BA
:102A3000206800F00060B0F1006F0AD1C448001FA8
:102A4000006820F00070D4F888100843C049091FBE
:102A50000860206800F08050B0F1805F0AD1BC4867
:102A6000001F006820F08060D4F88C100843B8493B
:102A7000091F0860B8F1010F03D02068B0F1007F92
:102A80007ED1B3489038006820F08060B04990391A
:102A90000860FEF7EFF9064606E0FEF7EBF9801B4B
:102AA000642801D9032028E6A94890380068C0F3BB
:102AB000C0600028F1D1207800F00100B8B1606B4F
:102AC000A8B9A3480C380068C0F30145A0480C38E9
:102AD0000068C0F303676068800140EA054040EA8F
:102AE0000761207A41EA007099490C390860206832
:102AF00000F40020B0F5002F03D1E06BB0F5801F8B
:102B000009D0206800F48010B0F5801F24D1206C1B
:102B1000B0F5800F20D18E480C380068C0F3014515
:102B20008B480C380068C0F302776068800140EA87
:102B30000541207B41EA006040EA077084490C3976
:102B400008608348001F006820F01F00616A491E6A
:102B500008437F49091F0860206800F08070B0F1C9
:102B6000807F17D17A480C380068C0F30365784835
:102B70000C380068C0F3027760688101208A00E0A9
:102B800036E041EA004040EA056040EA07707049DB
:102B90000C390860206800F00070B0F1007F0DD1A2
:102BA00060688101208A41EA0041207B41EA00619E
:102BB000207A41EA007066490C3908606448903810
:102BC000006840F08060624990390860FEF752F971
:102BD000064606E0FEF74EF9801B642801D9032063
:102BE0008BE55B4890380068C0F3C0600028F1D0E6
:102BF000B9F1010F7ED156489038006820F080501E
:102C0000534990390860FEF735F9064606E0FEF7AD
:102C100031F9801B642801D903206EE54C489038B7
:102C20000068C0F340700028F1D1206800F4002053
:102C3000B0F5002F01D1E06B38B1206800F48010AE
:102C4000B0F5801F22D1206C00BB414808380068D5
:102C5000C0F301453E4808380068C0F30277606958
:102C6000800140EA0541207E41EA006040EA0770A9
:102C7000374908390860081D006820F4F851A06A37
:102C8000401E41EA00203249091F0860206800F414
:102C90000010B0F5001F19D1E06FB0F1006F15D131
:102CA0002B4808380068C0F30365294808380068D5
:102CB000C0F3027760698101208C41EA004040EA5C
:102CC000056040EA0770224908390860207800F062
:102CD0000800082820D11E4808380068C0F30365A2
:102CE0001B4808380068C0F301476069800140EA6A
:102CF000074000E02AE040EA0561207F41EA0070D9
:102D0000134908390860081D006820F44030E16A62
:102D100008430F49091F08600D489038006840F0CB
:102D200080500B4990390860FEF7A4F8064606E08B
:102D3000FEF7A0F8801B642801D90320DDE40448D5
:102D400090380068C0F340700028F1D00020D4E42F
:102D50009038024070B504460D4600260CB901209B
:102D600070BD5C48006800F00F00A8420ED25948C0
:102D7000006820F00F0028435649086008460068A4
:102D800000F00F00A84201D00120E9E7207800F010
:102D9000020002281DD1207800F00400042805D18B
:102DA0004D48006840F4E0504B490860207800F03E
:102DB0000800082805D14848006840F460404649AA
:102DC00008604548006820F0F000A16808434249C7
:102DD0000860207800F0010090B36068012807D1F6
:102DE0003D4808380068C0F34040A0B90120B7E76B
:102DF0006068022807D1384808380068C0F340608E
:102E000048B90120ACE7344808380068C0F34000F6
:102E100008B90120A4E73048006820F00300616889
:102E200008432D490860FEF725F8064609E0FEF73D
:102E300021F8801B41F28831884202D903208FE7B4
:102E400007E02548006800F00C006168B0EB810FD6
:102E5000EDD12048006800F00F00A8420ED91D48AF
:102E6000006820F00F0028431A49086008460068EF
:102E700000F00F00A84201D0012071E7207800F097
:102E80000400042807D11448006820F4E050E168E9
:102E9000084311490860207800F00800082808D18C
:102EA0000D48006820F46040216940EAC1000A49E9
:102EB000086000F03DF808490968C1F30311074AAA
:102EC000515CC840064908600020FDF7FDFF002066
:102ED00046E70000003C024008380240E4220108B6
:102EE000D40002200148006870470000D40002208E
:102EF00000B5FFF7F7FF04490968C1F38221034ACF
:102F0000515CC84000BD000008380240F4220108AE
:102F100000B5FFF7E7FF04490968C1F34231034AEE
:102F2000515CC84000BD000008380240F42201088E
:102F30002DE9F047002400250026A1462548006819
:102F400000F00C0020B1042805D008283AD105E093
:102F5000DFF8849039E0DFF8849036E01D48001FE8
:102F6000006800F03F041B48001F006800F4800068
:102F700078B11A481749091F0968C1F38811A0FBE5
:102F800001700146224600233846FDF751F90546F7
:102F90000EE011480F49091F0968C1F38811A0FB11
:102FA00001700146224600233846FDF741F90546E7
:102FB0000848001F0068C0F30140401C4600B5FBF4
:102FC000F6F902E0DFF8109000BF00BF4846BDE808
:102FD000F0870000083802400024F40040787D01AA
:102FE000F8B5044600260CB90120F8BD207800F0A1
:102FF0000100002871D0F848006800F00C00042897
:103000000DD0F548006800F00C00082813D1F248F4
:10301000001F006800F48000B0F5800F0BD1EE486F
:1030200008380068C0F34040002869D06068002874
:1030300066D10120D9E700BF6068B0F5803F08D1B4
:10304000E5480838006840F48030E34908390860F2
:103050002EE0606868B9E0480838006820F48030E5
:10306000DD49083908600846006820F480200860BF
:103070001EE06068B0F5A02F0DD1D7480838006871
:1030800040F48020D449083908600846006840F4BC
:10309000803008600CE0D0480838006820F48030A8
:1030A000CD49083908600846006820F4802008608F
:1030B00000BF606890B1FDF7DDFE054606E0FDF754
:1030C000D9FE401B642801D903208EE7C248083886
:1030D0000068C0F340400028F1D011E0FDF7CAFEBF
:1030E000054606E0FDF7C6FE401B642801D9032013
:1030F0007BE7B94808380068C0F340400028F1D1A8
:10310000207800F00200022869D1B348006800F07E
:103110000C0058B1B048006800F00C0008281CD121
:10312000AD48001F006800F48000B0B9AA48083814
:103130000068C0F3400020B1E068012801D0012000
:1031400053E7A5480838006820F0F800216940EAF4
:10315000C100A1490839086041E0E06828B39E48F1
:103160000838006840F001009B4908390860FDF705
:1031700081FE054606E0FDF77DFE401B022801D9D1
:10318000032032E7944808380068C0F34000002864
:10319000F1D091480838006820F0F800216940EA31
:1031A000C1008D490839086019E08B48083800686B
:1031B00020F00100884908390860FDF75BFE0546EC
:1031C00006E0FDF757FE401B022801D903200CE75B
:1031D000814808380068C0F340000028F1D1207809
:1031E00000F00800082836D16069D0B17A486C3008
:1031F000006840F0010078496C310860FDF73AFE44
:10320000054606E0FDF736FE401B022801D90320E3
:10321000EBE671486C300068C0F340000028F1D044
:1032200019E06D486C30006820F001006A496C318B
:103230000860FDF71FFE054606E0FDF71BFE401B7C
:10324000022801D90320D0E663486C300068C0F33F
:1032500040000028F1D1207800F00400042874D147
:103260005D483830006800F0805080B900BF5A488F
:103270003830006840F080505749383108600846BF
:10328000006800F08050009000BF00BF0126534846
:10329000006800F48070B0B95048006840F4807055
:1032A0004E490860FDF7E6FD054606E0FDF7E2FD44
:1032B000401B642801D9032097E64848006800F4C1
:1032C00080700028F2D000BFA068012808D14248D1
:1032D0006830006840F001003F49683108602DE027
:1032E000A06868B93C486830006820F001003A499D
:1032F000683108600846006820F0040008601DE09E
:10330000A06805280DD134486830006840F00400FA
:103310003149683108600846006840F001000860E3
:103320000CE02D486830006820F001002A4968311F
:1033300008600846006820F00400086000BFA0682C
:10334000A8B1FDF797FD054609E02EE0FDF792FDD7
:10335000401B41F28831884201D9032045E61E48CE
:1033600068300068C0F340000028EFD013E0FDF79C
:1033700081FD054608E0FDF77DFD401B41F28831E7
:10338000884201D9032030E6134868300068C0F352
:1033900040000028EFD1012E07D10F4838300068D7
:1033A00020F080500C4938310860A069F0B30A4819
:1033B000006800F00C00082868D0A06902284DD1F0
:1033C00005480838006820F0807003490839086013
:1033D000FDF750FD05460AE0083802400070004045
:1033E000FDF748FD401B022801D90320FDE52948CF
:1033F0000068C0F340600028F2D1D4E90701084317
:10340000616A40EA81110122A06AC2EB500041EAE0
:1034100000412C20005D41EA00613020005D41EA5E
:1034200000701C49091D0860081F00E030E00068BA
:1034300040F08070091F0860FDF71CFD054606E09E
:10344000FDF718FD401B022801D90320CDE51148E6
:103450000068C0F340600028F2D019E00D48006811
:1034600020F080700B490860FDF704FD054606E07A
:10347000FDF700FD401B022801D90320B5E50548F2
:103480000068C0F340600028F2D101E00120ACE503
:103490000020AAE50038024070B504460D460CB97C
:1034A000012070BD94F82C0028B9002084F82D006C
:1034B000204600F011F8022084F82C00211D20681D
:1034C000FDF76CF82946D4E90002FDF7BBF80120AE
:1034D00084F82C000020E4E710B50446FDF734FB27
:1034E00010BD70B504460D4694F82C00022800D19A
:1034F00070BD022084F82C0029462068FDF788F86A
:10350000012084F82C000020F2E770B504460D4637
:10351000164694F82C00022800D170BD022084F8D1
:103520002C00324629462068FDF779F828680228E1
:1035300003D1052084F82C0002E0012084F82C003F
:103540000020EAE7704770B58AB004460D460026B1
:10355000032084F83400606C032820D0B5F5805F28
:1035600004D1A06B40F08050A0631CE0B5F5006F63
:1035700007D1204604F00DF80646A06B3043A06347
:1035800011E03DB9204603F0CFFF0646A06B304363
:10359000A06308E0A06B40F00060A06303E0A06BB4
:1035A00040F08050A063A06B40B140F2FF50216812
:1035B0008863012084F834000AB070BD606804900C
:1035C000A0680590E0680690079560690890A0697A
:1035D000099007A807C88DE80700206804A90EC94C
:1035E00003F044FC012084F834000020E4E7704735
:1035F00030B503460022586E020E90090870C2F3DF
:103600008300487002F003008870586EC0F30742D0
:10361000CA70B3F86400C0F307220A7193F86420FB
:103620004A71986E020E4FF6FF7000EA0210C880D1
:10363000986EC0F30742C88840EA1210C88002F0B2
:103640000F0008726820C05AC0F30722D0094872E0
:10365000C2F380108872C2F34010C872C2F3001027
:10366000087300204873586C00283ED19007000D65
:1036700008616820C25C086940EA82000861D86E6F
:10368000020E086940EA92100861C2F3C200087590
:1036900002F007004875D86EC0F3074250098875DC
:1036A000C2F38200C8759007400F08766C20C05A9C
:1036B000C0F30722087E40EAD21008760869401C51
:1036C00058650C7E586DA41C0125A54068435865BB
:1036D0000C7A0120A0409865D3E91504640A604380
:1036E000D8654FF400741C6630E0586C012821D175
:1036F0006820C25C9006800A0861D86E020E0869D4
:1037000040EA02200861D86EC0F3074208691043FE
:1037100008616C20C05AC0F307220869441C4FF4AA
:103720008060A4FB00045865D8654FF400749C6564
:103730001C660BE040F2FF501C68A063986B40F0E1
:1037400080509863012083F8340030BDC2F38010AC
:1037500001F8190F9006400E48706C20C25C487842
:1037600040EAD210487002F07F008870186F020E95
:10377000D009C870C2F341100871C2F382004871C9
:103780009007000F8871186FC0F30742887940EAEC
:1037900092108871C2F34010C8710020087202F0C4
:1037A000010048727020C05AC0F30722D009887205
:1037B000C2F38010C872C2F340100873C2F3001045
:1037C0004873C2F38100887302F00300C87370204D
:1037D000C25C500808740120487419390020B4E70D
:1037E0000246506C0860906C4860D06C8860106D28
:1037F000C860506D0861906D4861D06D8861106E31
:10380000C86100207047F8B5044604260025002052
:1038100000906946204603F06EFE054615B1A06B88
:103820002843A0630098C0F343263046F8BD00004B
:1038300070B5044600252068406BC0F300200028C6
:1038400062D04FF48070216888632068C06B20F4D8
:103850009D702168C863206B00F0080048B3206B9E
:1038600000F0020018B9206B00F0200050B1206871
:1038700003F0AEF805462DB1A06B2843A0632046A7
:10388000FFF7B5FE40F2FF5021688863012084F8FD
:103890003400206B00F0010018B9206B00F002002A
:1038A00018B1204600F070FAB1E0204600F06DFA41
:1038B000ADE0206B00F080000028F5D0206B00F018
:1038C000200050B1206803F083F805462DB1A06BAD
:1038D0002843A0632046FFF78AFE206B00F001001A
:1038E0000028E1D1206B00F002000028DCD1206824
:1038F000C06A20F008002168C862012084F8340002
:10390000204600F042FA82E02068406BC0F380302D
:1039100038B14FF4804021688863204603F0D2FE1E
:1039200075E02068406BC0F3C03038B14FF4004000
:1039300021688863204603F0CBFD68E02068406B77
:1039400000F03A0008B1012000E0002000285ED01D
:103950002068406BC0F3400018B1A06B40F002003B
:10396000A0632068406BC0F3C00018B1A06B40F0AA
:103970000800A0632068406BC0F3401018B1A06B32
:1039800040F02000A0632068406BC0F3001018B125
:10399000A06B40F01000A06340F2FF5021688863E4
:1039A0002068C06B20F49D702168C863206B00F014
:1039B000800010B3206C50B11548216C0865206C54
:1039C000FCF7B0FE18B3206C03F063FB1FE0E06B64
:1039D00050B11048E16B0865E06BFCF7A3FEB0B195
:1039E000E06B03F027FB12E00020A063012084F8C5
:1039F00034002046FFF7A6FD09E0206B00F0080028
:103A000028B1012084F834002046FFF7F0FD70BD96
:103A1000937000083570000810B504460CB90120F9
:103A200010BD94F8340020B900202077204600F023
:103A300053F8032084F83400204600F008F80020F2
:103A4000A0632063012084F834000020E8E730B54B
:103A500089B004460025002003900490059006904C
:103A600007907620089006A807C88DE80700206810
:103A700003A90EC903F0FAF92068406820F48070A9
:103A800021684860206803F00BFA2068406840F421
:103A90008070216848600220FDF742F8204603F05C
:103AA0003FFC054645B1012084F83400A06B284353
:103AB000A063012009B030BD204603F0B3FB0546EA
:103AC0003DB1012084F83400A06B2843A06301209D
:103AD000F0E70020EEE7000010B586B004461421A0
:103AE00001A8FCF7EFFB5749206888427DD100BF51
:103AF0005548006840F40060534908600846006873
:103B000000F40060009000BF00BF00BF4E481438B2
:103B1000006840F004004C49143908600846006809
:103B200000F00400009000BF00BF00BF084600681E
:103B300040F0080008600846006800F008000090A7
:103B400000BF00BF4FF4F850019002200290012006
:103B50000390032004900C20059001A93B48FDF739
:103B600065F80420019002200290012003900320B8
:103B700004900C20059001A93548FDF757F8354809
:103B8000354908604FF0006048600021324881608C
:103B9000C1604FF4806101618900416189008161E8
:103BA0002021C1614FF440310162042141620321AF
:103BB00081624FF40001C16289100163FCF7EAFEE3
:103BC00008B1FCF7A5FC00BF2348E063846300BF95
:103BD00020484830214908604FF00060486040218B
:103BE0001E4881600021C16000E028E04FF4806140
:103BF000016189004161890081612021C1614FF427
:103C00004031016204214162032181624FF40001CD
:103C1000C16289100163FCF7BDFE08B1FCF778FCB6
:103C200000BF0E482064846300BF002201213120C0
:103C3000FDF7B0FB3120FDF79DFB09F043FD06B019
:103C400010BD0000002C0140443802400008024032
:103C5000000C024058640240ECBD04204CBE04201D
:103C60002DE9F04186B00446884616461D460027D9
:103C7000B8F1000F07D1A06B40F00060A0630120F5
:103C800006B0BDE8F08194F83400012876D1002018
:103C9000A0637119E06D814205D9A06B40F00070FE
:103CA000A0630120ECE7032084F8340000202168A1
:103CB000C8622068C06B40F495702168C8633048C2
:103CC000E16BC8632F48E16BC8640020E16B0865B5
:103CD0006A029308226802F180014246E06BFCF719
:103CE000CFFE2068C06A40F008002168C862606C9E
:103CF000012800D076024FF0FF300090680201905A
:103D00009020029002200390002004900120059052
:103D10006946206802F0B4FE4FF40071206802F09A
:103D200007FD074657B140F2FF5021688863A06B3A
:103D30003843A063012084F83400A1E7012D07D99E
:103D4000822020633146206802F05EFD074606E0CF
:103D5000812020633146206802F073FD07465FB181
:103D600040F2FF5021688863A06B3843A0630120B4
:103D700084F8340084E701E0002081E702207FE737
:103D8000EF6F0008896F0008704770472DE9F04118
:103D900086B00446884616461D460027B8F1000F37
:103DA00007D1A06B40F00060A063012006B0BDE821
:103DB000F08194F83400012875D10020A0637119B6
:103DC000E06D814205D9A06B40F00070A063012036
:103DD000ECE7032084F8340000202168C8622068E2
:103DE000C06B40F01A002168C8633048216CC8637A
:103DF0002F48216CC8640020216C0865606C012884
:103E000000D076024FF40071206802F091FC074662
:103E100057B140F2FF5021688863A06B3843A0631C
:103E2000012084F83400C1E7012D07D9A0202063C8
:103E30003146206802F0EAFD074606E09020206344
:103E40003146206802F0FFFD074657B140F2FF50AF
:103E500021688863A06B3843A063012084F8340094
:103E6000A4E72068C06A40F008002168C8626902BF
:103E70008B08216801F180024146206CFCF700FEAE
:103E80004FF0FF30009068020190902002900020D7
:103E900003900490012005906946206802F0F0FD2F
:103EA000002083E7FFE7022080E700008170000820
:103EB000896F000870B504462546681EB0F1807F02
:103EC00001D301200FE0681E4FF0E02148610F216F
:103ED0004FF0FF3006F026FB00204FF0E021886114
:103EE00007200861002070BD7047704770470000D0
:103EF00030B502460B4600BF92F83C00012801D1C4
:103F0000022030BD012082F83C0000BF022082F870
:103F10003D001068416810688468114D1068A8421F
:103F200003D0104D1068A84203D121F470015868E5
:103F3000014321F070011868014324F0800498685F
:103F400004431068416010688460012082F83D00DD
:103F500000BF002082F83C0000BF00BFD1E7000096
:103F6000000001400004014010B504460CB90120D6
:103F700010BD94F83D0028B9002084F83C0020468C
:103F800000F00CF8022084F83D00211D206803F0A9
:103F9000C5FC012084F83D000020E9E738B504465F
:103FA0000D492068884215D100BF0C48006840F0D8
:103FB00002000A4908600846006800F0020000900C
:103FC00000BF00BF002211461D20FDF7E3F91D20B0
:103FD000FDF7D0F938BD0000000400404038024031
:103FE00001460868C06840F001000B68D8600868A6
:103FF0008068084B00EA0302062A08D0B2F5803F29
:1040000005D00868006840F001000B6818600020C7
:1040100070470000070001002DE9F04104460D46FD
:1040200000BF94F83C00012802D10220BDE8F081D5
:10403000012084F83C0000BF022084F83D00206885
:1040400086683748064026F47F46206886602868E0
:10405000502833D00CDC202850D004DC00284BD072
:10406000102851D149E0302849D040284CD139E0BE
:1040700060282DD0702807D0B0F5805F03D0B0F550
:10408000005F41D10DE040E0D5E902136A68206885
:1040900003F0B0FC2068866846F0770620688660EA
:1040A00033E0D5E902136A68206803F0A3FC2068B6
:1040B000806840F480402168886026E0EA6869688A
:1040C000206803F0ABFC5021206803F09EFC1CE04C
:1040D000EA686968206803F0B4FC6021206803F096
:1040E00094FC12E0EA686968206803F097FC4021BC
:1040F000206803F08AFC08E000BF00BF00BF296809
:10410000206803F082FC00E000BF00BF012084F8BB
:104110003D0000BF002084F83C0000BF00BF85E7E1
:1041200088FFFEFF704710B5044620680069C0F3A1
:104130004000D8B12068C068C0F34000B0B16FF053
:10414000020021680861012020772068806900F062
:10415000030018B12046FFF7E5FF05E0204600F018
:10416000BEF8204600F0BCF80020207720680069E7
:10417000C0F38000D8B12068C068C0F38000B0B13F
:104180006FF00400216808610220207720688069B0
:1041900000F4407018B12046FFF7C4FF05E0204648
:1041A00000F09DF8204600F09BF800202077206862
:1041B0000069C0F3C000D8B12068C068C0F3C00077
:1041C000B0B16FF0080021680861042020772068F2
:1041D000C06900F0030018B12046FFF7A3FF05E017
:1041E000204600F07CF8204600F07AF80020207786
:1041F00020680069C0F30010D8B12068C068C0F31F
:104200000010B0B16FF0100021680861082020771D
:104210002068C06900F4407018B12046FFF782FFA3
:1042200005E0204600F05BF8204600F059F8002039
:1042300020772068006900F0010058B12068C0684C
:1042400000F0010030B16FF00100216808612046E4
:1042500000F048F820680069C0F3C01058B1206829
:10426000C068C0F3C01030B16FF0800021680861F1
:104270002046FFF73AFE20680069C0F3002058B1DD
:104280002068C068C0F3C01030B16FF4807021683E
:1042900008612046FFF728FE20680069C0F38010FF
:1042A00058B12068C068C0F3801030B16FF0400092
:1042B00021680861204600F029F820680069C0F3F1
:1042C000401058B12068C068C0F3401030B16FF0A2
:1042D0002000216808612046FFF708FE10BD7047E6
:1042E0007047000010B5044606492068884207D18F
:1042F00001210548FCF7AEFD02210348FCF7AAFDA9
:1043000010BD0000000400400004024070477047E8
:104310002DE9F04704462068C569206806682068D2
:10432000876805F00F08B8F1000F0CD105F02000E8
:1043300048B106F0200030B1206E10B12046216E49
:104340008847BDE8F087B8F1000F71D007F0010091
:1043500018B906F49070002879D005F0010048B132
:1043600006F4807030B1012021680862E06F40F0EF
:104370000100E06705F0020048B107F0010030B12C
:10438000022021680862E06F40F00400E06705F059
:10439000040048B107F0010030B104202168086230
:1043A000E06F40F00200E06705F0080060B106F041
:1043B000200010B907F0010030B108202168086220
:1043C000E06F40F00800E067E06F80B305F0200088
:1043D00038B106F0200020B1206E10B12046216EC9
:1043E0008847D4F87C902068806800F0400040281E
:1043F00002D009F0080020B3204603F0E2FB206859
:10440000806800F04000402817D12068806820F0C4
:10441000400021688860E06E58B11948E16E086577
:10442000E06EFCF77FF910B1E06E016D88470DE09A
:104430000DE02046FFF76BFF08E02046FFF767FF1F
:1044400004E02046FFF763FF0020E06779E705F00E
:10445000800040B106F0800028B1606E10B12046A7
:10446000616E88476DE705F0400030B106F040000E
:1044700018B1204603F0B6FB63E700BF61E7000018
:10448000AB7B000810B504460CB9012010BDA06933
:1044900000B100E000BF606F28B9002084F8700010
:1044A000204600F029F8242060672068006820F08A
:1044B000010021680860204603F00EFC012800D1AD
:1044C000E4E7606A10B1204603F0CFFA2068406844
:1044D00020F49040216848602068806820F02A001D
:1044E000216888602068006840F001002168086049
:1044F000204603F036FBC9E710B586B00446142108
:1045000001A8FBF7DFFE3B492068884270D100BF5D
:104510003948006840F010003749086008460068D4
:1045200000F01000009000BF00BF00BF32481438F8
:10453000006840F0010030491439086008460068FE
:1045400000F00100009000BF00BF4FF4C060019078
:104550000220029000200390032004900720059081
:1045600001A92648FCF762FB2548264908604FF060
:1045700000604860002123488160C1604FF4806181
:104580000161002141618161C16101624162FCF709
:1045900001FA08B1FBF7BCFF00BF1A48E06684636C
:1045A00000BF17487830184908604FF00060486035
:1045B0004021154881600021C1604FF48061016194
:1045C000002141618161C16101624162FCF7E2F950
:1045D00008B1FBF79DFF00BF0B48A066846300BFD6
:1045E000002211462520FCF7D5FE2520FCF7C2FE4F
:1045F00006B010BD001001404438024000000240E7
:1046000040640240D0BF042030C0042010B50346EF
:10461000986F202865D101B10AB9012010BD00BFF3
:1046200093F87000012801D10220F7E7012083F8F8
:10463000700000BF5965A3F85820A3F85A20002045
:10464000186600BF9868B0F5805F0AD1186920B974
:1046500040F2FF10A3F85C0020E0FF20A3F85C000C
:104660001CE0986848B9186918B9FF20A3F85C00E5
:1046700014E07F20A3F85C0010E09868B0F1805F40
:1046800009D1186918B97F20A3F85C0006E03F2023
:10469000A3F85C0002E00020A3F85C0000BF00204B
:1046A000D867222098671868806840F001001C686D
:1046B000A0609868B0F5805F04D1186910B90A4805
:1046C000186601E00948186600BF002083F87000F2
:1046D00000BF1868006840F490701C6820600020DB
:1046E0009CE702209AE70000057C0008717C000826
:1046F0001D4A0168914236D11C49098801F40041E4
:1047000089BB1A49098801F4804171B118490978B7
:104710000A2903D00021154A118024E01349098891
:1047200041F40041114A11801DE0114909780D2919
:1047300006D10E49098841F480410C4A118012E0EB
:104740000B490978094A1288C2F30D02094B9954A2
:1047500006490988491C054A1180114609886329C0
:1047600001DD002111807047001001404600022049
:1047700044000220ECBE04202DE9F84F04460E460A
:1047800017469946606F20285CD106B117B9012001
:10479000BDE8F88F00BF94F87000012801D1022015
:1047A000F6E7012084F8700000BF0020E0672120B8
:1047B0006067FCF75FFB8246A4F85070A4F8527063
:1047C000A068B0F5805F04D1206910B90025B0461B
:1047D00002E035464FF000081DE0534600228021DC
:1047E0002046CDF8009003F049FC08B10320CFE744
:1047F00045B9B8F80000C0F308002168886208F1E4
:10480000020803E02878216888626D1CB4F8520021
:10481000401EA4F85200B4F852000028DDD15346DF
:10482000002240212046CDF8009003F027FC08B17B
:104830000320ADE72020606700BF002084F87000EF
:1048400000BFA5E70220A3E7704700BFFEE730B531
:104850000B46002100BF16E00A24B4EB107F05D9F7
:10486000302404EB107403F8114005E0412404EBFC
:1048700010740A3C03F81140000100254C00641C30
:104880001D554C1CE1B29142E6DB30BD10B504462B
:10489000012C01D12D4908702C480078002839D00E
:1048A00008212B48FCF7CEFA80B104212848FCF7F8
:1048B000C9FA58B14FF400512648FCF7C3FA28B1A1
:1048C00001212548FCF7BEFA012823D10A20FCF774
:1048D00027F900201D49087008211D48FCF7B2FA8D
:1048E00008B9012010BD04211948FCF7ABFA08B93A
:1048F0000220F7E74FF400511648FCF7A3FA08B975
:104900000320EFE701211448FCF79CFA01281BD192
:104910000420E7E708210E48FCF794FA012813D198
:1049200004210B48FCF78EFA01280DD141030948F8
:10493000FCF788FA012807D101210748FCF782FA21
:1049400010B90120014908700020CBE700000220C7
:10495000001C02400008024000000240094948755E
:1049600030B98988074AD18211460988118308E045
:10497000012806D103490988024AD1821146898853
:104980001183704734BA042070B5114B5B7D6BB155
:104990000F4BDB690E4D2D6805FB01056B430C4D7C
:1049A0002D7D0C4E56F82550EA520FE0084B1B683F
:1049B000074D6D682D1A03FB0513054DED696B431B
:1049C000034D2D7D034E56F82550EA5270BD000070
:1049D00034BA04203C00022018B50446074800946D
:1049E000008B401E83B20548C08A401E82B200215F
:1049F000084600F007F80248046018BD34BA0420E5
:104A0000080002202DE9F84F04460D4616464FF0E7
:104A1000000CDFF83C9199F81590B9F1000F04D023
:104A20002046294632461F4611E02846DFF82091ED
:104A3000D9F80490A9EB0609A9F101011A46DFF89B
:104A40001091D9F80490A9EB0409A9F10107DFF846
:104A50000091B9F80090A2EB000A0AF1010AA9EB53
:104A60000A091FFA89F8DFF8E89099F81490DFF83E
:104A7000E4A05AF82990DFF8D8A0DAF81CA0DFF8F3
:104A8000D0B0DBF800B00BFB010B0AFB0B9E00BFA4
:104A9000DFF8C490D9F8009049F40009DFF8B8A015
:104AA000CAF80090D146D9F8009009F40009CDF871
:104AB000009000BF00BFDFF8A490D9F8009029F063
:104AC0000109DFF898A0CAF800904FF44039CAF8FD
:104AD00000904FF00209CAF83490D146C9F84080DE
:104AE000C9F83CE0A7EB010909F10109A2EB000AB2
:104AF0000AF1010A49EA0A49DFF860A0CAF84490BD
:104B0000DDF82890CAF83890D146D9F8009049F0DD
:104B10000109CAF8009005E00CF1010CBCF5001F7A
:104B200000D308E0DFF83490D9F8049009F00209C6
:104B3000B9F1000FF0D000BFDFF82090D9F808904D
:104B400049F00209DFF814A0CAF80890BDE8F88F10
:104B500034BA04203C0002203038024000B0024049
:104B600008B54FF4F070184908604FF48870486039
:104B7000012008814881282088810820C8810520DB
:104B80000882082048820220C86110481049086045
:104B9000002000F039F80C48808880B200900A4864
:104BA000008883B200221146104600F015F800205C
:104BB000FFF7D4FE012220210648FCF754F94FF6F6
:104BC000FF70FFF709FF08BD34BA0420000000C0E1
:104BD0003C000220000402402DE9F04104460E464C
:104BE00017461D46DDF8188023463A4631460548EB
:104BF000FCF706FB2346424629460248FCF736FBF3
:104C0000BDE8F08154BA04200149087570470000DE
:104C100034BA0420F0B58E880768FF68C7F30B47E5
:104C20003E44330406688436802707FB02667668B4
:104C300006F47047066884364FF0800C0CFB026661
:104C400077600E680768FF68C7F30B473E44761C21
:104C50001E43076884370CFB02777E608E890768E5
:104C6000FF68C7F30A073E4433040668843680278A
:104C700007FB0266B66806F47047066884360CFBCC
:104C80000266B7608E680768FF68C7F30A073E448C
:104C9000761C46EA0307066884360CFB0266B7609A
:104CA00006688436802707FB0266366926F0070708
:104CB000066884360CFB026637610F690668843625
:104CC0000CFB026637613126765C33023226765C55
:104CD00034040E7E350606688436802707FB02669C
:104CE000B6690027066884360CFB0266B76191F846
:104CF00030601E43264346EA0507066884360CFBEF
:104D00000266B76106688436802707FB026676690B
:104D100026F0FF07066884360CFB026677614F6950
:104D2000066884360CFB0266776106688436802745
:104D300007FB0266F66940F20777BE4307688437CF
:104D40000CFB0277FE61D1E90776374306688436AB
:104D50000CFB0266F76106688436802707FB026653
:104D6000B66A0027066884360CFB0266B7624F6A93
:104D7000066884360CFB0266B7620E690EB904231E
:104D800013E00E69012E01D103230EE00E69042EFB
:104D900008D00E69022E05D00E69032E02D00E69CE
:104DA000072E01D1022300E0012306688436802704
:104DB00007FB0266F66A06F0E027066884364FF0C5
:104DC000800C0CFB0266F762D1E90076F61B5E43AD
:104DD000F61C0F8D5F4346EA0747066884360CFBD6
:104DE0000266F76206688436802707FB0266366B28
:104DF000F70AFF02066884360CFB02663763CF6A47
:104E0000066884360CFB0266376306688436D70171
:104E1000F65946F00107066884364FEAC21C46F888
:104E20000C70F0BD2DE9F84F80460F4616461C4623
:104E3000BB462046E31704EB5373DB1021464FEAD1
:104E4000E47C04EB5C7C4FEAEC0CA4EBCC0CBCF1F6
:104E5000000F02D04FF0010C01E04FF0000C634452
:104E6000224604EBD27C4FEA6C0C03FB0CF3DBB262
:104E70000093A6F12000C6B200255EE00C2C07D1FD
:104E800006EB46002F4901EB800010F805901BE06F
:104E9000102C05D12C4800EB061010F8059013E0FB
:104EA000182C07D106EBC600284901EB800010F84A
:104EB000059009E0202C05D1254800EBC61010F81C
:104EC000059001E0BDE8F88F4FF0000A2FE009F0EF
:104ED000800030B11F48394602684046FFF754FD54
:104EE00007E00A9828B91C48394602684046FFF78F
:104EF0004BFD4FEA49604FEA1069781C87B21748AA
:104F0000008BB84200DCDDE7A7EB0B00A0420AD122
:104F10005F4608F101001FFA80F81048C08A40453A
:104F200000DCCFE706E00AF1010000F0FF0ABAF169
:104F3000080FCCDB00BF681CC5B2009885429DDB22
:104F400000BFBFE754DB0008C8DF0008B8E5000871
:104F500014F30008040002200800022034BA0420E0
:104F6000F8B506460F4615461C460EE00020009098
:104F700022782B4639463046FFF754FF284605EB8A
:104F8000D07106EB61018EB2641C20787E2802DCB1
:104F900020782028EADAF8BD70B50546D5F89042A9
:104FA0004FF40670005D48B94FF40570005928B100
:104FB000607A18B90121284603F05CFD812128465A
:104FC00003F058FD607A022806D11F2304F503720E
:104FD0000121284603F0A2FC70BD000070B5054613
:104FE000D5F890424FF4047001594FF40C70015100
:104FF0004FF4057001594FF40D70015101212846FD
:1050000003F014FC1F2810D12A49D4F80C0288425E
:105010000BD140F21920005D012806D84815005D2B
:1050200018B14815005D10280DD940F21920015D16
:1050300020230522284601F035FA02206072284616
:10504000FFF7AAFF33E040F21920015D04F21B22B2
:10505000284600F0BBFF00280BDA207A052804D18F
:105060000121284600F0C0F821E02846FFF794FF10
:105070001DE0207A022819D0207A012816D0207A43
:10508000032813D0608930B1628904F10C012846ED
:1050900000F0C8F80BE0608920B90021284600F034
:1050A000A3F804E02846FFF777FF00E070BD00BFDB
:1050B000FCE700005553424370B506460D46D6F84E
:1050C0009042607A022806D18121304603F0D2FC5A
:1050D000002060720CE005F08000802807D1607A23
:1050E000012804D00121304600F07EF800E070BDB8
:1050F00000BFFCE770B505460E46D5F89042207A11
:10510000022804D0032812D0042815D10EE040F262
:105110001920015D04F21B22284600F057FF0028E9
:1051200003DA0121284600F05FF806E000BF002105
:10513000284600F059F800E000BF00BF70BD70B510
:1051400005460E46D5F89042207A10B1012813D1B9
:1051500003E02846FFF742FF0FE040F21920015D0F
:1051600004F21B22284600F031FF002803DA012157
:10517000284600F039F800E000BF00BF70BDD0F84D
:10518000901200220A72704770B50546D5F8904219
:1051900000202072607284F85D0284F85C02D5F809
:1051A00094020168002088470121284603F02BFB68
:1051B0008121284603F027FB1F2304F503720121F8
:1051C000284603F0ABFB70BD70B50546D5F890429C
:1051D00000202072012060721F2304F50372012158
:1051E000284603F09BFB70BD70B505460E46D5F80A
:1051F00090420B48C4F82C024FF40E700655002064
:1052000020720D2304F50B728121284603F05EFC09
:105210001F2304F503720121284603F07FFB70BDB4
:10522000555342532DE9F04106460F461546D6F830
:1052300090424FF405700059A84203D24FF4057014
:10524000005900E028461FFA80F84FF40D7000590D
:10525000411B4FF40D7001510021001D0155042028
:10526000207243463A468121304603F02FFCBDE8C8
:10527000F081000008B500BF1648006840F48000C7
:10528000144908600846006800F48000009000BFE0
:1052900000BF002211463A20FCF77CF83A20FCF7C8
:1052A00069F8002202213B20FCF774F83B20FCF750
:1052B00061F8002202214520FCF76CF84520FCF73C
:1052C00059F8002211464620FCF764F84620FCF706
:1052D00051F808BD3038024000B58FB0334834492A
:1052E00008604FF4807048600221314881600021DD
:1052F000C16001614FF40031416100218161C161F0
:1053000040F2FE702A494862402129488162C16208
:10531000890101630221416389028163002180F8D0
:105320003C1002200B9003200C900D9002200E9058
:10533000079003200890099002200A9007AA0BA961
:105340001B48FBF7E9FF08B1FBF7E2F81748C0304C
:105350001849086000204860012116488160082132
:10536000C16010210161402141614FF4C071816130
:105370000021C1614FF400610162490041624900AE
:105380008162022000900820019006200290039084
:105390000420049002200590069069460548FEF717
:1053A0007BF808B1FBF7B4F80FB000BD800000A097
:1053B000C0B9042000BA04207047000000B587B0CF
:1053C000142102A8FAF77EFF00BF6048006840F091
:1053D00004005E4908600846006800F0040001907F
:1053E00000BF00BF00BF0846006840F4807008603E
:1053F0000846006800F48070019000BF00BF00BF45
:105400000846006840F0200008600846006800F088
:105410002000019000BF00BF00BF0846006840F0B8
:10542000800008600846006800F08000019000BF1E
:1054300000BF00BF0846006840F001000860084651
:10544000006800F00100019000BF00BF00BF0846E7
:10545000006840F0020008600846006800F00200A2
:10546000019000BF00BF00BF0846006840F0400048
:1054700008600846006800F04000019000BF00BFCF
:1054800000BF0846006840F0100008600846006849
:1054900000F01000019000BF00BF00BF0846006888
:1054A00040F0080008600846006800F0080001901D
:1054B00000BF00BF002203212548FBF7D4FC0122D6
:1054C00020212348FBF7CFFC4FF40050029000202E
:1054D00003900120049002A91E48FBF7A7FB0120BE
:1054E0000290002003900220049002A91A48FBF7C2
:1054F0009DFB0C200290002003900120049002A943
:105500001648FBF793FB01200290039000200490C3
:105510000320059002A90E48FBF788FB02200290A9
:105520000120039000200490059002A90848FBF791
:105530007DFB202002900120039004900320059021
:1055400002A90348FBF772FB07B000BD30380240E8
:10555000000402400008024000000240001C02401B
:1055600000B58DB034216846FAF7ACFE2B482C49C3
:10557000086000204860002129488160C160016105
:10558000416181612821C161082101624FF40271EA
:1055900041624FF48C71816240F20D21C1624FF47F
:1055A00090710163002180F8341080F8351080F884
:1055B0003610FBF7DFFC08B1FAF7AAFF00200090D5
:1055C0004FF4F0700190002002904FF48870039027
:1055D00002200490FF200590002006904FF4806088
:1055E0000790052008904FF0404009904FF4F0706C
:1055F0000A904FF488700B9000208DF83000002145
:105600008DF831108DF83210002269460448FBF7FE
:1056100081FC08B1FAF77CFF0DB000BD00680140C5
:1056200054BA042010B50C480C49086002204860A8
:1056300004210A4881601021C160182101614901DB
:10564000416100218161C1610162FCF715FE08B171
:10565000FAF75EFF10BD0000001000A0FCBA0420A5
:1056600010B50D480D4908600020486000210B4826
:105670008160C160016141618161FEF7CDF908B1CE
:10568000FAF746FF4FF400610448FDF75CFF08B1EC
:10569000FAF73EFF10BD0000002C014068BD042059
:1056A00000B587B00020039004900590069000900C
:1056B0000190029014481549086042F62F20486076
:1056C00000211248816041F28731C16000210161EF
:1056D0008161FEF749FC08B1FAF71AFF4FF48050D8
:1056E000039003A90948FEF797FC08B1FAF710FFE9
:1056F00000200090029069460448FEF7F9FB08B1CB
:10570000FAF706FF07B000BD00040040ACBE04205D
:1057100010B50D480D4908604FF4E1304860002194
:105720000A488160C16001610C21416100218161F1
:10573000C16101620020054948620846FEF7A2FEE9
:1057400008B1FAF7E5FE10BD0010014050BF04207B
:1057500010B500220D490E4802F033FF08B1FAF7E8
:10576000D7FE0C490A4803F050FB08B1FAF7D0FE07
:105770000949074803F04DFA08B1FAF7C9FE044891
:1057800003F00CFC08B1FAF7C3FE10BD480002207C
:1057900090C00420DC000220A800022000BFFEE729
:1057A0007047000010B50248FCF770F810BD00000B
:1057B0002CC304202DE9F04705460C462F683E46D1
:1057C000D7F8408006F5306000EB4410D0F8089020
:1057D000286901280FD1184880451BD909F40040D9
:1057E000B0F5004F16D14FF4004106F5306000EBE4
:1057F000441081600EE0114880450BD109F400404F
:10580000B0F5004F06D14FF4004106F5306000EBD3
:10581000441081602846FCF756FC0748804508D9AB
:105820002869012805D105F571720121286804F065
:10583000C5F80020BDE8F0870A30544F0A31544FB4
:105840002DE9F04705460C46D5F800804646D8F8C5
:10585000409006F5306000EB441087682869012805
:105860007ED107F0080008281ED1534881450BD986
:1058700007F40040B0F5004F06D14FF4004106F5A3
:10588000306000EB441081602846FCF71CFC05F5F5
:1058900071720121286804F091F8082106F5306042
:1058A00000EB4410816083E007F02000202806D13F
:1058B000202106F5306000EB4410816078E007F0AD
:1058C0002800002874D13C4881450CD907F40040D9
:1058D000B0F5004F07D14FF4004106F5306000EB02
:1058E0004410816064E0C4EBC40105F5FE7000EB78
:1058F0008100816806F5306000EB44100069C0F358
:105900001200091AC4EBC40205F5FE7000EB820018
:105910008161C4EBC40105F5FE7000EB8100C4EBAE
:10592000C402C16805F5FE7000EB82008068014486
:10593000C4EBC40205F5FE7000EB8200C160E1B269
:105940002846FBF708FEFCB9C4EBC40105F5FE7060
:1059500000EB81004069B8B905F57172012100E0E2
:1059600003E0286804F02AF822E0144881451BD19E
:1059700007F40040B0F5004F07D14FF4004106F5A1
:10598000306000EB4410816012E007F02000202816
:1059900005D1202106F5306000EB44108160E1B2B2
:1059A0002846FBF7D8FD03E0E1B22846FBF7D3FD1C
:1059B0000020BDE8F08700000A30544F0A31544FF0
:1059C0002DE9F84F07460E46D7F80090C846C6EBBB
:1059D000C60107F13C0000EB8104D4E905108842C0
:1059E00002D90120BDE8F88FD4E90501451AA06865
:1059F000A84200D2A568E81C4FEA900A17E0D4E953
:105A00000501451AA068A84200D2A568E81C4FEA23
:105A1000900A387CABB2F2B200904846E16804F0DC
:105A20005DFBE0682844E060A0692844A06108F5B7
:105A3000106000EB4610806980B2504506D3D4E96F
:105A40000510884202D260690028D8D1D4E9050146
:105A500088420ED806F00F01012000FA01FB40F643
:105A6000340050F8080020EA0B0040F6340141F8F9
:105A700008000020B6E7704710B54B6A33B1B2F1A9
:105A8000406F03D08B6A5B1E046823618B69002B17
:105A900076D00B6AE3B38B680468E361CB69FBB132
:105AA000D1E90B3423434C6B23434C6A23438C8A48
:105AB00043EA84430C6923430C6A2343CC682343A1
:105AC000CC6923438C6923430C6823431343046844
:105AD0006361B2F1406F02D04B680468A361BEE01D
