:020000040800F2
:10000000C81A00200D02000817360008C92C000885
:10001000153600084D030008E949000800000000FB
:10002000000000000000000000000000474200083F
:1000300025040008000000001936000849420008A5
:1000400027020008270200082702000827020008EC
:1000500027020008270200082702000827020008DC
:1000600027020008270200082702000827020008CC
:1000700027020008270200082702000827020008BC
:1000800027020008270200082702000827020008AC
:10009000270200082702000827020008270200089C
:1000A000270200082702000827020008270200088C
:1000B0002702000859430008270200082702000809
:1000C000270200082702000827020008270200086C
:1000D00027020008C9490008270200082702000873
:1000E000270200082702000827020008270200084C
:1000F000270200082702000827020008270200083C
:10010000270200088D38000827020008270200088F
:10011000270200082702000827020008270200081B
:100120002702000827020008510300085D030008A9
:1001300027020008270200082702000827020008FB
:1001400027020008270200082702000827020008EB
:100150002702000869030008750300082702000849
:1001600027020008270200082702000827020008CB
:1001700027020008270200082702000800000000EC
:1001800027020008270200082702000827020008AB
:10019000270200082702000827020008270200089B
:1001A000270200082702000827020008270200088B
:1001B000270200082702000827020008270200087B
:1001C000270200082702000800000000270200089C
:1001D000270200082702000827020008270200085B
:1001E000270200082702000827020008270200084B
:1001F0002702000827020008DFF80CD000F094F86E
:1002000000480047C14D0008C81A00200648804732
:1002100006480047FEE7FEE7FEE7FEE7FEE7FEE7EB
:10022000FEE7FEE7FEE7FEE705430008F9010008E8
:100230002DE9F05F0546002092469B46884606461B
:10024000814640241BE0284641464746224600F0AE
:100250005AF853465A46C01A914110D311461846CF
:10026000224600F041F82D1A67EB01084F4622465E
:100270000120002100F038F817EB00094E41201E44
:10028000A4F10104DFDC484631462A464346BDE876
:10029000F09F40EA01039B0703D009E008C9121F41
:1002A00008C0042AFAD203E011F8013B00F8013B30
:1002B000521EF9D27047D2B201E000F8012B491E5C
:1002C000FBD270470022F6E710B513460A460446F3
:1002D0001946FFF7F0FF204610BD421C10F8011B25
:1002E0000029FBD1801A7047202A04DB203A00FA4B
:1002F00002F1002070479140C2F1200320FA03F37D
:10030000194390407047202A04DB203A21FA02F07A
:100310000021704721FA02F3D040C2F1200291403F
:100320000843194670470000064C074D06E0E06898
:1003300040F0010394E8070098471034AC42F6D32C
:10034000FFF75EFFF496000814970008FEE7000030
:10035000014800F007B9000008160020014800F02D
:1003600001B9000024140020014800F0FBB800008F
:1003700084140020014800F0F5B800006816002041
:1003800001681823CAB2103AB2FBF3F2054B6FF3BF
:100390000901032A9B5CC36500D9091D81650846D4
:1003A00070470000D496000810B583694FF0C07400
:1003B000826A0146002053B1B3F5005F15D072B1D7
:1003C000012A0CD0022A0AD0032A09D104E01AB16A
:1003D000012A06D0022A03D1C96AC90100D5012029
:1003E00010BDC96AA142FAD010BD002AF7D0012A77
:1003F000F2D0022AF3D0032AF3D010BD30B504683E
:10040000256825F480252560046863608368402B97
:10041000036803D099600068C26030BD9A600068CC
:10042000C16030BD70477047F0B5D1E90125D1E911
:100430000343D1E905762A43D1F800C044EA030416
:10044000D1E9073542EA0402496A42EA0702BCF1EF
:10045000010F42EA060208D004681A432A430A43FD
:10046000E30BDB031A4302600BE0066844682B438E
:1004700026F4F84529430B4303606FF30E0422432F
:1004800042600020F0BD426942EA41014161002022
:10049000704738B591E81C00C9686FF01F051A4312
:1004A00005EB441444EA41210A4300920261002012
:1004B00038BD00002DE9F043914691E81C006FF033
:1004C0000F05521E2E0105EB03131A430B7E06EB9C
:1004D00004268C8A2F034FEA054C0D8A32434FF0D5
:1004E0007F4808EB0366CB68B9F1010F07EB0545C0
:1004F0000CEB04540CD081683F1107EB03331A4313
:100500002A432243324301F070410A43826011E0E2
:100510008168DFF828C0C7681B03A3F58053234315
:100520002A4301EA0C0132430B43836007F0704415
:100530002243C2600020BDE8F0830000FF0F0FFFE0
:1005400090F83510022903D08021416501207047C1
:10055000052180F835100068016821F00101016073
:10056000002070472DE9F84304464FF00009644B22
:100570000820CDF800904FF41652A56D94F85C1049
:100580001B682E68B3FBF2F700FA01F131420FD07D
:1005900021680A6852070BD50A6822F004020A6033
:1005A00094F85C108840A860606D40F001006065C0
:1005B00094F85C104FF0010808FA01F0304208D0BE
:1005C00021684969090604D5A860606D40F0020001
:1005D000606594F85C1004208840304208D021689F
:1005E0000968890704D5A860606D40F00400606563
:1005F00094F85C1010208840304218D021680968B7
:10060000090714D5A86020680168490304D500686B
:10061000000308D5A16C07E00168C90503D401688F
:1006200021F008010160216C09B12046884794F847
:100630005C1020208840304231D021680968C9060A
:100640002DD5A86094F8350005282068016806D0EB
:10065000490347D5006800031DD4616C1CE021F0FC
:10066000160101602068416921F080014161206C20
:1006700008B9A06C20B12068016821F00801016070
:1006800094F85C303F229A40AA6084F8349084F851
:100690003580216D1FE0E16B09B120468847606D10
:1006A00000282BD0606DC00714D0052084F83500D9
:1006B0002068016821F0010101600098401C009051
:1006C000B84203D820680068C007F6D184F8349097
:1006D00084F83580E16C002910D001B02046BDE8D7
:1006E000F04308470168C905D5D4036823F0100317
:1006F000036084F8349084F83580CCE7BDE8F88353
:10070000300000202DE9F047044600F007FA0546C6
:1007100064B14FF0000984F83490022184F8351058
:100720002068016821F0010101600EE00120BDE8B0
:10073000F08700BF00F0F2F9401B052805D9202101
:100740006165032084F83500F1E720680068C00780
:10075000F0D1D4E90020D4E90251D4E9043C284383
:1007600004F1180519430843116895E8E00140EACF
:100770000C001C4B2843194040EA060040EA0700E1
:10078000B8F1040F40EA010003D1D4E90B13194377
:100790000843106020680126656A4069042D20F036
:1007A000070045EA00050CD1D4E90A01054341B12F
:1007B0002046FFF7F9FD20B14020606584F83560E0
:1007C000B4E7206845612046FFF7DAFD94F85C3015
:1007D0003F229A408260C4F8549084F8356000202B
:1007E000A5E700003F8010E02DE9F041044690F8B5
:1007F000340000250128A66D0ED094F835C00127DD
:10080000002084F83470BCF1010F07D0022584F871
:1008100034002846BDE8F0810220FBE7022784F877
:10082000357060652046FFF7E9FD94F85C103F20C5
:100830008840B0602068016841F0160101602068BE
:10084000416941F080014161206C20B1206801685C
:1008500041F0080101602068016841F00101016078
:10086000D7E7000070B5044600F058F90546601C53
:1008700002D004480078044400F050F9401BA04224
:10088000FAD370BD240000201E48F0B5016887B07F
:10089000002935D1012101601B48016841F00101A7
:1008A0000160006802240025694600F001000590FF
:1008B00003264FF63F000C278DE8F100134800F0A7
:1008C0002FF80D2069468DE8F100114800F028F856
:1008D00048F2371069468DE8F1000E4800F020F824
:1008E0004FF6807069468DE8F1000B4800F018F86B
:1008F0004CF2037069468DE8F100084800F010F8EA
:1009000007B0F0BD1000002038380240001402404B
:10091000000802400018024000100240000C024093
:100920002DE9F84FDFF89CE100224FF001084FF06D
:10093000030B4FF00F0A00BF0B6808FA02F42340C4
:10094000A34271D14D68022D01D0122D0FD1D508CF
:100950000E69570700EB8505A9462D6AFF0E0AFAB6
:1009600007FCBE4025EA0C052E43C9F820600F792C
:10097000550006680BFA05FC07F0030726EA0C068B
:10098000AF40374307604E68012E05D0022E03D0DA
:10099000112E01D0122E0ED18668CF6826EA0C06E1
:1009A000AF403743876046680F79A643C7F3001707
:1009B000974037434760C4688E6824EA0C04AE4011
:1009C0002643C6604C68E40075D53F4C256845F465
:1009D00080452560246822F00306950704F48044CE
:1009E00000943A4C2D0F2644D6F80848DFF8E0C0B2
:1009F0000AFA05F7604524EA070401D100272EE032
:100A0000344FB84201D1012729E0334FB84201D118
:100A1000022724E0314FB84201D103271FE0304FB5
:100A2000B84202D104271AE045E02E4FB84201D166
:100A3000052714E02C4FB84201D106270FE02B4FB9
:100A4000B84201D107270AE0294FB84201D108274F
:100A500005E0284FB84201D1092700E00A27AF403E
:100A600027437546C6F808784E68DEF80040F6035E
:100A700024EA030400D51C43124E2C60361D4D6839
:100A80003468AD0324EA030400D51C430D4F3460E1
:100A900008374D683C68ED0224EA030400D51C4386
:100AA000084D3C600C354E682C68B60224EA0304FD
:100AB00000D51C432C60521C102AFFF43DAFBDE84A
:100AC000F88F0000003C01404438024000300140F3
:100AD000000002400004024000080240000C0240F6
:100AE000001002400014024000180240001C0240A6
:100AF00000200240002402400069084000D001208C
:100B00007047426931EA020200D1090481617047ED
:100B10000AB1816170470904FBE700000148806861
:100B200070470000240000200248816802781144C8
:100B30008160704724000020094810B5016841F425
:100B400000710160016841F480710160032000F0D0
:100B5000E1F9002000F006F800F096F9002010BD41
:100B6000003C024070B50D4D04464FF47A700C4ABB
:100B700029781268B0FBF1F0B2FBF0F001F060FCF4
:100B800048B9102C07D200222146501E00F0A2F9CD
:100B900000206C6070BD012070BD000024000020AA
:100BA000300000202DE9F041044690F8A0001646E0
:100BB0000F4601281DD0012584F8A050022084F89A
:100BC000A10006EB860000EBC600342204EB800097
:100BD0003830FFF75EFB32463946204602F0C8F94E
:100BE000216800204D6284F8A15084F8A000BDE87F
:100BF000F0810220FBE700002DE9F041040004D061
:100C000094F8A100002518B107E00120BDE8F081AB
:100C1000204684F8A05000F06BF83448022184F894
:100C2000A110012202CC8B6923F070438B6194E800
:100C30004A001943E3681E4354F8043D31439E695A
:100C40003143996121688B6803408B602168A68AD3
:100C5000A7698B683B4343EA06438B602168CB68F6
:100C60000340CB602168A38B276ACE683E4346EAE7
:100C70000346CE6021680B6903400B612368A68C94
:100C8000A76A1969394341EA0641196121684B692C
:100C900003404B612068A38D266B4169314341EAD3
:100CA00003414161236894F8351094F83600DE6AF8
:100CB000000406F07F46DE62236840EA012094F8D3
:100CC0003460D96A31430143D9622068416B41F0F5
:100CD000060141632068816941F001018161C4F826
:100CE000A45084F8A120002090E7000000F800F054
:100CF000F0B587B0044614216846FFF7E3FA31499E
:100D0000206888425CD13048016841F08061016010
:100D1000006800F0806005902B481438016841F4A9
:100D200080710160016801F480710591016841F0F2
:100D300020010160016801F020010591016841F086
:100D400001010160016801F001010591016841F0B4
:100D500080010160016801F080010591016841F0A6
:100D600040010160006802240025694600F040004F
:100D70000590032640F2F7600E278DE8F100134836
:100D8000FFF7CEFD600269468DE8F1001048FFF7DD
:100D9000C7FD202069468DE8F1000E48FFF7C0FD31
:100DA0004FF47A4069468DE8F1000B48FFF7B8FD33
:100DB0004FF40C6069468DE8F1000848FFF7B0FD7C
:100DC00007B0F0BD006801404438024000200240F6
:100DD0000014024000000240001C024000180240C3
:100DE00070B5044690F8A0000E46012820D003EB11
:100DF000830000EBC301012584F8A050022084F891
:100E0000A10004EB81018E63086E3044C1E90F023A
:100E1000486E1044486438311A46204602F0A8F85B
:100E2000216800204D6284F8A15084F8A00070BDB4
:100E3000022070BD70B5044690F8A0000E4601284F
:100E400020D003EB830000EBC301012584F8A05000
:100E5000022084F8A10004EB8101886B3044C86350
:100E6000086C10444864C1E9186238311A462046BB
:100E700002F07EF8216800204D6284F8A15084F8C9
:100E8000A00070BD022070BD0A4808B5016841F09D
:100E900080510160006800F0805000900548001DFE
:100EA000016841F480410160006800F480400090D6
:100EB00008BD000040380240002809DB410900F06D
:100EC0001F028900012001F1E0219040C1F80001DA
:100ED000704700000E4BF0B41B680D46C3F30223AD
:100EE000C3F10706042E00D90426191D072901D2D3
:100EF000002300E0DB1E012404FA06F19C40491E99
:100F00002940641E994014402143F0BC03F01ABFED
:100F10000CED00E0064900F0070210B54FF6FF04A3
:100F20000868044B204040EA02201843086010BDC6
:100F30000CED00E00000FA051848F8B5016841F032
:100F4000805101600068164C00F0805000902068CD
:100F500040F480302060FFF7E1FD4FF47A760546DB
:100F600005E000BFFFF7DAFD401BB0420FD8606814
:100F7000C003F7D5206840F400302060FFF7CEFDB5
:100F8000054606E0FFF7CAFD401BB04201D9032029
:100F9000F8BD60688003F5D50020F8BD40380240F8
:100FA000007000402DE9F84F17468B460446FFF7C6
:100FB000B5FD824694F8400001280ED001264FF07E
:100FC000000884F8406094F84100012807D0022509
:100FD00084F840802846BDE8F88F0220FBE74FF0F8
:100FE0000209C4F8448084F841900022202153462D
:100FF0002046009702F026FC0500E9D10022594660
:10100000204602F00AFBDBF8240058B901225346BF
:1010100002212046009702F015FC0500D8D1216876
:10102000C1F80C9084F84160D2E70000F8B504469E
:10103000FFF774FD07465CB194F84000012809D021
:10104000012684F84060002594F8410020B10BE0AF
:101050000120F8BD0220F8BD84F84050204600F081
:1010600045F841F28830A06420686FF0FF03A16862
:10107000026803EB012322F4F85119430160A06CCC
:10108000002220213B460090204602F0DBFB30BBD3
:101090002268D4E9077C94F804E0E16813683943D6
:1010A000104F4CEA0E6EDFF840C03B4041EA0E01A3
:1010B000194311602168D4E90527B4F810E04B68A2
:1010C0003A4303EA0C0343EA0E431A434A60216899
:1010D0000A6842F001020A60656484F8416084F89D
:1010E0004050F8BD2FFFFF00FEF8E0FF2DE9F04370
:1010F00087B0044614216846FFF7E4F823492068C6
:1011000088423FD12248016841F002010160006835
:1011100000F0020005901E480838016841F02001E7
:101120000160016801F020010591016841F00201B0
:101130000160006802240025DFF8589000F00200EA
:101140000590032669460927C0208DE8F10048462E
:10115000FFF7E6FB30024FF00A088DE8710169469F
:101160004846FFF7DDFB042069468DE8F1000A4F91
:101170003846FFF7D5FB402138468DE872016946B5
:10118000FFF7CEFB07B0BDE8F0830000001000A021
:101190003838024000140240000402402DE9F84FA4
:1011A00015460E460446FFF7B9FC82462068816961
:1011B00094F8403000F12009012B0DD001274FF0A9
:1011C000000884F8407094F84120012A06D00220DB
:1011D00084F84080BDE8F88F0220FBE7C4F8448023
:1011E0009EB3222284F841200269521CA263026944
:1011F000521C62632663426922F0406242F08062C0
:101200004261206881610DE00621204602F01AFB50
:10121000C0B999F80020206B411C21630270A06BBB
:10122000401EA063A06B53464FF0010200950028BA
:10123000EAD14FF00201204602F004FB10B9226807
:101240000221D16084F84170C2E7FFE7616C0120A0
:1012500041F008016164BBE72DE9F84F15460E46E1
:101260000446FFF75BFC94F8401082462068012991
:1012700000F120090ED001274FF0000884F84070DB
:1012800094F84110012907D05FF0020084F84080F3
:10129000BDE8F88F0220FBE7C4F844807EB312213A
:1012A00084F841100169491CE1620169491CA1628D
:1012B0006662416921F0406141610DE004212046F0
:1012C00002F0C0FAC0B9606A411C6162017889F815
:1012D0000010E06A401EE062E06A53464FF00102EF
:1012E00000950028EAD14FF00201204602F0AAFA48
:1012F00010B922680221D16084F84170C6E7FFE787
:10130000616C012041F008016164BFE72DE9F84FED
:1013100004460078DFF824944FF000063746C007F3
:101320000ED0D9F8001021F40001C9F80010D9F846
:101330000010626B1143C9F80010606B00B9012600
:10134000FE4D2068843500030ED5E16B286820F43B
:10135000401008432860E06BB0F5801F01D010B149
:1013600002E0012600E0012720684FF4800BC00254
:101370000CD5216C286820F4400008432860206CBC
:10138000584501D1012601E000B901272068C101BB
:1013900000D50126800666D5E8483830016841F05E
:1013A000805101600068DFF898A300F08050009041
:1013B000DAF8001041F48071CAF80010FFF7AEFBB4
:1013C000804605E0FFF7AAFBA0EB080064287DD863
:1013D000DAF80000C005F5D5DFF8608308F1680889
:1013E000D8F8000010F440702AD0218E01F440712A
:1013F000814225D0D8F80010D8F8002021F440719F
:1014000042F48032C8F80020D8F8002022F480325C
:10141000C8F80020C8F80010D8F80000C0070FD0A6
:10142000FFF77CFB824607E0FFF778FBA0EB0A01A1
:1014300041F288308142CAD8D8F800008007F3D53D
:10144000206BC0F3012103297ED0D9F8001021F4CC
:10145000F811C9F80010228ED8F80010C2F30B0260
:101460001143C8F800102078C00607D5286820F07E
:10147000807028602868A16B084328602188AF48E5
:101480008830490405D5626E016821F4403111436A
:1014900001602188090405D5A26E016821F440216C
:1014A000114301602168C90305D5E26E016821F48A
:1014B0004011114301602168890305D5226F01683D
:1014C00021F4400111430160217800E034E1490634
:1014D00005D5626C016821F0030111430160217898
:1014E000090605D5A26C016821F00C0111430160C9
:1014F0002188C90505D5E26C016821F0300111434E
:1015000001602188890505D5226D016821F0C0019F
:10151000114301602188490505D5626D016821F4F8
:101520004071114301602188090505D5A26D01684C
:1015300021F44061114301602188C90407D5E26D9F
:10154000016821F4405100E05FE01143016021880F
:10155000890405D5226E016821F4404111430160E0
:101560002168490205D5A26F016821F0806111430D
:10157000016021684FF0006A890209D5E26F0168B5
:1015800021F0006111430160E16F514500D1012755
:1015900021680A0700D50127490305D5626F016854
:1015A00021F04071114301602168090206D5D4F889
:1015B0008020016821F080511143016021684901B8
:1015C00006D5D4F88420016821F000511143016050
:1015D0002068000106D5D4F88810286820F0007033
:1015E000084328602068C00006D5D4F88C1028680D
:1015F00020F0806008432860DFF84891012E0ED06B
:101600002068B0F1007F0AD08FE04F4AD9F800304F
:10161000104023F4F8120243C9F800201BE7D9F860
:1016200000004E4620F08060C9F80000FFF776FA0F
:10163000804605E0FFF772FAA0EB080064287BD82B
:1016400030680001F6D421783C487C30C90712D0BC
:10165000616B81B9237A62680168D0F800C0920199
:10166000C1F3014142EA0142CCF3036142EA016164
:1016700041EA0371016021680A0303D5E26BB2F508
:10168000801F04D0C9021AD5216C594517D163684F
:10169000016894F80CC002689B01C1F3014143EA60
:1016A0000141C2F3027241EA0C6141EA0271016038
:1016B0002968626A21F01F01521E114329602168C6
:1016C000C90110D5238A62680168D0F800C0920170
:1016D000C1F3036142EA034242EA0162CCF30271C0
:1016E00042EA01710160216889010CD56168228A92
:1016F000237B94F808C0890141EA024141EA036171
:1017000041EA0C7101603168B04641F0806131609E
:10171000FFF704FA064604E0FFF700FA801B64288E
:101720000AD8D8F800000001F6D5E7B3D9F80000D0
:101730004E4620F0805009E07BE00000083802406F
:101740000070004000380240FFFCFF0FC9F80000A5
:10175000FFF7E4F9074604E0FFF7E0F9C01B64284F
:1017600067D83068C0438000F6D5216835480A0341
:1017700001D5E26B1AB1C9021DD5216CD9B96369D3
:101780000168277E02689B01C1F3014143EA0143DE
:10179000C2F3027143EA076242EA017101602968FB
:1017A0006FF0FF0300E04BE0A26A21F4F85103EB75
:1017B0000222114329602168890212D5E16F514547
:1017C0000FD1238C6269016807689201C1F303613C
:1017D00042EA034242EA0162C7F3027142EA01713E
:1017E00001602178090716D561690268D0F800C048
:1017F0008B01277FC2F30362CCF3014143EA01412D
:1018000041EA026141EA077101602868E16A20F457
:10181000403008432860306840F080503060FFF767
:101820007DF9044608E000BFFFF778F9001B642843
:1018300002D90320BDE8F88F3068C0438000F3D49C
:101840000020F7E7883802402DE9F04705000F46F1
:1018500063D0444E306800F00F00B84209D23068BF
:1018600020F00F0038433060306800F00F00B842BD
:1018700053D128683C4C810712D5400703D5206816
:1018800040F4E05020602878000703D5206840F439
:1018900060402060A968206820F0F00008432060C4
:1018A0002878C0072AD0304968680839012810D044
:1018B0000968022810D0890700292EDA216821F052
:1018C000030101432160FFF729F9804641F288397D
:1018D0000DE009688903EFE78901EDE7FFF71EF9DD
:1018E000A0EB0801494502D90320BDE8F0876868EC
:1018F000216801F00C01B1EB800FEFD1306800F0EE
:101900000F00B8420BD9306820F00F003843306028
:10191000306800F00F00B84201D00120E5E72878D8
:10192000400705D5E968206820F4E05008432060AE
:101930002878000706D52869216821F4604141EA2A
:10194000C000206000F036F82168084AC1F3031196
:10195000515CC840064908600020FFF703F90020E9
:10196000C3E70000003C024008380240DC96000853
:10197000300000200449054809680068044AC1F3A2
:101980008221515CC8407047083802403000002076
:10199000EC9600080449054809680068044AC1F348
:1019A0004231515CC8407047083802403000002086
:1019B000EC960008154910B51548096811F00C029D
:1019C00013D01449042A0FD0082A0ED10F4C241F1B
:1019D0002268236802F03F025B0207D52068C0F34B
:1019E0008810A0FB010106E0084610BD2168C1F384
:1019F0008811A1FB00010023FEF71AFC2168C1F346
:101A00000141491C4900B0FBF1F010BD083802400B
:101A10000024F40040787D012DE9F84F05004FF0D7
:101A200000076ED02878DFF82093A9F1040AC007D8
:101A3000AAF104044CD0D9F800104846C1F3810142
:101A4000012908D00068C0F3810002280AD1DAF821
:101A50000000400206D52068800339D56868002858
:101A6000DFD035E06868B0F5803F0BD010B1B0F53D
:101A7000A02F11D0206820F480302060206820F44E
:101A8000802002E0206840F480302060686890B1D7
:101A9000FFF744F806460AE0206840F48020206002
:101AA000F0E700BFFFF73AF8801B642872D820687F
:101AB0008003F7D50CE0FFF731F8064605E000BFDC
:101AC000FFF72CF8801B6428F0D820688003F7D437
:101AD0002878800742D5D9F80010484611F00C0F3D
:101AE00008D00068C0F3810002280BD1DAF80000AA
:101AF000400207D42068800718D5E868012800D183
:101B000014E01EE1E8680028206817D040F00100CA
:101B10002060FFF703F8064605E000BFFEF7FEFF72
:101B2000801B0228C2D820688007F7D52869216861
:101B300021F0F80141EAC00020600FE020F0010030
:101B40002060FEF7EBFF064605E000BFFEF7E6FF6C
:101B5000801B02281ED820688007F7D42878000749
:101B600029D5794869696C3000298046016812D00E
:101B700041F001010160FEF7D1FF064605E000BF1C
:101B8000FEF7CCFF801B022804D8D8F8000080079D
:101B9000F6D510E089E021F001010160FEF7BEFFFB
:101BA000064604E0FEF7BAFF801B02287DD8D8F86D
:101BB00000008007F6D4287840076BD5DFF88881CD
:101BC00008F13808D8F80000C0000BD4D8F800108D
:101BD00041F08051C8F80010D8F80000012700F04B
:101BE0008050009059480168C90512D401688346A5
:101BF00041F480710160FEF791FF064605E000BFE9
:101C0000FEF78CFF801B64284FD8DBF80000C0056E
:101C1000F6D54D4EA868683601280AD008B10528C7
:101C200011D0306820F001003060306820F00400EE
:101C300002E0306840F001003060A868A0B1FEF713
:101C40006DFF83460CE0306840F004003060F0E740
:101C5000FEF764FFA0EB0B0141F28830814268D8A7
:101C600030688007F4D50EE0FEF758FF834607E0A2
:101C7000FEF754FFA0EB0B0141F28830814258D8A7
:101C800030688007F4D42FB1D8F8001021F08051CB
:101C9000C8F80010A869E0B3D9F80010C1F38101B9
:101CA00002294ED00228206800E042E020F0807037
:101CB000206003D0FEF732FF05463DE0FEF72EFF21
:101CC000064604E0FEF72AFF801B022831D8206870
:101CD0008001F7D4D5E90921DFF874C0D5E90706FA
:101CE00095F830304F0895F82C1030430CEB074531
:101CF00045EA8212104340EA016040EA0370CAF8E4
:101D00000000206840F080702060FEF707FF054665
:101D100005E014E0FEF702FF401B022809D8206806
:101D20008001F7D50BE000BFFEF7F8FE401B02284C
:101D300002D90320BDE8F88F20688001F4D4002088
:101D4000F8E70120F6E70000083802400070004084
:101D50000000FFFF70B504000D4603D094F82C007E
:101D600010B107E0012070BD002084F82D0020464E
:101D700000F011F8022084F82C002068211DFEF7E5
:101D800053FBD4E900022946FEF794FB012084F8B6
:101D90002C00002070BDFEF777BD10B5044690F80A
:101DA0002C00022809D0022084F82C002068FEF7BD
:101DB0006AFB012084F82C00002010BD70B5044699
:101DC00090F82C000D4602280DD0022084F82C003B
:101DD0002068FEF75EFB2868022805D05FF001004E
:101DE00084F82C00002070BD0520F9E77047FEB58F
:101DF00004460D46416C032084F83400032920D0AA
:101E0000B5F5805F1DD0B5F5006F05D045B1A06B6D
:101E100040F00060A06309E0204602F0EDF902E026
:101E2000204602F0C2F9A16B0143A163A06B012619
:101E300058B1216840F2FF50886384F83460012073
:101E4000FEBDA06B40F08050E4E7211DD4E90507FA
:101E50000EC9CDE900500297206801F0BBFF84F85D
:101E600034600020FEBD7047F0B5426E120E93093B
:101E70000B70C2F3830402F003024C708A70426E4E
:101E8000120CCA70B0F86420120A0A7190F864202B
:101E90004A714FF6FF73826E120E03EA0212CA8075
:101EA000CB88826EC2F3074214092343CB8002F031
:101EB0000F020A72B0F868200025C2F30722D30986
:101EC0004B72C2F38014C2F34016C2F300178C7237
:101ED000CE720F734D730123446C4FF400766CB1D6
:101EE000012C46D0026840F2FF519163816B41F0B2
:101EF0008051816380F834300120F0BD9207120DCB
:101F00000A610C6990F8682044EA82020A610C694F
:101F1000C26E120E9709C2F3C20C3C430C6102F070
:101F2000070281F814C04A75C26EC2F307429407D3
:101F300057098F75640FC2F38202CA750C760A7E48
:101F4000B0F86C40C4F3072442EAD4120A760A6956
:101F5000521C42650F7EBF1CBA4042650F7A03FADD
:101F600007F787654FEA572C02FB0CF2C0E91726EA
:101F70001CE090F868209206920A0A610C69C26E11
:101F8000120E44EA02220A610C69C26EC2F30742D1
:101F900014430C610A69B0F86C40521C4FEA82226B
:101FA0004265C4F30724C0E916620666C4F38012D2
:101FB0004FEA84644A764FEA54648C7690F86C2039
:101FC0008C7E4FEAD21602F07F0244EA06048C7639
:101FD000CA7650F8702F4FEA12624FEAD2140C778B
:101FE000C2F34116C2F382074FEA82724E778F77AF
:101FF0004FEA1272CA77CC7F0268C2F3074244EA02
:102000009214CC77C2F3401602F0010281F82060EE
:1020100081F8215081F822200288C2F307224FEA7A
:10202000D21481F82340C2F38015C2F34016C2F3E4
:102030000017C2F3810C02F0030281F8245081F8EA
:10204000256081F8267081F827C081F82820007863
:102050004FEA500081F8290081F82A304FF0000043
:10206000F0BD70B5B0F850100025044600680904B2
:1020700001F02EFD18B1A16B0143A16304E02068BB
:10208000002101F0A1FE0546C5F3432070BD00000C
:1020900070B504460068012540F2FF56416BC90542
:1020A00048D5290281632068C16B21F49D71C16309
:1020B000206B0007206B20D5800702D4206B8006A0
:1020C00009D5206801F036FD28B1A16B0143A16359
:1020D0002046FFF7C8FE2068866384F83450206BE2
:1020E000C00702D1206B800703D5204600F0A6F977
:1020F00070BD204600F0A3F970BD0006FCD5206B32
:10210000800609D5206801F015FD28B1A16B0143B7
:10211000A1632046FFF7A7FE206BC007ECD1206B20
:102120008007E9D42068C16A21F00801C16284F8FF
:102130003450DEE7416B490410D54FF48041816390
:10214000266A0025206806EB850101F06CFE6D1CF7
:10215000082DF7D3206A2030206270BD416B09043E
:1021600010D54FF400418163A66A0025206801F074
:1021700046FE46F825006D1C082DF7D3A06A2030D6
:10218000A06270BD416B11F03A0FFAD0416B890724
:1021900003D5A16B41F00201A163416B090703D58F
:1021A000A16B41F00801A163416B890603D5A16BC6
:1021B00041F02001A163416BC90603D5A16B41F039
:1021C0001001A16386632068C16B21F49D71C16316
:1021D000206B000623D5206C58B115490165206C91
:1021E000FEF7AEF90028CCD0206CBDE8704001F0BD
:1021F00087BEE06B58B10F490165E06BFEF7A0F9AF
:102200000028BED0E06BBDE8704001F055BE002054
:10221000A06384F834502046FFF7E8FD70BD206BC2
:102220000007FBD584F834502046FFF71CFE70BD34
:10223000013F0008B93E000870B5040004D094F8CE
:102240003400002510B105E0012070BD204625773F
:1022500000F03CF8032084F83400204600F007F832
:102260000120A563256384F83400002070BD3EB5CD
:1022700004467620002100910B460A46CDE9011064
:10228000206801F0A7FD2068416821F48071416059
:10229000206801F0B0FD2068416841F48071416020
:1022A0000220FEF7DFFA204601F02CFF4FF0010577
:1022B00020B9204601F0B3FE002805D084F8345040
:1022C000A16B0143A16301203EBD00002DE9F04F49
:1022D00087B0814614216846FDF7F4FF5149D9F8CB
:1022E000000088427ED1504800684F4940F40060A9
:1022F0000860086800F4006005904B4814380068D6
:10230000494940F0040014390860086800F00400EE
:1023100005900968444841F00801143801600068DC
:1023200002210C2400F0080005904FF4F8500090B2
:1023300000200325CDE901103C486946CDE903544E
:10234000FEF7EEFA01AA049404260096022000216A
:1023500082E8230036486946FEF7E2FA354C4FF032
:10236000006B35484FF400184FF4806AB102C4E99D
:10237000000BC4F830800020666204F1140EA060E7
:102380008A00C4E9030A202320462F044FF4000CDE
:102390008EE88E00C4E90A5CFEF7B4F908B1FEF7D6
:1023A00042F8244D4FF04008DFF88CC04FF48056BF
:1023B0006035C9F83C40C4F838900CF1480C202036
:1023C000C5F800C00022C5E901B8B700EA600321E2
:1023D0004FF0040C0204C5F810A04FF440344FF441
:1023E000000800E01BE02A631C3585E81110C5E9F0
:1023F000031845E90267A5F11C001C3DFEF782F9B0
:1024000008B1FEF710F8C9F8405000220121C5F8C4
:1024100038903120FEF75EFD3120FEF74DFD07B00C
:10242000BDE8F08F002C0140443802400008024013
:10243000000C02402414002058640240704770478A
:10244000401EB0F1807F10B501D3012010BD4FF0C8
:10245000E02460610F21601702F074FC0020A0618D
:102460000721216110BD70477047704770B590F823
:102470003C20012A24D0134C012580F83C50022234
:1024800080F83D2002685368A242966802D00E4C44
:10249000A24203D14C6823F4700323430C6823F059
:1024A000700389681C435460002326F0800602688C
:1024B0003143916080F83D5080F83C30184670BD43
:1024C000022070BD000001400004014010B504006E
:1024D00003D094F83D0010B107E0012010BD0020AA
:1024E00084F83C00204600F00DF8022084F83D00FE
:1024F0002068211D01F036FF012084F83D000020F6
:1025000010BD000008B500680B49884212D10B4885
:10251000016841F00201016000680022114600F0EC
:10252000020000901D20FEF7D5FCBDE808401D20EC
:10253000FEF7C2BC08BD0000000400404038024065
:102540000168094ACB6843F00103CB6001688868E1
:102550001040062806D0B0F5803F03D0086840F050
:1025600001000860002070470700010070B50446B4
:1025700090F83C00012817D0324B012584F83C50DC
:10258000022084F83D0022689068184020F47F40C3
:1025900090600868502830D00DDC20284DD005DC34
:1025A00098B310283BD148E0022070BD302844D0B9
:1025B000402834D139E0602828D0702806D0B0F502
:1025C000805F2CD0B0F5005F29D10AE04A6820680E
:1025D000D1E9021301F02CFF2068816841F07701F6
:1025E00009E04A682068D1E9021301F021FF206860
:1025F000816841F48041816011E0CA6849682068BF
:1026000001F027FF2068502107E016E0CA684968FA
:10261000206801F02FFF2068602101F012FF0020E8
:1026200084F83D5084F83C0070BDCA684968206851
:1026300001F00FFF20684021EFE7226801461046B5
:10264000EBE7000088FFFEFF704770B504460068A6
:1026500000250169C943890715D4C168C9438907A1
:1026600011D4EA1E02610121217720688069800768
:10267000204602D0FFF7E8FF04E000F0A7F820466C
:1026800000F0A5F8257720680169C943490717D4E8
:10269000C168C943490713D402216FF004020261E3
:1026A00021772068806910F4407F204602D0FFF730
:1026B000CBFF04E000F08AF8204600F088F8257788
:1026C00020680169C943090716D4C168C9430907CD
:1026D00012D404216FF00802026121772068C069DA
:1026E0008007204602D0FFF7AFFF04E000F06EF84D
:1026F000204600F06CF8257720680169C943C906B7
:1027000017D4C168C943C90613D408216FF0100259
:10271000026121772068C06910F4407F204602D012
:10272000FFF792FF04E000F051F8204600F04FF868
:10273000257720680169C943C90708D1C168C94321
:10274000C90704D1891E0161204600F041F82068C4
:102750000169C943090609D4C168C943090605D4FA
:102760006FF0800101612046FFF77EFE206801695D
:10277000C943C90509D4C168C943090605D46FF422
:10278000807101612046FFF76EFE20680169C94330
:10279000490609D4C168C943490605D46FF0400110
:1027A0000161204600F02AF820680169C9438906C2
:1027B0000BD4C168C943890607D46FF020010161B9
:1027C0002046BDE87040FFF750BE70BD70477047AF
:1027D00010B50068074988420AD1074C01212046FC
:1027E000FEF78FF92046BDE810400221FEF789B9B7
:1027F00010BD000000040040000402407047704714
:102800002DE9F041026804460025D06911689368FB
:1028100010F00F0F5BD003F0010601F490773743FF
:1028200069D0C70707D0CF0505D501271762E26F2A
:1028300042F00102E267820708D5DA0706D027686E
:1028400002223A62E26F42F00402E267420708D5D0
:10285000DA0706D0236804221A62E26F42F002020D
:10286000E26702070AD501F02002324306D023684E
:1028700008221A62E26F42F00802E267E26F002A61
:1028800032D0800605D5880603D5216E09B12046D1
:1028900088472168E06F8968490601D4000725D57B
:1028A000204601F0C4FE20688168490619D5816878
:1028B00021F040018160E06E98B11A490165E06E37
:1028C000FDF73EFE00280FD0E06E016D06E08306A6
:1028D00011D58B060FD5216E12E02046BDE8F041E0
:1028E00008472046FFF78BFFBDE8F0812046FFF741
:1028F00086FFE567F8E7030605D50B0603D5616E8D
:102900000029EAD1F0E74006EED54806ECD5136879
:102910002021204623F0400313606167656600F0C4
:10292000D1F9E1E79D45000810B5040002D0606FC1
:1029300010B107E0012010BD002084F8700020468F
:1029400000F026F8242060672068016821F001016A
:102950000160204601F0DEFE0128ECD0606A10B173
:10296000204601F099FD2068416821F490414160C2
:102970002068816821F02A0181602068016841F0A7
:10298000010101602046BDE8104001F0E9BD0000F2
:102990002DE9F04387B0074614216846FDF792FC05
:1029A0002F493868884258D12E48016841F01001FB
:1029B0000160006800F0100005902A481438016892
:1029C00041F00101016000680024022100F00100D3
:1029D00005904FF4C06007238DE8130003222248BE
:1029E000CDE903236946FDF79BFF204E4FF4806934
:1029F0001F4A4FF0006830463260C6E90184C6E9DC
:102A000003497461B461F46134627462FDF77AFE63
:102A100008B1FDF708FD154D4023FE666035B7632C
:102A200005F10800124A783280E818026C612846E5
:102A3000AC61EC612C626C62C5E90028FDF762FEB6
:102A400008B1FDF7F0FC0022BD6625201146AF63FA
:102A5000FEF740FA2520FEF72FFA07B0BDE8F08315
:102A600000100140443802400000024008160020D7
:102A70004064024070B5836F202B4BD1B9B1B2B125
:102A800090F87030012B45D08368012680F8706083
:102A90000024416535030466AB42A0F85820A0F835
:102AA0005A204FF0FF0107D1026912B126E0012040
:102AB00070BD40F2FF1121E04FF07F02E3B1B3F1AE
:102AC000805F1ED0A0F85C402221C4678167016846
:102AD0008A6842F001028A608168A94201D10169D5
:102AE000B1B10D49016680F870400068016841F499
:102AF00090710160002070BD036933B9A0F85C10CB
:102B0000E2E7016909B13F21F8E7A0F85C20DBE7C3
:102B10000249E7E7022070BDB94600085F46000899
:102B200030B50068114988420CD1114841880A0427
:102B300008D402464FF000034C04127806D50A2A46
:102B400001D0438030BD41F400410DE00D2A09D091
:102B5000084DC1F30D04491C89B263292A554180EF
:102B6000EFD830BD41F48041418030BD00100140BC
:102B700020000020241500202DE9F8430446406F72
:102B80001F4616460D4620284FD1CDB1C6B194F848
:102B90007000012849D0012284F8702021214FF0D3
:102BA0000008C4F87C806167FDF7B8FF8146A06823
:102BB000A4F85060A4F85260B0F5805F03D004E040
:102BC0000120BDE8F883206910B12E46002510E0F1
:102BD00000260EE08021204601F0C6FEB8B9C6B13D
:102BE00016F8010B21688862B4F85200401EA4F860
:102BF0005200B4F852004B464FF0000200970028F4
:102C0000E8D14FF04001204601F0AEFE38B103207C
:102C1000D7E735F8020B2168C0F30800E3E720216D
:102C20006167002084F87080CBE70220C9E70000CC
:102C300070B50446406F20283BD161B35AB394F875
:102C40007000012835D0A4F85020A4F852200025A7
:102C5000A06E0123E164212184F87030E56761678B
:102C6000D8B115491346C163A16E14480864A16E1A
:102C70001348C864A06E05652068A66E00F128029E
:102C8000E16C3046FDF7B0FD38B11021E16720203E
:102C900084F870506067012070BD21684020086290
:102CA00084F870502068816841F0800181600020C4
:102CB00070BD022070BD0000F745000825460008E1
:102CC000B145000870477047FEE700002DE9F04766
:102CD000314C0128DFF8C4804FF40057DFF8C09072
:102CE0004FF001062F4D1DD02078A0B108212846B5
:102CF000FDF702FFC0B104212846FDF7FDFE98B1A3
:102D000039464046FDF7F8FE70B101214846FDF70F
:102D1000F3FE012808D008212846FDF7EDFE012822
:102D200026D037E02670E1E70A20FDF79BFD002062
:102D3000207008212846FDF7DFFE80B104212846D7
:102D4000FDF7DAFE70B139464046FDF7D5FE58B1C1
:102D500001214846FDF7D0FE012807D01AE00120E6
:102D6000BDE8F0870220FBE70320F9E70420F7E73E
:102D700004212846FDF7C0FE01280BD13946404604
:102D8000FDF7BAFE012805D101214846FDF7B4FE42
:102D900000B926700020E3E7000000200008024090
:102DA00000000240001C024007490A46487593880B
:102DB00012889BB292B220B1012801D1CA820B8342
:102DC0007047CB820A8370476C100020F0B50C4C22
:102DD00095B2DFF830C02346677D1E7DDA691B6837
:102DE0005CF8266027B103FB01004243B552F0BDF9
:102DF0006468201A03FB001050433552F0BD0000F8
:102E00006C1000201800002018B5044600900748F8
:102E1000018BC08A491E8BB2401E82B20021084637
:102E200000F008F80248046018BD00006C10002093
:102E300008000020F8B5274D0026DDF818C06C7D8D
:102E400014B10446174606E01F466B680C46991AF3
:102E50001B1A491E5B1E2A68381B2F7DDFF878E09D
:102E600002FB0144ED69121A5EF82770521E05FB41
:102E7000047495B2194A176847F40007176012687E
:102E8000591A4FF4803302F400020092144A03EB03
:102E900000471068491C394302274FF4403320F0A3
:102EA00001001060136057631564D4635164C2F865
:102EB00038C01168380541F00101116002E0761C4C
:102EC000864202D251688907F9D5906840F0020025
:102ED0009060F8BD6C1000201800002030380240CF
:102EE00000B0024015484FF48871F8B54FF4F07304
:102EF000C0E9003101220281428128258581082410
:102F0000C48105260682022744820E4C0C4AC76102
:102F100022600022027510460091114600F016F85A
:102F20000020FFF741FF084801222021FDF7F0FDB6
:102F3000BDE8F8404FF6FF70FFF766BF6C10002049
:102F4000000000C0180000200004024070B51E46BA
:102F5000044603460548049DFDF742FF23462A46E2
:102F600031460248BDE87040FDF764BF8C10002078
:102F70002DE9FE4F81460068882493468D888C2277
:102F800004EBCB178A46C3689421BE46C459C3F3E9
:102F90000B432B4404F470441F04019702EBCB1243
:102FA00040F80E4001EBCB13DAF800709C214FF093
:102FB000AC0C01EBCB1440F2077102910CEBCB117E
:102FC000D9F800C098250020CDF800C0A02605EB58
:102FD000CB15DCF80CC006EBCB16CCF30B4C0CF18C
:102FE000010C07EB0C08DDF800C0019F48EA070858
:102FF0004CF80E80D9F80070BAF80CC0B846FF68DB
:10300000C7F30A0767444FEA074E58F8027007F4FF
:10301000704C48F802C0D9F800C0DAF80870DCF843
:103020000C80C8F30A0808F10108B84448EA0E0801
:103030004CF80280D9F80020D75827F00707D7505E
:10304000D9F80070DAF81020FA509AF831209AF87E
:1030500018304FEA022C9AF83220120442EA036236
:10306000D9F800301F5918519AF8303043EA0C0350
:103070001343D9F800201351D9F80020535923F0F5
:10308000FF035351D9F80020DAF814305351D9F81E
:1030900000209359029CA3439351D9F80030DAE9F8
:1030A000072422439A51D9F8002053585050D9F898
:1030B0000020DAF824005050DAF81000C8B30128D4
:1030C0003AD004283AD0022838D0032836D007282E
:1030D00034D00120D9F80030B02505EBCB11B42253
:1030E00084245D5802EBCB1205F0E0255D50DAE94F
:1030F000003504EBCB14EB1ABAF828504343454390
:10310000D9F80000DB1C43EA05434350D9F800001E
:1031100081586FF30A018150D9F80000DAF82C10B9
:103120008150D9F80000015941F001010151BDE879
:10313000FE8FFFE70420CDE70320CBE70220C9E79D
:103140002DE9FF5F58071D460C468A4600D0012036
:10315000DFF8B8B0690800EBD500002610FB01F1DC
:10316000203A01F0FF09D0B202904BE00C2D11D0B3
:10317000102D14D0182D17D0202D45D10298244998
:1031800001EBC0104FF00008875D380613D52148C9
:10319000026814E00298204900EB400008E0029821
:1031A0001E4901EB0010EDE702981D4900EBC0003D
:1031B00001EB8000E6E70E9828B9164842682146E0
:1031C0000098FFF703FE7906BBF81800641CA4B250
:1031D0000F0EA04218D9A4EB0A00A84209D100980A
:1031E0005446BBF81610401C80B2009081420BD9A7
:1031F00006E008F1010000F0FF08B8F1080FC4D3A1
:10320000761CF6B24E45B1D3BDE8FF9F6C1000208E
:103210005467000804000020944F00080854000878
:10322000F85900082DE9F84300271C461646884641
:10323000054609E03346414628460097FFF780FFE0
:1032400005EB560085B2641C2278A2F120005E28AE
:10325000F0D9BDE8F8830000154808B5016841F4CD
:103260008001016000680022114600F48000009097
:103270003A20FDF72FFE3A20FDF71EFE00223B20EC
:103280001146FDF727FE3B20FDF716FE00224520E4
:103290001146FDF71FFE4520FDF70EFE00224620D9
:1032A0001146FDF717FEBDE808404620FDF704BEB5
:1032B00030380240F0B5174800250822144F87B077
:1032C0004FF0400E0126C0E900750221C0E90262FC
:1032D000102404610C03C0F814E04FF4C07CC0E972
:1032E00006C58F020762CE020623C0E909648DE895
:1032F0000E0004250393CDE9045106916946FEF7BB
:1033000029FD002801D0FDF78EF807B0F0BD0000C0
:10331000400100A0381000202DE9F04186B01421B2
:103320006846FCF7CFFF4548016841F004010160A1
:10333000016801F004010591016841F480710160A8
:10334000016801F480710591016841F0200101607C
:10335000016801F020010591016841F080010160E0
:10336000016801F080010591016841F001010160EF
:10337000016801F001010591016841F0020101605D
:10338000016801F002010591016841F0400101600E
:10339000016801F040010591016841F010010160F0
:1033A000016801F010010591016841F00801016018
:1033B00000680022DFF88880032100F008000590F3
:1033C0004046FDF7A5FB012240462021FDF7A0FB6A
:1033D00000256946012402946003CDE900051948DF
:1033E000FDF79EFA022618488DE870006946FDF741
:1033F00097FA0C206946CDE9000514480294FDF7C0
:103400008FFA01AA009403276946404682E8B0007B
:10341000FDF786FA00966946CDE9014540460395D9
:10342000FDF77EFA20206946CDE90004CDE9024788
:103430004046FDF775FA06B0BDE8F081303802402D
:10344000000402400008024000000240001C02404C
:10345000F0B58DB034216846FCF734FF24480024D1
:10346000224B282100F11C0C0822C0E900348460A2
:103470004FF40273C4605E1D04614FF48C754461A7
:103480004FF4907784618CE8EE0080F8344080F847
:10349000354080F83640FDF7AFFB08B1FCF7C3FFBD
:1034A0004FF4F0704FF488714506CDE90040CDE946
:1034B0000A010227049707A87A020523CDE90241F1
:1034C00080E82C00FF260A48CDE905648DF83040DD
:1034D00000228DF8314069468DF83240FDF762FBDD
:1034E000002801D0FCF79FFF0DB0F0BD006801403F
:1034F0008C1000202DE9F0410C48002118270A4AC1
:1035000002237E01C0E90561C16104241025016226
:1035100080E8BC00FDF78AFD002803D0BDE8F0413B
:10352000FCF781BFBDE8F081001000A0341100203D
:103530000E4800210C4A10B5C0E900218160C1602D
:10354000016141618161FEF777FE08B1FCF76BFF15
:1035500006484FF40061FEF74AFC002803D0BDE89E
:103560001040FCF760BF10BD002C0140A0130020EC
:1035700010B588B017480024154942F62F2241F2B1
:103580008733009401940294039404940594069460
:1035900080E81600C0E903348461FEF797FF08B1A4
:1035A000FCF741FF4FF4805000900A486946FEF74F
:1035B000DDFF08B1FCF737FF064804A90494069420
:1035C000FEF754FF002801D0FCF72DFF08B010BD16
:1035D00000040040E41400200D48002110B50B4CFD
:1035E0000C224FF4E1330460C0E90131C160C0E94D
:1035F00004128161C16101624162FFF795F90028FF
:1036000003D0BDE81040FCF70EBF10BD0010014014
:1036100088150020FEE7704770472DE9F0434B6A9C
:103620004FF040652BB1AA4203D004688B6A5B1E41
:1036300023618B69002B68D00C6AB4B303688C6873
:10364000DC61CC69FCB1D1E90B38D1F824C04E6BF8
:103650008F8A43EA080346EA0C0633430E6A43EABC
:103660008743D1E9037C43EA0C0333438E693B4330
:103670000F682343046833433B4365E000684968AF
:103680008161BDE8F083D1E90B364F6A4C6B8D8ABE
:1036900033433C430E6923430C6A43EA85438D69F7
:1036A0003343096823432B4362E0FFE7CC69B4F15D
:1036B000000918D0D1E90B484F6A4E6BB1F814C01D
:1036C00044EA08043E430F683443CE6844EA8C441D
:1036D000344344EA09041C4303683C431443AA42AC
:1036E0005C61CBD1CDE7D1E90B464F6A4D6BB1F8A8
:1036F00014C034433D4300682C43096844EA8C44B9
:103700001C430C4314434461BBE70B6AABB303682F
:103710008C68DC61CC69E4B1D1E90B38D1F824C004
:103720004E6B8F8A43EA080346EA0C0633430E6A5F
:1037300043EA8743D1E9037C43EA0C0333438E69B0
:103740003B432343046833431343AA42636195D147
:1037500097E7D1E90B364F6A4C6B8D8A33433C4374
:103760000E6923430C6A43EA854389693343234343
:1037700000680B431343436183E7FFE7CC6984B1DF
:10378000D1E90B384F6A4E6BB1F814C043EA080315
:103790003E433343CE6843EA8C43334323430468B8
:1037A000D2E74C6A002C9DD0D1E90B368F8A4D6B45
:1037B0000168334325432B4343EA87401043486164
:1037C0005FE70000074A491E10B51268116141F217
:1037D000883201460348FDF7E1FC002800D00120B3
:1037E00010BD000034110020F0B58FB014AC94E887
:1037F000E0000024039609970D94CDE907540B943B
:103800000C94CDE90523CDE90001044841F288324A
:103810006946FDF7C7FB0FB0F0BD00003411002072
:10382000074A491E10B51268116141F288320146FB
:103830000348FDF711FD002800D0012010BD000055
:10384000341100202DE9F041984616460F460446F3
:10385000069D12E0681C10D02DB1FDF75FF9A0EBBA
:103860000800A84209D9042084F84100606C40F0A7
:10387000010060640120BDE8F08120688068384064
:1038800000D00120B042E5D10020F4E70148FEF766
:10389000FFBB0000A013002030B585B004463720E0
:1038A00040220DF1080CCDE90010002369461501F6
:1038B00020468CE82C0000F0A5FA372141F288322E
:1038C000204600F065F905B030BD000030B50B4A68
:1038D00085B004462920114340220DF1080CCDE9A2
:1038E000001000236946150120468CE82C0000F0EA
:1038F00089FA204600F002FA05B030BD00001080C1
:1039000030B585B0044610200DF1080C8501CDE9D5
:10391000001040226946002320468CE82C0000F06D
:1039200071FA102141F28832204600F031F905B0D9
:1039300030BD30B585B00446062040220DF1080C9C
:10394000CDE9001000236946150120468CE82C00C3
:1039500000F058FA062141F28832204600F018F9AA
:1039600005B030BD30B585B00546002469464FF43A
:103970008060009401940294CDE90340284600F051
:1039800041FA0B4A4FF4FA5041F288311268B2FB07
:10399000F0F04843401E03D24FF0004005B030BD68
:1039A000696B0906F6D540F2FF512046A963F5E799
:1039B0003000002070B50821044685B04FF4D57062
:1039C0004026CA018DE8430000256946CDE903522F
:1039D000204600F017FA0F4A4FF4FA5041F28831AE
:1039E0001268B2FBF0F04843401E02D24FF000458F
:1039F0000CE0616B11F0450FF6D0606B400701D50C
:103A0000042502E0606B400600D5A66305B0284699
:103A100070BD00003000002030B585B00446402164
:103A20000DF1040C0720009200230D018CE82B00FF
:103A30006946204600F0E6F9072141F28832204627
:103A400000F0A6F805B030BD10B586B004460021E0
:103A50000220C02243020493CDE90010CDE90221E7
:103A60006946204600F0CEF9204600F01FF906B066
:103A700010BD30B585B0044609200DF1080CC022F8
:103A8000CDE90010002369464FF4806520468CE89C
:103A90002C0000F0B7F9204600F008F905B030BD61
:103AA00010B586B00446002133204022CDE9022122
:103AB000CDE90010130169462046049300F0A2F9F5
:103AC000332141F28832204600F062F806B010BD82
:103AD00030B585B004460D2040220DF1080CCDE92B
:103AE000001000236946150120468CE82C0000F0E8
:103AF00089F90D2141F28832204600F049F805B0DD
:103B000030BD30B585B00C4600210546032040226B
:103B1000CDE90221CDE9001013016946284604933E
:103B200000F070F903212246284600F007F905B09D
:103B300030BD000010B586B0044600210C204022A4
:103B4000CDE90221CDE90010130169462046049316
:103B500000F058F9034A0C21204600F019F806B08D
:103B600010BD000000E1F50570B50A6842624A68C0
:103B70008262C46AD1E90225D1E9043624F0F70152
:103B80002A4333431A431143C162002070BD000031
:103B900010B5444C4FF4FA532468B4FBF3F3534389
:103BA0005B1E02D24FF0004010BD426B12F0450F79
:103BB000F6D0426B520703D504218163084610BD3D
:103BC000426BD20702D00121816303E00269D2B2C5
:103BD0008A4201D0012010BD40F2FF5181630021D3
:103BE00000F0F2F83049084201D1002010BD002851
:103BF00002DA4FF0007010BD410001D5402010BD29
:103C0000810001D5802010BDC10002D54FF4807025
:103C100010BD010102D54FF4007010BD410102D565
:103C20004FF4806010BDC10102D54FF4006010BD9B
:103C3000010202D54FF4805010BD410202D54FF46D
:103C4000005010BD810202D54FF4804010BDC1026A
:103C500002D54FF4004010BD410302D54FF40030AF
:103C600010BD810302D54FF4802010BDC10302D5E1
:103C70004FF4002010BD010402D54FF4801010BD98
:103C8000410402D54FF4001010BD810402D54FF459
:103C9000800010BD000702D54FF4000010BD4FF4A6
:103CA000803010BD3000002008E0FFFD124B4FF4C3
:103CB000FA5141F288321B68B3FBF1F15143491EBE
:103CC00002D24FF000407047426B12F0450FF6D021
:103CD000416B490703D50421816308467047416B56
:103CE000C90703D0012181630846704740F2FF51A4
:103CF0008163002070470000300000200E4B4FF41D
:103D0000FA5141F288321B68B3FBF1F15143491E6D
:103D100002D24FF000407047426B12F0450FF6D0D0
:103D2000416B490703D5042181630846704740F27F
:103D3000FF518163002070473000002030B51F4DD7
:103D40004FF4FA5341F288342D68B5FBF3F3634323
:103D50005B1E02D24FF0004030BD446B14F0450FA3
:103D6000F6D0436B5B0703D504218163084630BD61
:103D7000436BDB0702D00121816303E00369DBB2FF
:103D80008B4201D0012030BD40F2FF518163002100
:103D900000F01AF810F4604F04D0410406D54FF437
:103DA000005030BD000C1080002030BD000402D552
:103DB0004FF4805030BD4FF4803030BD30000020D3
:103DC000006800F003007047084408B51430009004
:103DD000006808BD70B511434268049EDDE90554D2
:103DE000334347F6FF6619432943B24321430A434D
:103DF0004260002070BD0321016000207047D0F8B0
:103E00008000704770B50A688260C468D1E90125F6
:103E1000D1E90336210B2A43334309031A431143E3
:103E2000C160002070BD0968C0F880100020704794
:103E3000AFF30080002301221846114610B500F0B0
:103E40001FF80120FCF70EFD002301221846022175
:103E500000F016F8002308221846032100F010F89D
:103E60000122042100204FF40C7300F009F8BDE892
:103E70001040024840F23731FDF78FBF3810002064
:103E80001FB54FF0000410B1012802D002E0102449
:103E900000E008240748CDE902234FF48052CDE921
:103EA00000146946FDF78AFF002800D0012004B005
:103EB00010BD00003810002070B5846B0025E06B49
:103EC00000B1E563206C002816D12046FEF7C9F842
:103ED0000121A563062884F8341001D005280BD1F0
:103EE0002068FFF727FEA16B0843A063A06B0028A2
:103EF000204602D0FDF77AFF70BDFDF7B4FF70BD1C
:103F000070B5846B0025206C00B12564E06B00283F
:103F100016D12046FEF7A5F80121A563062884F8EE
:103F2000341001D005280BD12068FFF703FEA16BE8
:103F30000843A063A06B0028204602D0FDF756FF7F
:103F400070BDFDF790FF70BD2DE9F04F89B00E46B2
:103F50000446FCF7E3FD00270097019708218346FC
:103F600020683D46FFF7CCFC002835D1B4F850104E
:103F700020680904FFF790FC00282DD14FF00808B5
:103F80004FF002094FF0010C421E3023CDE9022808
:103F9000CDE90439CDE9067C206802A9FFF7E4FDEC
:103FA0002068FFF77DFD002816D1EA4640F22A4737
:103FB0002068416B394212D1416B890204D5FFF769
:103FC0001EFF4AF825006D1CFCF7A8FDA0EB0B00B6
:103FD000401CEDD14FF0004009B0BDE8F08F416BBF
:103FE000090703D5C0F838800820F5E7416B890739
:103FF00003D5C0F838900220EEE7416B890603D55F
:10400000202181630846E7E740F2FF518163009871
:1040100000BA7060019800BA30600020DCE710B58B
:1040200090B004460120ADF838002068FFF7C8FEC4
:10403000002864D0606C032842D02068FFF704FD9C
:1040400000285AD120680021FFF7BEFE60670421D6
:104050002068FFF7B9FEA06708212068FFF7B4FECB
:10406000E0670C212068FFF7AFFE616CC4F88000A8
:10407000032925D020680EA9FFF743FD00283CD175
:10408000606C03281CD0BDF8381021652068090435
:10409000FFF7EFFC002830D120680021FFF794FEE5
:1040A000606604212068FFF78FFEA0660821206863
:1040B000FFF78AFEE0660C212068FFF785FE206787
:1040C00004212068FFF780FE000DE06403A920466C
:1040D000FDF7CAFEB4F85000002302042068FFF781
:1040E0009BFC002809D104F1100007C88DE80700E7
:1040F00094E80F00FFF76EFE002010B010BD4FF0E7
:104100008060FAE72DE9F843002504460095006831
:10411000FFF728FC00281BD12068FFF74BFC4FF06D
:1041200080784FF6FF76E0B14FF08057A564009895
:10413000B04200F1010000901BD020680021FFF781
:10414000ABFB20B920680021FFF7C0FB10B1384657
:10415000BDE8F88320680021FFF736FEC00FE6D0E7
:1041600020E00127A7640098B04200F10100009010
:1041700001D14046ECE720680021FFF78DFB0028C5
:10418000E6D120684FF08041FFF7A0FB0028DFD187
:1041900020680021FFF718FEC10FE4D0400001D5D0
:1041A000676400E065640020D2E71CB50446002087
:1041B0000090002101902068FFF706FE800102D5E3
:1041C0004FF400601CBD69462046FFF7BDFE002885
:1041D000F8D10198C0030CD5B4F850102068090438
:1041E000FFF75AFB0028EDD120680021FFF7A1FB63
:1041F0001CBD4FF080601CBD1CB504460020009023
:10420000002101902068FFF7DFFD800102D54FF407
:1042100000601CBD69462046FFF796FE0028F8D1D5
:10422000019840030CD5B4F8501020680904FFF73A
:1042300033FB0028EDD120680221FFF77AFB1CBD7B
:104240004FF080601CBD7047FCF76EBC70B5B8B015
:10425000342124A8FCF736F8142131A8FCF732F8F1
:1042600090216846FCF72EF82348016841F0805100
:104270000160006800F0805036902048016841F4E9
:1042800040410160006800240225249500F440406C
:1042900036901020CDE92A54012609232F930DF1E1
:1042A000B00CCDE927600821D8228CE8260024A88C
:1042B000FDF7B2FBFCF740FEEA0233944FF4A05145
:1042C0000F20CDE93412CDE93105072131A8FDF7E2
:1042D000BBFA0B4B052100936420CDE90714119420
:1042E000EA031F942094CDE90505CDE90A626846EA
:1042F000FDF70CF838B070BD403802400070004047
:104300004800A000104A30B51048146800210F4B37
:1043100044F470041460083305680D4A0D4C45F0F0
:104320000105056019600368051D1340074A036015
:104330000C322C600568E305034C25F480250560EC
:10434000803C1160236030BD88ED00E00038024001
:10435000FFFFF6FE103000240148FEF776B900009A
:10436000E4140020F0B5274B4FF0804E264D026834
:104370009842264E264F274C09D0704507D0A842B8
:1043800005D0B04203D0B84201D0A04205D1D1F847
:1043900004C022F070024CEA020298421BD0704521
:1043A00019D0A84217D0B04215D0B84213D0A042BD
:1043B00011D0194DA8420ED0184DA8420BD0184D5F
:1043C000A84208D0174DA84205D0174DA84202D0E8
:1043D000164DA84203D1CD6822F440722A434D699C
:1043E00022F080022A43026098428A68C2620A6808
:1043F000826201D0A04201D10969016301214161BA
:10440000F0BD000000000140000400400008004032
:10441000000C004000040140004001400044014005
:104420000048014000180040001C004000200040EF
:1044300042EA032283680A4323F47F410A438260ED
:104440007047826822F070020A4342F007018160DF
:10445000704710B5036A046A23F00A0324F00104CC
:10446000046284690B4324F0F00141EA0211816186
:10447000036210BD10B5036A23F010030362836961
:10448000046A23F4704324F0A00443EA02328261F8
:1044900044EA0111016210BD90F82410C90706D04A
:1044A0000168836A4A6822F400321A434A6090F82D
:1044B0002410890706D50168C36A4A6822F480324D
:1044C0001A434A6090F82410490706D50168036B27
:1044D0004A6822F480221A434A6090F8241009079F
:1044E00006D50168436B4A6822F400421A434A60C9
:1044F00090F82410C90606D50168836B8A6822F4F7
:1045000080521A438A6090F82410890606D5016803
:10451000C36B8A6822F400521A438A6090F8241010
:10452000490611D50168036C4A6822F480121A43C7
:104530004A60016CB1F5801F06D10168436C4A687E
:1045400022F4C0021A434A6090F82410090606D5E6
:104550000168826C486820F400201043486070476E
:1045600038B500250446C567FCF7D8FA034620682D
:10457000006800070BD56FF07E40009000222046B7
:104580004FF4001100F0F0F908B1032038BD2020ED
:10459000606784F87050A067002038BD10B5806B4C
:1045A0000021A0F85A10A0F85210FEF728F910BD0B
:1045B00070B5846B00252168606FA66F8968090655
:1045C00006D5212804D1A4F85250204600F03FF827
:1045D00020688068400606D5222E04D1A4F85A50DF
:1045E000204600F024F8E06F40F01000E06720461D
:1045F000FEF705F970BD10B5C169806BB1F5807F1C
:104600000DD00021A0F8521001688A6822F08002C3
:104610008A600068016841F04001016010BDFEF74A
:1046200051FB10BD10B5806BFEF74DFB10BD10B5F2
:104630000168202200230C6824F490740C60016847
:104640008C6824F001048C608267036610BD0168E9
:1046500020220B6823F0C0030B604267704710B53F
:10466000816FB0F85C202229016804D0886940F08D
:104670000800886110BD496A436D11401980416D81
:10468000891C4165B0F85A10491EA0F85A10B0F8BC
:104690005A100029EED10168202200230C6824F46E
:1046A00090740C6001688C6824F001048C6082674F
:1046B0000366FEF735FA10BD10B5816FB0F85C20C7
:1046C0002229016804D0886940F00800886110BD83
:1046D000496A436D11401970416D491C4165B0F83C
:1046E0005A10491EA0F85A10B0F85A100029EED1FD
:1046F0000168202200230C6824F490740C60016887
:104700008C6824F001048C6082670366FEF708FA67
:1047100010BD00002DE9F04104468068DFF818C2A2
:10472000864F2368D4E90452E16928431E680025B6
:104730000A438349104306EA0C0606431E604FF401
:1047400000422068E668436823F4405333434360E3
:104750002368A669206AD3F808C030432CF4306679
:1047600006439E602068B8420AD1086810F0030032
:1047700052D001287BD002287AD003286ED186E05F
:10478000704B98420AD1086810F00C0079D00428C8
:104790007BD0082877D00C2860D178E06A4B98420B
:1047A0000AD1086810F030006BD010286DD0202896
:1047B00069D0302852D16AE0644B98420AD1086827
:1047C00010F0C0005DD040285FD080285BD0C028AA
:1047D00044D15CE05E4B98420DD1086810F4407003
:1047E0004FD0B0F5807F50D0B0F5007F4BD0B0F502
:1047F000407F33D14BE0574B98420FD1086810F4FB
:10480000406009D0B0F5806F3FD0B0F5006F3AD06E
:10481000B0F5406F22D13AE0012120E04E4B9842A2
:104820000DD1086810F440502BD0B0F5805F2CD02B
:10483000B0F5005F27D0B0F5405F0FD127E0474BC0
:1048400098420BD1086810F440401AD0B0F5804F60
:104850001BD0904217D0B0F5404F18D01021E0691E
:104860004FF6EF76904238D109295DD202E00CE094
:1048700009E006E0DFE801F00D1027582A585858E3
:104880002D000021EBE70221E9E70421E7E70821F9
:10489000E5E7FDF76FF801E0FDF77CF80146D4F895
:1048A0000400490001EB5001B1FBF0F080B2A0F12F
:1048B0001001B14238D84FF6F0732168C0F34202BC
:1048C0001840104324E026496068EBE7FDF772F8D2
:1048D000E4E760684FF48031E4E7092924D2DFE897
:1048E00001F0050819231C2323231F00FDF742F8BC
:1048F00001E0FDF74FF80146D4F8040001EB500148
:10490000B1FBF0F080B2A0F11001B1420CD82168E7
:10491000C8600AE013496068F0E7FDF74BF8EAE782
:10492000606802EB5001EBE701250020206660661D
:104930002846BDE8F0810000F369FFEF0010014058
:10494000903802400044004000480040004C0040C5
:10495000005000400014014000780040007C0040FE
:104960000048E8010024F4002DE9F041984617467C
:104970000E460446069D08E0681C06D0FCF7CEF8FB
:10498000A0EB0800A8420BD855B12068C06936EAF0
:10499000000017D00020B842EED00020BDE8F08122
:1049A0002168202000220B6823F4D0730B6021685B
:1049B0008B6823F001038B606067A067032084F895
:1049C0007020EBE70120E6E7054810B5FDF718FF7A
:1049D000BDE81040034901220148FEF74BB8000032
:1049E0008815002020000020FEE73EB5040300F0FB
:1049F00029F900F0CDF84FF44051002288108DE8DD
:104A00000700831021462020FEF7EEFEBDE83E4061
:104A100000F0BEB87FB500F035F800F069F818492D
:104A2000A0F56F42183A488028D1032000F084F89E
:104A300000248DF80C00C0074FF440750AD100F037
:104A400001F900222B46B7201146009401940294EC
:104A5000FEF7CAFE00F0F6F84FF040700094002216
:104A60002B461146CDE90140C020FEF7BDFE3020A7
:104A70008DF80C00012103A8FEF7D2FE7FBD0000D7
:104A80000C0000203EB5022000F056F804468007D6
:104A900006D400F0D7F8022044F0020100F022F919
:104AA000002000904FF4807302460146019002906E
:104AB0003820FEF799FE0249012008703EBD000033
:104AC0000C0000203EB5154604464FF440529010AD
:104AD00083038DE80D00831008220B20FEF784FE6F
:104AE00003B029462046BDE83040FEF76BBE00000B
:104AF0001FB510494FF40050097829B14FF44062B6
:104B0000910302910B1404E04FF48062910302912F
:104B10000B14CDE90020002290201146FEF764FE20
:104B2000022103A8FEF74EFEBDF80C0004B040BA07
:104B300010BD00000C0000201FB5002101288DF8D9
:104B40000C1003D0022803D0032803D0052002E074
:104B5000352000E015200D4A127822B14FF0407246
:104B60000091131403E04FF0807200911314CDE90B
:104B7000011200221146FEF737FE012103A8FEF7BD
:104B800021FE9DF80C0004B010BD00000C000020B8
:104B900010B50120FFF7D0FFC007FAD110BD00000B
:104BA0002DE9F05FC1F30B06DFF894800F0B894607
:104BB000C6F580548246A242154600D814464046A7
:104BC00039034FF480528B46FFF77CFF002006E04C
:104BD000321818F80210FF2903D1401C80B2A042FD
:104BE000F6D3A04223D23846FFF7FFFE002006E0AE
:104BF00083191AF80020401C80B208F80320A04254
:104C0000F6D34FF4805259464FEA080000F030F8CE
:104C1000A54212D0291B4FF000068DB27F1C4FF425
:104C200080508542A244A14405D90446C7E72246E4
:104C300049465046EAE72C46C1E7BDE8F09F000030
:104C40003800002009480EB501780020009001903E
:104C5000029011B14FF4407301E04FF480730022D1
:104C600006201146FEF7C0FD0EBD00000C0000201E
:104C70002DE9F04107460E46C8B21546C0F58074CE
:104C8000A24200D814464FF4807822463146384676
:104C900000F00EF8A54209D0291B8DB245452744E6
:104CA000264401D94446F0E72C46EEE7BDE8F08102
:104CB000FEB516460C460546FFF7C4FF4FF44051BB
:104CC000881082038DE8070083102146002202200D
:104CD000FEF78AFD31462846FEF7A2FDBDE8FE40FC
:104CE000FFF756BF03B5012883B004D002280BD0CC
:104CF00003280BD001200E490A78002142B14FF061
:104D000040720091131407E03120F4E71120F2E71C
:104D10004FF0807200911314CDE901120022114668
:104D2000FEF762FD012104A8FEF77AFD05B000BD83
:104D30000C000020014A024900F024B8A94D0008E7
:104D400034000020090700284FEA116104DB00F15C
:104D5000E02080F80014704700F00F0000F1E02020
:104D600080F8141D704702E008C8121F08C1002A0D
:104D7000FAD170477047002001E001C1121F002ADC
:104D8000FBD170472DE9F04116460F460446002539
:104D900003E03946B047641C6D1C20780028F8D128
:104DA0002846BDE8F081000013B5044801224FF603
:104DB000FF736946FDF7E0FE00981CBD88150020D2
:104DC00086B04EA50FF24418BFF34F8FBFF36F8F1D
:104DD000524900200860BFF34F8FBFF36F8F504BD5
:104DE000196841F400311960BFF34F8FBFF36F8F23
:104DF0004B4970310860BFF34F8F081F43F6FF7CAB
:104E000000684649C0F34E341031C0F3C9000CEAC3
:104E10004416024646EA82770F60521EFAD2641E9A
:104E2000F5D2BFF34F8F186840F480301860BFF39D
:104E30004F8FBFF36F8FFBF77FFEFFF707FAFEF789
:104E40006BFAFEF709FAFEF7C7FBFEF791FBFEF7D8
:104E500031FAFEF7FDFAFEF74DFBFEF769FBFEF7B0
:104E6000E7FFFFF7D7FDFEF73DF82E4901222E4858
:104E7000FDF700FE2DA0FFF75DFF2846FBF72DFA9A
:104E800082B229482946FDF7D3FE2E48FDF758FB8C
:104E90002022002164202CA3FEF7C4F92C4C002012
:104EA000FDF714FF012806D002280ED0032821D0D8
:104EB00004281BD120E04046FBF70FFA82B22146BE
:104EC0004046FFF76DFE23A00EE04046FBF705FAD3
:104ED00082B221466846FFF7F5FD20226B4600208E
:104EE0001146FEF79FF91FA0FFF724FF3220FBF7C2
:104EF000B9FCD4E71FA0F7E722A0F5E7756172744B
:104F000020646D6120746573740D0A007732357109
:104F100032353620746573740000000050EF00E0F5
:104F200014ED00E0200000208815002075617274E7
:104F300020746573742069732072756E2121210DB0
:104F40000A000000E4140020463720544553540062
:104F50009CFFFF016B65793020697320706173736A
:104F60000D0A00006B6579312069732070617373DD
:104F70000D0A00006B6579322069732070617373CC
:104F80000D0A0000776B5F75702069732070617384
:104F9000730D0A0000000000000000000000000087
:104FA000000000003F400000000000000000300052
:104FB000400030004000000009000BC03D000BC065
:104FC0003D00090018C024407FE0224031800000ED
:104FD000180024C01B000D803240018003801C405B
:104FE00027401C80074000401000600000000000C7
:104FF000000000000000000000001F802040402052
:105000000000402020401F80000000000900060032
:105010001F80060009000000040004003F80040017
:10502000040000000010006000000000000000000C
:10503000040004000400040004000000000000401C
:105040000000000000000000002001C00600380041
:10505000400000001F802040204020401F800000B2
:10506000000010403FC000400000000018C0214078
:10507000224024401840000010802040244024405A
:105080001B80000002000D0011003FC00140000025
:105090003C80244024402440238000001F80244082
:1050A00024403440038000003000200027C0380036
:1050B000200000001B802440244024401B8000006E
:1050C0001C0022C0224022401F800000000000007F
:1050D0000840000000000000000000000460000024
:1050E00000000000000004000A0011002080404081
:1050F0000900090009000900090000000000404003
:10510000208011000A000400180020002340240021
:10511000180000001F802040274029401F40000049
:10512000004007C039000F0001C0004020403FC0D0
:10513000244024401B8000001F802040204020404D
:105140003080000020403FC0204020401F800000F1
:1051500020403FC024402E4030C0000020403FC0CF
:1051600024402E00300000000F001080204022401C
:105170003380020020403FC0040004003FC02040B4
:10518000204020403FC02040204000000060202000
:1051900020203FC02000200020403FC024400B00C2
:1051A00030C0204020403FC020400040004000C0B0
:1051B0003FC03C0003C03C003FC0000020403FC057
:1051C0000C4023003FC020001F8020402040204092
:1051D0001F80000020403FC0244024001800000031
:1051E0001F802140214020E01FA0000020403FC040
:1051F0002440260019C0004018C02440244022400A
:1052000031800000300020403FC0204030000000CE
:1052100020003F80004000403F80200020003E00F2
:1052200001C0070038002000380007C03C0007C05C
:1052300038000000204039C0060039C0204000007E
:105240002000384007C0384020000000304021C016
:105250002640384020C00000000000007FE04020D1
:1052600040200000000070000C000380004000009F
:105270000000402040207FE00000000000002000EF
:10528000400020000000000000100010001000107E
:1052900000100010000000004000000000000000AE
:1052A000000002800540054003C0004020003FC0D0
:1052B00004400440038000000000038004400440D8
:1052C0000640000000000380044024403FC000402E
:1052D000000003800540054003400000000004403A
:1052E0001FC0244024402000000002E0055005506B
:1052F0000650042020403FC00440040003C000408A
:105300000000044027C00040000000000010001012
:10531000041027E00000000020403FC001400700CB
:1053200004C00440204020403FC000400040000036
:1053300007C0040007C0040003C00000044007C009
:105340000440040003C00040000003800440044007
:1053500003800000041007F00450044003800000A4
:10536000000003800440045007F00010044007C010
:105370000240040004000000000006400540054013
:1053800004C00000000004001F8004400040000032
:10539000040007800040044007C0004004000700EC
:1053A00004C0018006000400060001C0070001C01F
:1053B00006000000044006C0010006C004400000D2
:1053C0000410071004E001800600040000000440FF
:1053D00005C00640044000000000000004007BE01F
:1053E00040200000000000000000FFF0000000006E
:1053F000000040207BE0040000000000400080002E
:1054000040002000200040000000000000000000DC
:1054100000000000000000000000000000001FCCA1
:10542000000C0000000000000000080030006000D8
:105430000800300060000000022003FC1E20022053
:1054400003FC1E200220000000000E1811043FFF84
:1054500010840C78000000000F0010840F3800C08A
:10546000077818840078000000780F8410C4112495
:105470000E9800E400840008080068007000000036
:10548000000000000000000000000000000007E035
:1054900018182004400200000000400220041818E0
:1054A00007E00000000000000240024001800FF011
:1054B00001800240024000000080008000800FF860
:1054C00000800080008000000001000D000E000040
:1054D000000000000000000000000080008000804C
:1054E00000800080008000800000000C000C0000A4
:1054F000000000000000000000000006001800602E
:105500000180060018002000000007F008081004C1
:105510001004080807F000000000080408041FFC3D
:10552000000400040000000000000E0C1014102401
:10553000104411840E0C000000000C18100411041B
:10554000110412880C700000000000E00320042405
:1055500008241FFC0024000000001F981084110480
:105560001104108810700000000007F00888110472
:10557000110418880070000000001C00100010FCCE
:1055800013001C001000000000000E3811441084AD
:10559000108411440E38000000000700088C1044ED
:1055A0001044088807F00000000000000000030C11
:1055B000030C0000000000000000000000010106D4
:1055C00000000000000000000000008001400220F8
:1055D000041008081004000002200220022002200B
:1055E000022002200220000000001004080804101D
:1055F000022001400080000000000E001200100C8C
:10560000106C10800F00000003E00C1813E4142449
:1056100017C4082807D000000004003C03C41C4045
:10562000074000E4001C000410041FFC11041104D6
:1056300011040E880070000003E00C181004100420
:10564000100410081C10000010041FFC10041004AB
:105650001004080807F0000010041FFC11041104D6
:1056600017C410040818000010041FFC11041100D6
:1056700017C010000800000003E00C18100410040C
:1056800010441C780040000010041FFC10840080AF
:10569000008010841FFC10040000100410041FFC84
:1056A00010041004000000000003000110011001AC
:1056B0001FFE10001000000010041FFC11040380E6
:1056C0001464181C1004000010041FFC10040004D3
:1056D00000040004000C000010041FFC1F0000FC6C
:1056E0001F001FFC1004000010041FFC0C0403002A
:1056F00000E010181FFC100007F008081004100448
:105700001004080807F0000010041FFC108410802B
:10571000108010800F00000007F0081810241024DB
:10572000101C080A07F2000010041FFC11041100ED
:1057300011C011300E0C000400000E1C1104108466
:10574000108410441C3800001800100010041FFCC6
:10575000100410001800000010001FF810040004CE
:10576000000410041FF8100010001E0011E0001CBF
:10577000007013801C0010001FC0103C00E01F00D0
:1057800000E0103C1FC000001004180C163401C0CB
:1057900001C01634180C100410001C00130400FC87
:1057A00013041C00100000000804101C1064108476
:1057B00013041C04101800000000000000007FFE0D
:1057C0004002400240020000000030000C00038054
:1057D0000060001C00030000000040024002400284
:1057E0007FFE0000000000000000000020004000DC
:1057F0004000400020000000000100010001000105
:1058000000010001000100010000400040002000F4
:105810000000000000000000000000980124014486
:105820000144014400FC000410001FFC0088010436
:10583000010400880070000000000070008801046E
:1058400001040104008800000000007000880104C9
:10585000010411081FFC0004000000F80144014489
:105860000144014400C800000000010401040FFCD1
:105870001104110411001800000000D601290129AB
:10588000012901C90106000010041FFC0084010069
:105890000100010400FC000400000104190419FCCB
:1058A00000040004000000000000000300010101EA
:1058B000190119FE0000000010041FFC0024004024
:1058C00001B4010C010400000000100410041FFCCE
:1058D0000004000400000000010401FC01040100B8
:1058E00001FC0104010000FC010401FC0084010032
:1058F0000100010400FC0004000000F801040104A0
:105900000104010400F80000010101FF0085010409
:10591000010400880070000000000070008801048D
:105920000104010501FF00010104010401FC0084E0
:105930000104010001800000000000CC01240124CA
:10594000012401240198000000000100010007F873
:105950000104010400000000010001F8000400043B
:105960000004010801FC0004010001800170000C2A
:10597000001001600180010001F0010C003001C045
:105980000030010C01F0010000000104018C0074E2
:105990000170018C01040000010101810171000E00
:1059A000001801600180010000000184010C013435
:1059B00001440184010C0000000000000000000010
:1059C00001003EFC40024002000000000000000018
:1059D000FFFF0000000000000000400240023EFC0B
:1059E0000100000000000000000060008000800056
:1059F00040004000200020000000000000000000E7
:105A00000000000000000000000000000000000096
:105A10000000000000000000000000000000000086
:105A200000000000000000000000000F80380FFEA2
:105A3000380F803800000000000000000000000067
:105A40000000000000000100000600000C0000380B
:105A500000003100000600000C000038000030009B
:105A6000000000000000000061800067F807F98076
:105A70000061800061800061800061800067F8073C
:105A8000F98000618000000000000000000001C0FB
:105A9000E003E0F00630080418081FFFFE040E08BB
:105AA0000787F00381E000000000000001F000061D
:105AB0000C00040408060C7001F9C0000E00003B45
:105AC000E000EC18070808040C180003E0000000D0
:105AD0000001E00007F003F818041C080417080789
