:020000040800F2
:1000000050C704200D020008433900088D2F000856
:10001000413900084D03000841500008000000006D
:100020000000000000000000000000009D480008E3
:100030002504000800000000453900089F4800081A
:1000400027020008270200082702000827020008EC
:1000500027020008270200082702000827020008DC
:1000600027020008270200082702000827020008CC
:1000700027020008270200082702000827020008BC
:1000800027020008270200082702000827020008AC
:10009000270200082702000827020008270200089C
:1000A000270200082702000827020008270200088C
:1000B00027020008B14900082702000827020008AB
:1000C000270200082702000827020008270200086C
:1000D0002702000821500008270200082702000814
:1000E000270200082702000827020008270200084C
:1000F000270200082702000827020008270200083C
:1001000027020008FD3B000827020008270200081C
:10011000270200082702000827020008270200081B
:100120002702000827020008510300085D030008A9
:1001300027020008270200082702000827020008FB
:1001400027020008270200082702000827020008EB
:100150002702000869030008750300082702000849
:1001600027020008270200082702000827020008CB
:1001700027020008270200082702000800000000EC
:1001800027020008270200082702000827020008AB
:10019000270200082702000827020008270200089B
:1001A000270200082702000827020008270200088B
:1001B000270200082702000827020008270200087B
:1001C000270200082702000800000000270200089C
:1001D000270200082702000827020008270200085B
:1001E000270200082702000827020008270200084B
:1001F0002702000827020008DFF80CD000F094F86E
:1002000000480047C556000850C7042006488047EC
:1002100006480047FEE7FEE7FEE7FEE7FEE7FEE7EB
:10022000FEE7FEE7FEE7FEE75D490008F90100088A
:100230002DE9F05F0546002092469B46884606461B
:10024000814640241BE0284641464746224600F0AE
:100250005AF853465A46C01A914110D311461846CF
:10026000224600F041F82D1A67EB01084F4622465E
:100270000120002100F038F817EB00094E41201E44
:10028000A4F10104DFDC484631462A464346BDE876
:10029000F09F40EA01039B0703D009E008C9121F41
:1002A00008C0042AFAD203E011F8013B00F8013B30
:1002B000521EF9D27047D2B201E000F8012B491E5C
:1002C000FBD270470022F6E710B513460A460446F3
:1002D0001946FFF7F0FF204610BD421C10F8011B25
:1002E0000029FBD1801A7047202A04DB203A00FA4B
:1002F00002F1002070479140C2F1200320FA03F37D
:10030000194390407047202A04DB203A21FA02F07A
:100310000021704721FA02F3D040C2F1200291403F
:100320000843194670470000064C074D06E0E06898
:1003300040F0010394E8070098471034AC42F6D32C
:10034000FFF75EFF68A1000888A10008FEE7000033
:10035000014800F049B9000090BE0420014800F0B7
:1003600043B90000ACBC0420014800F03DB90000D6
:100370000CBD0420014800F037B90000F0BE042095
:1003800001681823CAB2103AB2FBF3F2054B6FF3BF
:100390000901032A9B5CC36500D9091D81650846D4
:1003A0007047000048A1000810B583694FF0C07481
:1003B000826A0146002053B1B3F5005F15D072B1D7
:1003C000012A0CD0022A0AD0032A09D104E01AB16A
:1003D000012A06D0022A03D1C96AC90100D5012029
:1003E00010BDC96AA142FAD010BD002AF7D0012A77
:1003F000F2D0022AF3D0032AF3D010BD30B504683E
:10040000256825F480252560046863608368402B97
:10041000036803D099600068C26030BD9A600068CC
:10042000C16030BD7047704730B50C89D1E90023F9
:100430000D7BC168240442EA032144EA05621143AA
:10044000C160002030BD30B50C89D1E900230D7B9F
:100450008168240442EA032144EA05621143816071
:10046000002030BD70B5D1E90125D1E903362A431A
:10047000D1E90545016833431A43064B42EA442259
:10048000194042EA45320A4342F008010160002067
:1004900070BD00008101F0FFF0B5D1E90125D1E97F
:1004A0000343D1E905762A43D1F800C044EA0304A6
:1004B000D1E9073542EA0402496A42EA0702BCF17F
:1004C000010F42EA060208D004681A432A430A438D
:1004D000E30BDB031A4302600BE0066844682B431E
:1004E00026F4F84529430B4303606FF30E042243BF
:1004F00042600020F0BD426942EA410141610020B2
:10050000704738B591E81C00C9686FF01F051A43A1
:1005100005EB441444EA41210A43009202610020A1
:1005200038BD00002DE9F043914691E81C006FF0C2
:100530000F05521E2E0105EB03131A430B7E06EB2B
:1005400004268C8A2F034FEA054C0D8A32434FF064
:100550007F4808EB0366CB68B9F1010F07EB05454F
:100560000CEB04540CD081683F1107EB03331A43A2
:100570002A432243324301F070410A43826011E072
:100580008168DFF828C0C7681B03A3F580532343A5
:100590002A4301EA0C0132430B43836007F07044A5
:1005A0002243C2600020BDE8F0830000FF0F0FFF70
:1005B00002480068C0F300407047000014ED00E0FE
:1005C00090F83510022903D0802141650120704741
:1005D000052180F835100068016821F001010160F3
:1005E00000207047406D70472DE9F84304464FF0F6
:1005F0000009644B0820CDF800904FF41652A56D09
:1006000094F85C101B682E68B3FBF2F700FA01F156
:1006100031420FD021680A6852070BD50A6822F0D0
:1006200004020A6094F85C108840A860606D40F095
:100630000100606594F85C104FF0010808FA01F0C1
:10064000304208D021684969090604D5A860606D68
:1006500040F00200606594F85C100420884030424D
:1006600008D021680968890704D5A860606D40F04A
:100670000400606594F85C1010208840304218D067
:1006800021680968090714D5A86020680168490332
:1006900004D50068000308D5A16C07E00168C9050E
:1006A00003D4016821F008010160216C09B12046E2
:1006B000884794F85C1020208840304231D021686F
:1006C0000968C9062DD5A86094F83500052820686A
:1006D000016806D0490347D5006800031DD4616C4A
:1006E0001CE021F0160101602068416921F08001C1
:1006F0004161206C08B9A06C20B12068016821F02C
:100700000801016094F85C303F229A40AA6084F8A6
:10071000349084F83580216D1FE0E16B09B12046EB
:100720008847606D00282BD0606DC00714D005206D
:1007300084F835002068016821F00101016000980B
:10074000401C0090B84203D820680068C007F6D16A
:1007500084F8349084F83580E16C002910D001B021
:100760002046BDE8F04308470168C905D5D40368B1
:1007700023F01003036084F8349084F83580CCE7CC
:10078000BDE8F883540002202DE9F047044600F04C
:1007900007FA054664B14FF0000984F8349002214D
:1007A00084F835102068016821F0010101600EE035
:1007B0000120BDE8F08700BF00F0F2F9401B0528DA
:1007C00005D920216165032084F83500F1E7206810
:1007D0000068C007F0D1D4E90020D4E90251D4E97F
:1007E000043C284304F1180519430843116895E8AF
:1007F000E00140EA0C001C4B2843194040EA060087
:1008000040EA0700B8F1040F40EA010003D1D4E93F
:100810000B1319430843106020680126656A40697C
:10082000042D20F0070045EA00050CD1D4E90A01A7
:10083000054341B12046FFF7B7FD20B14020606578
:1008400084F83560B4E7206845612046FFF798FDDD
:1008500094F85C303F229A408260C4F8549084F847
:1008600035600020A5E700003F8010E02DE9F04151
:10087000044690F8340000250128A66D0ED094F8A7
:1008800035C00127002084F83470BCF1010F07D077
:10089000022584F834002846BDE8F0810220FBE7F9
:1008A000022784F8357060652046FFF7A7FD94F8AD
:1008B0005C103F208840B0602068016841F016015C
:1008C00001602068416941F080014161206C20B1E4
:1008D0002068016841F0080101602068016841F06A
:1008E00001010160D7E7000070B5044600F058F937
:1008F0000546601C02D004480078044400F050F91A
:10090000401BA042FAD370BD480002201E48F0B53B
:10091000016887B0002935D1012101601B480168B9
:1009200041F001010160006802240025694600F0E1
:100930000100059003264FF63F000C278DE8F100DB
:10094000134800F02FF80D2069468DE8F10011489A
:1009500000F028F848F2373069468DE8F1000E487B
:1009600000F020F84FF6807069468DE8F1000B48E2
:1009700000F018F84DF6737069468DE8F1000848EC
:1009800000F010F807B0F0BD340002203838024003
:10099000001402400008024000180240001002400B
:1009A000000C02402DE9F84FDFF89CE100224FF0E7
:1009B00001084FF0030B4FF00F0A00BF0B6808FA55
:1009C00002F42340A34271D14D68022D01D0122DB3
:1009D0000FD1D5080E69570700EB8505A9462D6A8A
:1009E000FF0E0AFA07FCBE4025EA0C052E43C9F8A3
:1009F00020600F79550006680BFA05FC07F0030725
:100A000026EA0C06AF40374307604E68012E05D03A
:100A1000022E03D0112E01D0122E0ED18668CF687F
:100A200026EA0C06AF403743876046680F79A64335
:100A3000C7F30017974037434760C4688E6824EABD
:100A40000C04AE402643C6604C68E40075D53F4CAC
:100A5000256845F480452560246822F00306950743
:100A600004F4804400943A4C2D0F2644D6F80848EC
:100A7000DFF8E0C00AFA05F7604524EA070401D16F
:100A800000272EE0344FB84201D1012729E0334F2F
:100A9000B84201D1022724E0314FB84201D10327E7
:100AA0001FE0304FB84202D104271AE045E02E4F34
:100AB000B84201D1052714E02C4FB84201D10627D6
:100AC0000FE02B4FB84201D107270AE0294FB84267
:100AD00001D1082705E0284FB84201D1092700E0DD
:100AE0000A27AF4027437546C6F808784E68DEF8F7
:100AF0000040F60324EA030400D51C43124E2C6088
:100B0000361D4D683468AD0324EA030400D51C4348
:100B10000D4F346008374D683C68ED0224EA030449
:100B200000D51C43084D3C600C354E682C68B6025D
:100B300024EA030400D51C432C60521C102AFFF445
:100B40003DAFBDE8F88F0000003C01404438024052
:100B50000030014000000240000402400008024052
:100B6000000C024000100240001402400018024035
:100B7000001C02400020024000240240006908409E
:100B800000D001207047426931EA020200D1090415
:100B9000816170470AB1816170470904FBE7000079
:100BA00001488068704700004800022002488168C0
:100BB000027811448160704748000220094810B54E
:100BC000016841F400710160016841F480710160C5
:100BD000032000F00BFA002000F006F800F096F970
:100BE000002010BD003C024070B50D4D04464FF48E
:100BF0007A700C4A29781268B0FBF1F0B2FBF0F081
:100C000001F080FD48B9102C07D200222146501E69
:100C100000F0CCF900206C6070BD012070BD0000B8
:100C200048000220540002202DE9F041044690F8CB
:100C3000A00016460F4601281DD0012584F8A050BB
:100C4000022084F8A10006EB860000EBC6003422E7
:100C500004EB80003830FFF71CFB32463946204653
:100C600002F0E8FA216800204D6284F8A15084F86F
:100C7000A000BDE8F0810220FBE700002DE9F04173
:100C8000040004D094F8A100002518B107E0012069
:100C9000BDE8F081204684F8A05000F06BF834489D
:100CA000022184F8A110012202CC8B6923F0704349
:100CB0008B6194E84A001943E3681E4354F8043DED
:100CC00031439E693143996121688B6803408B6091
:100CD0002168A68AA7698B683B4343EA06438B6079
:100CE0002168CB680340CB602168A38B276ACE685C
:100CF0003E4346EA0346CE6021680B6903400B6120
:100D00002368A68CA76A1969394341EA064119612B
:100D100021684B6903404B612068A38D266B4169B4
:100D2000314341EA03414161236894F8351094F856
:100D30003600DE6A000406F07F46DE62236840EA81
:100D4000012094F83460D96A31430143D9622068A4
:100D5000416B41F0060141632068816941F0010166
:100D60008161C4F8A45084F8A120002090E700001D
:100D700000F800F0F0B587B0044614216846FFF78C
:100D8000A1FA3149206888425CD13048016841F0BD
:100D900080610160006800F0806005902B48143885
:100DA000016841F480710160016801F4807105916E
:100DB000016841F020010160016801F02001059106
:100DC000016841F001010160016801F00101059134
:100DD000016841F080010160016801F08001059126
:100DE000016841F040010160006802240025694665
:100DF00000F040000590032640F2F7600E278DE8D2
:100E0000F1001348FFF7CEFD600269468DE8F1005E
:100E10001048FFF7C7FD202069468DE8F1000E4815
:100E2000FFF7C0FD4FF47A4069468DE8F1000B48AA
:100E3000FFF7B8FD4FF40C6069468DE8F1000848F3
:100E4000FFF7B0FD07B0F0BD006801404438024034
:100E5000002002400014024000000240001C02403A
:100E60000018024070B5044690F8A0000E46012814
:100E700020D003EB830000EBC301012584F8A050D0
:100E8000022084F8A10004EB81018E63086E3044D7
:100E9000C1E90F02486E1044486438311A462046B2
:100EA00002F0C8F9216800204D6284F8A15084F84E
:100EB000A00070BD022070BD70B5044690F8A0007F
:100EC0000E46012820D003EB830000EBC30101256F
:100ED00084F8A050022084F8A10004EB8101886B03
:100EE0003044C863086C10444864C1E91862383162
:100EF0001A46204602F09EF9216800204D6284F8CF
:100F0000A15084F8A00070BD022070BD0A4808B549
:100F1000016841F080510160006800F0805000904D
:100F20000548001D016841F480410160006800F43B
:100F30008040009008BD00004038024070B50400B9
:100F400015460E4603D094F8210010B107E00120A9
:100F500070BD002084F82000204600F018F82068BA
:100F6000211DFFF77FFAD4E900023146FFF76BFA43
:100F7000D4E900022946FFF757FA206801210268E8
:100F800042F00402026084F82110002070BDFFF7D7
:100F9000BDBC002809DB410900F01F0289000120C7
:100FA00001F1E0219040C1F8000170470E4BF0B410
:100FB0001B680D46C3F30223C3F10706042E00D9B4
:100FC0000426191D072901D2002300E0DB1E01249D
:100FD00004FA06F19C40491E2940641E99401440C1
:100FE0002143F0BC04F0E2B90CED00E0064900F04A
:100FF000070210B54FF6FF040868044B204040EA92
:1010000002201843086010BD0CED00E00000FA0556
:101010001848F8B5016841F0805101600068164C2D
:1010200000F080500090206840F480302060FFF78E
:10103000B7FD4FF47A76054605E000BFFFF7B0FD37
:10104000401BB0420FD86068C003F7D5206840F459
:1010500000302060FFF7A4FD054606E0FFF7A0FD85
:10106000401BB04201D90320F8BD60688003F5D56C
:101070000020F8BD40380240007000402DE9F84FD4
:1010800017468B460446FFF78BFD824694F84000D6
:1010900001280ED001264FF0000884F8406094F833
:1010A0004100012807D0022584F840802846BDE889
:1010B000F88F0220FBE74FF00209C4F8448084F85F
:1010C00041900022202153462046009702F050FD17
:1010D0000500E9D100225946204602F034FCDBF835
:1010E000240058B90122534602212046009702F0FD
:1010F0003FFD0500D8D12168C1F80C9084F841600B
:10110000D2E70000F8B50446FFF74AFD07465CB198
:1011100094F84000012809D0012684F84060002599
:1011200094F8410020B10BE00120F8BD0220F8BD89
:1011300084F84050204600F045F841F28830A06421
:1011400020686FF0FF03A168026803EB012322F41B
:10115000F85119430160A06C002220213B46009009
:10116000204602F005FD30BB2268D4E9077C94F8E4
:1011700004E0E16813683943104F4CEA0E6EDFF863
:1011800040C03B4041EA0E01194311602168D4E997
:101190000527B4F810E04B683A4303EA0C0343EA2E
:1011A0000E431A434A6021680A6842F001020A604D
:1011B000656484F8416084F84050F8BD2FFFFF005B
:1011C000FEF8E0FF2DE9F04387B00446142168469D
:1011D000FFF778F82349206888423FD12248016808
:1011E00041F002010160006800F0020005901E4815
:1011F0000838016841F020010160016801F0200118
:101200000591016841F00201016000680224002597
:10121000DFF8589000F00200059003266946092780
:10122000C0208DE8F1004846FFF7BCFB30024FF0CC
:101230000A088DE8710169464846FFF7B3FB0420B0
:1012400069468DE8F1000A4F3846FFF7ABFB4021B5
:1012500038468DE872016946FFF7A4FB07B0BDE888
:10126000F0830000001000A0383802400014024053
:10127000000402402DE9F84F15460E460446FFF7DC
:101280008FFC82462068816994F8403000F1200983
:10129000012B0DD001274FF0000884F8407094F81E
:1012A0004120012A06D0022084F84080BDE8F88F52
:1012B0000220FBE7C4F844809EB3222284F8412038
:1012C0000269521CA2630269521C6263266342696E
:1012D00022F0406242F080624261206881610DE04C
:1012E0000621204602F044FCC0B999F80020206B8A
:1012F000411C21630270A06B401EA063A06B53468B
:101300004FF0010200950028EAD14FF0020120467B
:1013100002F02EFC10B922680221D16084F84170DD
:10132000C2E7FFE7616C012041F008016164BBE79F
:101330002DE9F84F15460E460446FFF731FC94F8A8
:10134000401082462068012900F120090ED00127B3
:101350004FF0000884F8407094F84110012907D03C
:101360005FF0020084F84080BDE8F88F0220FBE7C0
:10137000C4F844807EB3122184F841100169491CED
:10138000E1620169491CA1626662416921F0406124
:1013900041610DE00421204602F0EAFBC0B9606A19
:1013A000411C6162017889F80010E06A401EE06229
:1013B000E06A53464FF0010200950028EAD14FF051
:1013C0000201204602F0D4FB10B922680221D1604C
:1013D00084F84170C6E7FFE7616C012041F0080125
:1013E0006164BFE72DE9F84F04460078DFF82494E4
:1013F0004FF000063746C0070ED0D9F8001021F490
:101400000001C9F80010D9F80010626B1143C9F847
:101410000010606B00B90126FE4D20688435000382
:101420000ED5E16B286820F4401008432860E06B7B
:10143000B0F5801F01D010B102E0012600E00127C5
:1014400020684FF4800BC0020CD5216C286820F472
:10145000400008432860206C584501D1012601E076
:1014600000B901272068C10100D50126800666D594
:10147000E8483830016841F0805101600068DFF8C9
:1014800098A300F080500090DAF8001041F48071C9
:10149000CAF80010FFF784FB804605E0FFF780FBE9
:1014A000A0EB080064287DD8DAF80000C005F5D567
:1014B000DFF8608308F16808D8F8000010F4407085
:1014C0002AD0218E01F44071814225D0D8F8001035
:1014D000D8F8002021F4407142F48032C8F800208E
:1014E000D8F8002022F48032C8F80020C8F8001094
:1014F000D8F80000C0070FD0FFF752FB824607E084
:10150000FFF74EFBA0EB0A0141F288308142CAD8B6
:10151000D8F800008007F3D5206BC0F30121032920
:101520007ED0D9F8001021F4F811C9F80010228EED
:10153000D8F80010C2F30B021143C8F8001020784D
:10154000C00607D5286820F0807028602868A16B45
:10155000084328602188AF488830490405D5626E69
:10156000016821F44031114301602188090405D547
:10157000A26E016821F44021114301602168C90372
:1015800005D5E26E016821F4401111430160216824
:10159000890305D5226F016821F4400111430160E0
:1015A000217800E034E1490605D5626C016821F03C
:1015B0000301114301602178090605D5A26C016879
:1015C00021F00C01114301602188C90505D5E26CA9
:1015D000016821F03001114301602188890505D59A
:1015E000226D016821F0C001114301602188490585
:1015F00005D5626D016821F44071114301602188B5
:10160000090505D5A26D016821F44061114301600F
:101610002188C90407D5E26D016821F4405100E03A
:101620005FE0114301602188890405D5226E0168BD
:1016300021F44041114301602168490205D5A26FA0
:10164000016821F080611143016021684FF0006A58
:10165000890209D5E26F016821F000611143016040
:10166000E16F514500D1012721680A0700D5012704
:10167000490305D5626F016821F040711143016093
:101680002168090206D5D4F88020016821F0805134
:10169000114301602168490106D5D4F8842001680E
:1016A00021F00051114301602068000106D5D4F8F3
:1016B0008810286820F00070084328602068C00067
:1016C00006D5D4F88C10286820F080600843286084
:1016D000DFF84891012E0ED02068B0F1007F0AD0CB
:1016E0008FE04F4AD9F80030104023F4F81202433B
:1016F000C9F800201BE7D9F800004E4620F08060B2
:10170000C9F80000FFF74CFA804605E0FFF748FAF9
:10171000A0EB080064287BD830680001F6D421785B
:101720003C487C30C90712D0616B81B9237A62686A
:101730000168D0F800C09201C1F3014142EA0142C0
:10174000CCF3036142EA016141EA0371016021685F
:101750000A0303D5E26BB2F5801F04D0C9021AD583
:10176000216C594517D16368016894F80CC0026870
:101770009B01C1F3014143EA0141C2F3027241EA14
:101780000C6141EA027101602968626A21F01F015F
:10179000521E114329602168C90110D5238A62684D
:1017A0000168D0F800C09201C1F3036142EA03422C
:1017B00042EA0162CCF3027142EA017101602168E0
:1017C00089010CD56168228A237B94F808C08901BD
:1017D00041EA024141EA036141EA0C71016031686A
:1017E000B04641F080613160FFF7DAF9064604E067
:1017F000FFF7D6F9801B64280AD8D8F8000000014A
:10180000F6D5E7B3D9F800004E4620F0805009E045
:101810007BE00000083802400070004000380240C1
:10182000FFFCFF0FC9F80000FFF7BAF9074604E014
:10183000FFF7B6F9C01B642867D83068C043800042
:10184000F6D5216835480A0301D5E26B1AB1C90201
:101850001DD5216CD9B963690168277E02689B0197
:10186000C1F3014143EA0143C2F3027143EA076253
:1018700042EA0171016029686FF0FF0300E04BE06C
:10188000A26A21F4F85103EB022211432960216876
:10189000890212D5E16F51450FD1238C626901682D
:1018A00007689201C1F3036142EA034242EA01621E
:1018B000C7F3027142EA017101602178090716D568
:1018C00061690268D0F800C08B01277FC2F3036210
:1018D000CCF3014143EA014141EA026141EA077167
:1018E00001602868E16A20F44030084328603068CD
:1018F00040F080503060FFF753F9044608E000BF25
:10190000FFF74EF9001B642802D90320BDE8F88FC9
:101910003068C0438000F3D40020F7E788380240E5
:101920002DE9F04705000F4663D0444E306800F0C3
:101930000F00B84209D2306820F00F003843306001
:10194000306800F00F00B84253D128683C4C810742
:1019500012D5400703D5206840F4E0502060287875
:10196000000703D5206840F460402060A968206823
:1019700020F0F000084320602878C0072AD03049C2
:1019800068680839012810D00968022810D0890732
:1019900000292EDA216821F0030101432160FFF7BD
:1019A000FFF8804641F288390DE009688903EFE7C6
:1019B0008901EDE7FFF7F4F8A0EB0801494502D9EA
:1019C0000320BDE8F0876868216801F00C01B1EBE5
:1019D000800FEFD1306800F00F00B8420BD93068AB
:1019E00020F00F0038433060306800F00F00B8423C
:1019F00001D00120E5E72878400705D5E96820688F
:101A000020F4E050084320602878000706D52869B4
:101A1000216821F4604141EAC000206000F036F8FE
:101A20002168084AC1F30311515CC84006490860A7
:101A30000020FFF7D9F80020C3E70000003C024077
:101A40000838024050A1000854000220044905480B
:101A500009680068044AC1F38221515CC84070479C
:101A6000083802405400022060A1000804490548DB
:101A700009680068044AC1F34231515CC8407047AC
:101A8000083802405400022060A10008154910B532
:101A90001548096811F00C0213D01449042A0FD01C
:101AA000082A0ED10F4C241F2268236802F03F023F
:101AB0005B0207D52068C0F38810A0FB010106E097
:101AC000084610BD2168C1F38811A1FB0001002365
:101AD000FEF7AEFB2168C1F30141491C4900B0FB90
:101AE000F1F010BD083802400024F40040787D0178
:101AF0002DE9F84F05004FF000076ED02878DFF889
:101B00002093A9F1040AC007AAF104044CD0D9F823
:101B100000104846C1F38101012908D00068C0F3D4
:101B2000810002280AD1DAF80000400206D52068B8
:101B3000800339D568680028DFD035E06868B0F5E3
:101B4000803F0BD010B1B0F5A02F11D0206820F449
:101B500080302060206820F4802002E0206840F47B
:101B600080302060686890B1FFF71AF806460AE0F6
:101B7000206840F480202060F0E700BFFFF710F8F5
:101B8000801B642872D820688003F7D50CE0FFF72B
:101B900007F8064605E000BFFFF702F8801B64283F
:101BA000F0D820688003F7D42878800742D5D9F888
:101BB0000010484611F00C0F08D00068C0F38100F7
:101BC00002280BD1DAF80000400207D42068800711
:101BD00018D5E868012800D114E01EE1E868002863
:101BE000206817D040F001002060FEF7D9FF0646BC
:101BF00005E000BFFEF7D4FF801B0228C2D8206892
:101C00008007F7D52869216821F0F80141EAC00072
:101C100020600FE020F001002060FEF7C1FF0646C3
:101C200005E000BFFEF7BCFF801B02281ED820681D
:101C30008007F7D42878000729D5794869696C307E
:101C400000298046016812D041F001010160FEF7D1
:101C5000A7FF064605E000BFFEF7A2FF801B022893
:101C600004D8D8F800008007F6D510E089E021F00C
:101C700001010160FEF794FF064604E0FEF790FFC5
:101C8000801B02287DD8D8F800008007F6D4287879
:101C900040076BD5DFF8888108F13808D8F80000D4
:101CA000C0000BD4D8F8001041F08051C8F80010E3
:101CB000D8F80000012700F08050009059480168D2
:101CC000C90512D40168834641F480710160FEF7B2
:101CD00067FF064605E000BFFEF762FF801B642831
:101CE0004FD8DBF80000C005F6D54D4EA868683621
:101CF00001280AD008B1052811D0306820F0010071
:101D00003060306820F0040002E0306840F00100EC
:101D10003060A868A0B1FEF743FF83460CE030684E
:101D200040F004003060F0E7FEF73AFFA0EB0B0153
:101D300041F28830814268D830688007F4D50EE0DF
:101D4000FEF72EFF834607E0FEF72AFFA0EB0B010C
:101D500041F28830814258D830688007F4D42FB1DE
:101D6000D8F8001021F08051C8F80010A869E0B33D
:101D7000D9F80010C1F3810102294ED00228206851
:101D800000E042E020F08070206003D0FEF708FF02
:101D900005463DE0FEF704FF064604E0FEF700FFBF
:101DA000801B022831D820688001F7D4D5E90921A9
:101DB000DFF874C0D5E9070695F830304F0895F87C
:101DC0002C1030430CEB074545EA8212104340EAE1
:101DD000016040EA0370CAF80000206840F080709B
:101DE0002060FEF7DDFE054605E014E0FEF7D8FEB4
:101DF000401B022809D820688001F7D50BE000BFFE
:101E0000FEF7CEFE401B022802D90320BDE8F88F62
:101E100020688001F4D40020F8E70120F6E70000F4
:101E200008380240007000400000FFFF70B5040059
:101E30000D4603D094F82C0010B107E0012070BDCE
:101E4000002084F82D00204600F011F8022084F8CC
:101E50002C002068211DFEF71FFBD4E90002294653
:101E6000FEF760FB012084F82C00002070BDFEF717
:101E70004DBD10B5044690F82C00022809D0022070
:101E800084F82C002068FEF736FB012084F82C0033
:101E9000002010BD70B5044690F82C000D460228B5
:101EA0000DD0022084F82C002068FEF72AFB286859
:101EB000022805D05FF0010084F82C00002070BDDE
:101EC0000520F9E77047FEB504460D46416C032036
:101ED00084F83400032920D0B5F5805F1DD0B5F516
:101EE000006F05D045B1A06B40F00060A06309E031
:101EF000204602F050FC02E0204602F025FCA16BD7
:101F00000143A163A06B012658B1216840F2FF5044
:101F1000886384F834600120FEBDA06B40F08050DF
:101F2000E4E7211DD4E905070EC9CDE90050029769
:101F3000206802F06BF984F834600020FEBD704721
:101F4000F0B5426E120E93090B70C2F3830402F0D7
:101F500003024C708A70426E120CCA70B0F8642092
:101F6000120A0A7190F864204A714FF6FF73826E6C
:101F7000120E03EA0212CA80CB88826EC2F30742B5
:101F800014092343CB8002F00F020A72B0F86820D4
:101F90000025C2F30722D3094B72C2F38014C2F3A7
:101FA0004016C2F300178C72CE720F734D7301236B
:101FB000446C4FF400766CB1012C46D0026840F2BC
:101FC000FF519163816B41F08051816380F834301F
:101FD0000120F0BD9207120D0A610C6990F868208B
:101FE00044EA82020A610C69C26E120E9709C2F3BA
:101FF000C20C3C430C6102F0070281F814C04A7520
:10200000C26EC2F30742940757098F75640FC2F37B
:102010008202CA750C760A7EB0F86C40C4F30724BD
:1020200042EAD4120A760A69521C42650F7EBF1C2E
:10203000BA4042650F7A03FA07F787654FEA572CD3
:1020400002FB0CF2C0E917261CE090F8682092060B
:10205000920A0A610C69C26E120E44EA02220A61F7
:102060000C69C26EC2F3074214430C610A69B0F8EE
:102070006C40521C4FEA82224265C4F30724C0E937
:1020800016620666C4F380124FEA84644A764FEA09
:1020900054648C7690F86C208C7E4FEAD21602F055
:1020A0007F0244EA06048C76CA7650F8702F4FEA15
:1020B00012624FEAD2140C77C2F34116C2F38207C0
:1020C0004FEA82724E778F774FEA1272CA77CC7FCF
:1020D0000268C2F3074244EA9214CC77C2F3401676
:1020E00002F0010281F8206081F8215081F822205D
:1020F0000288C2F307224FEAD21481F82340C2F3C8
:102100008015C2F34016C2F30017C2F3810C02F02F
:10211000030281F8245081F8256081F8267081F847
:1021200027C081F8282000784FEA500081F8290064
:1021300081F82A304FF00000F0BD70B5B0F85010B3
:10214000002504460068090401F0ACFE18B1A16B3B
:102150000143A16304E02068002102F051F8054624
:10216000C5F3432070BD000070B50446006801252A
:1021700040F2FF56416BC90548D5290281632068AA
:10218000C16B21F49D71C163206B0007206B20D5CA
:10219000800702D4206B800609D5206801F0B4FEC8
:1021A00028B1A16B0143A1632046FFF7C8FE206858
:1021B000866384F83450206BC00702D1206B8007FF
:1021C00003D5204600F020FA70BD204600F01DFA2D
:1021D00070BD0006FCD5206B800609D5206801F093
:1021E00093FE28B1A16B0143A1632046FFF7A7FE30
:1021F000206BC007ECD1206B8007E9D42068C16A4E
:1022000021F00801C16284F83450DEE7416B4904D3
:1022100010D54FF480418163266A0025206806EBC3
:10222000850102F01CF86D1C082DF7D3206A2030C0
:10223000206270BD416B090410D54FF400418163E9
:10224000A66A0025206801F0F6FF46F825006D1CFF
:10225000082DF7D3A06A2030A06270BD416B11F049
:102260003A0FFAD0416B890703D5A16B41F0020107
:10227000A163416B090703D5A16B41F00801A1637C
:10228000416B890603D5A16B41F02001A163416B2D
:10229000C90603D5A16B41F01001A16386632068D4
:1022A000C16B21F49D71C163206B000623D5206CA6
:1022B00058B115490165206CFEF782F90028CCD091
:1022C000206CBDE8704002F08CB8E06B58B10F494B
:1022D0000165E06BFEF774F90028BED0E06BBDE845
:1022E000704002F053B80020A06384F834502046B8
:1022F000FFF7E8FD70BD206B0007FBD584F8345074
:102300002046FFF71CFE70BDE34300088D43000824
:1023100070B5040004D094F83400002510B105E035
:10232000012070BD2046257700F03CF8032084F89A
:102330003400204600F007F80120A563256384F8E7
:102340003400002070BD3EB5044676200021009187
:102350000B460A46CDE90110206801F057FF2068BE
:10236000416821F480714160206801F060FF2068BD
:10237000416841F4807141600220FEF7B5FA2046C1
:1023800002F031F94FF0010520B9204602F0B8F80B
:10239000002805D084F83450A16B0143A1630120CB
:1023A0003EBD00002DE9F04F87B0814614216846FC
:1023B000FDF788FF5149D9F8000088427ED1504886
:1023C000016841F40061016000684D4A00F400605A
:1023D0000590143A10461146126842F00402026059
:1023E0000868474A00F004000590143A1046114668
:1023F000126842F00802026008680C24022200F011
:102400000800059001234FF4F8518DE80E000320D9
:102410006946CDE903043B48FEF7C4FA01AB02204C
:10242000042500950121032283E8170036486946F8
:10243000FEF7B8FA6806354CDFF8D4804FF0000B91
:102440004114C2134313C4E900800320C4E902BB52
:102450002026C4E9095004F1100520464FF4403706
:102460004FF4001A85E8CE004FF4000CC4E90BCA03
:10247000FEF78AF908B1FDF7D6FF244D4FF0006151
:10248000DFF88CC020206035C9F83C40C4F8389093
:102490000CF1480C4B144FF04008C5F800C0CE13A7
:1024A00069604F13C5F8088003214FF440344FF0A2
:1024B000040C4FF40008C5F80CB000E01BE01C351C
:1024C000A5E81110114885E80205183D603085E83F
:1024D000C800103DFEF758F908B1FDF7A4FFC9F890
:1024E000405000220121C5F838903120FEF75EFDF2
:1024F0003120FEF74EFD07B0BDE8F08F002C014003
:102500004438024000080240000C0240ACBC0420E9
:10251000586402402DE9F04387B01F461546044633
:1025200039B194F83400012807D0022007B0BDE883
:10253000F083A06B40F0006008E0E26D0020EB1932
:10254000A063934204D9A06B40F00070A06355E0F3
:102550000322814684F834202268D0622268D36B3B
:1025600043F49573D363E36B4FEA4728244ADA6355
:10257000E36B244ADA644FEA9803E26B10650A467B
:102580002068E66B00F180013046FEF76FF92068A5
:10259000C16A41F00801C162606C012800D06D027F
:1025A000694601260596B01ECDE9000802A89022D2
:1025B000022380E80C02206801F0F2FC206871021E
:1025C00001F056FB40F2FF5880B9012F06D9822056
:1025D00020632068294601F0D7FB05E081202063B5
:1025E0002068294601F0E9FB00289FD02268C2F844
:1025F0003880A16B0143A16384F83460012095E722
:102600004F430008F1420008704770472DE9F04F32
:102610005FEA010B1E4687B01546044607D094F8C2
:102620003400012807D0022007B0BDE8F08FA06B6E
:1026300040F0006008E0E16D0020AA19A0638A4222
:1026400004D9A06B40F00070A0633AE003218046FB
:1026500084F834102168C8622168CA6B42F01A02FB
:10266000CA63226C2549D163226C2549D164216C4F
:102670000865606C012800D06D0220684FF400717D
:1026800001F0F6FA4FF0010740F2FF5988B9012E28
:102690004FF0900A06D9A02020632068294601F057
:1026A0004DFC05E0C4F830A02946206801F05FFC2D
:1026B00048B12268C2F83890A16B0143A16384F845
:1026C00034700120B0E72068C16A41F00801C1629E
:1026D00022687502206C5946AB088032FEF7C6F8B6
:1026E000CDE904874FF0FF326946CDE902A8CDE974
:1026F0000025206801F054FC002095E7D543000830
:10270000F1420008401EB0F1807F10B501D30120D6
:1027100010BD4FF0E02460610F21601702F046FE0B
:102720000020A0610721216110BD704770477047EC
:1027300070B590F83C20012A24D0134C012580F874
:102740003C50022280F83D2002685368A2429668FD
:1027500002D00E4CA24203D14C6823F470032343F1
:102760000C6823F0700389681C435460002326F032
:10277000800602683143916080F83D5080F83C301B
:10278000184670BD022070BD0000014000040140E9
:1027900010B5040003D094F83D0010B107E001200B
:1027A00010BD002084F83C00204600F00DF8022007
:1027B00084F83D002068211D02F000F9012084F812
:1027C0003D00002010BD000008B500680B4988429C
:1027D00012D10B48016841F002010160006800223B
:1027E000114600F0020000901D20FEF7DFFBBDE85F
:1027F00008401D20FEF7CDBB08BD000000040040CE
:10280000403802400168094ACB6843F00103CB60BD
:10281000016888681040062806D0B0F5803F03D0D4
:10282000086840F0010008600020704707000100C0
:1028300070B5044690F83C00012817D0324B0125B2
:1028400084F83C50022084F83D00226890681840CB
:1028500020F47F4090600868502830D00DDC20289C
:102860004DD005DC98B310283BD148E0022070BD64
:10287000302844D0402834D139E0602828D070284E
:1028800006D0B0F5805F2CD0B0F5005F29D10AE00A
:102890004A682068D1E9021302F0F6F820688168DE
:1028A00041F0770109E04A682068D1E9021302F09B
:1028B000EBF82068816841F48041816011E0CA68CA
:1028C0004968206802F0F1F82068502107E016E01E
:1028D000CA684968206802F0F9F82068602102F0AF
:1028E000DCF8002084F83D5084F83C0070BDCA68D4
:1028F0004968206802F0D9F820684021EFE7226893
:1029000001461046EBE7000088FFFEFF704770B5F8
:102910000446006800250169C943890715D4C168C8
:10292000C943890711D4EA1E026101212177206879
:1029300080698007204602D0FFF7E8FF04E000F03E
:10294000A7F8204600F0A5F8257720680169C9435B
:10295000490717D4C168C943490713D402216FF04E
:102960000402026121772068806910F4407F2046CC
:1029700002D0FFF7CBFF04E000F08AF8204600F019
:1029800088F8257720680169C943090716D4C1680A
:10299000C943090712D404216FF0080202612177AC
:1029A0002068C0698007204602D0FFF7AFFF04E02F
:1029B00000F06EF8204600F06CF825772068016979
:1029C000C943C90617D4C168C943C90613D408212D
:1029D0006FF01002026121772068C06910F4407F17
:1029E000204602D0FFF792FF04E000F051F82046A5
:1029F00000F04FF8257720680169C943C90708D15D
:102A0000C168C943C90704D1891E0161204600F08D
:102A100041F820680169C943090609D4C168C9435E
:102A2000090605D46FF0800101612046FFF77EFEA4
:102A300020680169C943C90509D4C168C9430906A9
:102A400005D46FF4807101612046FFF76EFE2068A7
:102A50000169C943490609D4C168C943490605D477
:102A60006FF040010161204600F02AF820680169FA
:102A7000C94389060BD4C168C943890607D46FF0DE
:102A8000200101612046BDE87040FFF750BE70BDD7
:102A90007047704710B50068074988420AD1074C53
:102AA00001212046FEF76FF82046BDE810400221C4
:102AB000FEF769B810BD00000004004000040240A9
:102AC000704770472DE9F041026804460025D0693F
:102AD0001168936810F00F0F5BD003F0010601F44A
:102AE0009077374369D0C70707D0CF0505D50127B1
:102AF0001762E26F42F00102E267820708D5DA0747
:102B000006D0276802223A62E26F42F00402E267CE
:102B1000420708D5DA0706D0236804221A62E26F5A
:102B200042F00202E26702070AD501F020023243B6
:102B300006D0236808221A62E26F42F00802E267B8
:102B4000E26F002A32D0800605D5880603D5216EB3
:102B500009B1204688472168E06F8968490601D499
:102B6000000725D5204602F08EF8206881684906C6
:102B700019D5816821F040018160E06E98B11A4951
:102B80000165E06EFDF71CFD00280FD0E06E016DC1
:102B900006E0830611D58B060FD5216E12E0204684
:102BA000BDE8F04108472046FFF78BFFBDE8F08104
:102BB0002046FFF786FFE567F8E7030605D50B0615
:102BC00003D5616E0029EAD1F0E74006EED548064C
:102BD000ECD513682021204623F040031360616781
:102BE000656600F0D1F9E1E7F54B000810B5040087
:102BF00002D0606F10B107E0012010BD002084F802
:102C00007000204600F026F82420606720680168E4
:102C100021F001010160204602F0A8F80128ECD063
:102C2000606A10B1204601F063FF2068416821F41A
:102C3000904141602068816821F02A01816020680C
:102C4000016841F0010101602046BDE8104001F03B
:102C5000B3BF00002DE9F04387B007461421684652
:102C6000FDF730FB2F493868884258D12E4801685B
:102C700041F010010160006800F0100005902A4842
:102C80001438016841F0010101600068002402214C
:102C900000F0010005904FF4C06007238DE8130099
:102CA00003222248CDE903236946FDF77BFE204E2F
:102CB0004FF480691F4A4FF0006830463260C6E921
:102CC0000184C6E903497461B461F46134627462D9
:102CD000FDF75AFD08B1FDF7A6FB154D4023FE6632
:102CE0006035B76305F10800124A783280E81802AF
:102CF0006C612846AC61EC612C626C62C5E900280D
:102D0000FDF742FD08B1FDF78EFB0022BD662520D0
:102D10001146AF63FEF74AF92520FEF73AF907B0EE
:102D2000BDE8F0830010014044380240000002403A
:102D300090BE04204064024070B5836F202B4BD1BD
:102D4000B9B1B2B190F87030012B45D0836801263B
:102D500080F870600024416535030466AB42A0F83A
:102D60005820A0F85A204FF0FF0107D1026912B194
:102D700026E0012070BD40F2FF1121E04FF07F02FC
:102D8000E3B1B3F1805F1ED0A0F85C402221C4679C
:102D9000816701688A6842F001028A608168A942FD
:102DA00001D10169B1B10D49016680F87040006838
:102DB000016841F490710160002070BD036933B96E
:102DC000A0F85C10E2E7016909B13F21F8E7A0F83B
:102DD0005C20DBE70249E7E7022070BD114D0008E7
:102DE000B74C000830B50068114988420CD1114831
:102DF00041880A0408D402464FF000034C041278BC
:102E000006D50A2A01D0438030BD41F400410DE0CF
:102E10000D2A09D0084DC1F30D04491C89B263295C
:102E20002A554180EFD830BD41F48041418030BD0A
:102E30000010014044000220ACBD04202DE9F843FD
:102E40000446406F1F4616460D4620284FD1CDB18F
:102E5000C6B194F87000012849D0012284F870208E
:102E600021214FF00008C4F87C806167FDF798FECF
:102E70008146A068A4F85060A4F85260B0F5805F65
:102E800003D004E00120BDE8F883206910B12E468C
:102E9000002510E000260EE08021204602F090F888
:102EA000B8B9C6B116F8010B21688862B4F85200AF
:102EB000401EA4F85200B4F852004B464FF00002F6
:102EC00000970028E8D14FF04001204602F078F842
:102ED00038B10320D7E735F8020B2168C0F30800AA
:102EE000E3E720216167002084F87080CBE70220AF
:102EF000C9E7000070B50446406F20283BD161B39C
:102F00005AB394F87000012835D0A4F85020A4F8E2
:102F100052200025A06E0123E164212184F8703045
:102F2000E5676167D8B115491346C163A16E1448BE
:102F30000864A16E1348C864A06E05652068A66E7B
:102F400000F12802E16C3046FDF790FC38B1102109
:102F5000E167202084F870506067012070BD21680F
:102F60004020086284F870502068816841F0800138
:102F70008160002070BD022070BD00004F4C000831
:102F80007D4C0008094C000870477047FEE70000C0
:102F90002DE9F047314C0128DFF8C4804FF4005789
:102FA000DFF8C0904FF001062F4D1DD02078A0B162
:102FB00008212846FDF7E2FDC0B104212846FDF7AF
:102FC000DDFD98B139464046FDF7D8FD70B10121CD
:102FD0004846FDF7D3FD012808D008212846FDF713
:102FE000CDFD012826D037E02670E1E70A20FDF765
:102FF0007BFC0020207008212846FDF7BFFD80B132
:1030000004212846FDF7BAFD70B139464046FDF768
:10301000B5FD58B101214846FDF7B0FD012807D0A4
:103020001AE00120BDE8F0870220FBE70320F9E762
:103030000420F7E704212846FDF7A0FD01280BD165
:1030400039464046FDF79AFD012805D10121484641
:10305000FDF794FD00B926700020E3E70000022090
:103060000008024000000240001C024007490A46D6
:103070004875938812889BB292B220B1012801D181
:10308000CA820B837047CB820A837047F4B804204E
:10309000F0B50C4C95B2DFF830C02346677D1E7D3D
:1030A000DA691B685CF8266027B103FB0100424324
:1030B000B552F0BD6468201A03FB0010504335522E
:1030C000F0BD0000F4B804203C00022018B504460E
:1030D00000900748018BC08A491E8BB2401E82B205
:1030E0000021084600F008F80248046018BD0000FE
:1030F000F4B8042008000220F8B5274D0026DDF8BA
:1031000018C06C7D14B10446174606E01F466B6874
:103110000C46991A1B1A491E5B1E2A68381B2F7D04
:10312000DFF878E002FB0144ED69121A5EF82770BF
:10313000521E05FB047495B2194A176847F400073C
:1031400017601268591A4FF4803302F4000200929B
:10315000144A03EB00471068491C394302274FF417
:10316000403320F001001060136057631564D4638E
:103170005164C2F838C01168380541F0010111608E
:1031800002E0761C864202D251688907F9D5906820
:1031900040F002009060F8BDF4B804203C0002202A
:1031A0003038024000B0024015484FF48871F8B53D
:1031B0004FF4F073C0E900310122028142812825D9
:1031C00085810824C48105260682022744820E4C8C
:1031D0000C4AC76122600022027510460091114618
:1031E00000F016F80020FFF741FF084801222021D7
:1031F000FDF7D0FCBDE8F8404FF6FF70FFF766BF63
:10320000F4B80420000000C03C000220000402408A
:1032100070B51E46044603460548049DFDF722FE90
:1032200023462A4631460248BDE87040FDF744BEB9
:1032300014B904202DE9FE4F814600688824934686
:103240008D888C2204EBCB178A46C3689421BE4636
:10325000C459C3F30B432B4404F470441F04019777
:1032600002EBCB1240F80E4001EBCB13DAF8007002
:103270009C214FF0AC0C01EBCB1440F20771029192
:103280000CEBCB11D9F800C098250020CDF800C078
:10329000A02605EBCB15DCF80CC006EBCB16CCF367
:1032A0000B4C0CF1010C07EB0C08DDF800C0019F82
:1032B00048EA07084CF80E80D9F80070BAF80CC03C
:1032C000B846FF68C7F30A0767444FEA074E58F845
:1032D000027007F4704C48F802C0D9F800C0DAF860
:1032E0000870DCF80C80C8F30A0808F10108B8443B
:1032F00048EA0E084CF80280D9F80020D75827F089
:103300000707D750D9F80070DAF81020FA509AF869
:1033100031209AF818304FEA022C9AF83220120421
:1033200042EA0362D9F800301F5918519AF8303038
:1033300043EA0C031343D9F800201351D9F80020B5
:10334000535923F0FF035351D9F80020DAF8143011
:103350005351D9F800209359029CA3439351D9F8B3
:103360000030DAE9072422439A51D9F80020535853
:103370005050D9F80020DAF824005050DAF8100044
:10338000C8B301283AD004283AD0022838D00328FC
:1033900036D0072834D00120D9F80030B02505EB0D
:1033A000CB11B42284245D5802EBCB1205F0E0254A
:1033B0005D50DAE9003504EBCB14EB1ABAF828506B
:1033C00043434543D9F80000DB1C43EA054343501F
:1033D000D9F8000081586FF30A018150D9F8000034
:1033E000DAF82C108150D9F80000015941F00101A0
:1033F0000151BDE8FE8FFFE70420CDE70320CBE7B6
:103400000220C9E72DE9FF5F58071D460C468A4692
:1034100000D00120DFF8B8B0690800EBD500002625
:1034200010FB01F1203A01F0FF09D0B202904BE00D
:103430000C2D11D0102D14D0182D17D0202D45D1C2
:103440000298244901EBC0104FF00008875D380650
:1034500013D52148026814E00298204900EB40008F
:1034600008E002981E4901EB0010EDE702981D49A3
:1034700000EBC00001EB8000E6E70E9828B9164883
:10348000426821460098FFF703FE7906BBF8180052
:10349000641CA4B20F0EA04218D9A4EB0A00A842E3
:1034A00009D100985446BBF81610401C80B2009019
:1034B00081420BD906E008F1010000F0FF08B8F1E5
:1034C000080FC4D3761CF6B24E45B1D3BDE8FF9FBA
:1034D000F4B80420A271000804000220E259000898
:1034E000565E0008466400082DE9F84300271C4694
:1034F00016468846054609E0334641462846009769
:10350000FFF780FF05EB560085B2641C2278A2F11C
:1035100020005E28F0D9BDE8F8830000154808B502
:10352000016841F48001016000680022114600F446
:10353000800000903A20FDF739FD3A20FDF729FD83
:1035400000223B201146FDF731FD3B20FDF721FD18
:10355000002245201146FDF729FD4520FDF719FD04
:10356000002246201146FDF721FDBDE80840462017
:10357000FDF70FBD303802402DE9F0432F480224FB
:10358000DFF8B4C08FB0E3010025C0F800C04026CA
:10359000C0E901345B02C5604FF40069E702C0E98D
:1035A0000453856140F2FE73C5610321C0E9093609
:1035B000C0F8389004AAC662C0E90C7480F83C5088
:1035C000CDE90041CDE90214CDE90441CDE906146D
:1035D0006946FDF7B3FC08B1FCF725FF17484FF02B
:1035E0001008154B082240304FF0010CC033062163
:1035F000C0E90035C0F808C08B01C0E903284FF4CA
:1036000000584661C0E90635C0F820900423C0E99F
:1036100009780BA80894CDE9092180E81A00074829
:1036200008A90E944030FEF701FC002801D0FCF7F9
:10363000FAFE0FB0BDE8F083800000A080B804203F
:10364000704700002DE9F04186B014216846FCF770
:1036500039FE4548016841F004010160016801F04C
:1036600004010591016841F480710160016801F471
:1036700080710591016841F020010160016801F04D
:1036800020010591016841F080010160016801F0AD
:1036900080010591016841F001010160016801F0BC
:1036A00001010591016841F002010160016801F02A
:1036B00002010591016841F040010160016801F0DB
:1036C00040010591016841F010010160016801F0BD
:1036D00010010591016841F00801016000680022B5
:1036E000DFF88880032100F0080005904046FDF7D0
:1036F00051FA012240462021FDF74CFA0025694687
:10370000012402946003CDE900051948FDF74AF948
:10371000022618488DE870006946FDF743F90C2031
:103720006946CDE9000514480294FDF73BF901AA6A
:10373000009403276946404682E8B000FDF732F95D
:1037400000966946CDE9014540460395FDF72AF903
:1037500020206946CDE90004CDE902474046FDF747
:1037600021F906B0BDE8F081303802400004024083
:103770000008024000000240001C0240F0B58DB07D
:1037800034216846FCF79EFD24480024224B282162
:1037900000F11C0C0822C0E9003484604FF402736D
:1037A000C4605E1D04614FF48C7544614FF49077E2
:1037B00084618CE8EE0080F8344080F8354080F871
:1037C0003640FDF75BFA08B1FCF72DFE4FF4F070C0
:1037D0004FF488714506CDE90040CDE90A01022782
:1037E000049707A87A020523CDE9024180E82C005E
:1037F000FF260A48CDE905648DF8304000228DF897
:10380000314069468DF83240FDF70EFA002801D0AC
:10381000FCF709FE0DB0F0BD0068014014B90420AA
:103820002DE9F0410C48002118270A4A02237E01A5
:10383000C0E90561C16104241025016280E8BC0073
:10384000FDF760FC002803D0BDE8F041FCF7EBBDBC
:10385000BDE8F081001000A0BCB904200E48002192
:103860000C4A10B5C0E900218160C160016141616D
:103870008161FEF74DFD08B1FCF7D5FD06484FF418
:103880000061FEF720FB002803D0BDE81040FCF7E4
:10389000CABD10BD002C014028BC042010B588B062
:1038A00017480024154942F62F2241F2873300942D
:1038B00001940294039404940594069480E81600FD
:1038C000C0E903348461FEF763FF08B1FCF7ABFD88
:1038D0004FF4805000900A486946FEF7A9FF08B1EE
:1038E000FCF7A1FD064804A904940694FEF720FF06
:1038F000002801D0FCF797FD08B010BD000400407F
:103900006CBD04200D48002110B50B4C0C224FF467
:10391000E1330460C0E90131C160C0E90412816192
:10392000C16101624162FFF761F9002803D0BDE87F
:103930001040FCF778BD10BD0010014010BE0420FF
:10394000FEE7704770472DE9F0434B6A4FF0406542
:103950002BB1AA4203D004688B6A5B1E23618B697A
:10396000002B68D00C6AB4B303688C68DC61CC6946
:10397000FCB1D1E90B38D1F824C04E6B8F8A43EAF1
:10398000080346EA0C0633430E6A43EA8743D1E94B
:10399000037C43EA0C0333438E693B430F682343A4
:1039A000046833433B4365E0006849688161BDE8D2
:1039B000F083D1E90B364F6A4C6B8D8A33433C431D
:1039C0000E6923430C6A43EA85438D6933430968D2
:1039D00023432B4362E0FFE7CC69B4F1000918D020
:1039E000D1E90B484F6A4E6BB1F814C044EA0804A1
:1039F0003E430F683443CE6844EA8C44344344EA7F
:103A000009041C4303683C431443AA425C61CBD1C4
:103A1000CDE7D1E90B464F6A4D6BB1F814C0344382
:103A20003D4300682C43096844EA8C441C430C4322
:103A300014434461BBE70B6AABB303688C68DC6179
:103A4000CC69E4B1D1E90B38D1F824C04E6B8F8A30
:103A500043EA080346EA0C0633430E6A43EA874307
:103A6000D1E9037C43EA0C0333438E693B43234390
:103A7000046833431343AA42636195D197E7D1E9C0
:103A80000B364F6A4C6B8D8A33433C430E6923439C
:103A90000C6A43EA854389693343234300680B4337
:103AA0001343436183E7FFE7CC6984B1D1E90B3865
:103AB0004F6A4E6BB1F814C043EA08033E433343E8
:103AC000CE6843EA8C43334323430468D2E74C6A0D
:103AD000002C9DD0D1E90B368F8A4D6B01683343A2
:103AE00025432B4343EA8740104348615FE70000CA
:103AF000074A491E10B51268116141F28832014629
:103B00000348FDF7B7FB002800D0012010BD0000DE
:103B1000BCB90420F0B58FB014AC94E8E0000024E8
:103B2000039609970D94CDE907540B940C94CDE9B5
:103B30000523CDE90001044841F288326946FDF7CA
:103B40009DFA0FB0F0BD0000BCB90420074A491E21
:103B500010B51268116141F2883201460348FDF741
:103B6000E7FB002800D0012010BD0000BCB90420F4
:103B70002DE9F041984616460F460446069D12E090
:103B8000681C10D02DB1FDF70BF8A0EB0800A8427F
:103B900009D9042084F84100606C40F001006064A1
:103BA0000120BDE8F08120688068384000D0012005
:103BB000B042E5D10020F4E70E49002070B508605E
:103BC000BFF34F8F081F43F6FF7300680A4DC0F321
:103BD0004E31C0F3C90203EA4114104644EA80762C
:103BE0002E60401EFAD2491EF5D2BFF34F8FBFF3AD
:103BF0006F8F70BD84ED00E074EF00E00148FEF7C8
:103C0000B3BA000028BC042030B585B00446372084
:103C100040220DF1080CCDE9001000236946150182
:103C200020468CE82C0000F009FB372141F2883255
:103C3000204600F0C9F905B030BD000030B50B4A90
:103C400085B004462920114340220DF1080CCDE92E
:103C5000001000236946150120468CE82C0000F076
:103C6000EDFA204600F066FA05B030BD0000108085
:103C700030B585B0044610200DF1080C8501CDE962
:103C8000001040226946002320468CE82C0000F0FA
:103C9000D5FA102141F28832204600F095F905B09E
:103CA00030BD30B585B00446062040220DF1080C29
:103CB000CDE9001000236946150120468CE82C0050
:103CC00000F0BCFA062141F28832204600F07CF96F
:103CD00005B030BD30B585B00546002469464FF4C7
:103CE0008060009401940294CDE90340284600F0DE
:103CF000A5FA0B4A4FF4FA5041F288311268B2FB30
:103D0000F0F04843401E03D24FF0004005B030BDF4
:103D1000696B0906F6D540F2FF512046A963F5E725
:103D20005400022070B50821044685B04FF4D570C8
:103D30004026CA018DE8430000256946CDE90352BB
:103D4000204600F07BFA0F4A4FF4FA5041F28831D6
:103D50001268B2FBF0F04843401E02D24FF000451B
:103D60000CE0616B11F0450FF6D0606B400701D598
:103D7000042502E0606B400600D5A66305B0284626
:103D800070BD00005400022030B585B004461220FA
:103D900040220DF1080CCDE9001000236946150101
:103DA00020468CE82C0000F049FA122141F28832BA
:103DB000204600F009F905B030BD30B585B00446A5
:103DC000112040220DF1080CCDE9001000236946B6
:103DD000150120468CE82C0000F030FA112141F248
:103DE0008832204600F0F0F805B030BD30B585B01F
:103DF000044640210DF1040C0720009200230D0120
:103E00008CE82B006946204600F018FA072141F2A1
:103E10008832204600F0D8F805B030BD10B586B025
:103E2000044600210220C02243020493CDE9001081
:103E3000CDE902216946204600F000FA204600F054
:103E400051F906B010BD30B585B0044609200DF11A
:103E5000080CC022CDE90010002369464FF48065AC
:103E600020468CE82C0000F0E9F9204600F03AF9F1
:103E700005B030BD10B586B0044600213320402285
:103E8000CDE90221CDE900101301694620460493D3
:103E900000F0D4F9332141F28832204600F094F842
:103EA00006B010BD30B585B004460D2040220DF19E
:103EB000080CCDE9001000236946150120468CE866
:103EC0002C0000F0BBF90D2141F28832204600F0B1
:103ED0007BF805B030BD30B585B00C4600210546F5
:103EE00003204022CDE90221CDE9001013016946EB
:103EF0002846049300F0A2F903212246284600F048
:103F000039F905B030BD000010B586B00446002177
:103F10000C204022CDE90221CDE9001013016946B1
:103F20002046049300F08AF9034A0C21204600F051
:103F30004BF806B010BD000000E1F50530B585B0C6
:103F40000446192040220DF1080CCDE90010002391
:103F50006946150120468CE82C0000F06FF9192104
:103F600041F28832204600F02FF805B030BD30B560
:103F700085B00446182040220DF1080CCDE9001050
:103F800000236946150120468CE82C0000F056F904
:103F9000182141F28832204600F016F805B030BDF5
:103FA00070B50A6842624A688262C46AD1E9022531
:103FB000D1E9043624F0F7012A4333431A4311436D
:103FC000C162002070BD000010B5444C4FF4FA539C
:103FD0002468B4FBF3F353435B1E02D24FF000405E
:103FE00010BD426B12F0450FF6D0426B520703D55D
:103FF00004218163084610BD426BD20702D0012123
:10400000816303E00269D2B28A4201D0012010BD6F
:1040100040F2FF518163002100F0F2F8304908427C
:1040200001D1002010BD002802DA4FF0007010BD51
:10403000410001D5402010BD810001D5802010BD78
:10404000C10002D54FF4807010BD010102D54FF4BC
:10405000007010BD410102D54FF4806010BDC10158
:1040600002D54FF4006010BD010202D54FF480501C
:1040700010BD410202D54FF4005010BD810202D59F
:104080004FF4804010BDC10202D54FF4004010BD76
:10409000410302D54FF4003010BD810302D54FF427
:1040A000802010BDC10302D54FF4002010BD0104D3
:1040B00002D54FF4801010BD410402D54FF400101A
:1040C00010BD810402D54FF4800010BD000702D559
:1040D0004FF4000010BD4FF4803010BD540002209A
:1040E00008E0FFFD124B4FF4FA5141F288321B6891
:1040F000B3FBF1F15143491E02D24FF0004070472B
:10410000426B12F0450FF6D0416B490703D50421ED
:10411000816308467047416BC90703D00121816361
:104120000846704740F2FF5181630020704700004D
:10413000540002200E4B4FF4FA5141F288321B68B2
:10414000B3FBF1F15143491E02D24FF000407047DA
:10415000426B12F0450FF6D0416B490703D504219D
:1041600081630846704740F2FF5181630020704729
:104170005400022030B51F4D4FF4FA5341F28834F9
:104180002D68B5FBF3F363435B1E02D24FF0004092
:1041900030BD446B14F0450FF6D0436B5B0703D57D
:1041A00004218163084630BD436BDB0702D0012147
:1041B000816303E00369DBB28B4201D0012030BD93
:1041C00040F2FF518163002100F01AF810F4604FB3
:1041D00004D0410406D54FF4005030BD000C1080CF
:1041E000002030BD000402D54FF4805030BD4FF4A4
:1041F000803030BD54000220006800F0030070479A
:10420000084408B514300090006808BD70B511432B
:104210004268049EDDE90554334347F6FF661943BF
:104220002943B24321430A434260002070BD032169
:10423000016000207047D0F88000704770B50A68B0
:104240008260C468D1E90125D1E90336210B2A43F4
:10425000334309031A431143C160002070BD09684C
:10426000C0F8801000207047AFF3008000230122C7
:104270001846114610B500F01FF80120FCF734FB7A
:10428000002301221846022100F016F8002308221C
:104290001846032100F010F80122042100204FF4F9
:1042A0000C7300F009F8BDE81040024840F23731C5
:1042B000FDF7DFBDC0B804201FB54FF0000410B1FA
:1042C000012802D002E0102400E008240748CDE9CC
:1042D00002234FF48052CDE900146946FDF7DAFD60
:1042E000002800D0012004B010BD0000C0B8042098
:1042F00010B5846BFCF776F9022827D0E06B406D8F
:10430000012803D0206C406D01281CD1216840F2A7
:10431000FF5088632068C16B21F49D71C163A06B5D
:1043200040F08040A0632046FDF707FF062801D03B
:10433000052805D12068FFF7E7FDA16B0843A063BE
:10434000012084F834002046FDF7F9FD10BD10B5BA
:10435000846B206B822809D12068FFF7D5FD28B136
:10436000A16B0143A1632046FDF7E9FD206801210F
:1043700040F2FF52C36A23F00803C36220688263DD
:1043800084F834102046FEF73FF910BD70B5846BF9
:104390000025E06B00B1E563206C002816D12046B3
:1043A000FDF7CBFE0121A563062884F8341001D067
:1043B00005280BD12068FFF7A7FDA16B0843A06378
:1043C000A06B0028204602D0FDF77CFD70BDFDF7F4
:1043D000B6FD70BD806B0068C16B41F48071C16334
:1043E000704770B5846B0025206C00B12564E06BCC
:1043F000002816D12046FDF7A0FE0121A56306285E
:1044000084F8341001D005280BD12068FFF77CFD1B
:10441000A16B0843A063A06B0028204602D0FDF7E3
:1044200051FD70BDFDF78BFD70BD2DE9F04F89B0DA
:104430000E460446FCF7B4FB0027009701970821BD
:10444000834620683D46FFF713FC002835D1B4F8B9
:10445000501020680904FFF7D7FB00282DD14FF03A
:1044600008084FF002094FF0010C421E3023CDE93D
:104470000228CDE90439CDE9067C206802A9FFF7BE
:104480008FFD2068FFF7F6FC002816D1EA4640F2BF
:104490002A472068416B394212D1416B890204D509
:1044A000FFF7C9FE4AF825006D1CFCF779FBA0EB6D
:1044B0000B00401CEDD14FF0004009B0BDE8F08F7B
:1044C000416B090703D5C0F838800820F5E7416B38
:1044D000890703D5C0F838900220EEE7416B8906C2
:1044E00003D5202181630846E7E740F2FF5181634D
:1044F000009800BA7060019800BA30600020DCE7D4
:1045000010B590B004460120ADF838002068FFF7E0
:1045100073FE002864D0606C032842D02068FFF747
:104520007DFC00285AD120680021FFF769FE6067F2
:1045300004212068FFF764FEA06708212068FFF7C8
:104540005FFEE0670C212068FFF75AFE616CC4F83B
:104550008000032925D020680EA9FFF7BCFC0028A5
:104560003CD1606C03281CD0BDF838102165206850
:104570000904FFF768FC002830D120680021FFF70C
:104580003FFE606604212068FFF73AFEA06608211E
:104590002068FFF735FEE0660C212068FFF730FE4B
:1045A000206704212068FFF72BFE000DE06403A9BB
:1045B0002046FDF7C5FCB4F8500000230204206833
:1045C000FFF714FC002809D104F1100007C88DE89A
:1045D000070094E80F00FFF719FE002010B010BD8F
:1045E0004FF08060FAE72DE9F84300250446009576
:1045F0000068FFF76FFB00281BD12068FFF792FBD4
:104600004FF080784FF6FF76E0B14FF08057A56409
:104610000098B04200F1010000901BD020680021FA
:10462000FFF7F2FA20B920680021FFF707FB10B16D
:104630003846BDE8F88320680021FFF7E1FDC00F90
:10464000E6D020E00127A7640098B04200F1010005
:10465000009001D14046ECE720680021FFF7D4FA32
:104660000028E6D120684FF08041FFF7E7FA0028E4
:10467000DFD120680021FFF7C3FDC10FE4D0400067
:1046800001D5676400E065640020D2E72DE9F041C0
:10469000002415460E460746FBF78AFF08B1FFF7D0
:1046A0008BFA10482B4632463946FDF733FF05009A
:1046B00004D00EE0641CAC4202D906E04FF08055F5
:1046C0000848FDF73AFD0428F4D10648FDF735FD0A
:1046D0000546FBF76DFF08B1FFF76EFA2846BDE807
:1046E000F081000028BC04202DE9F047064614485C
:1046F00017460C46006800B14C02B00717D00025E1
:104700004FF4007810E068024FF0010201190D48E3
:10471000FFF7BCFF0B49814642463046FBF7B9FD27
:104720006D1C06F50076EDB2BD42ECD304E02146E7
:104730003046FFF7ABFF81464846BDE8F0870000F2
:1047400008BC042008BA04201CB5044600200090D0
:10475000002101902068FFF753FD800102D54FF43E
:1047600000601CBD69462046FFF75FFE0028F8D1B7
:104770000198C0030CD5B4F8501020680904FFF765
:1047800043FA0028EDD120680021FFF78AFA1CBD0A
:104790004FF080601CBD1CB5044600200090002135
:1047A00001902068FFF72CFD800102D54FF40060D6
:1047B0001CBD69462046FFF738FE0028F8D1019855
:1047C00040030CD5B4F8501020680904FFF71CFA18
:1047D0000028EDD120680221FFF763FA1CBD4FF0DD
:1047E00080601CBD2DE9F041002415460E460746A9
:1047F000FBF7DEFE08B1FFF7DFF910482B46324623
:104800003946FDF703FF050004D00EE0641CAC42FE
:1048100002D906E04FF080550848FDF78EFC0428C9
:10482000F4D10648FDF789FC0546FBF7C1FE08B147
:10483000FFF7C2F92846BDE8F081000028BC04203B
:104840002DE9F0411746134A06460C46126802B19C
:104850004C02B10717D000254FF400780FE00E4846
:1048600042463146FBF715FD68024FF0010201197F
:104870000948FFF7B7FF6D1C06F50076EDB2BD42A3
:10488000EDD3BDE8F0813A462146BDE8F041FFF79F
:10489000A9BF000008BC042008BA04207047FCF738
:1048A00085B9000070B5B8B0342124A8FBF70AFD23
:1048B000142131A8FBF706FD90216846FBF702FDA5
:1048C0002348016841F080510160006800F0805089
:1048D00036902048016841F440410160006800249E
:1048E0000225249500F4404036901020CDE92A544A
:1048F000012609232F930DF1B00CCDE92760082183
:10490000D8228CE8260024A8FDF7F2F8FCF780FBFB
:10491000EA0233944FF4A0510F20CDE93412CDE9CF
:104920003105072131A8FCF7FBFF0B4B0521009354
:104930006420CDE907141194EA031F942094CDE973
:104940000505CDE90A626846FCF74CFD38B070BD3C
:1049500040380240007000404800A000104A30B5C6
:104960001048146800210F4B44F47004146008339D
:1049700005680D4A0D4C45F0010505601960036896
:10498000051D1340074A03600C322C600568E305DF
:10499000034C25F480250560803C1160236030BD08
:1049A00088ED00E000380240FFFFF6FE10300024E2
:1049B0000148FDF7ACBF00006CBD0420F0B5274BEB
:1049C0004FF0804E264D02689842264E264F274CC7
:1049D00009D0704507D0A84205D0B04203D0B842F4
:1049E00001D0A04205D1D1F804C022F070024CEAF7
:1049F000020298421BD0704519D0A84217D0B0428D
:104A000015D0B84213D0A04211D0194DA8420ED0F3
:104A1000184DA8420BD0184DA84208D0174DA842F7
:104A200005D0174DA84202D0164DA84203D1CD683B
:104A300022F440722A434D6922F080022A43026028
:104A400098428A68C2620A68826201D0A04201D19B
:104A50000969016301214161F0BD000000000140CE
:104A60000004004000080040000C00400004014029
:104A7000004001400044014000480140001800404F
:104A8000001C00400020004042EA032283680A43E1
:104A900023F47F410A4382607047826822F07002EB
:104AA0000A4342F007018160704710B5036A046A47
:104AB00023F00A0324F00104046284690B4324F008
:104AC000F00141EA02118161036210BD10B5036A71
:104AD00023F0100303628369046A23F4704324F013
:104AE000A00443EA0232826144EA0111016210BD6E
:104AF00090F82410C90706D00168836A4A6822F436
:104B000000321A434A6090F82410890706D50168DC
:104B1000C36A4A6822F480321A434A6090F824102B
:104B2000490706D50168036B4A6822F480221A43BC
:104B30004A6090F82410090706D50168436B4A685B
:104B400022F400421A434A6090F82410C90606D5A0
:104B50000168836B8A6822F480521A438A6090F855
:104B60002410890606D50168C36B8A6822F40052B6
:104B70001A438A6090F82410490611D50168036C25
:104B80004A6822F480121A434A60016CB1F5801F12
:104B900006D10168436C4A6822F4C0021A434A6095
:104BA00090F82410090606D50168826C486820F444
:104BB000002010434860704738B500250446C5679B
:104BC000FBF7EEFF03462068006800070BD56FF087
:104BD0007E400090002220464FF4001100F0F0F9D2
:104BE00008B1032038BD2020606784F87050A067AA
:104BF000002038BD10B5806B0021A0F85A10A0F835
:104C00005210FDF75EFF10BD70B5846B0025216862
:104C1000606FA66F8968090606D5212804D1A4F81B
:104C20005250204600F03FF820688068400606D5C4
:104C3000222E04D1A4F85A50204600F024F8E06F48
:104C400040F01000E0672046FDF73BFF70BD10B557
:104C5000C169806BB1F5807F0DD00021A0F85210A2
:104C600001688A6822F080028A600068016841F069
:104C70004001016010BDFEF787F910BD10B5806BD3
:104C8000FEF783F910BD10B50168202200230C68DF
:104C900024F490740C6001688C6824F001048C602A
:104CA0008267036610BD016820220B6823F0C003F1
:104CB0000B604267704710B5816FB0F85C20222905
:104CC000016804D0886940F00800886110BD496A15
:104CD000436D11401980416D891C4165B0F85A102F
:104CE000491EA0F85A10B0F85A100029EED10168F8
:104CF000202200230C6824F490740C6001688C68F6
:104D000024F001048C6082670366FEF76BF810BD27
:104D100010B5816FB0F85C202229016804D0886941
:104D200040F00800886110BD496A436D1140197058
:104D3000416D491C4165B0F85A10491EA0F85A103F
:104D4000B0F85A100029EED10168202200230C6827
:104D500024F490740C6001688C6824F001048C6069
:104D600082670366FEF73EF810BD00002DE9F041B2
:104D700004468068DFF818C2864F2368D4E90452DD
:104D8000E16928431E6800250A438349104306EA67
:104D90000C0606431E604FF400422068E668436834
:104DA00023F44053334343602368A669206AD3F851
:104DB00008C030432CF4306606439E602068B84239
:104DC0000AD1086810F0030052D001287BD00228D5
:104DD0007AD003286ED186E0704B98420AD10868D9
:104DE00010F00C0079D004287BD0082877D00C284C
:104DF00060D178E06A4B98420AD1086810F0300020
:104E00006BD010286DD0202869D0302852D16AE0AC
:104E1000644B98420AD1086810F0C0005DD0402869
:104E20005FD080285BD0C02844D15CE05E4B9842C4
:104E30000DD1086810F440704FD0B0F5807F50D08D
:104E4000B0F5007F4BD0B0F5407F33D14BE0574BEE
:104E500098420FD1086810F4406009D0B0F5806F17
:104E60003FD0B0F5006F3AD0B0F5406F22D13AE0B4
:104E7000012120E04E4B98420DD1086810F44050BB
:104E80002BD0B0F5805F2CD0B0F5005F27D0B0F507
:104E9000405F0FD127E0474B98420BD1086810F4D0
:104EA00040401AD0B0F5804F1BD0904217D0B0F5DB
:104EB000404F18D01021E0694FF6EF76904238D17C
:104EC00009295DD202E00CE009E006E0DFE801F02C
:104ED0000D1027582A5858582D000021EBE70221C1
:104EE000E9E70421E7E70821E5E7FCF7AFFD01E08A
:104EF000FCF7BCFD0146D4F80400490001EB500169
:104F0000B1FBF0F080B2A0F11001B14238D84FF6F9
:104F1000F0732168C0F342021840104324E0264990
:104F20006068EBE7FCF7B2FDE4E760684FF48031BE
:104F3000E4E7092924D2DFE801F0050819231C233E
:104F400023231F00FCF782FD01E0FCF78FFD0146E3
:104F5000D4F8040001EB5001B1FBF0F080B2A0F1F5
:104F60001001B1420CD82168C8600AE0134960689A
:104F7000F0E7FCF78BFDEAE7606802EB5001EBE736
:104F800001250020206660662846BDE8F08100000B
:104F9000F369FFEF001001409038024000440040E8
:104FA00000480040004C0040005000400014014008
:104FB00000780040007C00400048E8010024F40034
:104FC0002DE9F041984617460E460446069D08E036
:104FD000681C06D0FBF7E4FDA0EB0800A8420BD844
:104FE00055B12068C06936EA000017D00020B842E9
:104FF000EED00020BDE8F0812168202000220B685F
:1050000023F4D0730B6021688B6823F001038B605D
:105010006067A067032084F87020EBE70120E6E7D3
:10502000054810B5FDF74EFDBDE8104003490122CB
:105030000148FDF781BE000010BE0420440002209C
:10504000FEE73EB5040300F029F900F0CDF84FF477
:105050004051002288108DE807008310214620204F
:10506000FEF758FDBDE83E4000F0BEB87FB500F049
:1050700035F800F069F81849A0F56F42183A4880F1
:1050800028D1032000F084F800248DF80C00C0071C
:105090004FF440750AD100F001F900222B46B720E9
:1050A0001146009401940294FEF734FD00F0F6F8E6
:1050B0004FF04070009400222B461146CDE901408C
:1050C000C020FEF727FD30208DF80C00012103A839
:1050D000FEF73CFD7FBD00000C0002203EB5022023
:1050E00000F056F80446800706D400F0D7F80220F6
:1050F00044F0020100F022F9002000904FF4807388
:1051000002460146019002903820FEF703FD024955
:10511000012008703EBD00000C0002203EB515467F
:1051200004464FF44052901083038DE80D00831025
:1051300008220B20FEF7EEFC03B029462046BDE80E
:105140003040FEF7D5BC00001FB510494FF40050A9
:10515000097829B14FF44062910302910B1404E0E5
:105160004FF48062910302910B14CDE900200022DC
:1051700090201146FEF7CEFC022103A8FEF7B8FCF2
:10518000BDF80C0004B040BA10BD00000C000220B5
:105190001FB5002101288DF80C1003D0022803D080
:1051A000032803D0052002E0352000E015200D4A39
:1051B000127822B14FF040720091131403E04FF0C7
:1051C000807200911314CDE9011200221146FEF7FE
:1051D000A1FC012103A8FEF78BFC9DF80C0004B094
:1051E00010BD00000C00022010B50120FFF7D0FF19
:1051F000C007FAD110BD00002DE9F05FC1F30B0626
:10520000DFF894800F0B8946C6F580548246A2428F
:10521000154600D81446404639034FF480528B4659
:10522000FFF77CFF002006E0321818F80210FF2973
:1052300003D1401C80B2A042F6D3A04223D238460C
:10524000FFF7FFFE002006E083191AF80020401C3B
:1052500080B208F80320A042F6D34FF4805259469A
:105260004FEA080000F030F8A54212D0291B4FF099
:1052700000068DB27F1C4FF480508542A244A144A9
:1052800005D90446C7E7224649465046EAE72C4678
:10529000C1E7BDE8F09F00005C00022009480EB5A0
:1052A0000178002000900190029011B14FF44073FA
:1052B00001E04FF48073002206201146FEF72AFC1D
:1052C0000EBD00000C0002202DE9F04107460E46FD
:1052D000C8B21546C0F58074A24200D814464FF4F7
:1052E000807822463146384600F00EF8A54209D0B3
:1052F000291B8DB245452744264401D94446F0E791
:105300002C46EEE7BDE8F081FEB516460C46054694
:10531000FFF7C4FF4FF44051881082038DE8070067
:105320008310214600220220FEF7F4FB3146284676
:10533000FEF70CFCBDE8FE40FFF756BF03B50128A1
:1053400083B004D002280BD003280BD001200E49D3
:105350000A78002142B14FF040720091131407E027
:105360003120F4E71120F2E74FF08072009113141E
:10537000CDE9011200221146FEF7CCFB012104A861
:10538000FEF7E4FB05B000BD0C0002200FB4054B96
:1053900010B503A9044A029800F028F810BC5DF883
:1053A00014FB0000AD560008580002200907002831
:1053B0004FEA116104DB00F1E02080F8001470472F
:1053C00000F00F0000F1E02080F8141D704702E0AB
:1053D00008C8121F08C1002AFAD170477047002080
:1053E00001E001C1121F002AFBD170472DE9FF4FD8
:1053F0008DB09B460F460446002606E025280BD0BC
:105400005A460F999047641C761C20780028F5D1E5
:1054100011B03046BDE8F08F0025A846012298491A
:1054200000E0054314F8013F203B02FA03F0084274
:10543000F7D120782E2817D114F8010F45F0040574
:105440002A280ED06FF02F022078A0F13001092910
:105450000AD808EB880102EB410100EB0108641C4B
:10546000F2E757F8048B641C20786C280DD004DC1C
:105470004C2812D06A2811D104E074280DD07A2863
:105480000CD10AE045F4001507E0617845F4801579
:10549000814202D1641C05F58015641C2278692ABA
:1054A00045D008DC002AB3D0582A69D0632A10D02E
:1054B000642A08D13BE0702A67D0732A13D0752A7A
:1054C0005CD0782A5CD010465A460F999047761CDB
:1054D000D3E017F8040B8DF8000000208DF80100D0
:1054E000E946012003E057F8049B4FF0FF306907BD
:1054F0004FF0000501D40AE06D1C45450DDA8542E8
:10550000FADB19F805100029F6D106E06D1C85427A
:10551000FCDB19F805100029F8D12E4404E019F835
:10552000010B5A460F9990476D1EF8D2A5E00A204C
:105530000021CDE90801C5F3025002280DD001CFAA
:10554000C117031E71F100030DDA4FF0000CD0EB10
:105550000C006CEB01012D2308E0FF1D27F007076D
:10556000F7E80201EDE72B0504D52B238DF8283051
:1055700001233BE0EB0739D02023F7E70A2000E0C6
:1055800010200021CDE9080107E01020002145F09E
:105590000405CDE908014FF00808C5F302500228C0
:1055A0000FD001CF00214FF0000A2B071FD5702A22
:1055B0000DD0DDE908C38CF0100C5CEA030C0CD0B4
:1055C00015E0FF1D27F00707F7E80201EBE740228F
:1055D0008DF828204FF0010A0BE050EA010306D0B5
:1055E00030238DF828308DF8292002239A46582A36
:1055F00004D024A20DF120090B9209E026A2F9E7BC
:10560000DDE90823FAF714FE0B9B9B5C09F8013DCA
:1056100050EA0102F4D1ADEB090020300890680790
:1056200001D44FF001080899884502DDA8EB01007C
:1056300000E000208046002506E00AA85A46405DAA
:105640000F9990476D1C761C5545F6DB04E0302021
:105650005A460F999047761CB8F10001A8F101084D
:10566000F5DC05E019F8010B5A460F999047761CB6
:105670000899481E08900029F4DC641CC5E6000067
:105680000928010030313233343536373839616218
:1056900063646566000000003031323334353637DC
:1056A00038394142434445460000000013B50448E0
:1056B00001224FF6FF736946FDF7C0FB00981CBD41
:1056C00010BE0420ADF5836D6CA40FF2C018BFF3BB
:1056D0004F8FBFF36F8F714900200860BFF34F8F6A
:1056E000BFF36F8F6E4B196841F400311960BFF33F
:1056F0004F8FBFF36F8F6A4970310860BFF34F8FD0
:10570000081F43F6FF7C0168644EC1F34E3010362B
:10571000C1F3C9010CEA40150A4600BF45EA827789
:105720003760521EFAD2401EF4D2BFF34F8F186872
:1057300040F480301860BFF34F8FBFF36F8FFBF7DB
:105740003DFAFFF7AFF8FDF77DFFFDF7E7FEFEF747
:10575000D9F8FDF775FFFEF7A1F8FDF70DFFFEF78D
:105760000DF8FEF75DF8FEF779F8FEF77DFDFFF71F
:105770007DFCFDF719FD002000F0F8F8012000F095
:10578000F5F8022000F0F2F8464901224648FDF7FC
:10579000D3FA46A0FFF7FAFD2046FAF79EFD82B243
:1057A00041482146FDF7A6FB4648FDF72BF820228D
:1057B0000021642044A3FDF797FE454E002080A9F8
:1057C0004FF400750854401CA842FBD30020FDF79D
:1057D000DFFB012806D002280ED0032823D004289E
:1057E0001DD127E04046FAF778FD82B231464046A7
:1057F000FFF702FD37A010E04046FAF76EFD82B2D7
:1058000031460DF58060FFF789FC2022002011460B
:105810000DF58063FDF768FE32A0FFF7B7FD32207B
:10582000FBF762F8D2E70122002180A8FFF708F811
:1058300030A0F2E7012268460021FEF755FF042858
:105840001AD11022BE211E202EA3FDF74DFE33A03B
:10585000FFF79CFD00246F4635A0395DFFF796FDEC
:10586000641CAC42F8D333A0FFF790FD1022BE2198
:105870001E2034A3FDF738FE38A0CEE775617274A0
:1058800020646D6120746573740D0A007732357180
:1058900032353620746573740000000050EF00E06C
:1058A00014ED00E04400022010BE04207561727403
:1058B00020746573742069732072756E2121210D27
:1058C0000A0000006CBD04204637205445535400A4
:1058D0009CFFFF016B6579302069732070617373E1
:1058E0000D0A00006B657931206973207061737354
:1058F0000D0A00006B657932206973207061737343
:105900000D0A00005553415254312053656E6469AD
:105910006E6720446174612E2E2E0000534543545F
:105920004F52203020444154413A0D0A00000000FB
:10593000257820000D0A4441544120454E444544F9
:105940000D0A00005553415254312053656E6420B6
:1059500044617461204F766572210000776B5F753A
:105960007020697320706173730D0A0030B50446AE
:105970000848074D50F8241005EB84008A00406960
:10598000002100F027F82919012081F8200030BDFE
:105990001000022024A1000810B50C4C00220C4B72
:1059A000114603EB800354F8200005E05C6954F8CD
:1059B000214004B1521C491C8842F7D84FF47A7137
:1059C0004A43B2FBF0F080B210BD000024A10008F1
:1059D0001000022002E000BF00F8011B521EFBD2A3
:1059E0007047000000000000000000000000000000
:1059F00000003F40000000000000000030004000B8
:105A000030004000000009000BC03D000BC03D000D
:105A1000090018C024407FE02240318000001800B7
:105A200024C01B000D803240018003801C402740B1
:105A30001C800740004010006000000000000000D3
:105A400000000000000000001F80204040200000F7
:105A5000402020401F8000000000090006001F8039
:105A6000060009000000040004003F800400040058
:105A700000000010006000000000000000000400B2
:105A800004000400040004000000000000400000C6
:105A9000000000000000002001C0060038004000A7
:105AA00000001F802040204020401F800000000098
:105AB00010403FC000400000000018C021402240BC
:105AC00024401840000010802040244024401B80C7
:105AD000000002000D0011003FC0014000003C80AA
