:020000040800F2
:1000000060CF04200D0200087D4600088B3A0008EE
:1000100079460008690300086964000800000000D0
:10002000000000000000000000000000135B00085A
:10003000B7040008000000007F460008155B0008B8
:1000400027020008270200082702000827020008EC
:1000500027020008270200082702000827020008DC
:1000600027020008270200082702000827020008CC
:1000700027020008270200082702000827020008BC
:1000800027020008270200082702000827020008AC
:10009000270200082702000827020008270200089C
:1000A000270200082702000827020008270200088C
:1000B00027020008755C00082702000827020008D4
:1000C000270200082702000827020008270200086C
:1000D000270200084D6400082702000827020008D4
:1000E000270200082702000827020008270200084C
:1000F000270200082702000827020008270200083C
:1001000027020008E54A0008270200082702000825
:10011000270200082702000827020008270200081B
:1001200027020008270200086D0300087D0300086D
:1001300027020008270200082702000827020008FB
:1001400027020008270200082702000827020008EB
:10015000270200088D0300089D03000827020008FD
:1001600027020008270200082702000827020008CB
:1001700027020008270200082702000800000000EC
:1001800027020008270200082702000827020008AB
:10019000270200082702000827020008270200089B
:1001A000270200082702000827020008270200088B
:1001B000270200082702000827020008270200087B
:1001C000270200082702000800000000270200089C
:1001D000270200082702000827020008270200085B
:1001E000270200082702000827020008270200084B
:1001F0002702000827020008DFF80CD000F0A2F860
:1002000000480047F591000860CF04200648804769
:1002100006480047FEE7FEE7FEE7FEE7FEE7FEE7EB
:10022000FEE7FEE7FEE7FEE7115C0008F9010008C3
:100230002DE9F05F0546002092469B46884606461B
:10024000814640241BE0284641464746224600F0AE
:1002500069F853465A46C01A914110D311461846C0
:10026000224600F050F82D1A67EB01084F4622464F
:100270000120002100F047F817EB00094E41201E35
:10028000A4F10104DFDC484631462A464346BDE876
:10029000F09F40EA01039B0703D009E008C9121F41
:1002A00008C0042AFAD203E011F8013B00F8013B30
:1002B000521EF9D27047D2B201E000F8012B491E5C
:1002C000FBD270470022F6E710B513460A460446F3
:1002D0001946FFF7F0FF204610BD30B50B4601462A
:1002E00000202022012409E021FA02F59D4205D3D5
:1002F00003FA02F5491B04FA02F52844151EA2F17F
:100300000102F1DC30BD202A04DB203A00FA02F1C0
:10031000002070479140C2F1200320FA03F31943F3
:1003200090407047202A04DB203A21FA02F0002195
:10033000704721FA02F3D040C2F1200291400843F5
:1003400019467047064C074D06E0E06840F001038F
:1003500094E8070098471034AC42F6D3FFF750FFFB
:100360003C9103085C91030800BFFEE710B502480A
:1003700000F0AAF910BD000090BE042010B502489C
:1003800000F0A2F910BD0000ACBC042010B502487A
:1003900000F09AF910BD00000CBD042010B5024811
:1003A00000F092F910BD0000F0BE0420014608786C
:1003B00010381823B0FBF3F20848805CC865032AA4
:1003C00005D908686FF30900001D886503E0086817
:1003D0006FF309008865886D7047000020E500080C
:1003E000014600208A6A8B69CBB932B1012A0DD04F
:1003F000022A03D0032A10D10EE000BFCB6A03F01B
:100400008073B3F1807F00D1012007E0CB6AB3F1A4
:10041000C07F00D1012001E000E000BF34E08B6923
:10042000B3F5005F1AD132B1012A07D0022A03D0F6
:10043000032A11D10AE000BF01200EE0CB6A03F0CD
:100440008073B3F1807F00D1012006E0CB6AB3F165
:10045000C07F00D1012000E000BF15E032B1012AC9
:1004600005D0022A04D0032A0CD103E000BF00BF4C
:10047000012008E0CB6A03F08073B3F1807F00D1E4
:10048000012000E000BF00BF704730B50468246859
:1004900024F4802405682C60046863608468402C20
:1004A00004D10468A2600468E16003E00468A1600C
:1004B0000468E26030BD7047704730B503461446AB
:1004C0000022DA680022D1E9000540EA05200D8902
:1004D00040EA05400D7B40EA05600243DA600020F7
:1004E00030BD30B50346144600229A680022D1E997
:1004F000000540EA05200D8940EA05400D7B40EAF1
:10050000056002439A60002030BD000010B502462D
:10051000002313680A480340486840F008008C68CC
:100520002043CC6820430C6920434C6940EA4420B6
:100530008C6940EA443003431360002010BD000082
:100540008101F0FF30B5024600230024086801282D
:1005500016D013686FF30E03D1E901052843CD6867
:1005600028430D6928434D6928438D692843CD6987
:1005700028430D6A28434D6A28430343136019E05A
:10058000136823F4F843D1E9070528434D6A28434B
:10059000034354686FF30E04D1E901052843CD6885
:1005A00028430D6928434D6928438D692843044336
:1005B00013605460002030BD0246506940EA41009B
:1005C00050610020704718B5034600200090D1E923
:1005D000000420438C68641E40EA4410CC6840EA62
:1005E0004420009000981861002018BD70B50346A3
:1005F000154600220024012D1FD09A6802F0704297
:100600000868401E4E68761E40EA06168868401E3E
:1006100046EA0026C868401E46EA0036088A401EA0
:1006200046EA0046888A401E46EA0056087E401E7A
:1006300046EA006002439A6022E09A68114802404C
:10064000C868401E0603888A401E46EA00500243DE
:10065000DC6804F070440868401E4E68761E40EA6C
:1006600006168868401E46EA0026088A401E46EAAA
:100670000046087E401E46EA006004439A60DC6043
:10068000002070BDFF0F0FFF02490968C1F3004051
:100690007047000014ED00E0014691F83500022893
:1006A00003D08020486501207047052081F835007F
:1006B0000868006820F001000A6810600020F3E775
:1006C0000146486D70470000F8B5044600200090D0
:1006D0008C4800684FF41651B0FBF1F7A56D2E68F9
:1006E00094F85C1008208840304098B12068006879
:1006F00000F0040070B12068006820F00400216858
:10070000086094F85C1008208840A860606D40F094
:100710000100606594F85C1001208840304068B1A9
:100720002068406900F0800040B194F85C1001201E
:100730008840A860606D40F00200606594F85C102D
:1007400004208840304068B12068006800F0020052
:1007500040B194F85C1004208840A860606D40F0BF
:100760000400606594F85C1010208840304078B335
:100770002068006800F0080050B394F85C10102066
:100780008840A8602068006800F4802080B120685C
:10079000006800F4002028B9206CC8B12046216C04
:1007A000884715E0A06C98B12046A16C88470FE0FF
:1007B0002068006800F4807028B92068006820F084
:1007C000080021680860206C10B12046216C884721
:1007D00094F85C10202088403040002865D02068C4
:1007E000006800F0100000285FD094F85C10202012
:1007F0008840A86094F83500052828D12068006852
:1008000020F01600216808602068406920F0800010
:1008100021684861206C08B9A06C28B12068006884
:1008200020F008002168086094F85C103F208840A0
:10083000A86000BF002084F8340000BF012084F8C5
:100840003500206D10B12046216D8847F8BD206825
:10085000006800F4802080B12068006800F4002067
:1008600028B9606C10B12046616C88471DE0E06BD0
:10087000D8B12046E16B884717E02068006800F493
:10088000807068B92068006820F010002168086056
:1008900000BF002084F8340000BF012084F8350038
:1008A000E06B10B12046E16B8847606D38B3606D36
:1008B00000F00100F0B1052084F8350020680068E0
:1008C00020F001002168086000BF0098401C0090E3
:1008D000B84200D905E02068006800F00100002857
:1008E000F3D100BF00BF002084F8340000BF012016
:1008F00084F83500E06C10B12046E16C884700BFF9
:10090000A4E70000540002202DE9F0410446002530
:1009100000F06AFA074614B90120BDE8F081606A68
:1009200000B100BF00BF002084F8340000BF0220E7
:1009300084F835002068006820F001002168086014
:100940000AE000F051FAC01B052805D92020606597
:10095000032084F83500E0E72068006800F001001B
:100960000028EED12068056821480540D4E901013E
:100970000843E16808432169084361690843A169A4
:100980000843E1690843216A08430543606A042873
:1009900003D1D4E90B0108430543206805602068B2
:1009A000456925F00705606A0543606A04280DD192
:1009B000A06A0543E06A48B12046FFF711FD28B15F
:1009C00040206065012084F83500A6E72068456175
:1009D0002046FFF7EBFC064694F85C103F20884069
:1009E000B06000206065012084F83500002094E7A5
:1009F0003F8010E02DE9F04704460D4616461F469D
:100A00004FF00008D4F8589000BF94F83400012843
:100A100002D10220BDE8F087012084F8340000BF35
:100A200094F8350001282BD1022084F835000020ED
:100A300060653B46324629462046FFF726FD94F87E
:100A40005C103F208840C9F808002068006840F02A
:100A50001600216808602068406940F08000216825
:100A60004861206C28B12068006840F008002168C7
:100A700008602068006840F001002168086006E016
:100A800000BF002084F8340000BF4FF00208404649
:100A9000C0E7000070B5044600F0A6F906462546FA
:100AA000681C10B104480078054400BF00F09CF9B0
:100AB000801BA842FAD370BD5000022000B587B059
:100AC0003048006808B107B000BD01202D4908601A
:100AD00000BF2D48006840F001002B49086008461F
:100AE000006800F00100019000BF00BF4FF63F001A
:100AF00002900220039000200490032005900C2017
:100B0000069002A9214800F04BF80D200290022027
:100B1000039000200490032005900C20069002A969
:100B20001B4800F03DF848F2373002900220039055
:100B300000200490032005900C20069002A915487F
:100B400000F02EF84FF680700290022003900020F3
:100B50000490032005900C20069002A90E4800F096
:100B60001FF84DF67370029002200390002004904D
:100B7000032005900C20069002A9084800F010F808
:100B800000BFA0E7340002203838024000140240C1
:100B9000000802400018024000100240000C024011
:100BA000F8B502460B46002100250024002000BFB6
:100BB000E4E0012606FA01F51E6806EA0504AC42E7
:100BC00071D15E68022E02D05E68122E13D1CF085A
:100BD00002F1200656F827004E07F70E0F26BE40FA
:100BE000B0434F07FF0E1E69BE403043CF0802F1ED
:100BF000200646F8270010684F000326BE40B04389
:100C00001E7906F003064F00BE40304310605E6858
:100C1000012E08D05E68022E05D05E68112E02D02B
:100C20005E68122E13D190684F000326BE40B04379
:100C30004F00DE68BE4030439060506801268E4011
:100C4000B0431E79C6F300168E4030435060D06822
:100C50004F000326BE40B0434F009E68BE40304365
:100C6000D0605E6806F08056B6F1805FA8D100BF04
:100C7000444E366846F48046424F3E603E463668F3
:100C800006F48046009600BF00BF3F4E8F0856F81E
:100C900027008E07370F0F26BE40B0433B4EB242AF
:100CA00002D100262EE068E0394EB24201D1012681
:100CB00028E0384EB24201D1022623E0364EB2423D
:100CC00001D103261EE0354EB24201D1042619E0BF
:100CD000334EB24201D1052614E0324EB24201D168
:100CE00006260FE0304EB24201D107260AE02F4E11
:100CF000B24201D1082605E02D4EB24201D10926AB
:100D000000E00A268F073F0FBE4030431E4E8F087B
:100D100046F82700274E3068A0435E6806F4803608
:100D2000B6F5803F00D12043224E3060361D30683A
:100D3000A0435E6806F40036B6F5003F00D12043BC
:100D40001C4E361D3060361D3068A0435E6806F4C8
:100D50008016B6F5801F00D12043164E083630604D
:100D6000361D3068A0435E6806F40016B6F5001F15
:100D700000D120430F4E0C363060491C1029FFF47F
:100D800018AFF8BD44380240083801400000024066
:100D90000004024000080240000C02400010024023
:100DA0000014024000180240001C024000200240D3
:100DB00000240240003C0140024613690B400BB185
:100DC000012000E00020704742690A408A4202D1B7
:100DD0000A04826100E0816170470AB1816101E02B
:100DE0000B048361704700000148006870470000F1
:100DF0004800022003480068034909780844014973
:100E000008607047480002205000022010B50A48D0
:100E1000006840F40070084908600846006840F423
:100E200080700860032000F0ADFA002000F006F8A2
:100E300000F00CFA002010BD003C024070B50446E2
:100E40000E4800784FF47A71B1FBF0F00C49096854
:100E5000B1FBF0F5284602F04DF908B1012070BD54
:100E6000102C07D200222146501E00F04DFA0548F2
:100E7000046001E00120F2E70020F0E750000220CA
:100E8000540002204C00022070B504460E46154660
:100E900000BF94F8A000012801D1022070BD0120FC
:100EA00084F8A00000BF022084F8A10005EB8501B2
:100EB00001EBC50204F1380101EB82003422314616
:100EC000FFF7E7F92A463146204602F0A5FF012048
:100ED0002168486284F8A10000BF002084F8A000C7
:100EE00000BF00BFDAE7000070B504460CB901206E
:100EF00070BD94F8A10028B9002084F8A000204615
:100F000000F07EF8022084F8A1002068806920F0BB
:100F1000704021688861D4E901010843E168084311
:100F2000216908432168896908432168886120682C
:100F300080683249084021688860A08A05042068DA
:100F40008068A16929430843216888602068C068D7
:100F50002A4908402168C860A08B05042068C06841
:100F6000216A294308432168C86020680069234931
:100F7000084021680861A08C050420680069A16A06
:100F80002943084321680861206840691B490840DB
:100F900021684861A08D050420684069216B2943C0
:100FA00008432168486194F83500050294F836003A
:100FB00006042068C06A00F07F402168C86246EAE3
:100FC000050094F8341008432168C96A0843216871
:100FD000C8622068406B40F00600216848632068C2
:100FE000806940F00100216888610020C4F8A400F5
:100FF000012084F8A10000207AE7000000F800F04A
:1010000010B586B00446142101A8FFF75BF95249D8
:10101000206888427ED100BF5048006840F0806060
:101020004E4908600846006800F08060009000BFEC
:1010300000BF00BF49481438006840F48070474939
:10104000143908600846006800F48070009000BF02
:1010500000BF00BF0846006840F020000860084656
:10106000006800F02000009000BF00BF00BF0846ED
:10107000006840F0010008600846006800F00100C8
:10108000009000BF00BF00BF0846006840F080002D
:1010900008600846006800F08000009000BF00BFB4
:1010A00000BF0846006840F040000860084600683D
:1010B00000F04000009000BF00BF40F2F7600190D8
:1010C0000220029000200390032004900E2005903F
:1010D00001A92348FFF764FD4FF4806001900220CE
:1010E000029000200390032004900E20059001A997
:1010F0001C48FFF755FD202001900220029000209F
:101100000390032004900E20059001A91648FFF7D4
:1011100047FD00E01DE04FF47A400190022002906C
:1011200000200390032004900E20059001A90F4891
:10113000FFF736FD4FF40C60019002200290002072
:101140000390032004900E20059001A90848FFF7A2
:1011500027FD06B010BD0000006801404438024081
:10116000002002400014024000000240001C024027
:10117000001802402DE9F04104460E4617469846F5
:1011800000BF94F8A000012802D10220BDE8F08140
:10119000012084F8A00000BF022084F8A10008EB21
:1011A000880000EBC80104F1380000EB81052E60D7
:1011B000A86A30446860AF60E86A3844E860424634
:1011C0002946204602F028FE01202168486284F862
:1011D000A10000BF002084F8A00000BF00BFD5E739
:1011E0002DE9F04104460E461746984600BF94F894
:1011F000A000012802D10220BDE8F081012084F87E
:10120000A00000BF022084F8A10008EB880000EBDA
:10121000C80104F1380000EB81052868304468609B
:10122000A8683844E860AE62EF624246294620462C
:1012300002F0F2FD01202168486284F8A10000BF9D
:10124000002084F8A00000BF00BFD5E708B500BFAC
:101250000D48006840F080500B490860084600685F
:1012600000F08050009000BF00BF00BF081D006864
:1012700040F48040091D08600846006800F4804082
:10128000009000BF00BF08BD4038024070B5044662
:101290000E4615460CB9012070BD94F8210028B9FE
:1012A000002084F82000204600F019F8211D206855
:1012B000FFF72CF93146D4E90002FFF712F929466D
:1012C000D4E90002FFF7F9F82068006840F0040054
:1012D00021680860012084F821000020DCE710B5B7
:1012E0000446FFF7EBFB10BD01460846002809DB6A
:1012F00000F01F0301229A4043099B0003F1E02301
:10130000C3F8002100BF70472DE9F05F80460D460D
:101310001646002705F0A6FA074639462A46334600
:1013200001F00700C0F1070ABAF1040F02D94FF02B
:10133000040A01E0C0F1070AD14600F1040ABAF13B
:10134000070F02D24FF0000A01E0A0F1030AD446D1
:101350004FF0010A0AFA09FAAAF1010A0AEA020A96
:101360000AFA0CFA4FF0010B0BFA0CFBABF1010B74
:101370000BEA030B4AEA0B042146404605F07AFAD1
:10138000BDE8F09F00BF00F00702064B19684FF65A
:10139000FF031940044B0B4343EA0221014B196040
:1013A00000BF70470CED00E00000FA0538B50024DE
:1013B00000BF2048006840F080501E490860084681
:1013C000006800F08050009000BF00BF1A4800681D
:1013D00040F4803018490860FFF706FD044607E036
:1013E000FFF702FD001BB0F57A7F01D9032038BD5D
:1013F0001148406800F48030B0F5803FF0D10E48CD
:10140000006840F400300C490860FFF7EDFC04462A
:1014100007E0FFF7E9FC001BB0F57A7F01D9032054
:10142000E5E70548406800F40030B0F5003FF0D132
:101430000020DCE740380240007000402DE9F8430E
:1014400004460D4616460127FFF7CEFC8046A869E4
:1014500000B100BFE86900B100BF286A00B100BF59
:1014600000BF94F84000012802D10220BDE8F883B3
:10147000012084F8400000BF94F84100012828D1E1
:1014800000206064022084F84100434600222021AD
:101490002046009603F036FA0746DFB900222946B7
:1014A000204603F0EDF8686A78B94346012202212C
:1014B0002046009603F026FA07465FB9022021680D
:1014C000C860012084F8410004E0012084F8410054
:1014D00000E0022700BF002084F8400000BF38462B
:1014E000C4E70000F8B504460125FFF77DFC064679
:1014F0000CB90120F8BD206A402800D000BF00BF11
:1015000094F84000012801D10220F3E7012084F87B
:10151000400000BF94F8410050B9002084F840001A
:10152000204600F04BF841F28831204600F031F9B6
:101530002068006820F4F851A068401E41EA0020AD
:1015400021680860A06C33460022202100902046CC
:1015500003F0D8F9054635BB2179E06840EA01601F
:10156000E1690843216A084321680968114A11406A
:10157000084321680860208A616941EA0040A16946
:101580000843216849680C4A1140084321684860B3
:101590002068006840F00100216808600020606455
:1015A000012084F8410000BF002084F8400000BF03
:1015B00028469FE72FFFFF00FEF8E0FF10B586B03A
:1015C0000446142101A8FEF77DFE354920688842B3
:1015D00063D100BF3348006840F002003149086021
:1015E0000846006800F00200009000BF00BF00BF86
:1015F0002C480838006840F020002A490839086063
:101600000846006800F02000009000BF00BF00BF47
:101610000846006840F0020008600846006800F0D4
:101620000200009000BF00BFC02001900220029085
:1016300000200390032004900920059001A91A4876
:10164000FFF7AEFA4FF440700190022002900020A4
:101650000390032004900A20059001A91248FFF787
:101660009FFA0420019002200290002003900320A2
:1016700004900920059001A90C48FFF791FA402039
:1016800001900220029000200390032004900A2081
:10169000059001A90548FFF783FA06B010BD0000C8
:1016A000001000A03838024000140240000402403C
:1016B0002DE9F84F04460E4617460025FFF794FB28
:1016C00080462068D0F81890206800F1200A00BFFA
:1016D00094F84000012802D10220BDE8F88F0120D3
:1016E00084F8400000BF94F84100012849D100204F
:1016F0006064002E3FD0222084F8410020680069F9
:10170000401CA06320680069401C60632663206859
:10171000406920F0406040F08060216848612068A6
:10172000C0F8189012E04346012206212046009797
:1017300003F0E8F8054605B10BE09AF80010226BBB
:10174000501C20631170A06B401EA063A06B00288A
:10175000E9D100BF5DB9434601220221204600972E
:1017600003F0D0F8054615B902202168C8600120B1
:1017700084F8410006E0606C40F0080060640125D8
:1017800000E0022500BF002084F8400000BF28468A
:10179000A3E7816470472DE9F84304460E461746D7
:1017A0000025FFF721FB8046206800F1200900BFDB
:1017B00094F84000012802D10220BDE8F8830120FE
:1017C00084F8400000BF94F84100012844D1002073
:1017D0006064002E3AD0122084F84100206800692D
:1017E000401CE06220680069401CA06266622068BC
:1017F000406920F040602168486112E043460122C0
:1018000004212046009703F07DF8054605B10BE062
:10181000616A481C6062087889F80000E06A401E2E
:10182000E062E06A0028E9D100BF5DB943460122C9
:1018300002212046009703F065F8054615B90220FD
:101840002168C860012084F8410006E0606C40F027
:1018500008006064012500E0022500BF002084F834
:10186000400000BF2846A8E72DE9F84304460026BB
:1018700000250027A846A946207800F0010088B17D
:1018800000BFFE48006820F40000FC4908600846DC
:101890000068616B0843F949086000BF606B08B9D4
:1018A0004FF00108206800F40020B0F5002F13D19C
:1018B000F2488430006820F44010E16B0843EF499F
:1018C00084310860E06BB0F5801F01D14FF0010852
:1018D000E06B08B94FF00109206800F48010B0F502
:1018E000801F13D1E5488430006820F44000216C4B
:1018F0000843E24984310860206CB0F5800F01D1C3
:101900004FF00108206C08B94FF00109206800F081
:101910008070B0F1807F01D14FF00108207800F095
:101920002000202870D100BFD4483830006840F033
:101930008050D249383108600846006800F0805075
:10194000009000BF00BFCE48006840F48070CC49D2
:101950000860FFF749FA064607E0FFF745FA801BE3
:10196000642802D90320BDE8F883C548006800F464
:1019700080700028F1D0C1486830006800F44075DC
:1019800085B3208E00F44070A8422BD0BB4868304D
:10199000006820F44075B9486830006840F4803031
:1019A000B649683108600846006820F48030086055
:1019B00008460560006800F0010098B1FFF714FACE
:1019C000064608E0FFF710FA801B41F28831884292
:1019D00001D90320C7E7A94868300068C0F3400078
:1019E0000028EFD000BF208E00F44070B0F5407F9B
:1019F0000BD1A248006820F4F810A24A216B1140D4
:101A000008439E49086006E010E09C48006820F406
:101A1000F8109A490860994868300068218EC1F32F
:101A20000B01084395496831086000BF207800F039
:101A30001000102810D100BF90488430006820F0BA
:101A400080708E498431086008460068A16B0843A5
:101A50008A498431086000BF208800F48040B0F5D6
:101A6000804F09D185488830006820F44030616E8D
:101A70000843824988310860208800F40040B0F5AE
:101A8000004F09D17D488830006820F44020A16EC5
:101A900008437A4988310860206800F48030B0F546
:101AA000803F09D175488830006820F44010E16E0D
:101AB0000843724988310860206800F40030B0F5AE
:101AC000003F09D16D488830006820F44000216F44
:101AD00008436A4988310860207800F040004028B7
:101AE00009D166488830006820F00300616C084323
:101AF000624988310860207800F08000802809D190
:101B00005E488830006820F00C00A16C08435B49F7
:101B100088310860208800F48070B0F5807F09D19A
:101B200056488830006820F03000E16C0843534983
:101B300088310860208800F40070B0F5007F09D17A
:101B40004E488830006820F0C000216D08434B49A2
:101B500088310860208800F48060B0F5806F09D17A
:101B600046488830006820F44070616D084343495E
:101B700088310860208800F40060B0F5006F09D15A
:101B80003E488830006820F44060A16D08433B491E
:101B900088310860208800F48050B0F5805F09D15A
:101BA00036488830006820F44050E16D08433349DE
:101BB00088310860208800F40050B0F5005F09D13A
:101BC0002E488830006820F44040216E08432B499D
:101BD00088310860206800F48000B0F5800F09D1DA
:101BE00026488830006820F08060A16F08432349B0
:101BF00088310860206800F40010B0F5001F0FD194
:101C00001E488830006820F00060E16F08431B49DF
:101C100088310860E06FB0F1006F01D14FF0010929
:101C2000207800F00800082801D14FF00109206851
:101C300000F48020B0F5802F09D11048883000686A
:101C400020F04070616F08430C49883108602068BB
:101C500000F40000B0F5000F0AD108488830006891
:101C600020F08050D4F8801008430449883108607F
:101C7000206800F08060B0F1806F05E00838024015
:101C800000700040FFFCFF0F08D1CC48006820F036
:101C90000050D4F884100843C8490860206800F058
:101CA0000060B0F1006F0AD1C448001F006820F046
:101CB0000070D4F888100843C049091F08602068E4
:101CC00000F08050B0F1805F0AD1BC48001F00686E
:101CD00020F08060D4F88C100843B849091F0860D0
:101CE000B8F1010F03D02068B0F1007F7ED1B34876
:101CF0009038006820F08060B04990390860FFF7A4
:101D000073F8064606E0FFF76FF8801B642801D9D8
:101D1000032028E6A94890380068C0F3C060002876
:101D2000F1D1207800F00100B8B1606BA8B9A348E8
:101D30000C380068C0F30145A0480C380068C0F3B7
:101D400003676068800140EA054040EA0761207A45
:101D500041EA007099490C390860206800F40020BD
:101D6000B0F5002F03D1E06BB0F5801F09D02068DB
:101D700000F48010B0F5801F24D1206CB0F5800FE6
:101D800020D18E480C380068C0F301458B480C38D0
:101D90000068C0F302776068800140EA0541207B5B
:101DA00041EA006040EA077084490C3908608348C2
:101DB000001F006820F01F00616A491E08437F4928
:101DC000091F0860206800F08070B0F1807F17D193
:101DD0007A480C380068C0F3036578480C3800680E
:101DE000C0F3027760688101208A00E036E041EAB2
:101DF000004040EA056040EA077070490C3908600D
:101E0000206800F00070B0F1007F0DD160688101A2
:101E1000208A41EA0041207B41EA0061207A41EAC0
:101E2000007066490C39086064489038006840F0DA
:101E30008060624990390860FEF7D6FF064606E0EA
:101E4000FEF7D2FF801B642801D903208BE55B4895
:101E500090380068C0F3C0600028F1D0B9F1010FDC
:101E60007ED156489038006820F080505349903910
:101E70000860FEF7B9FF064606E0FEF7B5FF801BD7
:101E8000642801D903206EE54C4890380068C0F3FF
:101E900040700028F1D1206800F40020B0F5002F38
:101EA00001D1E06B38B1206800F48010B0F5801FDC
:101EB00022D1206C00BB414808380068C0F30145BE
:101EC0003E4808380068C0F302776069800140EA44
:101ED0000541207E41EA006040EA07703749083931
:101EE0000860081D006820F4F851A06A401E41EA0D
:101EF00000203249091F0860206800F40010B0F586
:101F0000001F19D1E06FB0F1006F15D12B480838D0
:101F10000068C0F30365294808380068C0F30277F9
:101F200060698101208C41EA004040EA056040EA96
:101F30000770224908390860207800F00800082856
:101F400020D11E4808380068C0F303651B480838D4
:101F50000068C0F301476069800140EA074000E083
:101F60002AE040EA0561207F41EA00701349083900
:101F70000860081D006820F44030E16A08430F49FA
:101F8000091F08600D489038006840F080500B49E8
:101F900090390860FEF728FF064606E0FEF724FFAA
:101FA000801B642801D90320DDE4044890380068D0
:101FB000C0F340700028F1D00020D4E490380240F3
:101FC00070B504460D4600260CB9012070BD5C4872
:101FD000006800F00F00A8420ED25948006820F0B7
:101FE0000F002843564908600846006800F00F00BB
:101FF000A84201D00120E9E7207800F00200022881
:102000001DD1207800F00400042805D14D48006857
:1020100040F4E0504B490860207800F008000828A0
:1020200005D14848006840F460404649086045488A
:10203000006820F0F000A168084342490860207859
:1020400000F0010090B36068012807D13D480838CE
:102050000068C0F34040A0B90120B7E760680228DB
:1020600007D1384808380068C0F3406048B90120FB
:10207000ACE7344808380068C0F3400008B90120D4
:10208000A4E73048006820F00300616808432D4948
:102090000860FEF7A9FE064609E0FEF7A5FE801BD4
:1020A00041F28831884202D903208FE707E02548B2
:1020B000006800F00C006168B0EB810FEDD12048A2
:1020C000006800F00F00A8420ED91D48006820F0FB
:1020D0000F0028431A4908600846006800F00F0006
:1020E000A84201D0012071E7207800F00400042804
:1020F00007D11448006820F4E050E1680843114912
:102100000860207800F00800082808D10D48006811
:1021100020F46040216940EAC1000A49086000F0EB
:102120003DF808490968C1F30311074A515CC840EA
:10213000064908600020FEF781FE002046E7000007
:10214000003C02400838024028E500085400022004
:1021500001480068704700005400022000B5FFF7F6
:10216000F7FF04490968C1F38221034A515CC84062
:1021700000BD00000838024038E5000800B5FFF750
:10218000E7FF04490968C1F34231034A515CC84082
:1021900000BD00000838024038E500082DE9F0478E
:1021A000002400250026A1462548006800F00C0008
:1021B00020B1042805D008283AD105E0DFF8849042
:1021C00039E0DFF8849036E01D48001F006800F019
:1021D0003F041B48001F006800F4800078B11A48D3
:1021E0001749091F0968C1F38811A0FB0170014656
:1021F000224600233846FEF71BF805460EE011483C
:102200000F49091F0968C1F38811A0FB017001463D
:10221000224600233846FEF70BF805460848001F03
:102220000068C0F30140401C4600B5FBF6F902E02F
:10223000DFF8109000BF00BF4846BDE8F0870000FF
:10224000083802400024F40040787D01F8B50446C7
:1022500000260CB90120F8BD207800F0010000280C
:1022600071D0F848006800F00C0004280DD0F54843
:10227000006800F00C00082813D1F248001F006825
:1022800000F48000B0F5800F0BD1EE4808380068EC
:10229000C0F34040002869D06068002866D1012062
:1022A000D9E700BF6068B0F5803F08D1E54808383D
:1022B000006840F48030E349083908602EE0606827
:1022C00068B9E0480838006820F48030DD490839F2
:1022D00008600846006820F4802008601EE06068FE
:1022E000B0F5A02F0DD1D7480838006840F4802001
:1022F000D449083908600846006840F48030086016
:102300000CE0D0480838006820F48030CD49083906
:1023100008600846006820F48020086000BF6068FC
:1023200090B1FEF761FD054606E0FEF75DFD401B3E
:10233000642801D903208EE7C24808380068C0F33A
:1023400040400028F1D011E0FEF74EFD054606E0C2
:10235000FEF74AFD401B642801D903207BE7B948FA
:1023600008380068C0F340400028F1D1207800F020
:102370000200022869D1B348006800F00C0058B18F
:10238000B048006800F00C0008281CD1AD48001FC0
:10239000006800F48000B0B9AA4808380068C0F3AB
:1023A000400020B1E068012801D0012053E7A54892
:1023B0000838006820F0F800216940EAC100A1490E
:1023C0000839086041E0E06828B39E480838006892
:1023D00040F001009B4908390860FEF705FD0546FD
:1023E00006E0FEF701FD401B022801D9032032E779
:1023F000944808380068C0F340000028F1D09148A4
:102400000838006820F0F800216940EAC1008D49D1
:102410000839086019E08B480838006820F001008E
:10242000884908390860FEF7DFFC054606E0FEF73C
:10243000DBFC401B022801D903200CE78148083847
:102440000068C0F340000028F1D1207800F00800B7
:10245000082836D16069D0B17A486C30006840F005
:10246000010078496C310860FEF7BEFC054606E0C5
:10247000FEF7BAFC401B022801D90320EBE67148A5
:102480006C300068C0F340000028F1D019E06D48BE
:102490006C30006820F001006A496C310860FEF77A
:1024A000A3FC054606E0FEF79FFC401B022801D96D
:1024B0000320D0E663486C300068C0F34000002879
:1024C000F1D1207800F00400042874D15D48383040
:1024D000006800F0805080B900BF5A48383000686A
:1024E00040F080505749383108600846006800F0D5
:1024F0008050009000BF00BF01265348006800F4E0
:102500008070B0B95048006840F480704E4908604F
:10251000FEF76AFC054606E0FEF766FC401B6428F1
:1025200001D9032097E64848006800F4807000282D
:10253000F2D000BFA068012808D142486830006886
:1025400040F001003F49683108602DE0A06868B99B
:102550003C486830006820F001003A496831086062
:102560000846006820F0040008601DE0A068052807
:102570000DD134486830006840F0040031496831BA
:1025800008600846006840F0010008600CE02D4833
:102590006830006820F001002A4968310860084668
:1025A000006820F00400086000BFA068A8B1FEF732
:1025B0001BFC054609E02EE0FEF716FC401B41F22D
:1025C0008831884201D9032045E61E4868300068FA
:1025D000C0F340000028EFD013E0FEF705FC0546ED
:1025E00008E0FEF701FC401B41F28831884201D926
:1025F000032030E6134868300068C0F3400000282C
:10260000EFD1012E07D10F483830006820F08050FC
:102610000C4938310860A069F0B30A48006800F03E
:102620000C00082868D0A06902284DD10548083858
:10263000006820F08070034908390860FEF7D4FB79
:1026400005460AE00838024000700040FEF7CCFB67
:10265000401B022801D90320FDE529480068C0F38A
:1026600040600028F2D1D4E907010843616A40EADA
:1026700081110122A06AC2EB500041EA00412C20E6
:10268000005D41EA00613020005D41EA00701C49B4
:10269000091D0860081F00E030E0006840F080700D
:1026A000091F0860FEF7A0FB054606E0FEF79CFB4D
:1026B000401B022801D90320CDE511480068C0F372
:1026C00040600028F2D019E00D48006820F08070CA
:1026D0000B490860FEF788FB054606E0FEF784FB21
:1026E000401B022801D90320B5E505480068C0F366
:1026F00040600028F2D101E00120ACE50020AAE50D
:102700000038024070B504460D460CB9012070BD7A
:1027100094F82C0028B9002084F82D00204600F001
:1027200011F8022084F82C00211D2068FDF70AFF13
:102730002946D4E90002FDF759FF012084F82C0056
:102740000020E4E710B50446FEF7B8F910BD70B5F7
:1027500004460D4694F82C00022800D170BD0220DA
:1027600084F82C0029462068FDF726FF012084F814
:102770002C000020F2E770B504460D46164694F88A
:102780002C00022800D170BD022084F82C003246B3
:1027900029462068FDF717FF2868022803D1052085
:1027A00084F82C0002E0012084F82C000020EAE7E5
:1027B000704770B58AB004460D460026032084F8A1
:1027C0003400606C032820D0B5F5805F04D1A06B85
:1027D00040F08050A0631CE0B5F5006F07D12046A3
:1027E00003F0E9F80646A06B3043A06311E03DB961
:1027F000204603F0ABF80646A06B3043A06308E028
:10280000A06B40F00060A06303E0A06B40F080503C
:10281000A063A06B40B140F2FF50216888630120A3
:1028200084F834000AB070BD60680490A068059018
:10283000E0680690079560690890A069099007A86C
:1028400007C88DE80700206804A90EC902F02CFD16
:10285000012084F834000020E4E7704730B50346D7
:102860000022586E020E90090870C2F3830048706F
:1028700002F003008870586EC0F30742CA70B3F8C4
:102880006400C0F307220A7193F864204A71986EBD
:10289000020E4FF6FF7000EA0210C880986EC0F377
:1028A0000742C88840EA1210C88002F00F00087280
:1028B0006820C05AC0F30722D0094872C2F38010C2
:1028C0008872C2F34010C872C2F30010087300206F
:1028D0004873586C00283ED19007000D08616820AD
:1028E000C25C086940EA82000861D86E020E08697D
:1028F00040EA92100861C2F3C200087502F00700B6
:102900004875D86EC0F3074250098875C2F382003B
:10291000C8759007400F08766C20C05AC0F3072294
:10292000087E40EAD21008760869401C58650C7E83
:10293000586DA41C0125A540684358650C7A0120F8
:10294000A0409865D3E91504640A6043D8654FF444
:1029500000741C6630E0586C012821D16820C25CEC
:102960009006800A0861D86E020E086940EA0220CB
:102970000861D86EC0F307420869104308616C20F3
:10298000C05AC0F307220869441C4FF48060A4FBBE
:1029900000045865D8654FF400749C651C660BE014
:1029A00040F2FF501C68A063986B40F08050986321
:1029B000012083F8340030BDC2F3801001F8190FF4
:1029C0009006400E48706C20C25C487840EAD210F5
:1029D000487002F07F008870186F020ED009C8702E
:1029E000C2F341100871C2F3820048719007000FD2
:1029F0008871186FC0F30742887940EA9210887195
:102A0000C2F34010C8710020087202F00100487241
:102A10007020C05AC0F30722D0098872C2F3801018
:102A2000C872C2F340100873C2F300104873C2F3B7
:102A30008100887302F00300C8737020C25C5008E4
:102A400008740120487419390020B4E7F8B5044629
:102A500004260025002000906946204602F05DFF14
:102A6000054615B1A06B2843A0630098C0F3432628
:102A70003046F8BD70B5044600252068406BC0F3B1
:102A80000020002862D04FF480702168886320689D
:102A9000C06B20F49D702168C863206B00F00800B3
:102AA00048B3206B00F0020018B9206B00F0200042
:102AB00050B1206802F0AAF905462DB1A06B284359
:102AC000A0632046FFF7C9FE40F2FF5021688863EB
:102AD000012084F83400206B00F0010018B9206B4D
:102AE00000F0020018B1204600F06EFAB1E0204676
:102AF00000F06BFAADE0206B00F080000028F5D00C
:102B0000206B00F0200050B1206802F07FF90546EC
:102B10002DB1A06B2843A0632046FFF79EFE206BDB
:102B200000F001000028E1D1206B00F00200002835
:102B3000DCD12068C06A20F008002168C86201204A
:102B400084F83400204600F040FA82E02068406BB0
:102B5000C0F3803038B14FF480402168886320464C
:102B600002F0C4FF75E02068406BC0F3C03038B19C
:102B70004FF4004021688863204602F0BBFE68E005
:102B80002068406B00F03A0008B1012000E000200E
:102B900000285ED02068406BC0F3400018B1A06BE5
:102BA00040F00200A0632068406BC0F3C00018B181
:102BB000A06B40F00800A0632068406BC0F3401099
:102BC00018B1A06B40F02000A0632068406BC0F3F8
:102BD000001018B1A06B40F01000A06340F2FF504D
:102BE000216888632068C06B20F49D702168C863E9
:102BF000206B00F0800010B3206C50B11548216CA0
:102C00000865206CFDF748FD18B3206C02F05FFCEE
:102C10001FE0E06B50B11048E16B0865E06BFDF719
:102C20003BFDB0B1E06B02F023FC12E00020A0639A
:102C3000012084F834002046FFF7BAFD09E0206B3C
:102C400000F0080028B1012084F834002046FFF786
:102C500004FE70BDCF5400087154000810B504463E
:102C60000CB9012010BD94F8340020B90020207761
:102C7000204600F053F8032084F83400204600F08A
:102C800008F80020A0632063012084F834000020AD
:102C9000E8E730B589B00446002500200390049091
:102CA0000590069007907620089006A807C88DE842
:102CB0000700206803A90EC902F0F6FA20684068F0
:102CC00020F4807021684860206802F007FB2068CB
:102CD000406840F48070216848600220FDF7DAFE09
:102CE000204602F02EFD054645B1012084F834004F
:102CF000A06B2843A063012009B030BD204602F03C
:102D0000A2FC05463DB1012084F83400A06B2843A5
:102D1000A0630120F0E70020EEE7000010B586B0C8
:102D20000446142101A8FDF7CDFA564920688842CF
:102D30007DD100BF5448006840F4006052490860EB
:102D40000846006800F40060009000BF00BF00BFAC
:102D50004D481438006840F004004B4914390860AD
:102D60000846006800F00400009000BF00BF00BFEC
:102D70000846006840F0080008600846006800F057
:102D80000800009000BF00BF4FF4F85001900220EF
:102D9000029001200390032004900C20059001A9CB
:102DA0003A48FDF7FDFE0420019002200290012028
:102DB0000390032004900C20059001A93448FDF7EE
:102DC000EFFE3448344908604FF00060486000214D
:102DD00031488160C1604FF48061016189004161C7
:102DE000890081612021C1614FF4403101620421D9
:102DF0004162032181624FF40001C16289100163C5
:102E0000FDF782FD08B1FDF757FB00BF2248E063E4
:102E1000846300BF1F484830204908604FF00060BD
:102E2000486040211D4881600021C16000E026E02B
:102E30004FF4806101618900416189008161202135
:102E4000C1614FF44031016204214162032181627A
:102E50004FF40001C16289100163FDF755FD08B10F
:102E6000FDF72AFB00BF0D482064846300BF0022E9
:102E700001213120FEF748FA3120FEF735FA06B07D
:102E800010BD0000002C0140443802400008024000
:102E9000000C024058640240ACBC04200CBD04206D
:102EA0002DE9F04186B00446884616461D460027A7
:102EB000B8F1000F07D1A06B40F00060A0630120C3
:102EC00006B0BDE8F08194F83400012876D10020E6
:102ED000A0637119E06D814205D9A06B40F00070CC
:102EE000A0630120ECE7032084F83400002021686F
:102EF000C8622068C06B40F495702168C863304890
:102F0000E16BC8632F48E16BC8640020E16B086582
:102F10006A029308226802F180014246E06BFDF7E5
:102F200069FD2068C06A40F008002168C862606CD2
:102F3000012800D076024FF0FF3000906802019027
:102F40009020029002200390002004900120059020
:102F50006946206801F0B2FF4FF40071206801F06B
:102F600005FE074657B140F2FF5021688863A06B09
:102F70003843A063012084F83400A1E7012D07D96C
:102F8000822020633146206801F05CFE074606E09F
:102F9000812020633146206801F071FE07465FB151
:102FA00040F2FF5021688863A06B3843A063012082
:102FB00084F8340084E701E0002081E702207FE705
:102FC0002B540008C5530008704770472DE9F041A5
:102FD00086B00446884616461D460027B8F1000F05
:102FE00007D1A06B40F00060A063012006B0BDE8EF
:102FF000F08194F83400012875D10020A063711984
:10300000E06D814205D9A06B40F00070A063012003
:10301000ECE7032084F8340000202168C8622068AF
:10302000C06B40F01A002168C8633048216CC86347
:103030002F48216CC8640020216C0865606C012851
:1030400000D076024FF40071206801F08FFD074632
:1030500057B140F2FF5021688863A06B3843A063EA
:10306000012084F83400C1E7012D07D9A020206396
:103070003146206801F0E8FE074606E09020206314
:103080003146206801F0FDFE074657B140F2FF507F
:1030900021688863A06B3843A063012084F8340062
:1030A000A4E72068C06A40F008002168C86269028D
:1030B0008B08216801F180024146206CFDF79AFCE3
:1030C0004FF0FF30009068020190902002900020A5
:1030D00003900490012005906946206801F0EEFEFF
:1030E000002083E7FFE7022080E70000BD540008CE
:1030F000C553000870B504462546681EB0F1807FB0
:1031000001D301200FE0681E4FF0E02148610F213C
:103110004FF0FF3003F0AEFB00204FF0E02188615C
:1031200007200861002070BD70477047704700009D
:1031300030B502460B4600BF92F83C00012801D191
:10314000022030BD012082F83C0000BF022082F83E
:103150003D001068416810688468114D1068A842ED
:1031600003D0104D1068A84203D121F470015868B3
:10317000014321F070011868014324F0800498682D
:1031800004431068416010688460012082F83D00AB
:1031900000BF002082F83C0000BF00BFD1E7000064
:1031A000000001400004014010B504460CB90120A4
:1031B00010BD94F83D0028B9002084F83C0020465A
:1031C00000F00CF8022084F83D00211D206802F078
:1031D00059FD012084F83D000020E9E738B5044698
:1031E0000D492068884215D100BF0C48006840F0A6
:1031F00002000A4908600846006800F002000090DA
:1032000000BF00BF002211461D20FEF77DF81D20E3
:10321000FEF76AF838BD0000000400404038024064
:1032200001460868C06840F001000B68D860086873
:103230008068084B00EA0302062A08D0B2F5803FF6
:1032400005D00868006840F001000B681860002095
:1032500070470000070001002DE9F04104460D46CB
:1032600000BF94F83C00012802D10220BDE8F081A3
:10327000012084F83C0000BF022084F83D00206853
:1032800086683748064026F47F46206886602868AE
:10329000502833D00CDC202850D004DC00284BD040
:1032A000102851D149E0302849D040284CD139E08C
:1032B00060282DD0702807D0B0F5805F03D0B0F51E
:1032C000005F41D10DE040E0D5E902136A68206853
:1032D00002F044FD2068866846F077062068866024
:1032E00033E0D5E902136A68206802F037FD2068F0
:1032F000806840F480402168886026E0EA68696858
:10330000206802F03FFD5021206802F032FD1CE0F1
:10331000EA686968206802F048FD6021206802F0D0
:1033200028FD12E0EA686968206802F02BFD402160
:10333000206802F01EFD08E000BF00BF00BF296842
:10334000206802F016FD00E000BF00BF012084F8F5
:103350003D0000BF002084F83C0000BF00BF85E7AF
:1033600088FFFEFF704710B5044620680069C0F36F
:103370004000D8B12068C068C0F34000B0B16FF021
:10338000020021680861012020772068806900F030
:10339000030018B12046FFF7E5FF05E0204600F0E6
:1033A000BEF8204600F0BCF80020207720680069B5
:1033B000C0F38000D8B12068C068C0F38000B0B10D
:1033C0006FF004002168086102202077206880697E
:1033D00000F4407018B12046FFF7C4FF05E0204616
:1033E00000F09DF8204600F09BF800202077206830
:1033F0000069C0F3C000D8B12068C068C0F3C00045
:10340000B0B16FF0080021680861042020772068BF
:10341000C06900F0030018B12046FFF7A3FF05E0E4
:10342000204600F07CF8204600F07AF80020207753
:1034300020680069C0F30010D8B12068C068C0F3EC
:103440000010B0B16FF010002168086108202077EB
:103450002068C06900F4407018B12046FFF782FF71
:1034600005E0204600F05BF8204600F059F8002007
:1034700020772068006900F0010058B12068C0681A
:1034800000F0010030B16FF00100216808612046B2
:1034900000F048F820680069C0F3C01058B12068F7
:1034A000C068C0F3C01030B16FF0800021680861BF
:1034B0002046FFF73AFE20680069C0F3002058B1AB
:1034C0002068C068C0F3C01030B16FF4807021680C
:1034D00008612046FFF728FE20680069C0F38010CD
:1034E00058B12068C068C0F3801030B16FF0400060
:1034F00021680861204600F029F820680069C0F3BF
:10350000401058B12068C068C0F3401030B16FF06F
:103510002000216808612046FFF708FE10BD7047B3
:103520007047000010B5044606492068884207D15C
:1035300001210548FDF748FC02210348FDF744FC42
:1035400010BD0000000400400004024070477047B6
:103550002DE9F04704462068C569206806682068A0
:10356000876805F00F08B8F1000F0CD105F02000B6
:1035700048B106F0200030B1206E10B12046216E17
:103580008847BDE8F087B8F1000F71D007F001005F
:1035900018B906F49070002879D005F0010048B100
:1035A00006F4807030B1012021680862E06F40F0BD
:1035B0000100E06705F0020048B107F0010030B1FA
:1035C000022021680862E06F40F00400E06705F027
:1035D000040048B107F0010030B1042021680862FE
:1035E000E06F40F00200E06705F0080060B106F00F
:1035F000200010B907F0010030B1082021680862EE
:10360000E06F40F00800E067E06F80B305F0200055
:1036100038B106F0200020B1206E10B12046216E96
:103620008847D4F87C902068806800F040004028EB
:1036300002D009F0080020B3204602F076FC206892
:10364000806800F04000402817D12068806820F092
:10365000400021688860E06E58B11948E16E086545
:10366000E06EFDF719F810B1E06E016D88470DE0CE
:103670000DE02046FFF76BFF08E02046FFF767FFED
:1036800004E02046FFF763FF0020E06779E705F0DC
:10369000800040B106F0800028B1606E10B1204675
:1036A000616E88476DE705F0400030B106F04000DC
:1036B00018B1204602F04AFC63E700BF61E7000052
:1036C000135F000810B504460CB9012010BDA069B5
:1036D00000B100E000BF606F28B9002084F87000DE
:1036E000204600F029F8242060672068006820F058
:1036F000010021680860204602F0A2FC012800D1E8
:10370000E4E7606A10B1204602F063FB206840687D
:1037100020F49040216848602068806820F02A00EA
:10372000216888602068006840F001002168086016
:10373000204602F0CAFBC9E710B586B00446142142
:1037400001A8FCF7BFFD3B492068884270D100BF4B
:103750003948006840F010003749086008460068A2
:1037600000F01000009000BF00BF00BF32481438C6
:10377000006840F0010030491439086008460068CC
:1037800000F00100009000BF00BF4FF4C060019046
:10379000022002900020039003200490072005904F
:1037A00001A92648FDF7FCF92548264908604FF095
:1037B00000604860002123488160C1604FF480614F
:1037C0000161002141618161C16101624162FDF7D6
:1037D0009BF808B1FCF770FE00BF1A48E0668463EE
:1037E00000BF17487830184908604FF00060486003
:1037F0004021154881600021C1604FF48061016162
:10380000002141618161C16101624162FDF77CF883
:1038100008B1FCF751FE00BF0B48A066846300BFEF
:10382000002211462520FDF76FFD2520FDF75CFDE8
:1038300006B010BD001001404438024000000240B4
:103840004064024090BE0420F0BE042010B5034640
:10385000986F202865D101B10AB9012010BD00BFC1
:1038600093F87000012801D10220F7E7012083F8C6
:10387000700000BF5965A3F85820A3F85A20002013
:10388000186600BF9868B0F5805F0AD1186920B942
:1038900040F2FF10A3F85C0020E0FF20A3F85C00DA
:1038A0001CE0986848B9186918B9FF20A3F85C00B3
:1038B00014E07F20A3F85C0010E09868B0F1805F0E
:1038C00009D1186918B97F20A3F85C0006E03F20F1
:1038D000A3F85C0002E00020A3F85C0000BF002019
:1038E000D867222098671868806840F001001C683B
:1038F000A0609868B0F5805F04D1186910B90A48D3
:10390000186601E00948186600BF002083F87000BF
:1039100000BF1868006840F490701C6820600020A8
:103920009CE702209AE700006D5F0008D95F00085D
:103930001D4A0168914236D11C49098801F40041B1
:1039400089BB1A49098801F4804171B11849097885
:103950000A2903D00021154A118024E0134909885F
:1039600041F40041114A11801DE0114909780D29E7
:1039700006D10E49098841F480410C4A118012E0B9
:103980000B490978094A1288C2F30D02094B995470
:1039900006490988491C054A11801146098863298E
:1039A00001DD002111807047001001404600022017
:1039B00044000220ACBD04202DE9F84F04460E4619
:1039C00017469946606F20285CD106B117B90120CF
:1039D000BDE8F88F00BF94F87000012801D10220E3
:1039E000F6E7012084F8700000BF0020E067212086
:1039F0006067FDF7F9F98246A4F85070A4F8527098
:103A0000A068B0F5805F04D1206910B90025B046E8
:103A100002E035464FF000081DE0534600228021A9
:103A20002046CDF8009002F0DDFC08B10320CFE77E
:103A300045B9B8F80000C0F308002168886208F1B1
:103A4000020803E02878216888626D1CB4F85200EF
:103A5000401EA4F85200B4F852000028DDD15346AD
:103A6000002240212046CDF8009002F0BBFC08B1B6
:103A70000320ADE72020606700BF002084F87000BD
:103A800000BFA5E70220A3E7704700BFFEE70000E4
:103A900010B50446012C01D12D4908702C4800783E
:103AA000002839D008212B48FDF786F980B1042180
:103AB0002848FDF781F958B14FF400512648FDF729
:103AC0007BF928B101212548FDF776F9012823D19A
:103AD0000A20FCF7DFFF00201D49087008211D485F
:103AE000FDF76AF908B9012010BD04211948FDF756
:103AF00063F908B90220F7E74FF400511648FDF7C3
:103B00005BF908B90320EFE701211448FDF754F9E8
:103B100001281BD10420E7E708210E48FDF74CF9E6
:103B2000012813D104210B48FDF746F901280DD1D6
:103B300041030948FDF740F9012807D10121074851
:103B4000FDF73AF910B90120014908700020CBE7D0
:103B500000000220001C0240000802400000024059
:103B60000949487530B98988074AD18211460988C0
:103B7000118308E0012806D103490988024AD1824D
:103B80001146898811837047F4B8042070B5114B31
:103B90005B7D6BB10F4BDB690E4D2D6805FB01059D
:103BA0006B430C4D2D7D0C4E56F82550EA520FE01C
:103BB000084B1B68074D6D682D1A03FB0513054D57
:103BC000ED696B43034D2D7D034E56F82550EA52A7
:103BD00070BD0000F4B804203C00022018B5044673
:103BE00007480094008B401E83B20548C08A401EDF
:103BF00082B20021084600F007F80248046018BDB0
:103C0000F4B80420080002202DE9F84F04460D46C0
:103C100016464FF0000CDFF83C9199F81590B9F179
:103C2000000F04D02046294632461F4611E02846A0
:103C3000DFF82091D9F80490A9EB0609A9F1010158
:103C40001A46DFF81091D9F80490A9EB0409A9F1FC
:103C50000107DFF80091B9F80090A2EB000A0AF121
:103C6000010AA9EB0A091FFA89F8DFF8E89099F828
:103C70001490DFF8E4A05AF82990DFF8D8A0DAF819
:103C80001CA0DFF8D0B0DBF800B00BFB010B0AFB87
:103C90000B9E00BFDFF8C490D9F8009049F40009EA
:103CA000DFF8B8A0CAF80090D146D9F8009009F41E
:103CB0000009CDF8009000BF00BFDFF8A490D9F84C
:103CC000009029F00109DFF898A0CAF800904FF49D
:103CD0004039CAF800904FF00209CAF83490D14632
:103CE000C9F84080C9F83CE0A7EB010909F10109D6
:103CF000A2EB000A0AF1010A49EA0A49DFF860A0CA
:103D0000CAF84490DDF82890CAF83890D146D9F81E
:103D1000009049F00109CAF8009005E00CF1010C8F
:103D2000BCF5001F00D308E0DFF83490D9F8049008
:103D300009F00209B9F1000FF0D000BFDFF82090C0
:103D4000D9F8089049F00209DFF814A0CAF80890E1
:103D5000BDE8F88FF4B804203C000220303802405F
:103D600000B0024008B54FF4F070184908604FF4F5
:103D700088704860012008814881282088810820B7
:103D8000C88105200882082048820220C8611048A6
:103D900010490860002000F039F80C48808880B293
:103DA00000900A48008883B200221146104600F0B5
:103DB00015F80020FFF7D4FE012220210648FDF768
:103DC0000CF84FF6FF70FFF709FF08BDF4B80420A8
:103DD000000000C03C000220000402402DE9F04138
:103DE00004460E4617461D46DDF8188023463A461F
:103DF00031460548FDF7BEF92346424629460248AA
:103E0000FDF7EEF9BDE8F08114B904200149087509
:103E100070470000F4B80420F0B58E880768FF688A
:103E2000C7F30B473E44330406688436802707FBFC
:103E30000266766806F47047066884364FF0800C98
:103E40000CFB026677600E680768FF68C7F30B47D4
:103E50003E44761C1E43076884370CFB02777E6065
:103E60008E890768FF68C7F30A073E443304066873
:103E70008436802707FB0266B66806F4704706683A
:103E800084360CFB0266B7608E680768FF68C7F36C
:103E90000A073E44761C46EA0307066884360CFB94
:103EA0000266B76006688436802707FB02663669BB
:103EB00026F00707066884360CFB026637610F6937
:103EC000066884360CFB026637613126765C330265
:103ED0003226765C34040E7E3506066884368027EA
:103EE00007FB0266B6690027066884360CFB02668B
:103EF000B76191F830601E43264346EA050706681D
:103F000084360CFB0266B76106688436802707FB9F
:103F10000266766926F0FF07066884360CFB0266A7
:103F200077614F69066884360CFB02667761066824
:103F30008436802707FB0266F66940F20777BE43A6
:103F4000076884370CFB0277FE61D1E907763743B7
:103F5000066884360CFB0266F761066884368027A3
:103F600007FB0266B66A0027066884360CFB026609
:103F7000B7624F6A066884360CFB0266B7620E6948
:103F80000EB9042313E00E69012E01D103230EE0C4
:103F90000E69042E08D00E69022E05D00E69032E7C
:103FA00002D00E69072E01D1022300E0012306682A
:103FB0008436802707FB0266F66A06F0E02706686B
:103FC00084364FF0800C0CFB0266F762D1E9007674
:103FD000F61B5E43F61C0F8D5F4346EA07470668F3
:103FE00084360CFB0266F76206688436802707FB7E
:103FF0000266366BF70AFF02066884360CFB02661F
:104000003763CF6A066884360CFB0266376306683E
:104010008436D701F65946F00107066884364FEA20
:10402000C21C46F80C70F0BD2DE9F84F80460F46D3
:1040300016461C46BB462046E31704EB5373DB10C1
:1040400021464FEAE47C04EB5C7C4FEAEC0CA4EBE9
:10405000CC0CBCF1000F02D04FF0010C01E04FF08E
:10406000000C6344224604EBD27C4FEA6C0C03FB49
:104070000CF3DBB20093A6F12000C6B200255EE08F
:104080000C2C07D106EB46002F4901EB800010F8FD
:1040900005901BE0102C05D12C4800EB061010F801
:1040A000059013E0182C07D106EBC600284901EB58
:1040B000800010F8059009E0202C05D1254800EB80
:1040C000C61010F8059001E0BDE8F88F4FF0000A27
:1040D0002FE009F0800030B11F48394602684046A1
:1040E000FFF754FD07E00A9828B91C4839460268D2
:1040F0004046FFF74BFD4FEA49604FEA1069781CD4
:1041000087B21748008BB84200DCDDE7A7EB0B0055
:10411000A0420AD15F4608F101001FFA80F810485A
:10412000C08A404500DCCFE706E00AF1010000F05C
:10413000FF0ABAF1080FCCDB00BF681CC5B20098BB
:1041400085429DDB00BFBFE7BC9D000830A2000890
:1041500020A800087CB50008040002200800022006
:10416000F4B80420F8B506460F4615461C460EE086
:104170000020009022782B4639463046FFF754FF46
:10418000284605EBD07106EB61018EB2641C2078E5
:104190007E2802DC20782028EADAF8BD08B500BFC6
:1041A0001648006840F4800014490860084600681A
:1041B00000F48000009000BF00BF002211463A20AA
:1041C000FDF7A2F83A20FDF78FF8002211463B20B8
:1041D000FDF79AF83B20FDF787F8002211464520AD
:1041E000FDF792F84520FDF77FF8002211464620A2
:1041F000FDF78AF84620FDF777F808BD3038024011
:1042000000B58FB03348344908604FF4807048607F
:104210000221314881600021C16001614FF4003109
:10422000416100218161C16140F2FE702A4948620A
:10423000402129488162C1628901016302214163F1
:1042400089028163002180F83C1002200B9003203A
:104250000C900D9002200E9007900320089009907A
:1042600002200A9007AA0BA91B48FDF70FF808B116
:10427000FCF722F91748C030184908600020486050
:104280000121164881600821C1601021016140218F
:1042900041614FF4C07181610021C1614FF400613F
:1042A00001624900416249008162022000900820B9
:1042B00001900620029003900420049002200590B3
:1042C000069069460548FEF71DFA08B1FCF7F4F8B8
:1042D0000FB000BD800000A080B80420C0B804204A
:1042E0007047000000B587B0142102A8FBF7EAFF71
:1042F00000BF6048006840F004005E49086008465E
:10430000006800F00400019000BF00BF00BF084635
:10431000006840F4807008600846006800F480700F
:10432000019000BF00BF00BF0846006840F02000B9
:1043300008600846006800F02000019000BF00BF40
:1043400000BF0846006840F080000860084600682A
:1043500000F08000019000BF00BF00BF0846006869
:1043600040F0010008600846006800F0010001907C
:1043700000BF00BF00BF0846006840F002000860B0
:104380000846006800F00200019000BF00BF00BFB7
:104390000846006840F0400008600846006800F0E9
:1043A0004000019000BF00BF00BF0846006840F019
:1043B000100008600846006800F01000019000BF7F
:1043C00000BF00BF0846006840F0080008600846CB
:1043D000006800F00800019000BF00BF0022032128
:1043E0002548FCF7FAFC012220212348FCF7F5FCC4
:1043F0004FF400500290002003900120049002A985
:104400001E48FCF7CDFB0120029000200390022003
:10441000049002A91A48FCF7C3FB0C20029000206C
:1044200003900120049002A91648FCF7B9FB012073
:1044300002900390002004900320059002A90E48EA
:10444000FCF7AEFB022002900120039000200490B4
:10445000059002A90848FCF7A3FB20200290012048
:10446000039004900320059002A90348FCF798FBF1
:1044700007B000BD3038024000040240000802408E
:1044800000000240001C024000B58DB03421684697
:10449000FBF718FF2B482C490860002048600021DA
:1044A00029488160C1600161416181612821C16148
:1044B000082101624FF4027141624FF48C718162F4
:1044C00040F20D21C1624FF490710163002180F828
:1044D000341080F8351080F83610FCF705FD08B16F
:1044E000FBF7EAFF002000904FF4F07001900020ED
:1044F00002904FF48870039002200490FF200590F2
:10450000002006904FF480600790052008904FF03F
:10451000404009904FF4F0700A904FF488700B906F
:1045200000208DF8300000218DF831108DF8321008
:10453000002269460448FCF7A7FC08B1FBF7BCFF62
:104540000DB000BD0068014014B9042010B50C483E
:104550000C4908600220486004210A48816010214B
:10456000C160182101614901416100218161C1617E
:104570000162FCF7B7FF08B1FBF79EFF10BD00001A
:10458000001000A0BCB9042010B50D480D4908600A
:104590000020486000210B488160C16001614161D9
:1045A0008161FEF75BFB08B1FBF786FF4FF400610A
:1045B0000448FEF7FEF808B1FBF77EFF10BD0000CF
:1045C000002C014028BC042000B587B000200390D7
:1045D00004900590069000900190029014481549AF
:1045E000086042F62F20486000211248816041F2A5
:1045F0008731C160002101618161FEF7D5FD08B1FD
:10460000FBF75AFF4FF48050039003A90948FEF7C7
:1046100023FE08B1FBF750FF00200090029069468E
:104620000448FEF785FD08B1FBF746FF07B000BD63
:10463000000400406CBD042010B50D480D49086011
:104640004FF4E130486000210A488160C160016197
:104650000C21416100218161C16101620020054995
:1046600048620846FFF72EF808B1FBF725FF10BD9A
:104670000010014010BE042000BFFEE770477047E5
:1046800010B54B6A33B1B2F1406F03D08B6A5B1E39
:10469000046823618B69002B76D00B6AE3B38B68C7
:1046A0000468E361CB69FBB1D1E90B3423434C6B64
:1046B00023434C6A23438C8A43EA84430C69234393
:1046C0000C6A2343CC682343CC6923438C6923437E
:1046D0000C682343134304686361B2F1406F02D056
:1046E0004B680468A361BEE0D1E90B3423434C6BF3
:1046F00023434C6A23438C8A43EA84430C69234353
:104700000C6A2343CC6923438C6923430C682343FD
:10471000134304686361A6E0FFE7CB69EBB1D1E91D
:104720000B3423434C6B23434C6A23438C8A43EA68
:1047300084430C6A2343CC682343CC6923438C69AC
:1047400023430C682343134304686361B2F1406F51
:10475000C9D04B680468A36185E0D1E90B342343D9
:104760004C6B23434C6A23438C8A43EA84430C6A90
:104770002343CC6923438C6923430C6823431343AD
:10478000046863616FE0FFE70B6AC3B38B6804687A
:10479000E361CB69EBB1D1E90B3423434C6B234389
:1047A0004C6A23438C8A43EA84430C6923430C6A92
:1047B0002343CC682343CC6923438C6923431343AD
:1047C00004686361B2F1406F4DD04B680468A36127
:1047D00049E0D1E90B3423434C6B23434C6A234318
:1047E0008C8A43EA84430C6923430C6A2343CC69D3
:1047F00023438C69234313430468636133E0FFE779
:10480000CB69DBB1D1E90B3423434C6B23434C6AB6
:1048100023438C8A43EA84430C6A2343CC682343B2
:10482000CC6923438C692343134304686361B2F169
:10483000406F18D04B680468A36114E04B6A93B1D1
:10484000D1E90B3423434C6B23434C6A23438C8ABA
:1048500043EA84430C6A2343CC6923438C69234392
:1048600013430468636110BD70B504460D46681EAD
:1048700006490968086141F2883221460348FCF77D
:1048800017FF08B9002070BD0120FCE7BCB9042067
:104890002DE9F0478EB004460D4616461F46DDE969
:1048A000179ADDF858800094019505960697CDF883
:1048B0001C80CDF80C90CDF824A000200D9008901D
:1048C0000B900C9041F2883269460348FCF7B6FD24
:1048D0000EB0BDE8F0870000BCB9042070B50446F6
:1048E0000D46681E06490968086141F28832214672
:1048F0000348FCF750FF08B9002070BD0120FCE719
:10490000BCB904202DE9F04104460E4617469846EE
:10491000069D12E0681C80B12DB1FCF765FAA0EB92
:104920000800A84209D9042084F84100606C40F0D6
:10493000010060640120BDE8F0812068806830409B
:1049400008B1012000E00020B842E3D10020F2E7E6
:1049500010B500231B4C236000BF00BF00BFBFF396
:104960004F8F00BF00BF00BF231F1868C0F34E3138
:1049700000BFC0F3C90200BF43F6E07303EA41136E
:104980004FF0404404EA827423430F4C236000BF7D
:1049900000BF131EA2F10102EED10B1EA1F1010115
:1049A000E7D100BF00BF00BFBFF34F8F00BF00BF04
:1049B00000BF00BF00BF00BFBFF36F8F00BF00BFCD
:1049C00000BF10BD84ED00E074EF00E010B50023DF
:1049D000234C236000BF00BF00BFBFF34F8F00BF59
:1049E00000BF00BF231F1868C0F34E3100BFC0F3E3
:1049F000C90200BF43F6E07303EA41134FF040449D
:104A000004EA82742343174C236000BF00BF131EC7
:104A1000A2F10102EED10B1EA1F10101E7D100BF0D
:104A200000BF00BFBFF34F8F00BF00BF00BF0C4BE4
:104A3000703B1B6843F48033094C703C236000BF1B
:104A400000BF00BFBFF34F8F00BF00BF00BF00BF5C
:104A500000BF00BFBFF36F8F00BF00BF00BF10BD1E
:104A600084ED00E060EF00E000BF00BF00BFBFF3D7
:104A70004F8F00BF00BF00BF00BF00BF00BFBFF32C
:104A80006F8F00BF00BF00BF00201449086000BF47
:104A900000BF00BFBFF34F8F00BF00BF00BF00BF0C
:104AA00000BF00BFBFF36F8F00BF00BF00BF0C4847
:104AB000006840F400300A49086000BF00BF00BF32
:104AC000BFF34F8F00BF00BF00BF00BF00BF00BFDC
:104AD000BFF36F8F00BF00BF00BF704750EF00E013
:104AE00014ED00E010B50248FDF7C4FF10BD000052
:104AF00028BC042070B586B005460C4600260194FB
:104B00003720029040200390002004904FF48060F2
:104B1000059001A9284600F0EAFB41F288323721CE
:104B2000284600F001FA0646304606B070BD000087
:104B300070B586B005460C4600260B482043019010
:104B40002920029040200390002004904FF48060C0
:104B5000059001A9284600F0CAFB284600F0E4FAB7
:104B60000646304606B070BD0000108070B586B0B5
:104B700005460C4600260194102002904020039028
:104B8000002004904FF48060059001A9284600F0B1
:104B9000AEFB41F288321021284600F0C5F90646E6
:104BA000304606B070BD70B586B005460C4600268E
:104BB00001940620029040200390002004904FF4BE
:104BC0008060059001A9284600F091FB41F28832EF
:104BD0000621284600F0A8F90646304606B070BD0A
:104BE00030B585B004460025002000900190029069
:104BF00003904FF4806004906946204600F077FBF4
:104C0000204600F071F90546284605B030BD30B5A4
:104C100085B0044600254FF4D5700090082001901F
:104C200040200290002003904FF480600490694679
:104C3000204600F05CFB204600F0F6FA05462846C8
:104C400005B030BD70B586B005460C46002601940F
:104C50001220029040200390002004904FF48060C6
:104C6000059001A9284600F042FB41F2883212214A
:104C7000284600F059F90646304606B070BD70B5BA
:104C800086B005460C460026019411200290402073
:104C90000390002004904FF48060059001A92846FD
:104CA00000F025FB41F288321121284600F03CF942
:104CB0000646304606B070BDF0B585B006461446CF
:104CC0001D460027009407200190402002900020FC
:104CD00003904FF4806004906946304600F007FB73
:104CE00041F288320721304600F01EF90746384667
:104CF00005B0F0BD30B585B0044600250020009019
:104D000002200190C0200290002003904FF48060A8
:104D100004906946204600F0EAFA204600F0D6F9F1
:104D20000546284605B030BD70B586B005460C4630
:104D30000026019409200290C020039000200490D6
:104D40004FF48060059001A9284600F0D0FA28466B
:104D500000F0BCF90646304606B070BD30B585B0EF
:104D6000044600250020009033200190402002904E
:104D7000002003904FF4806004906946204600F0C4
:104D8000B6FA41F288323321204600F0CDF80546CC
:104D9000284605B030BD70B586B005460C460026E5
:104DA00001940D20029040200390002004904FF4C5
:104DB0008060059001A9284600F099FA41F28832F6
:104DC0000D21284600F0B0F80646304606B070BD0A
:104DD00070B586B005460C460026002001900320E1
:104DE000029040200390002004904FF480600590D2
:104DF00001A9284600F07BFA22460321284600F04C
:104E0000BBF90646304606B070BD000030B585B02F
:104E100004460025002000900C20019040200290C4
:104E2000002003904FF4806004906946204600F013
:104E30005EFA044A0C21204600F076F80546284622
:104E400005B030BD00E1F50570B586B005460C46ED
:104E50000026019419200290402003900020049025
:104E60004FF48060059001A9284600F040FA41F215
:104E700088321921284600F057F80646304606B019
:104E800070BD70B586B005460C460026019418200A
:104E9000029040200390002004904FF48060059021
:104EA00001A9284600F023FA41F288321821284649
:104EB00000F03AF80646304606B070BD10B502461E
:104EC00000230868506248689062D1E902042043D8
:104ED0000C6920434C6920430343D06A20F0F7005B
:104EE0001843D062002010BD01460E480068C0087B
:104EF0004FF47A73B0FBF3F041F2883300FB03F216
:104F000000BF101EA2F1010202D14FF00040704715
:104F1000486B00F080000028F3D040F2FF50886317
:104F20000020F4E7540002202DE9F04105460E462A
:104F3000174664480068C0084FF47A71B0FBF1F07E
:104F400000FB07F800BFB8F10000A8F1010803D189
:104F50004FF00040BDE8F081686B00F0450000288C
:104F6000F1D0686B00F0040010B10420A863F1E7F1
:104F7000686B00F0010010B10120A863EAE7284641
:104F800000F07EF9B04201D00120E3E740F2FF508B
:104F9000A8630021284600F07CF904464A482040D6
:104FA00008B90020D6E704F00040B0F1004F02D16C
:104FB0004FF00070CEE704F08040B0F1804F01D197
:104FC0004020C7E704F00050B0F1005F01D180201D
:104FD000C0E704F08050B0F1805F02D14FF48070E0
:104FE000B8E704F00060B0F1006F02D14FF4007038
:104FF000B0E704F08060B0F1806F02D14FF48060C0
:10500000A8E704F08070B0F1807F02D14FF4006017
:10501000A0E704F40000B0F5000F02D14FF4805077
:1050200098E704F48000B0F5800F02D14FF40050EF
:1050300090E704F40010B0F5001F02D14FF4804057
:1050400088E704F48010B0F5801F02D14FF40040CF
:1050500080E704F48020B0F5802F02D14FF40030B7
:1050600078E704F40030B0F5003F02D14FF480201F
:1050700070E704F48030B0F5803F02D14FF4002097
:1050800068E704F40040B0F5004F02D14FF48010FF
:1050900060E704F48040B0F5804F02D14FF4001077
:1050A00058E704F40050B0F5005F02D14FF48000DF
:1050B00050E704F00800082801D100054AE74FF442
:1050C000803047E75400022008E0FFFD0146154804
:1050D0000068C0084FF47A73B0FBF3F041F28833F4
:1050E00000FB03F200BF101EA2F1010202D14FF03B
:1050F00000407047486B00F045000028F3D0486B33
:1051000000F0040010B104208863F2E7486B00F05F
:10511000010010B101208863EBE740F2FF50886383
:105120000020E6E754000220014612480068C0084B
:105130004FF47A73B0FBF3F041F2883300FB03F2D3
:1051400000BF101EA2F1010202D14FF000407047D3
:10515000486B00F045000028F3D0486B00F00400D5
:1051600010B104208863F2E740F2FF50886300200A
:10517000EDE70000540002202DE9F04104460E4600
:10518000174628480068C0084FF47A71B0FBF1F068
:1051900041F2883100FB01F800BFB8F10000A8F12E
:1051A000010803D14FF00040BDE8F081606B00F0D2
:1051B00045000028F1D0606B00F0040010B104201D
:1051C000A063F1E7606B00F0010010B10120A06363
:1051D000EAE7204600F054F8B04201D00120E3E7AE
:1051E00040F2FF50A0630021204600F052F805462F
:1051F00005F4604018B9280C38800020D4E705F485
:105200008040B0F5804F02D14FF40050CCE705F458
:105210000040B0F5004F02D14FF48050C4E74FF486
:105220008030C1E754000220014614480068C008DD
:105230004FF47A73B0FBF3F041F2883300FB03F2D2
:1052400000BF101EA2F1010202D14FF000407047D2
:10525000486B00F045000028F3D0486B00F00400D4
:1052600018B1402088630420F1E7486B00F040004B
:1052700008B1402088630020E9E7000054000220C4
:1052800001460869C0B270470146086800F0030093
:10529000704708B502460020009002F1140008444F
:1052A00000900098006808BD0FB410B504460021B6
:1052B000DDE903021043059A1043069A1043079A4A
:1052C0001043089A10430143606847F6FF62904319
:1052D00008436060002010BC5DF814FB0146032009
:1052E0000860002070470146D1F88000704710B573
:1052F0000246002308689060D1E901042043CC688D
:1053000020430C6920430343D0686FF30B0018431C
:10531000D060002010BD02460868C2F8800000205E
:10532000704710B500F002F810BD000010B5002461
:10533000002301221146184600F020F80120FBF757
:10534000A9FB002301220221184600F017F80023D0
:1053500008220321184600F011F84FF40C7423467C
:1053600001220421002000F009F840F23731024800
:10537000FDF7EDF910BD0000C0B804202DE9FF4194
:1053800004460D4616461F464FF0000814B94FF06C
:10539000100803E0012C01D14FF008080095CDF86A
:1053A0000480029603974FF4805269460448FDF743
:1053B000E2F918B9002004B0BDE8F0810120FAE755
:1053C000C0B8042070B50646B46B3046FBF778F9D8
:1053D000022829D0E06B406D012803D0206C406D7D
:1053E00001281ED140F2FF50216888632068C06BFD
:1053F00020F49D702168C863A06B40F08040A063DA
:105400002046FDF723FB0546062D01D0052D05D1CD
:105410002068FFF7FBFCA16B0843A063012084F820
:1054200034002046FDF719FA70BD70B50546AC6B27
:105430000026206B82280AD12068FFF7E7FC064689
:105440002EB1A06B3043A0632046FDF706FA20681A
:10545000C06A20F008002168C86240F2FF5021684D
:105460008863012084F834002046FDF7ADFD70BD4F
:1054700070B50646B46BE06B08B10020E063206CA9
:10548000D8B92046FDF7E2FA05460020A0630120C6
:1054900084F83400062D01D0052D0ED12068FFF7C9
:1054A000B5FCA16B0843A063A06B18B12046FDF7C3
:1054B0007FF902E02046FDF7D0F970BD0146886B08
:1054C0000268D26B42F480720368DA63704770B589
:1054D0000646B46B206C08B100202064E06BD8B99C
:1054E0002046FDF7B3FA05460020A063012084F8AA
:1054F0003400062D01D0052D0ED12068FFF786FC63
:10550000A16B0843A063A06B18B12046FDF750F9CA
:1055100002E02046FDF7A1F970BD2DE9F04188B009
:1055200004460E460025FBF75FFC8046002700205E
:105530000090019008212068FFF718FB05461DB177
:10554000284608B0BDE8F0815022125B11042068A3
:10555000FFF7D0FA05460DB12846F2E74FF0FF30CD
:105560000290082003903020049002200590002033
:1055700006900120079002A92068FFF79FFC206891
:10558000FFF7ECFB05460DB12846DAE713E020688B
:10559000406B00F4001028B12068FFF7A4FE4DF81E
:1055A00027007F1CFBF720FCA0EB0800401C10B973
:1055B0004FF00040C5E72068406B40F22A410840A8
:1055C0000028E4D02068406B00F0080018B10820E3
:1055D00021688863B5E72068406B00F0020018B1CD
:1055E000022021688863ACE72068406B00F020004F
:1055F00018B1202021688863A3E740F2FF5021689A
:10560000886300980006009901F47F4140EA012078
:10561000009901F47F0140EA1120009940EA1160ED
:10562000706001980006019901F47F4140EA012071
:10563000019901F47F0140EA1120019940EA1160CB
:10564000306000207DE730B58FB004460025012092
:1056500003902068FFF718FE18B94FF080600FB074
:1056600030BD606C03281BD02068FFF743FB054664
:105670000DB12846F3E700212068FFF70AFE6067B6
:1056800004212068FFF705FEA06708212068FFF7C6
:1056900000FEE0670C212068FFF7FBFD8021085128
:1056A000606C032807D003A92068FFF791FB05462B
:1056B0000DB12846D3E7606C032820D0BDF80C104C
:1056C00021655022125B11042068FFF72DFB05466F
:1056D0000DB12846C3E700212068FFF7DAFD6066B8
:1056E00004212068FFF7D5FDA06608212068FFF798
:1056F000D0FDE0660C212068FFF7CBFD2067042178
:105700002068FFF7C6FD010DE16404A92046FDF7FE
:10571000A5F85020005B01040A4600232068FFF72B
:10572000CBFA05460DB1284699E7D4E90412A069E1
:10573000CDE90012029094E80F00FFF7B5FD0020BC
:105740008DE7F8B5044600200090002600270025CC
:105750002068FFF745FA05460DB12846F8BD2068D8
:10576000FFF755FA05466DB30021A16425E00098C6
:10577000411C00914FF6FF71884202D14FF08070BA
:10578000ECE700212068FFF7B5F9054615B14FF0A9
:105790008050E3E700212068FFF7CAF9054615B1FC
:1057A0004FF08050DAE700212068FFF772FD0646CF
:1057B000012080EAD67080F00107002FD7D00020AA
:1057C000606433E00121A16424E00098411C009151
:1057D0004FF6FF71884202D14FF08070BEE7002182
:1057E0002068FFF787F905460DB12846B6E74FF068
:1057F00080412068FFF79CF905460DB12846ADE7CA
:1058000000212068FFF745FD0646012080EAD6709A
:1058100080F00107002FD8D006F08040B0F1804F13
:1058200002D10120606401E000206064002095E75F
:105830002DE9F04105460E4617460024A046FAF72A
:1058400023FF08B1FFF784F83B46324629460F484C
:10585000FDF726FB044694B90C48FDF7F7F804461B
:105860000BE00A48FDF7F2F8044608F10108B8F128
:10587000805F02D92046BDE8F081042CF1D1FAF70F
:1058800003FF08B1FFF764F80020F4E728BC042008
:105890002DE9F04780460E4691463446134800688D
:1058A00000B1640208F00300B0B1002711E07802F3
:1058B00001194FF001020E48FFF7BAFF82464FF47C
:1058C00000720B494046FAF7E4FC08F50078781CB2
:1058D000C7B24F45EBDB05E04A4621464046FFF79D
:1058E000A7FF82465046BDE8F087000008BC0420B0
:1058F00008BA042070B504460025A66A00BF05E07A
:105900002068FFF7F0FC46F825006D1C082DF7D342
:10591000A06A2030A062002070BD70B504460D461C
:10592000002615B94FF0006070BD5022125B1104C3
:105930002068FFF730FA06460EB13046F4E7002142
:105940002068FFF7A6FC28600020EDE77CB5044640
:10595000002000900190002500212068FFF799FCAD
:1059600000F00070B0F1007F02D14FF400607CBD08
:1059700069462046FFF7D1FD05460DB12846F6E7FA
:10598000019800F4803098B15022125B1104206815
:10599000FFF7B0F805460DB12846E8E7002120687A
:1059A000FFF701F905460DB12846E0E70020DEE7E4
:1059B0004FF08060DBE77CB504460020009001904A
:1059C000002500212068FFF764FC00F00070B0F1B2
:1059D000007F02D14FF400607CBD69462046FFF78E
:1059E0009CFD05460DB12846F6E7019800F480209D
:1059F00098B15022125B11042068FFF77BF805462E
:105A00000DB12846E8E702212068FFF7CCF80546EB
:105A10000DB12846E0E70020DEE74FF08060DBE7CD
:105A20002DE9F04105460E4617460024A046FAF738
:105A30002BFE08B1FEF78CFF3B46324629460F4845
:105A4000FDF7C4FA044694B90C48FCF7FFFF04467E
:105A50000BE00A48FCF7FAFF044608F10108B8F128
:105A6000805F02D92046BDE8F081042CF1D1FAF71D
:105A70000BFE08B1FEF76CFF0020F4E728BC042001
:105A80002DE9F04706460F4692463C461548006809
:105A900000B1640206F00300D0B14FF0000814E03A
:105AA0004FF4007231461048FAF7F3FB4FEA4820F2
:105AB00001194FF001020C48FFF7B2FF814606F5CD
:105AC000007608F1010000F0FF08D045E8DB05E0B2
:105AD000524621463046FFF7A3FF81464846BDE8BF
