:020000040800F2
:10000000681700200D0200084B2F00085D2600082D
:10001000492F00084D030008E139000800000000E6
:10002000000000000000000000000000493200084D
:100030000D040008000000004D2F00084B3200089E
:1000400027020008270200082702000827020008EC
:1000500027020008270200082702000827020008DC
:1000600027020008270200082702000827020008CC
:1000700027020008270200082702000827020008BC
:1000800027020008270200082702000827020008AC
:10009000270200082702000827020008270200089C
:1000A000270200082702000827020008270200088C
:1000B0002702000851330008270200082702000821
:1000C000270200082702000827020008270200086C
:1000D00027020008C139000827020008270200088B
:1000E000270200082702000827020008270200084C
:1000F000270200082702000827020008270200083C
:10010000270200082702000827020008270200082B
:10011000270200082702000827020008270200081B
:1001200027020008270200085103000827020008E0
:1001300027020008270200082702000827020008FB
:1001400027020008270200082702000827020008EB
:1001500027020008270200085D03000827020008A4
:1001600027020008270200082702000827020008CB
:1001700027020008270200082702000800000000EC
:1001800027020008270200082702000827020008AB
:10019000270200082702000827020008270200089B
:1001A000270200082702000827020008270200088B
:1001B000270200082702000827020008270200087B
:1001C000270200082702000800000000270200089C
:1001D000270200082702000827020008270200085B
:1001E000270200082702000827020008270200084B
:1001F0002702000827020008DFF80CD000F094F86E
:1002000000480047B93D00086817002006488047AD
:1002100006480047FEE7FEE7FEE7FEE7FEE7FEE7EB
:10022000FEE7FEE7FEE7FEE7FD320008F901000801
:100230002DE9F05F0546002092469B46884606461B
:10024000814640241BE0284641464746224600F0AE
:100250005AF853465A46C01A914110D311461846CF
:10026000224600F041F82D1A67EB01084F4622465E
:100270000120002100F038F817EB00094E41201E44
:10028000A4F10104DFDC484631462A464346BDE876
:10029000F09F40EA01039B0703D009E008C9121F41
:1002A00008C0042AFAD203E011F8013B00F8013B30
:1002B000521EF9D27047D2B201E000F8012B491E5C
:1002C000FBD270470022F6E710B513460A460446F3
:1002D0001946FFF7F0FF204610BD421C10F8011B25
:1002E0000029FBD1801A7047202A04DB203A00FA4B
:1002F00002F1002070479140C2F1200320FA03F37D
:10030000194390407047202A04DB203A21FA02F07A
:100310000021704721FA02F3D040C2F1200291403F
:100320000843194670470000064C074D06E0E06898
:1003300040F0010394E8070098471034AC42F6D32C
:10034000FFF75EFFE886000808870008FEE7000068
:10035000014800F0FBB80000A4020020014800F0B2
:10036000F5B800000403002001681823CAB2103A4F
:10037000B2FBF3F2054B6FF30901032A9B5CC365E3
:1003800000D9091D8165084670470000C88600082D
:1003900010B583694FF0C074826A0146002053B1E2
:1003A000B3F5005F15D072B1012A0CD0022A0AD031
:1003B000032A09D104E01AB1012A06D0022A03D186
:1003C000C96AC90100D5012010BDC96AA142FAD08D
:1003D00010BD002AF7D0012AF2D0022AF3D0032A56
:1003E000F3D010BD30B50468256825F4802525605C
:1003F000046863608368402B036803D099600068D9
:10040000C26030BD9A600068C16030BD70477047FF
:10041000F0B5D1E90125D1E90343D1E905762A43B5
:10042000D1F800C044EA0304D1E9073542EA0402E6
:10043000496A42EA0702BCF1010F42EA060208D00B
:1004400004681A432A430A43E30BDB031A4302609E
:100450000BE0066844682B4326F4F84529430B4318
:1004600003606FF30E04224342600020F0BD426936
:1004700042EA410141610020704738B591E81C0013
:10048000C9686FF01F051A4305EB441444EA412183
:100490000A4300920261002038BD00002DE9F043BC
:1004A000914691E81C006FF00F05521E2E0105EBDE
:1004B00003131A430B7E06EB04268C8A2F034FEAA4
:1004C000054C0D8A32434FF07F4808EB0366CB683A
:1004D000B9F1010F07EB05450CEB04540CD0816812
:1004E0003F1107EB03331A432A432243324301F0FF
:1004F00070410A43826011E08168DFF828C0C76854
:100500001B03A3F5805323432A4301EA0C01324322
:100510000B43836007F070442243C2600020BDE8B3
:10052000F0830000FF0F0FFF90F83510022903D071
:100530008021416501207047052180F83510006851
:10054000016821F001010160002070472DE9F843A6
:1005500004464FF00009644B0820CDF800904FF49A
:100560001652A56D94F85C101B682E68B3FBF2F769
:1005700000FA01F131420FD021680A6852070BD509
:100580000A6822F004020A6094F85C108840A860AF
:10059000606D40F00100606594F85C104FF0010858
:1005A00008FA01F0304208D021684969090604D5EB
:1005B000A860606D40F00200606594F85C10042053
:1005C0008840304208D021680968890704D5A860AE
:1005D000606D40F00400606594F85C101020884065
:1005E000304218D021680968090714D5A86020682E
:1005F0000168490304D50068000308D5A16C07E031
:100600000168C90503D4016821F008010160216C6B
:1006100009B12046884794F85C1020208840304279
:1006200031D021680968C9062DD5A86094F8350035
:1006300005282068016806D0490347D500680003F3
:100640001DD4616C1CE021F0160101602068416935
:1006500021F080014161206C08B9A06C20B12068B4
:10066000016821F00801016094F85C303F229A4053
:10067000AA6084F8349084F83580216D1FE0E16B26
:1006800009B120468847606D00282BD0606DC007F7
:1006900014D0052084F835002068016821F001019C
:1006A00001600098401C0090B84203D820680068A0
:1006B000C007F6D184F8349084F83580E16C0029C5
:1006C00010D001B02046BDE8F04308470168C905D5
:1006D000D5D4036823F01003036084F8349084F8C1
:1006E0003580CCE7BDE8F883300000202DE9F047E5
:1006F000044600F007FA054664B14FF0000984F89B
:100700003490022184F835102068016821F001013D
:1007100001600EE00120BDE8F08700BF00F0F2F9B3
:10072000401B052805D920216165032084F8350088
:10073000F1E720680068C007F0D1D4E90020D4E9CF
:100740000251D4E9043C284304F118051943084335
:10075000116895E8E00140EA0C001C4B2843194061
:1007600040EA060040EA0700B8F1040F40EA010041
:1007700003D1D4E90B131943084310602068012604
:10078000656A4069042D20F0070045EA00050CD198
:10079000D4E90A01054341B12046FFF7F9FD20B134
:1007A0004020606584F83560B4E7206845612046E4
:1007B000FFF7DAFD94F85C303F229A408260C4F87B
:1007C000549084F835600020A5E700003F8010E0D9
:1007D0002DE9F041044690F8340000250128A66D6B
:1007E0000ED094F835C00127002084F83470BCF195
:1007F000010F07D0022584F834002846BDE8F081B7
:100800000220FBE7022784F8357060652046FFF779
:10081000E9FD94F85C103F208840B06020680168D2
:1008200041F0160101602068416941F08001416199
:10083000206C20B12068016841F008010160206847
:10084000016841F001010160D7E7000070B504467E
:1008500000F058F90546601C02D0044800780444B2
:1008600000F050F9401BA042FAD370BD24000020D4
:100870001E48F0B5016887B0002935D1012101601B
:100880001B48016841F00101016000680224002555
:10089000694600F00100059003264FF63F000C2743
:1008A0008DE8F100134800F02FF80D2069468DE81F
:1008B000F100114800F028F848F2371069468DE839
:1008C000F1000E4800F020F84FF6807069468DE880
:1008D000F1000B4800F018F84CF2037069468DE8FF
:1008E000F100084800F010F807B0F0BD0C0000203F
:1008F000383802400014024000080240001802404C
:1009000000100240000C02402DE9F84FDFF89CE196
:1009100000224FF001084FF0030B4FF00F0A00BF09
:100920000B6808FA02F42340A34271D14D68022DEE
:1009300001D0122D0FD1D5080E69570700EB8505A0
:10094000A9462D6AFF0E0AFA07FCBE4025EA0C05EF
:100950002E43C9F820600F79550006680BFA05FC94
:1009600007F0030726EA0C06AF40374307604E68DE
:10097000012E05D0022E03D0112E01D0122E0ED141
:100980008668CF6826EA0C06AF4037438760466822
:100990000F79A643C7F30017974037434760C468F1
:1009A0008E6824EA0C04AE402643C6604C68E4001E
:1009B00075D53F4C256845F480452560246822F0B4
:1009C0000306950704F4804400943A4C2D0F264406
:1009D000D6F80848DFF8E0C00AFA05F7604524EACF
:1009E000070401D100272EE0344FB84201D101277E
:1009F00029E0334FB84201D1022724E0314FB842F9
:100A000001D103271FE0304FB84202D104271AE07A
:100A100045E02E4FB84201D1052714E02C4FB842D3
:100A200001D106270FE02B4FB84201D107270AE07A
:100A3000294FB84201D1082705E0284FB84201D11B
:100A4000092700E00A27AF4027437546C6F8087813
:100A50004E68DEF80040F60324EA030400D51C4388
:100A6000124E2C60361D4D683468AD0324EA030431
:100A700000D51C430D4F346008374D683C68ED02CB
:100A800024EA030400D51C43084D3C600C354E6835
:100A90002C68B60224EA030400D51C432C60521CC7
:100AA000102AFFF43DAFBDE8F88F0000003C014084
:100AB000443802400030014000000240000402407F
:100AC00000080240000C02400010024000140240E6
:100AD00000180240001C0240002002400024024096
:100AE0000069084000D001207047426931EA0202E3
:100AF00000D10904816170470AB18161704709041E
:100B0000FBE70000014880687047000024000020D7
:100B100002488168027811448160704724000020F7
:100B2000094810B5016841F400710160016841F4A1
:100B300080710160032000F0E1F9002000F006F868
:100B400000F096F9002010BD003C024070B50D4D3C
:100B500004464FF47A700C4A29781268B0FBF1F021
:100B6000B2FBF0F001F036F948B9102C07D20022A0
:100B70002146501E00F0A2F900206C6070BD0120DB
:100B800070BD000024000020300000202DE9F0415D
:100B9000044690F8A00016460F4601281DD00125F6
:100BA00084F8A050022084F8A10006EB860000EB38
:100BB000C600342204EB80003830FFF76AFB32466F
:100BC0003946204601F09EFE216800204D6284F8DF
:100BD000A15084F8A000BDE8F0810220FBE70000EE
:100BE0002DE9F041040004D094F8A100002518B1CB
:100BF00007E00120BDE8F081204684F8A05000F015
:100C00006BF83448022184F8A110012202CC8B69D0
:100C100023F070438B6194E84A001943E3681E4354
:100C200054F8043D31439E693143996121688B68D2
:100C300003408B602168A68AA7698B683B4343EA1F
:100C400006438B602168CB680340CB602168A38B8F
:100C5000276ACE683E4346EA0346CE6021680B69A8
:100C600003400B612368A68CA76A1969394341EADE
:100C70000641196121684B6903404B612068A38DCF
:100C8000266B4169314341EA03414161236894F88D
:100C9000351094F83600DE6A000406F07F46DE6206
:100CA000236840EA012094F83460D96A3143014353
:100CB000D9622068416B41F0060141632068816977
:100CC00041F001018161C4F8A45084F8A120002002
:100CD00090E7000000F800F0F0B587B0044614215A
:100CE0006846FFF7EFFA3149206888425CD1304806
:100CF000016841F080610160006800F0806005904B
:100D00002B481438016841F480710160016801F4D6
:100D100080710591016841F020010160016801F0D6
:100D200020010591016841F001010160016801F0B5
:100D300001010591016841F080010160016801F045
:100D400080010591016841F04001016000680224C2
:100D50000025694600F040000590032640F2F76048
:100D60000E278DE8F1001348FFF7CEFD60026946BB
:100D70008DE8F1001048FFF7C7FD202069468DE897
:100D8000F1000E48FFF7C0FD4FF47A4069468DE848
:100D9000F1000B48FFF7B8FD4FF40C6069468DE891
:100DA000F1000848FFF7B0FD07B0F0BD0068014052
:100DB000443802400020024000140240000002407B
:100DC000001C02400018024070B5044690F8A000D4
:100DD0000E46012820D003EB830000EBC301012560
:100DE00084F8A050022084F8A10004EB81018E63F6
:100DF000086E3044C1E90F02486E1044486438312F
:100E00001A46204601F07EFD216800204D6284F8DC
:100E1000A15084F8A00070BD022070BD70B50446DA
:100E200090F8A0000E46012820D003EB830000EBD1
:100E3000C301012584F8A050022084F8A10004EB2E
:100E40008101886B3044C863086C10444864C1E970
:100E5000186238311A46204601F054FD21680020FE
:100E60004D6284F8A15084F8A00070BD022070BDCE
:100E70000A4808B5016841F080510160006800F03F
:100E8000805000900548001D016841F480410160D8
:100E9000006800F48040009008BD00004038024027
:100EA000002809DB410900F01F028900012001F13F
:100EB000E0219040C1F80001704700000E4BF0B4F3
:100EC0001B680D46C3F30223C3F10706042E00D9A5
:100ED0000426191D072901D2002300E0DB1E01248E
:100EE00004FA06F19C40491E2940641E99401440B2
:100EF0002143F0BC02F022BF0CED00E0064900F0F7
:100F0000070210B54FF6FF040868044B204040EA82
:100F100002201843086010BD0CED00E00000FA0547
:100F20001848F8B5016841F0805101600068164C1E
:100F300000F080500090206840F480302060FFF77F
:100F4000E1FD4FF47A76054605E000BFFFF7DAFDD4
:100F5000401BB0420FD86068C003F7D5206840F44A
:100F600000302060FFF7CEFD054606E0FFF7CAFD22
:100F7000401BB04201D90320F8BD60688003F5D55D
:100F80000020F8BD40380240007000402DE9F84FC5
:100F900017468B460446FFF7B5FD824694F840009D
:100FA00001280ED001264FF0000884F8406094F824
:100FB0004100012807D0022584F840802846BDE87A
:100FC000F88F0220FBE74FF00209C4F8448084F850
:100FD00041900022202153462046009702F0CCF891
:100FE0000500E9D100225946204601F0B0FFDBF8A8
:100FF000240058B90122534602212046009702F0EE
:10100000BBF80500D8D12168C1F80C9084F8416084
:10101000D2E70000F8B50446FFF774FD07465CB15F
:1010200094F84000012809D0012684F8406000258A
:1010300094F8410020B10BE00120F8BD0220F8BD7A
:1010400084F84050204600F045F841F28830A06412
:1010500020686FF0FF03A168026803EB012322F40C
:10106000F85119430160A06C002220213B460090FA
:10107000204602F081F830BB2268D4E9077C94F85E
:1010800004E0E16813683943104F4CEA0E6EDFF854
:1010900040C03B4041EA0E01194311602168D4E988
:1010A0000527B4F810E04B683A4303EA0C0343EA1F
:1010B0000E431A434A6021680A6842F001020A603E
:1010C000656484F8416084F84050F8BD2FFFFF004C
:1010D000FEF8E0FF2DE9F04387B00446142168468E
:1010E000FFF7F0F82349206888423FD12248016881
:1010F00041F002010160006800F0020005901E4806
:101100000838016841F020010160016801F0200108
:101110000591016841F00201016000680224002588
:10112000DFF8589000F00200059003266946092771
:10113000C0208DE8F1004846FFF7E6FB30024FF093
:101140000A088DE8710169464846FFF7DDFB042077
:1011500069468DE8F1000A4F3846FFF7D5FB40217C
:1011600038468DE872016946FFF7CEFB07B0BDE84F
:10117000F0830000001000A0383802400014024044
:10118000000402402DE9F84F15460E460446FFF7CD
:10119000B9FC82462068816994F8403000F120094A
:1011A000012B0DD001274FF0000884F8407094F80F
:1011B0004120012A06D0022084F84080BDE8F88F43
:1011C0000220FBE7C4F844809EB3222284F8412029
:1011D0000269521CA2630269521C6263266342695F
:1011E00022F0406242F080624261206881610DE03D
:1011F0000621204601F0C0FFC0B999F80020206BFD
:10120000411C21630270A06B401EA063A06B53467B
:101210004FF0010200950028EAD14FF0020120466C
:1012200001F0AAFF10B922680221D16084F8417050
:10123000C2E7FFE7616C012041F008016164BBE790
:101240002DE9F84F15460E460446FFF75BFC94F86F
:10125000401082462068012900F120090ED00127A4
:101260004FF0000884F8407094F84110012907D02D
:101270005FF0020084F84080BDE8F88F0220FBE7B1
:10128000C4F844807EB3122184F841100169491CDE
:10129000E1620169491CA1626662416921F0406115
:1012A00041610DE00421204601F066FFC0B9606A8B
:1012B000411C6162017889F80010E06A401EE0621A
:1012C000E06A53464FF0010200950028EAD14FF042
:1012D0000201204601F050FF10B922680221D160BE
:1012E00084F84170C6E7FFE7616C012041F0080116
:1012F0006164BFE72DE9F84F04460078DFF82494D5
:101300004FF000063746C0070ED0D9F8001021F480
:101310000001C9F80010D9F80010626B1143C9F838
:101320000010606B00B90126FE4D20688435000373
:101330000ED5E16B286820F4401008432860E06B6C
:10134000B0F5801F01D010B102E0012600E00127B6
:1013500020684FF4800BC0020CD5216C286820F463
:10136000400008432860206C584501D1012601E067
:1013700000B901272068C10100D50126800666D585
:10138000E8483830016841F0805101600068DFF8BA
:1013900098A300F080500090DAF8001041F48071BA
:1013A000CAF80010FFF7AEFB804605E0FFF7AAFB86
:1013B000A0EB080064287DD8DAF80000C005F5D558
:1013C000DFF8608308F16808D8F8000010F4407076
:1013D0002AD0218E01F44071814225D0D8F8001026
:1013E000D8F8002021F4407142F48032C8F800207F
:1013F000D8F8002022F48032C8F80020C8F8001085
:10140000D8F80000C0070FD0FFF77CFB824607E04A
:10141000FFF778FBA0EB0A0141F288308142CAD87D
:10142000D8F800008007F3D5206BC0F30121032911
:101430007ED0D9F8001021F4F811C9F80010228EDE
:10144000D8F80010C2F30B021143C8F8001020783E
:10145000C00607D5286820F0807028602868A16B36
:10146000084328602188AF488830490405D5626E5A
:10147000016821F44031114301602188090405D538
:10148000A26E016821F44021114301602168C90363
:1014900005D5E26E016821F4401111430160216815
:1014A000890305D5226F016821F4400111430160D1
:1014B000217800E034E1490605D5626C016821F02D
:1014C0000301114301602178090605D5A26C01686A
:1014D00021F00C01114301602188C90505D5E26C9A
:1014E000016821F03001114301602188890505D58B
:1014F000226D016821F0C001114301602188490576
:1015000005D5626D016821F44071114301602188A5
:10151000090505D5A26D016821F440611143016000
:101520002188C90407D5E26D016821F4405100E02B
:101530005FE0114301602188890405D5226E0168AE
:1015400021F44041114301602168490205D5A26F91
:10155000016821F080611143016021684FF0006A49
:10156000890209D5E26F016821F000611143016031
:10157000E16F514500D1012721680A0700D50127F5
:10158000490305D5626F016821F040711143016084
:101590002168090206D5D4F88020016821F0805125
:1015A000114301602168490106D5D4F884200168FF
:1015B00021F00051114301602068000106D5D4F8E4
:1015C0008810286820F00070084328602068C00058
:1015D00006D5D4F88C10286820F080600843286075
:1015E000DFF84891012E0ED02068B0F1007F0AD0BC
:1015F0008FE04F4AD9F80030104023F4F81202432C
:10160000C9F800201BE7D9F800004E4620F08060A2
:10161000C9F80000FFF776FA804605E0FFF772FA96
:10162000A0EB080064287BD830680001F6D421784C
:101630003C487C30C90712D0616B81B9237A62685B
:101640000168D0F800C09201C1F3014142EA0142B1
:10165000CCF3036142EA016141EA03710160216850
:101660000A0303D5E26BB2F5801F04D0C9021AD574
:10167000216C594517D16368016894F80CC0026861
:101680009B01C1F3014143EA0141C2F3027241EA05
:101690000C6141EA027101602968626A21F01F0150
:1016A000521E114329602168C90110D5238A62683E
:1016B0000168D0F800C09201C1F3036142EA03421D
:1016C00042EA0162CCF3027142EA017101602168D1
:1016D00089010CD56168228A237B94F808C08901AE
:1016E00041EA024141EA036141EA0C71016031685B
:1016F000B04641F080613160FFF704FA064604E02D
:10170000FFF700FA801B64280AD8D8F8000000010F
:10171000F6D5E7B3D9F800004E4620F0805009E036
:101720007BE00000083802400070004000380240B2
:10173000FFFCFF0FC9F80000FFF7E4F9074604E0DB
:10174000FFF7E0F9C01B642867D83068C043800009
:10175000F6D5216835480A0301D5E26B1AB1C902F2
:101760001DD5216CD9B963690168277E02689B0188
:10177000C1F3014143EA0143C2F3027143EA076244
:1017800042EA0171016029686FF0FF0300E04BE05D
:10179000A26A21F4F85103EB022211432960216867
:1017A000890212D5E16F51450FD1238C626901681E
:1017B00007689201C1F3036142EA034242EA01620F
:1017C000C7F3027142EA017101602178090716D559
:1017D00061690268D0F800C08B01277FC2F3036201
:1017E000CCF3014143EA014141EA026141EA077158
:1017F00001602868E16A20F44030084328603068BE
:1018000040F080503060FFF77DF9044608E000BFEB
:10181000FFF778F9001B642802D90320BDE8F88F90
:101820003068C0438000F3D40020F7E788380240D6
:101830002DE9F04705000F4663D0444E306800F0B4
:101840000F00B84209D2306820F00F0038433060F2
:10185000306800F00F00B84253D128683C4C810733
:1018600012D5400703D5206840F4E0502060287866
:10187000000703D5206840F460402060A968206814
:1018800020F0F000084320602878C0072AD03049B3
:1018900068680839012810D00968022810D0890723
:1018A00000292EDA216821F0030101432160FFF7AE
:1018B00029F9804641F288390DE009688903EFE78C
:1018C0008901EDE7FFF71EF9A0EB0801494502D9B0
:1018D0000320BDE8F0876868216801F00C01B1EBD6
:1018E000800FEFD1306800F00F00B8420BD930689C
:1018F00020F00F0038433060306800F00F00B8422D
:1019000001D00120E5E72878400705D5E96820687F
:1019100020F4E050084320602878000706D52869A5
:10192000216821F4604141EAC000206000F036F8EF
:101930002168084AC1F30311515CC8400649086098
:101940000020FFF703F90020C3E70000003C02403D
:1019500008380240D08600083000002004490548BD
:1019600009680068044AC1F38221515CC84070478D
:101970000838024030000020E0860008044905488D
:1019800009680068044AC1F34231515CC84070479D
:101990000838024030000020E0860008154910B5E4
:1019A0001548096811F00C0213D01449042A0FD00D
:1019B000082A0ED10F4C241F2268236802F03F0230
:1019C0005B0207D52068C0F38810A0FB010106E088
:1019D000084610BD2168C1F38811A1FB0001002356
:1019E000FEF726FC2168C1F30141491C4900B0FB08
:1019F000F1F010BD083802400024F40040787D0169
:101A00002DE9F84F05004FF000076ED02878DFF879
:101A10002093A9F1040AC007AAF104044CD0D9F814
:101A200000104846C1F38101012908D00068C0F3C5
:101A3000810002280AD1DAF80000400206D52068A9
:101A4000800339D568680028DFD035E06868B0F5D4
:101A5000803F0BD010B1B0F5A02F11D0206820F43A
:101A600080302060206820F4802002E0206840F46C
:101A700080302060686890B1FFF744F806460AE0BD
:101A8000206840F480202060F0E700BFFFF73AF8BC
:101A9000801B642872D820688003F7D50CE0FFF71C
:101AA00031F8064605E000BFFFF72CF8801B6428DC
:101AB000F0D820688003F7D42878800742D5D9F879
:101AC0000010484611F00C0F08D00068C0F38100E8
:101AD00002280BD1DAF80000400207D42068800702
:101AE00018D5E868012800D114E01EE1E868002854
:101AF000206817D040F001002060FFF703F8064689
:101B000005E000BFFEF7FEFF801B0228C2D8206858
:101B10008007F7D52869216821F0F80141EAC00063
:101B200020600FE020F001002060FEF7EBFF06468A
:101B300005E000BFFEF7E6FF801B02281ED82068E4
:101B40008007F7D42878000729D5794869696C306F
:101B500000298046016812D041F001010160FEF7C2
:101B6000D1FF064605E000BFFEF7CCFF801B022830
:101B700004D8D8F800008007F6D510E089E021F0FD
:101B800001010160FEF7BEFF064604E0FEF7BAFF62
:101B9000801B02287DD8D8F800008007F6D428786A
:101BA00040076BD5DFF8888108F13808D8F80000C5
:101BB000C0000BD4D8F8001041F08051C8F80010D4
:101BC000D8F80000012700F08050009059480168C3
:101BD000C90512D40168834641F480710160FEF7A3
:101BE00091FF064605E000BFFEF78CFF801B6428CE
:101BF0004FD8DBF80000C005F6D54D4EA868683612
:101C000001280AD008B1052811D0306820F0010061
:101C10003060306820F0040002E0306840F00100DD
:101C20003060A868A0B1FEF76DFF83460CE0306815
:101C300040F004003060F0E7FEF764FFA0EB0B011A
:101C400041F28830814268D830688007F4D50EE0D0
:101C5000FEF758FF834607E0FEF754FFA0EB0B01A9
:101C600041F28830814258D830688007F4D42FB1CF
:101C7000D8F8001021F08051C8F80010A869E0B32E
:101C8000D9F80010C1F3810102294ED00228206842
:101C900000E042E020F08070206003D0FEF732FFC9
:101CA00005463DE0FEF72EFF064604E0FEF72AFF5C
:101CB000801B022831D820688001F7D4D5E909219A
:101CC000DFF874C0D5E9070695F830304F0895F86D
:101CD0002C1030430CEB074545EA8212104340EAD2
:101CE000016040EA0370CAF80000206840F080708C
:101CF0002060FEF707FF054605E014E0FEF702FF4F
:101D0000401B022809D820688001F7D50BE000BFEE
:101D1000FEF7F8FE401B022802D90320BDE8F88F29
:101D200020688001F4D40020F8E70120F6E70000E5
:101D300008380240007000400000FFFF70B504004A
:101D40000D4603D094F82C0010B107E0012070BDBF
:101D5000002084F82D00204600F011F8022084F8BD
:101D60002C002068211DFEF753FBD4E90002294610
:101D7000FEF794FB012084F82C00002070BDFEF7D4
:101D800077BD10B5044690F82C00022809D0022037
:101D900084F82C002068FEF76AFB012084F82C00F0
:101DA000002010BD70B5044690F82C000D460228A6
:101DB0000DD0022084F82C002068FEF75EFB286816
:101DC000022805D05FF0010084F82C00002070BDCF
:101DD0000520F9E7401EB0F1807F10B501D3012046
:101DE00010BD4FF0E02460610F21601701F0A6FFE5
:101DF0000020A0610721216110BD70477047704726
:101E000070B590F83C20012A24D0134C012580F8AD
:101E10003C50022280F83D2002685368A242966836
:101E200002D00E4CA24203D14C6823F4700323432A
:101E30000C6823F0700389681C435460002326F06B
:101E4000800602683143916080F83D5080F83C3054
:101E5000184670BD022070BD000001400004014022
:101E600010B5040003D094F83D0010B107E0012044
:101E700010BD002084F83C00204600F00DF8022040
:101E800084F83D002068211D01F068FA012084F8E3
:101E90003D00002010BD000008B500680B498842D5
:101EA00012D10B48016841F0020101600068002274
:101EB000114600F0020000901D20FEF7FFFFBDE874
:101EC00008401D20FEF7ECBF08BD000000040040E4
:101ED000403802400168094ACB6843F00103CB60F7
:101EE000016888681040062806D0B0F5803F03D00E
:101EF000086840F0010008600020704707000100FA
:101F000070B5044690F83C00012817D0324B0125EB
:101F100084F83C50022084F83D0022689068184004
:101F200020F47F4090600868502830D00DDC2028D5
:101F30004DD005DC98B310283BD148E0022070BD9D
:101F4000302844D0402834D139E0602828D0702887
:101F500006D0B0F5805F2CD0B0F5005F29D10AE043
:101F60004A682068D1E9021301F05EFA20688168AE
:101F700041F0770109E04A682068D1E9021301F0D5
:101F800053FA2068816841F48041816011E0CA6899
:101F90004968206801F059FA2068502107E016E0EE
:101FA000CA684968206801F061FA2068602101F080
:101FB00044FA002084F83D5084F83C0070BDCA68A3
:101FC0004968206801F041FA20684021EFE7226863
:101FD00001461046EBE7000088FFFEFF704770B532
:101FE0000446006800250169C943890715D4C16802
:101FF000C943890711D4EA1E0261012121772068B3
:1020000080698007204602D0FFF7E8FF04E000F077
:10201000A7F8204600F0A5F8257720680169C94394
:10202000490717D4C168C943490713D402216FF087
:102030000402026121772068806910F4407F204605
:1020400002D0FFF7CBFF04E000F08AF8204600F052
:1020500088F8257720680169C943090716D4C16843
:10206000C943090712D404216FF0080202612177E5
:102070002068C0698007204602D0FFF7AFFF04E068
:1020800000F06EF8204600F06CF8257720680169B2
:10209000C943C90617D4C168C943C90613D4082166
:1020A0006FF01002026121772068C06910F4407F50
:1020B000204602D0FFF792FF04E000F051F82046DE
:1020C00000F04FF8257720680169C943C90708D196
:1020D000C168C943C90704D1891E0161204600F0C7
:1020E00041F820680169C943090609D4C168C94398
:1020F000090605D46FF0800101612046FFF77EFEDE
:1021000020680169C943C90509D4C168C9430906E2
:1021100005D46FF4807101612046FFF76EFE2068E0
:102120000169C943490609D4C168C943490605D4B0
:102130006FF040010161204600F02AF82068016933
:10214000C94389060BD4C168C943890607D46FF017
:10215000200101612046BDE87040FFF750BE70BD10
:102160007047704710B50068074988420AD1074C8C
:1021700001212046FEF7B9FC2046BDE810400221AF
:10218000FEF7B3BC10BD0000000400400004024094
:10219000704770472DE9F041026804460025D06978
:1021A0001168936810F00F0F5BD003F0010601F483
:1021B0009077374369D0C70707D0CF0505D50127EA
:1021C0001762E26F42F00102E267820708D5DA0780
:1021D00006D0276802223A62E26F42F00402E26708
:1021E000420708D5DA0706D0236804221A62E26F94
:1021F00042F00202E26702070AD501F020023243F0
:1022000006D0236808221A62E26F42F00802E267F1
:10221000E26F002A32D0800605D5880603D5216EEC
:1022200009B1204688472168E06F8968490601D4D2
:10223000000725D5204601F0F6F920688168490697
:1022400019D5816821F040018160E06E98B11A498A
:102250000165E06EFEF768F900280FD0E06E016DB1
:1022600006E0830611D58B060FD5216E12E02046BD
:10227000BDE8F04108472046FFF78BFFBDE8F0813D
:102280002046FFF786FFE567F8E7030605D50B064E
:1022900003D5616E0029EAD1F0E74006EED5480685
:1022A000ECD513682021204623F0400313606167BA
:1022B000656600F0D1F9E1E79535000810B5040036
:1022C00002D0606F10B107E0012010BD002084F83B
:1022D0007000204600F026F824206067206801681E
:1022E00021F001010160204601F010FA0128ECD034
:1022F000606A10B1204601F0CBF82068416821F4F3
:10230000904141602068816821F02A018160206845
:10231000016841F0010101602046BDE8104001F074
:102320001BB900002DE9F04387B007461421684629
:10233000FDF7C8FF2F493868884258D12E480168F8
:1023400041F010010160006800F0100005902A487B
:102350001438016841F00101016000680024022185
:1023600000F0010005904FF4C06007238DE81300D2
:1023700003222248CDE903236946FEF7C5FA204E21
:102380004FF480691F4A4FF0006830463260C6E95A
:102390000184C6E903497461B461F4613462746212
:1023A000FEF7A4F908B1FEF732F8154D4023FE669A
:1023B0006035B76305F10800124A783280E81802E8
:1023C0006C612846AC61EC612C626C62C5E9002846
:1023D000FEF78CF908B1FEF71AF80022BD66252039
:1023E0001146AF63FEF76AFD2520FEF759FD07B0E1
:1023F000BDE8F08300100140443802400000024074
:10240000A40200204064024070B5836F202B4BD1A2
:10241000B9B1B2B190F87030012B45D08368012674
:1024200080F870600024416535030466AB42A0F873
:102430005820A0F85A204FF0FF0107D1026912B1CD
:1024400026E0012070BD40F2FF1121E04FF07F0235
:10245000E3B1B3F1805F1ED0A0F85C402221C467D5
:10246000816701688A6842F001028A608168A94236
:1024700001D10169B1B10D49016680F87040006871
:10248000016841F490710160002070BD036933B9A7
:10249000A0F85C10E2E7016909B13F21F8E7A0F874
:1024A0005C20DBE70249E7E7022070BDB136000897
:1024B0005736000830B50068114988420CD11148E0
:1024C00041880A0408D402464FF000034C041278F5
:1024D00006D50A2A01D0438030BD41F400410DE009
:1024E0000D2A09D0084DC1F30D04491C89B2632996
:1024F0002A554180EFD830BD41F48041418030BD44
:10250000001001401C000020C00100202DE9F8430C
:102510000446406F1F4616460D4620284FD1CDB1C8
:10252000C6B194F87000012849D0012284F87020C7
:1025300021214FF00008C4F87C806167FEF7E2FAC1
:102540008146A068A4F85060A4F85260B0F5805F9E
:1025500003D004E00120BDE8F883206910B12E46C5
:10256000002510E000260EE08021204601F0F8F959
:10257000B8B9C6B116F8010B21688862B4F85200E8
:10258000401EA4F85200B4F852004B464FF000022F
:1025900000970028E8D14FF04001204601F0E0F913
:1025A00038B10320D7E735F8020B2168C0F30800E3
:1025B000E3E720216167002084F87080CBE70220E8
:1025C000C9E7000070B50446406F20283BD161B3D5
:1025D0005AB394F87000012835D0A4F85020A4F81C
:1025E00052200025A06E0123E164212184F870307F
:1025F000E5676167D8B115491346C163A16E1448F8
:102600000864A16E1348C864A06E05652068A66EB4
:1026100000F12802E16C3046FEF7DAF838B11021FB
:10262000E167202084F870506067012070BD216848
:102630004020086284F870502068816841F0800171
:102640008160002070BD022070BD0000EF350008E1
:102650001D360008A935000870477047FEE70000E6
:102660002DE9F047314C0128DFF8C4804FF40057C2
:10267000DFF8C0904FF001062F4D1DD02078A0B19B
:1026800008212846FEF72CFAC0B104212846FEF79F
:1026900027FA98B139464046FEF722FA70B1012177
:1026A0004846FEF71DFA012808D008212846FEF703
:1026B00017FA012826D037E02670E1E70A20FEF756
:1026C000C5F80020207008212846FEF709FA80B1DD
:1026D00004212846FEF704FA70B139464046FEF759
:1026E000FFF958B101214846FEF7FAF9012807D051
:1026F0001AE00120BDE8F0870220FBE70320F9E79C
:102700000420F7E704212846FEF7EAF901280BD157
:1027100039464046FEF7E4F9012805D10121484633
:10272000FEF7DEF900B926700020E3E70000002084
:102730000008024000000240001C024007490A460F
:102740004875938812889BB292B220B1012801D1BA
:10275000CA820B837047CB820A8370476C000020CB
:10276000F0B50C4C95B2DFF830C02346677D1E7D76
:10277000DA691B685CF8266027B103FB010042435D
:10278000B552F0BD6468201A03FB00105043355267
:10279000F0BD00006C0000201400002018B50446B5
:1027A00000900748018BC08A491E8BB2401E82B23E
:1027B0000021084600F008F80248046018BD000037
:1027C0006C00002008000020F8B5274D0026DDF839
:1027D00018C06C7D14B10446174606E01F466B68AE
:1027E0000C46991A1B1A491E5B1E2A68381B2F7D3E
:1027F000DFF878E002FB0144ED69121A5EF82770F9
:10280000521E05FB047495B2194A176847F4000775
:1028100017601268591A4FF4803302F400020092D4
:10282000144A03EB00471068491C394302274FF450
:10283000403320F001001060136057631564D463C7
:102840005164C2F838C01168380541F001011160C7
:1028500002E0761C864202D251688907F9D5906859
:1028600040F002009060F8BD6C00002014000020D1
:102870003038024000B0024015484FF48871F8B576
:102880004FF4F073C0E90031012202814281282512
:1028900085810824C48105260682022744820E4CC5
:1028A0000C4AC76122600022027510460091114651
:1028B00000F016F80020FFF741FF08480122202110
:1028C000FEF71AF9BDE8F8404FF6FF70FFF766BF54
:1028D0006C000020000000C0140000200004024032
:1028E00070B51E46044603460548049DFEF76CFA83
:1028F00023462A4631460248BDE87040FEF78EBAAC
:102900008C0000202DE9FE4F814600688824934604
:102910008D888C2204EBCB178A46C3689421BE466F
:10292000C459C3F30B432B4404F470441F040197B0
:1029300002EBCB1240F80E4001EBCB13DAF800703B
:102940009C214FF0AC0C01EBCB1440F207710291CB
:102950000CEBCB11D9F800C098250020CDF800C0B1
:10296000A02605EBCB15DCF80CC006EBCB16CCF3A0
:102970000B4C0CF1010C07EB0C08DDF800C0019FBB
:1029800048EA07084CF80E80D9F80070BAF80CC075
:10299000B846FF68C7F30A0767444FEA074E58F87E
:1029A000027007F4704C48F802C0D9F800C0DAF899
:1029B0000870DCF80C80C8F30A0808F10108B84474
:1029C00048EA0E084CF80280D9F80020D75827F0C2
:1029D0000707D750D9F80070DAF81020FA509AF8A3
:1029E00031209AF818304FEA022C9AF8322012045B
:1029F00042EA0362D9F800301F5918519AF8303072
:102A000043EA0C031343D9F800201351D9F80020EE
:102A1000535923F0FF035351D9F80020DAF814304A
:102A20005351D9F800209359029CA3439351D9F8EC
:102A30000030DAE9072422439A51D9F8002053588C
:102A40005050D9F80020DAF824005050DAF810007D
:102A5000C8B301283AD004283AD0022838D0032835
:102A600036D0072834D00120D9F80030B02505EB46
:102A7000CB11B42284245D5802EBCB1205F0E02583
:102A80005D50DAE9003504EBCB14EB1ABAF82850A4
:102A900043434543D9F80000DB1C43EA0543435058
:102AA000D9F8000081586FF30A018150D9F800006D
:102AB000DAF82C108150D9F80000015941F00101D9
:102AC0000151BDE8FE8FFFE70420CDE70320CBE7EF
:102AD0000220C9E72DE9FF5F58071D460C468A46CC
:102AE00000D00120DFF8B8B0690800EBD50000265F
:102AF00010FB01F1203A01F0FF09D0B202904BE047
:102B00000C2D11D0102D14D0182D17D0202D45D1FB
:102B10000298244901EBC0104FF00008875D380689
:102B200013D52148026814E00298204900EB4000C8
:102B300008E002981E4901EB0010EDE702981D49DC
:102B400000EBC00001EB8000E6E70E9828B91648BC
:102B5000426821460098FFF703FE7906BBF818008B
:102B6000641CA4B20F0EA04218D9A4EB0A00A8421C
:102B700009D100985446BBF81610401C80B2009052
:102B800081420BD906E008F1010000F0FF08B8F11E
:102B9000080FC4D3761CF6B24E45B1D3BDE8FF9FF3
:102BA0006C0000204857000804000020883F0008FF
:102BB000FC430008EC4900082DE9F84300271C46B7
:102BC00016468846054609E03346414628460097A2
:102BD000FFF780FF05EB560085B2641C2278A2F156
:102BE00020005E28F0D9BDE8F88300000D4808B544
:102BF000016841F48001016000680022114600F480
:102C0000800000903A20FEF759F93A20FEF748F983
:102C1000002246201146FEF751F9BDE80840462043
:102C2000FEF73EB930380240F0B5174800250822BB
:102C3000144F87B04FF0400E0126C0E90075022105
:102C4000C0E90262102404610C03C0F814E04FF4E0
:102C5000C07CC0E906C58F020762CE020623C0E928
:102C600009648DE80E0004250393CDE90451069113
:102C70006946FFF763F8002801D0FDF7C8FB07B0ED
:102C8000F0BD0000400100A0380000202DE9F04117
:102C900086B014216846FDF715FB4548016841F0F0
:102CA00004010160016801F004010591016841F42B
:102CB00080710160016801F480710591016841F043
:102CC00020010160016801F020010591016841F0D7
:102CD00080010160016801F080010591016841F007
:102CE00001010160016801F001010591016841F0F5
:102CF00002010160016801F002010591016841F0E3
:102D000040010160016801F040010591016841F056
:102D100010010160016801F010010591016841F0A6
:102D20000801016000680022DFF88880032100F0BC
:102D3000080005904046FDF7DFFE012240462021B5
:102D4000FDF7DAFE00256946012402946003CDE90F
:102D500000051948FDF7D8FD022618488DE87000D7
:102D60006946FDF7D1FD0C206946CDE90005144800
:102D70000294FDF7C9FD01AA009403276946404665
:102D800082E8B000FDF7C0FD00966946CDE9014537
:102D900040460395FDF7B8FD20206946CDE90004C3
:102DA000CDE902474046FDF7AFFD06B0BDE8F08132
:102DB0003038024000040240000802400000024097
:102DC000001C0240F0B58DB034216846FDF77AFA58
:102DD00024480024224B282100F11C0C0822C0E9C1
:102DE000003484604FF40273C4605E1D04614FF4CC
:102DF0008C7544614FF4907784618CE8EE0080F824
:102E0000344080F8354080F83640FDF7E9FE08B1DF
:102E1000FDF7FDFA4FF4F0704FF488714506CDE9E7
:102E20000040CDE90A010227049707A87A0205238A
:102E3000CDE9024180E82C00FF260A48CDE905646F
:102E40008DF8304000228DF8314069468DF83240CF
:102E5000FDF79CFE002801D0FDF7D9FA0DB0F0BDBA
:102E6000006801408C0000202DE9F0410C48002151
:102E700018270A4A02237E01C0E90561C1610424C2
:102E80001025016280E8BC00FEF7C4F8002803D0DA
:102E9000BDE8F041FDF7BBBABDE8F081001000A02D
:102EA0003401002010B588B017480024154942F6B7
:102EB0002F2241F2873300940194029403940494E6
:102EC0000594069480E81600C0E903348461FEF797
:102ED000C7FF08B1FDF79BFA4FF4805000900A48F5
:102EE0006946FFF70DF808B1FDF791FA064804A905
:102EF00004940694FEF784FF002801D0FDF787FABA
:102F000008B010BD00040040800100200D480021E1
:102F100010B50B4C0C224FF4E1330460C0E90131D1
:102F2000C160C0E904128161C16101624162FFF7C1
:102F3000C5F9002803D0BDE81040FDF768BA10BD00
:102F40000010014024020020FEE7704770472DE981
:102F5000F0434B6A4FF040652BB1AA4203D004689E
:102F60008B6A5B1E23618B69002B68D00C6AB4B33B
:102F700003688C68DC61CC69FCB1D1E90B38D1F80D
:102F800024C04E6B8F8A43EA080346EA0C0633439B
:102F90000E6A43EA8743D1E9037C43EA0C033343D7
:102FA0008E693B430F682343046833433B4365E02A
:102FB000006849688161BDE8F083D1E90B364F6A4A
:102FC0004C6B8D8A33433C430E6923430C6A43EABE
:102FD00085438D693343096823432B4362E0FFE750
:102FE000CC69B4F1000918D0D1E90B484F6A4E6B97
:102FF000B1F814C044EA08043E430F683443CE6875
:1030000044EA8C44344344EA09041C4303683C43C7
:103010001443AA425C61CBD1CDE7D1E90B464F6A9C
:103020004D6BB1F814C034433D4300682C4309682C
:1030300044EA8C441C430C4314434461BBE70B6AD1
:10304000ABB303688C68DC61CC69E4B1D1E90B38BF
:10305000D1F824C04E6B8F8A43EA080346EA0C0677
:1030600033430E6A43EA8743D1E9037C43EA0C0306
:1030700033438E693B432343046833431343AA42DB
:10308000636195D197E7D1E90B364F6A4C6B8D8A16
:1030900033433C430E6923430C6A43EA8543896901
:1030A0003343234300680B431343436183E7FFE744
:1030B000CC6984B1D1E90B384F6A4E6BB1F814C0BA
:1030C00043EA08033E433343CE6843EA8C43334329
:1030D00023430468D2E74C6A002C9DD0D1E90B361B
:1030E0008F8A4D6B0168334325432B4343EA874066
:1030F000104348615FE70000074A491E10B5126897
:10310000116141F2883201460348FEF73BF800287E
:1031100000D0012010BD000034010020F0B58FB0B8
:1031200014AC94E8E0000024039609970D94CDE9CF
:1031300007540B940C94CDE90523CDE90001044814
:1031400041F288326946FDF721FF0FB0F0BD000063
:1031500034010020074A491E10B51268116141F27E
:10316000883201460348FEF76BF8002800D00120A2
:1031700010BD0000340100202DE9F04198461646AC
:103180000F460446069D12E0681C10D02DB1FDF7D5
:10319000B9FCA0EB0800A84209D9042084F841003A
:1031A000606C40F0010060640120BDE8F08120689F
:1031B0008068384000D00120B042E5D10020F4E71B
:1031C000AFF30080002301221846114610B500F02D
:1031D0001FF80120FDF73AFB0023012218460221C7
:1031E00000F016F8002308221846032100F010F81A
:1031F0000122042100204FF40C7300F009F8BDE80F
:103200001040024840F23731FEF7BBBD38000020C5
:103210001FB54FF0000410B1012802D002E01024C5
:1032200000E008240748CDE902234FF48052CDE99D
:1032300000146946FEF7B6FD002800D0012004B056
:1032400010BD0000380000207047FDF761BC000091
:1032500070B5B8B0342124A8FDF734F8142131A892
:10326000FDF730F890216846FDF72CF821480168F9
:1032700041F080510160006800F0805036901E4897
:10328000016841F440410160006800252CAB00F466
:1032900040403690022424940821D822CDE92A45C2
:1032A000102083E8160001262F94CDE9276024A87A
:1032B000FEF7A6FBFDF734FEE2024FF4A0510F200B
:1032C000CDE9341231AA072182E8310031A8FEF796
:1032D000AFFA4820009005226846E303CDE90725B0
:1032E00064211195CDE90514CDE90A63FEF702F8D2
:1032F00038B070BD4038024000700040104A30B510
:103300001048146800210F4B44F470041460083313
:1033100005680D4A0D4C45F001050560196003680C
:10332000051D1340074A03600C322C600568E30555
:10333000034C25F480250560803C1160236030BD7E
:1033400088ED00E000380240FFFFF6FE1030002458
:103350000148FEF744BE000080010020F0B5274B75
:103360004FF0804E264D02689842264E264F274C3D
:1033700009D0704507D0A84205D0B04203D0B8426A
:1033800001D0A04205D1D1F804C022F070024CEA6D
:10339000020298421BD0704519D0A84217D0B04203
:1033A00015D0B84213D0A04211D0194DA8420ED06A
:1033B000184DA8420BD0184DA84208D0174DA8426E
:1033C00005D0174DA84202D0164DA84203D1CD68B2
:1033D00022F440722A434D6922F080022A4302609F
:1033E00098428A68C2620A68826201D0A04201D112
:1033F0000969016301214161F0BD00000000014045
:103400000004004000080040000C0040000401409F
:1034100000400140004401400048014000180040C5
:10342000001C00400020004042EA032283680A4357
:1034300023F47F410A4382607047826822F0700261
:103440000A4342F007018160704710B5036A046ABD
:1034500023F00A0324F00104046284690B4324F07E
:10346000F00141EA02118161036210BD10B5036AE7
:1034700023F0100303628369046A23F4704324F089
:10348000A00443EA0232826144EA0111016210BDE4
:1034900090F82410C90706D00168836A4A6822F4AC
:1034A00000321A434A6090F82410890706D5016853
:1034B000C36A4A6822F480321A434A6090F82410A2
:1034C000490706D50168036B4A6822F480221A4333
:1034D0004A6090F82410090706D50168436B4A68D2
:1034E00022F400421A434A6090F82410C90606D517
:1034F0000168836B8A6822F480521A438A6090F8CC
:103500002410890606D50168C36B8A6822F400522C
:103510001A438A6090F82410490611D50168036C9B
:103520004A6822F480121A434A60016CB1F5801F88
:1035300006D10168436C4A6822F4C0021A434A600B
:1035400090F82410090606D50168826C486820F4BA
:10355000002010434860704738B500250446C56711
:10356000FDF7D0FA03462068006800070BD56FF01E
:103570007E400090002220464FF4001100F0F0F948
:1035800008B1032038BD2020606784F87050A06720
:10359000002038BD10B5806B0021A0F85A10A0F8AB
:1035A0005210FEF7F6FD10BD70B5846B0025216842
:1035B000606FA66F8968090606D5212804D1A4F892
:1035C0005250204600F03FF820688068400606D53B
:1035D000222E04D1A4F85A50204600F024F8E06FBF
:1035E00040F01000E0672046FEF7D3FD70BD10B537
:1035F000C169806BB1F5807F0DD00021A0F8521019
:1036000001688A6822F080028A600068016841F0DF
:103610004001016010BDFFF71FF810BD10B5806BB1
:10362000FFF71BF810BD10B50168202200230C68BD
:1036300024F490740C6001688C6824F001048C60A0
:103640008267036610BD016820220B6823F0C00367
:103650000B604267704710B5816FB0F85C2022297B
:10366000016804D0886940F00800886110BD496A8B
:10367000436D11401980416D891C4165B0F85A10A5
:10368000491EA0F85A10B0F85A100029EED101686E
:10369000202200230C6824F490740C6001688C686C
:1036A00024F001048C6082670366FEF703FF10BDFF
:1036B00010B5816FB0F85C202229016804D08869B8
:1036C00040F00800886110BD496A436D11401970CF
:1036D000416D491C4165B0F85A10491EA0F85A10B6
:1036E000B0F85A100029EED10168202200230C689E
:1036F00024F490740C6001688C6824F001048C60E0
:1037000082670366FEF7D6FE10BD00002DE9F0418A
:1037100004468068DFF818C2864F2368D4E9045253
:10372000E16928431E6800250A438349104306EADD
:103730000C0606431E604FF400422068E6684368AA
:1037400023F44053334343602368A669206AD3F8C7
:1037500008C030432CF4306606439E602068B842AF
:103760000AD1086810F0030052D001287BD002284B
:103770007AD003286ED186E0704B98420AD108684F
:1037800010F00C0079D004287BD0082877D00C28C2
:1037900060D178E06A4B98420AD1086810F0300096
:1037A0006BD010286DD0202869D0302852D16AE023
:1037B000644B98420AD1086810F0C0005DD04028E0
:1037C0005FD080285BD0C02844D15CE05E4B98423B
:1037D0000DD1086810F440704FD0B0F5807F50D004
:1037E000B0F5007F4BD0B0F5407F33D14BE0574B65
:1037F00098420FD1086810F4406009D0B0F5806F8E
:103800003FD0B0F5006F3AD0B0F5406F22D13AE02A
:10381000012120E04E4B98420DD1086810F4405031
:103820002BD0B0F5805F2CD0B0F5005F27D0B0F57D
:10383000405F0FD127E0474B98420BD1086810F446
:1038400040401AD0B0F5804F1BD0904217D0B0F551
:10385000404F18D01021E0694FF6EF76904238D1F2
:1038600009295DD202E00CE009E006E0DFE801F0A2
:103870000D1027582A5858582D000021EBE7022137
:10388000E9E70421E7E70821E5E7FEF767F801E04B
:10389000FEF774F80146D4F80400490001EB50012A
:1038A000B1FBF0F080B2A0F11001B14238D84FF670
:1038B000F0732168C0F342021840104324E0264907
:1038C0006068EBE7FEF76AF8E4E760684FF4803180
:1038D000E4E7092924D2DFE801F0050819231C23B5
:1038E00023231F00FEF73AF801E0FEF747F80146F0
:1038F000D4F8040001EB5001B1FBF0F080B2A0F16C
:103900001001B1420CD82168C8600AE01349606810
:10391000F0E7FEF743F8EAE7606802EB5001EBE7F7
:1039200001250020206660662846BDE8F081000081
:10393000F369FFEF0010014090380240004400405E
:1039400000480040004C004000500040001401407E
:1039500000780040007C00400048E8010024F400AA
:103960002DE9F041984617460E460446069D08E0AC
:10397000681C06D0FDF7C6F8A0EB0800A8420BD8DB
:1039800055B12068C06936EA000017D00020B8425F
:10399000EED00020BDE8F0812168202000220B68D5
:1039A00023F4D0730B6021688B6823F001038B60D4
:1039B0006067A067032084F87020EBE70120E6E74A
:1039C000054810B5FEF7E6FBBDE8104003490122AB
:1039D0000148FEF719BD0000240200201C00002051
:1039E000FEE73EB5040300F029F900F0CDF84FF4EE
:1039F0004051002288108DE80700831021462020C6
:103A0000FFF78CFBBDE83E4000F0BEB87FB500F08C
:103A100035F800F069F81849A0F56F42183A488067
:103A200028D1032000F084F800248DF80C00C00792
:103A30004FF440750AD100F001F900222B46B7205F
:103A40001146009401940294FFF768FB00F0F6F829
:103A50004FF04070009400222B461146CDE9014002
:103A6000C020FFF75BFB30208DF80C00012103A87C
:103A7000FFF770FB7FBD0000200000203EB5022054
:103A800000F056F80446800706D400F0D7F802206C
:103A900044F0020100F022F9002000904FF48073FE
:103AA00002460146019002903820FFF737FB024999
:103AB000012008703EBD0000200000203EB51546E4
:103AC00004464FF44052901083038DE80D0083109C
:103AD00008220B20FFF722FB03B029462046BDE851
:103AE0003040FFF709BB00001FB510494FF40050EC
:103AF000097829B14FF44062910302910B1404E05C
:103B00004FF48062910302910B14CDE90020002252
:103B100090201146FFF702FB022103A8FFF7ECFA01
:103B2000BDF80C0004B040BA10BD00002000002019
:103B30001FB5002101288DF80C1003D0022803D0F6
:103B4000032803D0052002E0352000E015200D4AAF
:103B5000127822B14FF040720091131403E04FF03D
:103B6000807200911314CDE9011200221146FFF773
:103B7000D5FA012103A8FFF7BFFA9DF80C0004B0A5
:103B800010BD00002000002010B50120FFF7D0FF7D
:103B9000C007FAD110BD00002DE9F05FC1F30B069C
:103BA000DFF894800F0B8946C6F580548246A24206
:103BB000154600D81446404639034FF480528B46D0
:103BC000FFF77CFF002006E0321818F80210FF29EA
:103BD00003D1401C80B2A042F6D3A04223D2384683
:103BE000FFF7FFFE002006E083191AF80020401CB2
:103BF00080B208F80320A042F6D34FF48052594611
:103C00004FEA080000F030F8A54212D0291B4FF00F
:103C100000068DB27F1C4FF480508542A244A1441F
:103C200005D90446C7E7224649465046EAE72C46EE
:103C3000C1E7BDE8F09F00006403002009480EB50D
:103C40000178002000900190029011B14FF4407370
:103C500001E04FF48073002206201146FFF75EFA60
:103C60000EBD0000200000202DE9F04107460E4661
:103C7000C8B21546C0F58074A24200D814464FF46D
:103C8000807822463146384600F00EF8A54209D029
:103C9000291B8DB245452744264401D94446F0E707
:103CA0002C46EEE7BDE8F081FEB516460C4605460B
:103CB000FFF7C4FF4FF44051881082038DE80700DE
:103CC0008310214600220220FFF728FA31462846B9
:103CD000FFF740FABDE8FE40FFF756BF03B50128E5
:103CE00083B004D002280BD003280BD001200E494A
:103CF0000A78002142B14FF040720091131407E09E
:103D00003120F4E71120F2E74FF080720091131494
:103D1000CDE9011200221146FFF700FA012104A8A3
:103D2000FFF718FA05B000BD20000020014A024943
:103D300000F024B8A13D0008340000200907002845
:103D40004FEA116104DB00F1E02080F800147047B5
:103D500000F00F0000F1E02080F8141D704702E031
:103D600008C8121F08C1002AFAD170477047002006
:103D700001E001C1121F002AFBD170472DE9F0417B
:103D800016460F460446002503E03946B047641C3A
:103D90006D1C20780028F8D12846BDE8F08100008D
:103DA00013B5044801224FF6FF736946FEF7AEFBD8
:103DB00000981CBD2402002086B04DA50FF24018CB
:103DC000BFF34F8FBFF36F8F514900200860BFF3DF
:103DD0004F8FBFF36F8F4F4B196841F4003119605B
:103DE000BFF34F8FBFF36F8F4A4970310860BFF345
:103DF0004F8F081F43F6FF7C00684549C0F34E34DF
:103E00001031C0F3C9000CEA4416024646EA827734
:103E10000F60521EFAD2641EF5D2BFF34F8F18689E
:103E200040F480301860BFF34F8FBFF36F8FFCF703
:103E300077FEFFF70DFAFEF729FFFEF7D7FEFFF733
:103E400065F8FFF72FF8FEF7EFFEFEF7BBFFFFF771
:103E50000BF8FFF7B5F9FFF7D9FDFEF70DFD2E4979
:103E600001222E48FEF7D0FA2DA0FFF75FFF28466B
:103E7000FCF733FA82B229482946FEF7A3FB2E4805
:103E8000FEF728F82022002164202CA3FEF794FEE0
:103E90002C4C0020FEF7E4FB012806D002280ED0AF
:103EA000032821D004281BD120E04046FCF715FA56
:103EB00082B221464046FFF76FFE23A00EE0404647
:103EC000FCF70BFA82B221466846FFF7F7FD202285
:103ED0006B4600201146FEF76FFE1FA0FFF726FF7E
:103EE0003220FCF7B3FCD4E71FA0F7E722A0F5E7E8
:103EF0007561727420646D6120746573740D0A00BD
:103F000077323571323536207465737400000000E5
:103F100050EF00E014ED00E01C000020240200201F
:103F20007561727420746573742069732072756E84
:103F30002121210D0A000000800100204637205475
:103F4000455354009CFFFF016B6579302069732055
:103F5000706173730D0A00006B65793120697320FD
:103F6000706173730D0A00006B65793220697320EC
:103F7000706173730D0A0000776B5F757020697351
:103F800020706173730D0A00000000000000000043
:103F900000000000000000003F40000000000000A2
:103FA00000003000400030004000000009000BC05D
:103FB0003D000BC03D00090018C024407FE02240B6
:103FC00031800000180024C01B000D8032400180A9
:103FD00003801C4027401C80074000401000600008
:103FE00000000000000000000000000000001F8032
:103FF000204040200000402020401F8000000000A2
:10400000090006001F8006000900000004000400EB
:104010003F80040004000000001000600000000069
:10402000000000000400040004000400040000007C
:10403000000000400000000000000000002001C05F
:1040400006003800400000001F8020402040204033
:104050001F800000000010403FC000400000000032
:1040600018C0214022402440184000001080204009
:10407000244024401B80000002000D0011003FC0BE
:10408000014000003C802440244024402380000064
:104090001F80244024403440038000003000200072
:1040A00027C03800200000001B802440244024400A
:1040B0001B8000001C0022C0224022401F80000004
:1040C00000000000084000000000000000000000A8
:1040D0000460000000000000000004000A0011005D
:1040E0002080404009000900090009000900000083
:1040F00000004040208011000A0004001800200049
:1041000023402400180000001F8020402740294041
:104110001F400000004007C039000F0001C00040F0
:1041200020403FC0244024401B8000001F802040CE
:10413000204020403080000020403FC020402040F0
:104140001F80000020403FC024402E4030C00000AF
:1041500020403FC024402E00300000000F0010809F
:10416000204022403380020020403FC00400040071
:104170003FC02040204020403FC020402040000061
:104180000060202020203FC02000200020403FC0B1
:1041900024400B0030C0204020403FC02040004061
:1041A000004000C03FC03C0003C03C003FC00000D6
:1041B00020403FC00C4023003FC020001F80204013
:1041C000204020401F80000020403FC024402400A9
:1041D000180000001F802140214020E01FA00000A7
:1041E00020403FC02440260019C0004018C0244091
:1041F0002440224031800000300020403FC0204059
:104200003000000020003F80004000403F80200040
:1042100020003E0001C0070038002000380007C021
:104220003C0007C038000000204039C0060039C0FB
:10423000204000002000384007C038402000000027
:10424000304021C02640384020C00000000000005F
:104250007FE0402040200000000070000C00038040
:10426000004000000000402040207FE000000000EF
:10427000000020004000200000000000001000109E
:1042800000100010001000100000000040000000AE
:1042900000000000000002800540054003C000400F
:1042A00020003FC004400440038000000000038061
:1042B0000440044006400000000003800440244005
:1042C0003FC000400000038005400540034000005F
:1042D000000004401FC0244024402000000002E0F1
:1042E000055005500650042020403FC00440040003
:1042F00003C000400000044027C000400000000050
:1043000000100010041027E00000000020403FC013
:104310000140070004C00440204020403FC000404E
:104320000040000007C0040007C0040003C00000F4
:10433000044007C00440040003C0004000000380A4
:104340000440044003800000041007F004500440BF
:1043500003800000000003800440045007F00010B8
:10436000044007C0024004000400000000000640B2
:104370000540054004C00000000004001F80044008
:1043800000400000040007800040044007C00040D7
:104390000400070004C0018006000400060001C0FC
:1043A000070001C006000000044006C0010006C06E
:1043B000044000000410071004E00180060004001F
:1043C0000000044005C0064004400000000000005A
:1043D00004007BE040200000000000000000FFF02F
:1043E00000000000000040207BE00400000000000E
:1043F000400080004000200020004000000000003D
:1044000000000000000000000000000000000000AC
:1044100000001FCC000C000000000000000008009D
:10442000300060000800300060000000022003FC43
:104430001E20022003FC1E200220000000000E1897
:1044400011043FFF10840C78000000000F0010845E
:104450000F3800C0077818840078000000780F84B7
:1044600010C411240E9800E40084000808006800BD
:1044700070000000000000000000000000000000CC
:10448000000007E01818200440020000000040026D
:104490002004181807E0000000000000024002405D
:1044A00001800FF001800240024000000080008087
:1044B00000800FF800800080008000000001000DE7
:1044C000000E00000000000000000000000000805E
:1044D0000080008000800080008000800000000CD0
:1044E000000C0000000000000000000000000006BA
:1044F000001800600180060018002000000007F08E
:10450000080810041004080807F000000000080460
:1045100008041FFC000400040000000000000E0C52
:1045200010141024104411840E0C000000000C180C
:1045300010041104110412880C700000000000E047
:104540000320042408241FFC0024000000001F98FE
:10455000108411041104108810700000000007F08E
:1045600008881104110418880070000000001C0065
:10457000100010FC13001C001000000000000E389A
:1045800011441084108411440E380000000007000C
:10459000088C10441044088807F000000000000058
:1045A0000000030C030C00000000000000000000ED
:1045B0000001010600000000000000000000008073
:1045C000014002200410080810040000022002200C
:1045D000022002200220022002200000000010041D
:1045E00008080410022001400080000000000E00B6
:1045F0001200100C106C10800F00000003E00C186B
:1046000013E4142417C4082807D000000004003C59
:1046100003C41C40074000E4001C000410041FFCFD
:104620001104110411040E880070000003E00C183E
:1046300010041004100410081C10000010041FFCCB
:10464000100410041004080807F0000010041FFCF8
:104650001104110417C410040818000010041FFCF2
:104660001104110017C010000800000003E00C182E
:104670001004100410441C780040000010041FFCBB
:1046800010840080008010841FFC100400001004BF
:1046900010041FFC100410040000000000030001BF
:1046A000100110011FFE10001000000010041FFC7C
:1046B000110403801464181C1004000010041FFC73
:1046C0001004000400040004000C000010041FFC8F
:1046D0001F0000FC1F001FFC1004000010041FFC42
:1046E0000C04030000E010181FFC100007F008087D
:1046F000100410041004080807F0000010041FFC48
:1047000010841080108010800F00000007F008183F
:1047100010241024101C080A07F2000010041FFCCB
:104720001104110011C011300E0C000400000E1C09
:1047300011041084108410441C380000180010006C
:1047400010041FFC100410001800000010001FF8D7
:1047500010040004000410041FF8100010001E00D4
:1047600011E0001C007013801C0010001FC0103CE2
:1047700000E01F0000E0103C1FC000001004180CF7
:10478000163401C001C01634180C100410001C00AF
:10479000130400FC13041C00100000000804101C8B
:1047A0001064108413041C041018000000000000A2
:1047B00000007FFE40024002400200000000300086
:1047C0000C0003800060001C000300000000400299
:1047D000400240027FFE00000000000000000000D8
:1047E00020004000400040002000000000010001C7
:1047F0000001000100010001000100010000400073
:1048000040002000000000000000000000000098B0
:10481000012401440144014400FC000410001FFC79
:10482000008801040104008800700000000000708E
:1048300000880104010401040088000000000070E9
:1048400000880104010411081FFC0004000000F8A6
:10485000014401440144014400C800000000010477
:1048600001040FFC1104110411001800000000D60F
:1048700001290129012901C90106000010041FFCBA
:10488000008401000100010400FC00040000010498
:10489000190419FC000400040000000000000003DB
:1048A00000010101190119FE0000000010041FFCA5
:1048B0000024004001B4010C0104000000001004B9
:1048C00010041FFC0004000400000000010401FCAF
:1048D0000104010001FC0104010000FC010401FCD1
:1048E000008401000100010400FC0004000000F845
:1048F000010401040104010400F80000010101FFAA
:1049000000850104010400880070000000000070B0
:10491000008801040104010501FF000101040104F4
:1049200001FC00840104010001800000000000CCB3
:104930000124012401240124019800000000010049
:10494000010007F80104010400000000010001F863
:10495000000400040004010801FC000401000180BF
:104960000170000C001001600180010001F0010CD9
:10497000003001C00030010C01F001000000010412
:10498000018C00740170018C01040000010101819F
:104990000171000E00180160018001000000018417
:1049A000010C013401440184010C000000000000EE
:1049B0000000000001003EFC400240020000000038
:1049C00000000000FFFF00000000000000004002A7
:1049D00040023EFC010000000000000000006000FA
:1049E0008000800040004000200020000000000007
:1049F00000000000000000000000000000000000B7
:104A000000000000000000000000000000000000A6
:104A10000000000000000000000000000000000F87
:104A200080380FFE380F80380000000000000000C2
:104A3000000000000000000000000100000600006F
:104A40000C00003800003100000600000C000038A7
:104A500000003000000000000000000061800067DE
:104A6000F807F9800061800061800061800061804A
:104A70000067F807F9800061800000000000000076
:104A8000000001C0E003E0F00630080418081FFF32
:104A9000FE040E080787F00381E00000000000001C
:104AA00001F000060C00040408060C7001F9C000B7
:104AB0000E00003BE000EC18070808040C18000387
:104AC000E00000000001E00007F003F818041C08F3
:104AD00004170807E1D003C0E00023B0003C080041
:104AE000200800001000000000000001000031005C
:104AF000003200001C000000000000000000000068
:104B000000000000000000000000000000000000A5
:104B10000000000000000000000000007F0001FF16
:104B2000C00780F00C0018100004200002000000F4
:104B30000000002000021000040C00180780F001A3
:104B4000FFC0007F00000000000000000000000027
:104B50000000000000000000420000660000660047
:104B6000003C0000180003FFC0001800003C0000DB
:104B70006600006600004200000000000800000817
:104B80000000080000080000080001FFC000080045
:104B900000080000080000080000080000000000F5
:104BA000000100003100003200001C000000000085
:104BB00000000000000000000000000000000000F5
:104BC00000000000080000080000080000080000C5
:104BD00008000008000008000008000008000008A5
:104BE0000000000000000000000000003800003855
:104BF000000038000000000000000000000000007D
:104C0000000000000000000000000000000600009E
:104C10001C000070000180000E0000380000C00081
:104C20000700001C00003000000000000000000031
:104C30007F8001FFE0038070060018040008040074
:104C40000806001803807001FFE0007F800000006C
:104C50000000000000000100080100080100080336
:104C6000FFF807FFF8000008000008000008000037
:104C70000000000000000001C03802C05804009885
:104C8000040118040218040418061C1803F818017B
:104C9000E0F800000000000000000001C0E003C0D8
:104CA000F004000804080804080806180803F418AB
:104CB00001E7F00001E0000000000000000000003B
:104CC0000300000D000011000061000081080301D5
:104CD0000807FFF80FFFF8000108000108000000B6
:104CE0000000000000E007FCD006080806100806D7
:104CF0001008061008061838060FF00607C0000056
:104D000000000000000000003F8001FFE00384304D
:104D100002081804100804100804100807181003EB
:104D20000FF00007C000000000000000000003C0FA
:104D3000000700000600000600F80607F806180045
:104D400006E000070000060000000000000000016F
:104D5000E1E003F7F0063410041808041808040C06
:104D600008040C0806161803F3F001C1E000000067
:104D700000000000F80003FC3003063804020804B9
:104D800002080402080404100308F001FFC0007FB9
:104D90000000000000000000000000000000000013
:104DA000000000007038007038007038000000000B
:104DB00000000000000000000000000000000000F3
:104DC0000000000000000000301A00301C0000004D
:104DD00000000000000000000000000000000000D3
:104DE00000000008000014000022000041000080C4
:104DF00080010040020020040010080008000000AC
:104E0000000000002100002100002100002100001E
:104E100021000021000021000021000021000021CC
:104E2000000000000000000000000800080400105E
:104E300002002001004000808000410000220000AC
:104E4000140000080000000000000003C00004C0BF
:104E500000040000080038080F380808380810005F
:104E60000C300007E00003C000000000000000005C
:104E70003F8000FFE0038070020F1006708804C0BE
:104E800088048308047F8802C09003012000FE404C
:104E90000000080000180001F8003E0801C20007E9
:104EA000020007E20000FE00001FC80001F8000039
:104EB0003800000804000807FFF807FFF804080896
:104EC00004080804080804080806180803F4180170
:104ED000E7F00001E0000000000000003F8001FF5B
:104EE000E0038070020018040008040008040008B1
:104EF0000400100600200780C0000000040008071E
:104F0000FFF807FFF8040008040008040008040084
:104F10001802001003807001FFE0007F8000000095
:104F200004000807FFF807FFF8040808040808044D
:104F30000808040808043E080400080600180100D8
:104F40006000000004000807FFF807FFF8040808E5
:104F5000040800040800040800043E0006000006DF
:104F60000000018000000000000000003F8001FF01
:104F7000E003807006001804000804020804020818
:104F80000203F00783F0000200000200040008079B
:104F9000FFF807FFF80408080008000008000008F0
:104FA0000000080004080807FFF807FFF8040008DD
:104FB00000000000000004000804000804000807C6
:104FC000FFF807FFF80400080400080400080000C8
:104FD00000000000000000000006000007000001C3
:104FE00004000104000104000307FFFE07FFFC04A6
:104FF000000004000004000004000807FFF807FF99
:10500000F8040C08001800003E0004C7800503C81F
:105010000600F8040038040018000008040008071F
:10502000FFF807FFF804000800000800000800006F
:1050300008000008000008000018000060000000E0
:1050400004000807FFF807800807FC00007FC00085
:1050500003F80007C000780007800807FFF807FF83
:10506000F804000804000807FFF807000803C00060
:1050700000E000003800001E000007000001C0042E
:1050800000F007FFF8040000000000007F8001FF2F
:10509000E0038070060018040008040008060018E9
:1050A00003003001FFE0007F8000000004000807DB
:1050B000FFF807FFF80404080404000404000404D3
:1050C00000040400060C0003F80001F000000000DA
:1050D000000000007F8001FFE0038070060088046C
:1050E00000880400C806003C03003E01FFE6007F84
:1050F0008400000004000807FFF807FFF804080810
:10510000040800040C00040F00040BC00610F00398
:10511000F03801E00800000800000001E0F803F0AA
:1051200030063010041808041808040C08040C0891
:105130000206180207F00781E00000000180000667
:10514000000004000004000004000807FFF807FF47
:10515000F8040008040000040000060000018000BC
:1051600004000007FFE007FFF0040018000008003B
:10517000000800000800000800000804001007FFF5
:10518000E004000004000006000007E00007FE0045
:10519000041FE00001F80000380001E0043E0007B1
:1051A000C00006000004000004000007E00007FF44
:1051B000C0041FF80007C007F80007FF80043FF88D
:1051C0000007C004F800070000040000000000040D
:1051D000000806001807C07805F1C8003E00001F4F
:1051E000800463E80780F806001804000800000047
:1051F00004000006000007800007E008047C0800A7
:105200001FF80007F800180804E00807000006006F
:10521000000400000000000100080600380400F847
:105220000403E8040F08047C0805F00807C0080719
:1052300000180400600000000000000000000000F2
:10524000000000000000003FFFFE200002200002DE
:1052500020000220000220000200000000000000E8
:10526000000008000007000000C000003800000631
:10527000000001C000003000000E0000010000002E
:105280000000000000002000022000022000022098
:1052900000022000023FFFFE0000000000000000AE
:1052A00000000000000000000000000000080000F6
:1052B0001000003000002000003000001000000846
:1052C00000000000000000000000010000010000DC
:1052D00001000001000001000001000001000001C8
:1052E00000000100000100000100000100000000BA
:1052F000000000000020000020000010000010004E
:10530000000000000000000000000000000000009D
:105310000000000000F00019F8001B18002208002F
:105320002608002408002410003FF8001FF80000A1
:105330000800001800000004000007FFF80FFFF04D
:10534000001818001008002008002008003018007D
:105350001FF0000FC00000000000000007C0001F89
:10536000F0001830002008002008002008003C0849
:10537000001C1000006000000000000000000000A1
:1053800007C0001FF0003818002008002008002087
:105390000804101007FFF80FFFF0000010000000D5
:1053A0000000000000000007C0001FF000123000E5
:1053B0002218002208002208003208001E10000EE9
:1053C000200000000000000020000020080020084D
:1053D00001FFF803FFF8062008042008042008074E
:1053E000200003000000000000000000000E000E7E
:1053F0006E001FF30031B10020B10020B1003191E7
:10540000001F13002E1E00200E00300000000004BC
:10541000000807FFF80FFFF8001008002000002028
:1054200000002008003FF8001FF8000008000000FE
:1054300000000000000000200800200800200806EE
:105440003FF8063FF80000080000080000080000D0
:105450000000000000000000000000000300000346
:10546000002001002001002003063FFE063FFC0053
:10547000000000000000000000000004000807FF1A
:10548000F80FFFF8000188000300002FC00038F873
:105490000020380020080000080000000000000084
:1054A000000004000804000804000807FFF80FFFCC
:1054B000F8000008000008000008000000000000DC
:1054C000002008003FF8003FF8001008002000000E
:1054D0003FF8003FF8001008002000003FF8003FB0
:1054E000F8000008000000002008003FF8003FF826
:1054F000001008001000002000002008003FF80005
:105500001FF80000080000000000000007C0000FA6
:10551000F000183000300800200800200800300893
:10552000001830000FF00007C0000000000000006D
:105530002001003FFF003FFF001011002009002064
:1055400008002008003038001FF0000FC0000000E5
:105550000000000007C0001FF000381800200800FD
:105560002008002009001011001FFF003FFF00006D
:1055700001000000002008002008002008003FF87B
:10558000003FF80008080010080020080020000074
:105590003000003000000000000000000000000C9F
:1055A00078001E1800330800230800210800218815
:1055B0000021980030F0003860000000000000007A
:1055C000200000200000200000FFF003FFF8002072
:1055D0000800200800200800003000000000000043
:1055E000000000002000003FF0007FF800001800DD
:1055F0000008000008002010003FF8007FF00000C5
:1056000010000000000000002000003000003C00FE
:10561000003F800023F0000078000070002380002D
:105620003C00003000002000002000003C00003F53
:10563000E00023F80000E0002700003E00003FE00B
:105640000021F80001E0003E000020000000000002
:105650002008002008003838003E6800278000033A
:10566000C8002CF80038380020180020080000007E
:10567000000000002000003003003C01003F8300D8
:1056800023EC000070002380003C0000200000207C
:105690000000000000000000000000380800203872
:1056A0000020F80023E8002F88003E08003808009A
:1056B0002018000070000000000000000000000042
:1056C000000000000000000008000014001FF7FCAC
:1056D0003000062000020000000000000000000072
:1056E0000000000000000000000000000000FFFFBC
:1056F000FF000000000000000000000000000000AB
:105700000000000000002000023000061FF7FC002F
:10571000140000080000000000000000000000006D
:1057200000000000000000180000600000400000C1
:1057300040000020000010000008000004000004E9
:1057400000000C000010000000000000000000003D
:105750000000000000000000000000000000000049
:105760000000000000000000000000000000000039
:105770000000000000000000000000000000000029
:105780000000000000000000000000000000000019
:105790000000000000000000000000000000000009
:1057A00000000000000000000000000000000000F9
:1057B00000000000000000000000000000000000E9
:1057C00000000000000000000000000000000000D9
:1057D00000000000000000000000000000000000C9
:1057E00007F000C007FFE1E007F001E0000000C0A3
:1057F00000000000000000000000000000000000A9
:105800000000000000000000000000000000000098
:105810000000000000000000000000000000000088
:105820000000000000000000000000000000000078
:105830000000000000000000000000000000000068
:105840000000000000000000000000000000000058
:105850000020000001C00000078000001F000000C1
:105860001E0000001C20000001C000000780000096
:105870001F0000001E0000001C00000000000000CF
:105880000000000000000000000000000000000018
:105890000000000000000000000000000000000008
:1058A00000000000000000000000000000000000F8
:1058B00000000000000000000000000000000000E8
:1058C00000000000000000000000000000180C00B4
:1058D00000180C0000180FE0001FFC0003F80C007B
:1058E00000180C0000180C0000180C0000180C0028
:1058F00000180FE0001FFC0003F80C0000180C005B
:1059000000180C0000000000000000000000000073
:105910000000000000000000000000000000000087
:105920000000000000000000000000000000000077
:105930000000000000000000000000000000000067
:105940000000000000000000000000000000000057
:1059500000000780007807C000FC0640010E002010
:1059600003070020020380200FFFFFFC0201C0207C
:105970000200E0600130704001F03F8000F01F0045
:105980000000000000000000000000000000000017
:105990000000000000000000000000000000000007
:1059A00000000000000000000000000000000000F7
:1059B00000000000000000000000000000000000E7
:1059C000000000000000000000FE000001FF0000D9
:1059D0000301800002008060030181C001FF070015
:1059E00000FE18000000E0000003BF00000CFFC034
:1059F0000071806001C10020030180600000FFC0D1
:105A000000003F0000000000000000000000000057
:105A10000000000000000000000000000000000086
:105A20000000000000000000000000000000000076
:105A30000000000000000000000000000000000066
:105A4000000000000000000000001F0000007FC0F8
:105A500000FCC0C001FF80600303E0200202782048
:105A600002061E2003FC074001F00380000103C072
:105A700000011C600001E020000100200001004046
:105A80000000018000000000000000000000000095
:105A90000000000000000000000000000000000006
:105AA00000000000000000000000000000000000F6
:105AB00000000000000000000000000000000000E6
:105AC00000000000000000000000000000200000B6
:105AD0001C6000001C4000001F8000000F00000040
